{"abi":[{"type":"constructor","inputs":[],"stateMutability":"nonpayable"},{"type":"function","name":"cancelProject","inputs":[{"name":"projectId","type":"uint256","internalType":"uint256"}],"outputs":[],"stateMutability":"nonpayable"},{"type":"function","name":"claimAllRefund","inputs":[],"outputs":[],"stateMutability":"nonpayable"},{"type":"function","name":"claimCreator","inputs":[],"outputs":[],"stateMutability":"nonpayable"},{"type":"function","name":"claimOwner","inputs":[],"outputs":[],"stateMutability":"nonpayable"},{"type":"function","name":"claimRefund","inputs":[{"name":"projectId","type":"uint256","internalType":"uint256"}],"outputs":[],"stateMutability":"nonpayable"},{"type":"function","name":"claimableCreator","inputs":[{"name":"","type":"address","internalType":"address"}],"outputs":[{"name":"","type":"uint256","internalType":"uint256"}],"stateMutability":"view"},{"type":"function","name":"claimableOwner","inputs":[{"name":"","type":"address","internalType":"address"}],"outputs":[{"name":"","type":"uint256","internalType":"uint256"}],"stateMutability":"view"},{"type":"function","name":"createProject","inputs":[{"name":"name","type":"string","internalType":"string"},{"name":"description","type":"string","internalType":"string"},{"name":"softCapWei","type":"uint256","internalType":"uint256"},{"name":"category","type":"uint8","internalType":"enum MilestoneFunding.Category"},{"name":"milestoneDescriptions","type":"string[3]","internalType":"string[3]"}],"outputs":[],"stateMutability":"payable"},{"type":"function","name":"fund","inputs":[{"name":"projectId","type":"uint256","internalType":"uint256"}],"outputs":[],"stateMutability":"payable"},{"type":"function","name":"getAllClaimableRefund","inputs":[],"outputs":[{"name":"","type":"uint256","internalType":"uint256"}],"stateMutability":"view"},{"type":"function","name":"getAllInvestments","inputs":[{"name":"projectId","type":"uint256","internalType":"uint256"}],"outputs":[{"name":"","type":"address[]","internalType":"address[]"},{"name":"","type":"uint256[]","internalType":"uint256[]"}],"stateMutability":"view"},{"type":"function","name":"getClaimableCreator","inputs":[],"outputs":[{"name":"","type":"uint256","internalType":"uint256"}],"stateMutability":"view"},{"type":"function","name":"getClaimableOwner","inputs":[],"outputs":[{"name":"","type":"uint256","internalType":"uint256"}],"stateMutability":"view"},{"type":"function","name":"getMilestoneDescriptions","inputs":[{"name":"projectId","type":"uint256","internalType":"uint256"}],"outputs":[{"name":"","type":"string[3]","internalType":"string[3]"}],"stateMutability":"view"},{"type":"function","name":"getMyVotes","inputs":[{"name":"projectId","type":"uint256","internalType":"uint256"},{"name":"user","type":"address","internalType":"address"}],"outputs":[{"name":"","type":"uint8[3]","internalType":"enum MilestoneFunding.VoteOption[3]"}],"stateMutability":"view"},{"type":"function","name":"getProjectCore","inputs":[{"name":"projectId","type":"uint256","internalType":"uint256"}],"outputs":[{"name":"creator","type":"address","internalType":"address"},{"name":"category","type":"uint8","internalType":"enum MilestoneFunding.Category"},{"name":"softCapWei","type":"uint256","internalType":"uint256"},{"name":"totalFunded","type":"uint256","internalType":"uint256"},{"name":"bond","type":"uint256","internalType":"uint256"},{"name":"state","type":"uint8","internalType":"enum MilestoneFunding.ProjectState"}],"stateMutability":"view"},{"type":"function","name":"getProjectMeta","inputs":[{"name":"projectId","type":"uint256","internalType":"uint256"}],"outputs":[{"name":"name","type":"string","internalType":"string"},{"name":"description","type":"string","internalType":"string"},{"name":"milestoneDescriptions","type":"string[3]","internalType":"string[3]"},{"name":"milestoneHashes","type":"bytes[3]","internalType":"bytes[3]"}],"stateMutability":"view"},{"type":"function","name":"getProjectState","inputs":[{"name":"projectId","type":"uint256","internalType":"uint256"}],"outputs":[{"name":"","type":"string","internalType":"string"}],"stateMutability":"view"},{"type":"function","name":"getProjectVoting","inputs":[{"name":"projectId","type":"uint256","internalType":"uint256"}],"outputs":[{"name":"snapshotTotalFund","type":"uint256","internalType":"uint256"},{"name":"totalWeight","type":"uint256","internalType":"uint256"},{"name":"yesWeight","type":"uint256[3]","internalType":"uint256[3]"},{"name":"noWeight","type":"uint256[3]","internalType":"uint256[3]"},{"name":"finalized","type":"bool[3]","internalType":"bool[3]"}],"stateMutability":"view"},{"type":"function","name":"invested","inputs":[{"name":"","type":"uint256","internalType":"uint256"},{"name":"","type":"address","internalType":"address"}],"outputs":[{"name":"","type":"uint256","internalType":"uint256"}],"stateMutability":"view"},{"type":"function","name":"investors","inputs":[{"name":"","type":"uint256","internalType":"uint256"},{"name":"","type":"uint256","internalType":"uint256"}],"outputs":[{"name":"","type":"address","internalType":"address"}],"stateMutability":"view"},{"type":"function","name":"isInvestor","inputs":[{"name":"","type":"uint256","internalType":"uint256"},{"name":"","type":"address","internalType":"address"}],"outputs":[{"name":"","type":"bool","internalType":"bool"}],"stateMutability":"view"},{"type":"function","name":"owner","inputs":[],"outputs":[{"name":"","type":"address","internalType":"address"}],"stateMutability":"view"},{"type":"function","name":"projectCore","inputs":[{"name":"","type":"uint256","internalType":"uint256"}],"outputs":[{"name":"creator","type":"address","internalType":"address"},{"name":"category","type":"uint8","internalType":"enum MilestoneFunding.Category"},{"name":"softCapWei","type":"uint256","internalType":"uint256"},{"name":"totalFunded","type":"uint256","internalType":"uint256"},{"name":"bond","type":"uint256","internalType":"uint256"},{"name":"state","type":"uint8","internalType":"enum MilestoneFunding.ProjectState"}],"stateMutability":"view"},{"type":"function","name":"projectCount","inputs":[],"outputs":[{"name":"","type":"uint256","internalType":"uint256"}],"stateMutability":"view"},{"type":"function","name":"projectMeta","inputs":[{"name":"","type":"uint256","internalType":"uint256"}],"outputs":[{"name":"name","type":"string","internalType":"string"},{"name":"description","type":"string","internalType":"string"}],"stateMutability":"view"},{"type":"function","name":"projectVoting","inputs":[{"name":"","type":"uint256","internalType":"uint256"}],"outputs":[{"name":"snapshotTotalFund","type":"uint256","internalType":"uint256"},{"name":"snapshotTotalWeight","type":"uint256","internalType":"uint256"}],"stateMutability":"view"},{"type":"function","name":"refundClaimed","inputs":[{"name":"","type":"uint256","internalType":"uint256"},{"name":"","type":"address","internalType":"address"}],"outputs":[{"name":"","type":"bool","internalType":"bool"}],"stateMutability":"view"},{"type":"function","name":"refundPool","inputs":[{"name":"","type":"uint256","internalType":"uint256"}],"outputs":[{"name":"","type":"uint256","internalType":"uint256"}],"stateMutability":"view"},{"type":"function","name":"renounceOwnership","inputs":[],"outputs":[],"stateMutability":"nonpayable"},{"type":"function","name":"snapshotWeight","inputs":[{"name":"","type":"uint256","internalType":"uint256"},{"name":"","type":"address","internalType":"address"}],"outputs":[{"name":"","type":"uint256","internalType":"uint256"}],"stateMutability":"view"},{"type":"function","name":"submitMilestone","inputs":[{"name":"projectId","type":"uint256","internalType":"uint256"},{"name":"cid","type":"bytes","internalType":"bytes"}],"outputs":[],"stateMutability":"nonpayable"},{"type":"function","name":"transferOwnership","inputs":[{"name":"newOwner","type":"address","internalType":"address"}],"outputs":[],"stateMutability":"nonpayable"},{"type":"function","name":"vote","inputs":[{"name":"projectId","type":"uint256","internalType":"uint256"},{"name":"option","type":"uint8","internalType":"enum MilestoneFunding.VoteOption"}],"outputs":[],"stateMutability":"nonpayable"},{"type":"function","name":"votes","inputs":[{"name":"","type":"uint256","internalType":"uint256"},{"name":"","type":"address","internalType":"address"},{"name":"","type":"uint256","internalType":"uint256"}],"outputs":[{"name":"","type":"uint8","internalType":"enum MilestoneFunding.VoteOption"}],"stateMutability":"view"},{"type":"event","name":"Claim","inputs":[{"name":"user","type":"address","indexed":true,"internalType":"address"},{"name":"amount","type":"uint256","indexed":false,"internalType":"uint256"},{"name":"role","type":"string","indexed":false,"internalType":"string"}],"anonymous":false},{"type":"event","name":"Funded","inputs":[{"name":"projectId","type":"uint256","indexed":true,"internalType":"uint256"},{"name":"investor","type":"address","indexed":true,"internalType":"address"},{"name":"amount","type":"uint256","indexed":false,"internalType":"uint256"}],"anonymous":false},{"type":"event","name":"MilestoneSubmitted","inputs":[{"name":"projectId","type":"uint256","indexed":true,"internalType":"uint256"},{"name":"milestone","type":"uint256","indexed":false,"internalType":"uint256"},{"name":"cid","type":"bytes","indexed":false,"internalType":"bytes"}],"anonymous":false},{"type":"event","name":"OwnershipTransferred","inputs":[{"name":"previousOwner","type":"address","indexed":true,"internalType":"address"},{"name":"newOwner","type":"address","indexed":true,"internalType":"address"}],"anonymous":false},{"type":"event","name":"ProjectCancelled","inputs":[{"name":"projectId","type":"uint256","indexed":true,"internalType":"uint256"}],"anonymous":false},{"type":"event","name":"ProjectCreated","inputs":[{"name":"projectId","type":"uint256","indexed":true,"internalType":"uint256"},{"name":"name","type":"string","indexed":false,"internalType":"string"},{"name":"softCapWei","type":"uint256","indexed":false,"internalType":"uint256"},{"name":"creator","type":"address","indexed":true,"internalType":"address"}],"anonymous":false},{"type":"event","name":"VoteFinalized","inputs":[{"name":"projectId","type":"uint256","indexed":true,"internalType":"uint256"},{"name":"milestone","type":"uint256","indexed":false,"internalType":"uint256"},{"name":"passed","type":"bool","indexed":false,"internalType":"bool"}],"anonymous":false},{"type":"event","name":"Voted","inputs":[{"name":"projectId","type":"uint256","indexed":true,"internalType":"uint256"},{"name":"voter","type":"address","indexed":true,"internalType":"address"},{"name":"milestone","type":"uint256","indexed":false,"internalType":"uint256"},{"name":"vote","type":"uint8","indexed":false,"internalType":"enum MilestoneFunding.VoteOption"}],"anonymous":false},{"type":"error","name":"OwnableInvalidOwner","inputs":[{"name":"owner","type":"address","internalType":"address"}]},{"type":"error","name":"OwnableUnauthorizedAccount","inputs":[{"name":"account","type":"address","internalType":"address"}]},{"type":"error","name":"ReentrancyGuardReentrantCall","inputs":[]}],"bytecode":{"object":"0x6080806040523460955733156082575f8054336001600160a01b0319821681178355916001600160a01b03909116907f8be0079c531659141344cd1fd0a4f28419497f9722a3daafe3b4186f6b6457e09080a360017f9b779b17422d0df92223018b32b4d1fa46e071723d6817e2486d003becc55f0055613438908161009a8239f35b631e4fbdf760e01b5f525f60045260245ffd5b5f80fdfe60806040526004361015610011575f80fd5b5f3560e01c8063022fbc65146125b057806304f0296914612578578063080de15c146125345780630e8a01bc1461250a578063109ba91c14612410578063223ecf0d14611af2578063232adc6514611a5457806324941147146118f6578063275fd95b146118cf5780632ed949b41461189c57806336fbad261461187f5780633bd1adec146117a057806350f5261b14610dc357806358c609dc146117505780635b7baf6414611524578063715018a6146114cd578063744ddcaa146114a657806378310bca146114385780637d8022c0146113ef5780638da5cb5b146113c85780638e98435d1461125b578063943e821614610f7e578063a325af9214610f3a578063a5bb2c0f14610e1d578063a948d05f14610dc3578063a989d41214610d47578063af9a81ff14610b77578063b4d6378114610b3f578063ca1d209d146107c7578063df4421221461077e578063e0155714146104ef578063e1769b1f1461034e578063e48bfef21461028e578063f24f5c4c146102235763f2fde38b1461019a575f80fd5b3461021f57602036600319011261021f576101b36128a6565b6101bb612dbf565b6001600160a01b0316801561020c575f80546001600160a01b03198116831782556001600160a01b0316907f8be0079c531659141344cd1fd0a4f28419497f9722a3daafe3b4186f6b6457e09080a3005b631e4fbdf760e01b5f525f60045260245ffd5b5f80fd5b3461021f57602036600319011261021f5760405160606102438183612ab0565b5f5b818110610280576004355f52600360205261027c610268600260405f2001612d2d565b60405191829160208352602083019061299e565b0390f35b808260209285015201610245565b3461021f57604036600319011261021f576102a76128bc565b606090816040516102b88282612ab0565b3690376004355f52600760205260405f209060018060a01b03165f5260205260405f2061031360405191546102f08360ff831661296d565b6103036020840160ff8360081c1661296d565b60ff604084019160101c1661296d565b61031d8282612ab0565b604051905f825b6003821061033157505050f35b60208082610342600194875161296d565b01930191019091610324565b3461021f57602036600319011261021f57600435805f52600860205260405f209081549061037b82612d70565b926103896040519485612ab0565b82845261039583612d70565b602085019290601f19013684375f5b84811061047b57505060405192602084828152019081925f5260205f20905f5b81811061045c57505050836103da910384612ab0565b604051938493604085019060408652518091526060850192905f5b81811061043a575050506020908483038286015251918281520191905f5b818110610421575050500390f35b8251845285945060209384019390920191600101610413565b82516001600160a01b03168552879650602094850194909201916001016103f5565b82546001600160a01b03168452602090930192600192830192016103c4565b815f969394959652600560205260405f20610496828661293f565b905460039190911b1c6001600160a01b03165f908152602091909152604090205483519091908110156104db5760019160208260051b860101520194939291946103a4565b634e487b7160e01b5f52603260045260245ffd5b3461021f57602036600319011261021f576004355f52600260205260405f206040519061018082018281106001600160401b0382111761076a576040526004604091825161053d8482612ab0565b600981526810d85b98d95b1b195960ba1b6020820152845282516105618482612ab0565b600781526646756e64696e6760c81b6020820152602085015282516105868482612ab0565b600e81526d4275696c64696e6753746167653160901b60208201528385015282516105b18482612ab0565b600c81526b566f74696e67526f756e643160a01b6020820152606085015282516105db8482612ab0565b600d81526c4661696c757265526f756e643160981b6020820152608085015282516106068482612ab0565b600e81526d213ab4b63234b733a9ba30b3b29960911b602082015260a085015282516106328482612ab0565b600c81526b2b37ba34b733a937bab7321960a11b602082015260c0850152825161065c8482612ab0565b600d81526c2330b4b63ab932a937bab7321960991b602082015260e085015282516106878482612ab0565b600e81526d4275696c64696e6753746167653360901b602082015261010085015282516106b48482612ab0565b600c81526b566f74696e67526f756e643360a01b602082015261012085015282516106df8482612ab0565b600d81526c4661696c757265526f756e643360981b6020820152610140850152825161070b8482612ab0565b600981526810dbdb5c1b195d195960ba1b6020820152610160850152015491600c60ff8416101561075657611fe061027c9360051b160151905191829160208352602083019061297a565b634e487b7160e01b5f52602160045260245ffd5b634e487b7160e01b5f52604160045260245ffd5b3461021f57604036600319011261021f576107976128bc565b6004355f52600660205260405f209060018060a01b03165f52602052602060ff60405f2054166040519015158152f35b602036600319011261021f576004356107de612d87565b805f52600260205260405f20906004820160ff815416600c81101561075657600103610b0c57655af3107a40003410610ac757600183019261082860028554920191825490612d20565b938415610a9157345f95803411610a7c575b505f85815260066020908152604080832033845290915290205460ff1615610a0c575b845f52600560205260405f2060018060a01b0333165f5260205260405f20610886828254612d13565b9055610893818454612d13565b809355604051908152847f38c48552690c96ec2872092ac1db6c19fb59f5a8c5b49bbf41ed4886d0ca692660203393a3541115610937575b5050806108e6575b60015f805160206133e383398151915255005b5f80808093335af16108f6612ce4565b501561090257806108d3565b60405162461bcd60e51b815260206004820152600d60248201526c1499599d5b990819985a5b1959609a1b6044820152606490fd5b9091825f52600260205260405f2090835f52600460205260405f209060025f93015482555f925b855f52600860205260405f20548410156109f2576109ea600191875f52600860205261098d8660405f2061293f565b848060a01b0391549060031b1c1690885f52600560205260405f20848060a01b0383165f526020526109c560405f2054875490613083565b91895f52600960205260405f2090858060a01b03165f526020528160405f2055612d13565b93019261095e565b9250935060010155600260ff1982541617905581806108cb565b5f8581526006602090815260408083203384528252808320805460ff191660011790558783526008909152902080546801000000000000000081101561076a57610a5b9160018201815561293f565b81546001600160a01b0360039290921b91821b19163390911b17905561085d565b9550610a8a90508534612d20565b948661083a565b60405162461bcd60e51b815260206004820152600e60248201526d105b1c9958591e48199d5b99195960921b6044820152606490fd5b60405162461bcd60e51b815260206004820152601b60248201527f56616c7565206d757374206265203e3d20302e303030312045544800000000006044820152606490fd5b60405162461bcd60e51b815260206004820152600b60248201526a4e6f742066756e64696e6760a81b6044820152606490fd5b3461021f57602036600319011261021f576001600160a01b03610b606128a6565b165f52600b602052602060405f2054604051908152f35b3461021f575f36600319011261021f57610b8f612d87565b6001335f5b6001548311610cd8575f8381526002602052604090206004810154600c60ff909116908110159081610756578015918215610ccb575b8215610cba575b8215610ca9575b505015610c9e57835f52600d60205260405f20835f5260205260ff60405f205416610c9e57835f52600560205260405f20835f5260205260405f20548015610c925791610c47610c86926002610c3e610c8c96895f52600c60205260405f205490612c92565b91015490612bbf565b90855f52600d60205260405f20855f5260205260405f20600160ff19825416179055855f52600560205260405f20855f526020525f6040812055612d13565b92612c1f565b91610b94565b505091610c8c90612c1f565b5091610c8c90612c1f565b90915061075657600a148580610bd8565b809250610756576007811491610bd1565b506004811491505f610bca565b610ce3811515612ca5565b5f80808084335af1610cf3612ce4565b501561021f5760405190815260406020820152600b60408201526a1253959154d513d490531360aa1b60608201525f805160206133c383398151915260803392a260015f805160206133e383398151915255005b3461021f57602036600319011261021f576004355f526003602052610db560405f2061027c6001610da160405193610d8a85610d838184612a14565b0386612ab0565b610d9a6040518094819301612a14565b0382612ab0565b60405193849360408552604085019061297a565b90838203602085015261297a565b3461021f57602036600319011261021f576004355f52600260205260405f20805461027c60018301549260028101549060ff600460038301549201541691604051958560ff889760a01c169060018060a01b0316876128f9565b3461021f575f36600319011261021f576001805433915f915b80821115610e4957602083604051908152f35b9091825f52600260205260405f2060ff600482015416600c8110159081610756578015159182610f2c575b82610f1a575b82610f08575b5050610efd57835f52600d60205260405f20855f5260205260ff60405f205416610efd57835f52600560205260405f20855f5260205260405f20548015610ef15791610ee5610c86926002610c3e610eeb96895f52600c60205260405f205490612c92565b90612d13565b90610e36565b505091610eeb90612c1f565b5091610eeb90612c1f565b90915061075657600a14158680610e80565b80925061075657600781141591610e7a565b50600481141591505f610e74565b3461021f57604036600319011261021f57610f536128bc565b6004355f52600960205260405f209060018060a01b03165f52602052602060405f2054604051908152f35b3461021f57604036600319011261021f57602435600435600382101561021f575f90600183149283801561124e575b15611213575f82815260066020908152604080832033845290915290205460ff16156111df57815f52600460205260405f2093610fe983612de5565b9360ff610ff98660088901612954565b90549060031b1c166111ae57835f52600760205260405f2060018060a01b0333165f5260205260ff61102e8660405f20612954565b90549060031b1c1660038110156107565761118157835f52600760205260405f2060018060a01b0333165f5260205261106a8560405f20612954565b9091610756578361108b9183549060ff809160031b9316831b921b19161790565b90555f83815260096020908152604080832033845290915290205480156111495761112f95859215611131576110ca6110ef9360026110d99301612b0b565b91909283548360031b1c612d13565b82545f1960039390931b92831b1916911b179055565b61110360405191848352602083019061296d565b817ffe2287fa52fad81788ac4645bf0bae4badc927d35f68ab09bc950ca8e0f0168960403393a3612eb3565b005b6110ca6111449360056110d99301612b0b565b6110ef565b60405162461bcd60e51b815260206004820152601060248201526f139bc81d9bdd1a5b99c81dd95a59da1d60821b6044820152606490fd5b60405162461bcd60e51b8152602060048201526005602482015264159bdd195960da1b6044820152606490fd5b60405162461bcd60e51b8152602060048201526009602482015268119a5b985b1a5e995960ba1b6044820152606490fd5b60405162461bcd60e51b815260206004820152600c60248201526b2737ba1034b73b32b9ba37b960a11b6044820152606490fd5b60405162461bcd60e51b815260206004820152601360248201527224b73b30b634b2103b37ba329037b83a34b7b760691b6044820152606490fd5b505f925060028114610fad565b3461021f57602036600319011261021f57606060405161127b8282612ab0565b5f5b8281106113ba57826040516112928282612ab0565b5f5b8281106113ac57826004355f52600360205260405f20604051916112c3836112bc8185612a14565b0384612ab0565b6040516112d781610d9a8160018701612a14565b6112e360028401612d2d565b90604051936112f185612a95565b6005015f855b600382106113875761132188888861133d8961132f8a60405197889760808952608089019061297a565b90878203602089015261297a565b90858203604087015261299e565b8381038285015290810191905f815b6003821061135c57505050500390f35b9193600191939550602061137782878394038652885161297a565b960192019201859493919261134c565b60016020819260405161139e81610d9a818a612a14565b8152019301910190916112f7565b808360209284015201611294565b80836020928401520161127d565b3461021f575f36600319011261021f575f546040516001600160a01b039091168152602090f35b3461021f57604036600319011261021f576114086128bc565b6004355f52600d60205260405f209060018060a01b03165f52602052602060ff60405f2054166040519015158152f35b3461021f57606036600319011261021f576114516128bc565b6004355f9081526007602090815260408083206001600160a01b03909416835292905220604435600381101561021f5761148f60ff91602093612954565b90549060031b1c166114a4604051809261296d565bf35b3461021f575f36600319011261021f57335f52600a602052602060405f2054604051908152f35b3461021f575f36600319011261021f576114e5612dbf565b5f80546001600160a01b0319811682556001600160a01b03167f8be0079c531659141344cd1fd0a4f28419497f9722a3daafe3b4186f6b6457e08280a3005b3461021f57602036600319011261021f57600435611540612d87565b805f52600260205260405f2060ff600482015416600c8110159081610756578015918215611743575b8215611732575b8215611721575b5050156116e5575f828152600d6020908152604080832033845290915290205460ff166116ae575f828152600560209081526040808320338452909152902054908115611679576002610c3e6115da93855f52600c60205260405f205490612c92565b5f828152600d6020908152604080832033808552908352818420805460ff19166001179055948352600582528083208584529091528120819055909181908190819085905af1611628612ce4565b501561021f5760405190815260406020820152600860408201526724a72b22a9aa27a960c11b60608201525f805160206133c383398151915260803392a260015f805160206133e383398151915255005b60405162461bcd60e51b815260206004820152600d60248201526c139bc81a5b9d995cdd1b595b9d609a1b6044820152606490fd5b60405162461bcd60e51b815260206004820152600f60248201526e105b1c9958591e4818db185a5b5959608a1b6044820152606490fd5b60405162461bcd60e51b8152602060048201526014602482015273526566756e64206e6f7420617661696c61626c6560601b6044820152606490fd5b90915061075657600a148380611577565b809250610756576007811491611570565b506004811491505f611569565b3461021f57604036600319011261021f576024356004355f52600860205260405f20805482101561021f576020916117879161293f565b905460405160039290921b1c6001600160a01b03168152f35b3461021f575f36600319011261021f576117b8612d87565b5f546001600160a01b0316330361184d57335f52600b60205260405f20546117e1811515612ca5565b335f52600b6020525f60408120555f80808084335af16117ff612ce4565b501561021f5760405190815260406020820152600560408201526427aba722a960d91b60608201525f805160206133c383398151915260803392a260015f805160206133e383398151915255005b60405162461bcd60e51b815260206004820152600a60248201526927b7363c9037bbb732b960b11b6044820152606490fd5b3461021f575f36600319011261021f576020600154604051908152f35b3461021f57602036600319011261021f576004355f5260046020526040805f206001815491015482519182526020820152f35b3461021f575f36600319011261021f57335f52600b602052602060405f2054604051908152f35b3461021f57602036600319011261021f57600435611912612d87565b805f52600260205260405f2061193260018060a01b038254163314612ad1565b600481019160ff835416600c81101561075657600103611a0f575f9260ff19815416905560036002830154920191825490801585146119ca575083546001600160a01b03168452600b602052604084208054909161198f91612d13565b90555b7fe3805ed669490875ae87c5c8b1ad6ecca0e5e67305a833926d0d4317c4822fc08380a25560015f805160206133e383398151915255005b610ee5826119fd9360011c9060018060a01b038854168852600b602052604088206119f6838254612d13565b9055612d20565b818452600c6020526040842055611992565b60405162461bcd60e51b815260206004820152601a60248201527f43616e206f6e6c792063616e63656c20696e2046756e64696e670000000000006044820152606490fd5b3461021f575f36600319011261021f57611a6c612d87565b335f52600a60205260405f2054611a84811515612ca5565b335f52600a6020525f60408120555f80808084335af1611aa2612ce4565b501561021f5760405190815260406020820152600760408201526621a922a0aa27a960c91b60608201525f805160206133c383398151915260803392a260015f805160206133e383398151915255005b60a036600319011261021f576004356001600160401b03811161021f57611b1d903690600401612879565b6024356001600160401b03811161021f57611b3c903690600401612879565b9160443560643592600884101561021f576084356001600160401b03811161021f5760648101906004810136831161021f57655af3107a400085106123cb57600a85049687340361239957881561235d576104008911612321575f5b6003811061227f57506007811161224757611bb4600154612c1f565b978860015560405160c081018181106001600160401b0382111761076a57604052338152602081019283526040810191888352606082015f81526080830191825260a0830194600186528c5f52600260205260405f209360018060a01b039051166bffffffffffffffffffffffff60a01b855416178455519360088510156107565760049484549060ff60a01b9060a01b169060ff60a01b1916178455516001840155516002830155516003820155019051600c8110156107565760ff8019835416911617905560405192611c8884612a95565b602098604051611c988b82612ab0565b5f81528552604051611caa8b82612ab0565b5f81528a860152604051611cbe8b82612ab0565b5f815260408601526040519560808701918783106001600160401b0384111761076a57611cfd92604052611cf48d8b3691612c5c565b88523691612c5c565b9189860192835260405193611d13606086612ab0565b845b83831061220857505050506040840191825260608401928352865f526003885260405f2093518051906001600160401b03821161076a57611d6082611d5a88546129dc565b88612b1a565b8990601f83116001146121a557611d8e92915f9183612137575b50508160011b915f199060031b1c19161790565b84555b51805160018501916001600160401b03821161076a57611dbb82611db585546129dc565b85612b1a565b8990601f831160011461214257611de892915f91836121375750508160011b915f199060031b1c19161790565b90555b51600283015f915b6003831061205d575050506005905191015f915b60038310611f7d5750505060405194611e1f86612a95565b5f86525f858701525f6040870152604051611e3981612a95565b5f81525f868201525f604082015260405190611e5482612a95565b5f82525f878301525f60408301526040519760a089018981106001600160401b0382111761076a576040525f89528789015f815260408a0191825260608a0192835260808a01938452875f526004895260405f2099518a555160018a0155515f5b60038110611f68575050515f5b60038110611f5357505051955f965f5b60038110611f27575050907fbb4637bbc1f7f92783410fb90807fcced52c1562da987ac649876f09a750a5e39495966008611f1b93015560405193604085526040850191612b69565b948201528033940390a3005b909787611f4a600192848c511515919060ff809160031b9316831b921b19161790565b99019101611ed2565b81518982016005015590870190600101611ec2565b81518a82016002015590880190600101611eb5565b80519081516001600160401b03811161076a578892611fa682611fa087546129dc565b87612b1a565b8390601f8311600114611ff3578260019593869593611fd9935f92611fe85750508160011b915f199060031b1c19161790565b85555b01920192019190611e07565b015190508e80611d7a565b93929190601f19821690865f52845f20915f5b81811061204557509183916001978897969588951061202d575b505050811b018555611fdc565b01515f1960f88460031b161c191690558d8080612020565b8783015184558d966001909401939283019201612006565b80519081516001600160401b03811161076a578a9261208082611fa087546129dc565b8390601f83116001146120cd5782600195938695936120b3935f926120c25750508160011b915f199060031b1c19161790565b85555b01920192019190611df3565b015190505f80611d7a565b93929190601f19821690865f52845f20915f5b81811061211f575091839160019788979695889510612107575b505050811b0185556120b6565b01515f1960f88460031b161c191690558f80806120fa565b8783015184558f9660019094019392830192016120e0565b015190508c80611d7a565b90601f19831691845f528b5f20925f5b8d82821061218f575050908460019594939210612177575b505050811b019055611deb565b01515f1960f88460031b161c191690558b808061216a565b6001859682939686015181550195019301612152565b90601f19831691875f528b5f20925f5b8d8282106121f25750509084600195949392106121da575b505050811b018455611d91565b01515f1960f88460031b161c191690558b80806121cd565b60018596829396860151815501950193016121b5565b82356001600160401b03811161021f5782013660238201121561021f578c9161223c83923690602460048201359101612c5c565b815201920191611d15565b60405162461bcd60e51b815260206004820152601060248201526f496e76616c69642063617465676f727960801b6044820152606490fd5b6122898184612bdd565b9050156122dc5761010061229d8285612bdd565b9050116122ac57600101611b98565b60405162461bcd60e51b8152602060048201526008602482015267546f6f206c6f6e6760c01b6044820152606490fd5b60405162461bcd60e51b815260206004820152601b60248201527f456d707479206d696c6573746f6e65206465736372697074696f6e00000000006044820152606490fd5b60405162461bcd60e51b81526020600482015260146024820152734465736372697074696f6e20746f6f206c6f6e6760601b6044820152606490fd5b60405162461bcd60e51b815260206004820152601460248201527311195cd8dc9a5c1d1a5bdb881c995c5d5a5c995960621b6044820152606490fd5b60405162461bcd60e51b815260206004820152600a602482015269426f6e64203d2031302560b01b6044820152606490fd5b60405162461bcd60e51b815260206004820152601e60248201527f536f667420636170206d757374206265203e3d20302e303030312045544800006044820152606490fd5b3461021f57602036600319011261021f576060806040516124318282612ab0565b369037806040516124428282612ab0565b369037806040516124538282612ab0565b3690376004355f52600460205260405f206124dd8154926124d3600184015461247e60028601612b89565b906124be61248e60058801612b89565b9460ff600860405199015481811615158a52818160081c16151560208b015260101c161515604089015287612ab0565b604051968752602087015260408601906128d2565b60a08401906128d2565b5f61010083015b600382106124f25761016084f35b602080600192855115158152019301910190916124e4565b3461021f57602036600319011261021f576004355f52600c602052602060405f2054604051908152f35b3461021f57604036600319011261021f5761254d6128bc565b6004355f52600560205260405f209060018060a01b03165f52602052602060405f2054604051908152f35b3461021f57602036600319011261021f576001600160a01b036125996128a6565b165f52600a602052602060405f2054604051908152f35b3461021f57604036600319011261021f576004356024356001600160401b03811161021f576125e3903690600401612879565b825f93929352600260205260405f20825f52600360205260405f209061261360018060a01b038254163314612ad1565b821561284557604083116128115760040160ff815416600c811015610756576002810361279857506126579060055f938492600360ff198254161790555b01612b0b565b612785576001600160401b03831161076a5761267d8361267783546129dc565b83612b1a565b5f601f84116001146126fc57946126ec916126d085807f91418fd2a665bdd568be23533cb0cd78887cf5deb6dfc172d936ba797d67fbbf98995f916126f1575b508160011b915f199060031b1c19161790565b90555b6040519384938452604060208501526040840191612b69565b0390a2005b90508401358a6126bd565b601f19841690825f5260205f20915f5b81811061276d5750916126ec9391867f91418fd2a665bdd568be23533cb0cd78887cf5deb6dfc172d936ba797d67fbbf98999410612754575b5050600185811b0190556126d3565b8301355f19600388901b60f8161c191690558780612745565b9192602060018192868c01358155019401920161270c565b634e487b7160e01b5f525f60045260245ffd5b600581036127bc57506126579060056001938492600660ff19825416179055612651565b6008036127de576126579060056002938492600960ff19825416179055612651565b60405162461bcd60e51b815260206004820152600b60248201526a57726f6e6720737461676560a81b6044820152606490fd5b60405162461bcd60e51b815260206004820152600c60248201526b43494420746f6f206c6f6e6760a01b6044820152606490fd5b60405162461bcd60e51b815260206004820152600c60248201526b10d251081c995c5d5a5c995960a21b6044820152606490fd5b9181601f8401121561021f578235916001600160401b03831161021f576020838186019501011161021f57565b600435906001600160a01b038216820361021f57565b602435906001600160a01b038216820361021f57565b905f905b600382106128e357505050565b60208060019285518152019301910190916128d6565b6001600160a01b03909116815260c081019695949093909290916008811015610756576020850152604084015260608301526080820152600c8210156107565760a00152565b80548210156104db575f5260205f2001905f90565b91909160038310156104db57601f908360051c01921690565b9060038210156107565752565b805180835260209291819084018484015e5f828201840152601f01601f1916010190565b60608201915f815b600382106129b5575050505090565b909192936020806129ce8387600195038652885161297a565b9601920192019092916129a6565b90600182811c92168015612a0a575b60208310146129f657565b634e487b7160e01b5f52602260045260245ffd5b91607f16916129eb565b5f9291815491612a23836129dc565b8083529260018116908115612a785750600114612a3f57505050565b5f9081526020812093945091925b838310612a5e575060209250010190565b600181602092949394548385870101520191019190612a4d565b915050602093945060ff929192191683830152151560051b010190565b606081019081106001600160401b0382111761076a57604052565b90601f801991011681019081106001600160401b0382111761076a57604052565b15612ad857565b60405162461bcd60e51b815260206004820152600b60248201526a2737ba1031b932b0ba37b960a91b6044820152606490fd5b60038210156104db5701905f90565b601f8211612b2757505050565b5f5260205f20906020601f840160051c83019310612b5f575b601f0160051c01905b818110612b54575050565b5f8155600101612b49565b9091508190612b40565b908060209392818452848401375f828201840152601f01601f1916010190565b60405191905f835b60038210612ba957505050612ba7606083612ab0565b565b6001602081928554815201930191019091612b91565b8115612bc9570490565b634e487b7160e01b5f52601260045260245ffd5b9060038110156104db5760051b81013590601e198136030182121561021f5701908135916001600160401b03831161021f57602001823603811361021f579190565b5f198114612c2d5760010190565b634e487b7160e01b5f52601160045260245ffd5b6001600160401b03811161076a57601f01601f191660200190565b929192612c6882612c41565b91612c766040519384612ab0565b82948184528183011161021f578281602093845f960137010152565b81810292918115918404141715612c2d57565b15612cac57565b60405162461bcd60e51b815260206004820152601060248201526f4e6f7468696e6720746f20636c61696d60801b6044820152606490fd5b3d15612d0e573d90612cf582612c41565b91612d036040519384612ab0565b82523d5f602084013e565b606090565b91908201809211612c2d57565b91908203918211612c2d57565b9060405191612d3b83612a95565b5f835b60038210612d4b57505050565b600160208192604051612d6281610d9a818a612a14565b815201930191019091612d3e565b6001600160401b03811161076a5760051b60200190565b60025f805160206133e38339815191525414612db05760025f805160206133e383398151915255565b633ee5aeb560e01b5f5260045ffd5b5f546001600160a01b03163303612dd257565b63118cdaa760e01b5f523360045260245ffd5b5f52600260205260ff600460405f20015416600c8110158061075657600382148015612ea7575b612ea1578061075657600682148015612e95575b612e8e576107565760098114908115612e83575b50612e7e5760405162461bcd60e51b815260206004820152601e60248201527f4e6f7420766f74696e67206f72206661696c6564206d696c6573746f6e6500006044820152606490fd5b600290565b600a9150145f612e34565b5050600190565b50505f60078214612e20565b50505f90565b50505f60048214612e0c565b90815f52600460205260405f20612ecd8260028301612b0b565b90549060031b1c906001612ee48460058401612b0b565b90549060031b1c910154612ef88284612d13565b908181111561307c57612f0b8282612d20565b915b606481029080820460641490151715612c2d5760468202821591838204604614831715612c2d571061307357606484029084820460641485151715612c2d57602883029283046028141715612c2d57101561303657612f6b91612d13565b10612f74575050565b815f526004602052600860405f20019060ff612f908284612954565b90549060031b1c16612ffd57612ba792612fc6612faf83600195612954565b819291549060031b9060ff6001831b921b19161790565b9055807fd0e20bc20137f27f0f61ae739e5a5fbcd5839910ab315b4feccb3dcd848c388260408051858152866020820152a2613134565b60405162461bcd60e51b8152602060048201526011602482015270105b1c9958591e48199a5b985b1a5e9959607a1b6044820152606490fd5b505050815f526004602052600860405f20019060ff6130558284612954565b90549060031b1c16612ffd57612ba792612fc6612faf835f95612954565b50505050505050565b5f91612f0d565b801580801561312c575b61312557670de0b6b3a7640000820290828204670de0b6b3a7640000141715612c2d5760018101808211612c2d5760011c815b82821061310657505060018201809211612c2d576130e06130e69261337f565b90612c92565b60018201809211612c2d576130fd6131039261337f565b90612bbf565b90565b90915061311c826131178184612bbf565b612d13565b60011c906130c0565b5050505f90565b50821561308d565b5f81815260026020526040812093815b8481106132d057501561323e575050806131ae57506002810154601481029080820460141490151715612c2d5760048201805460ff1916600517905560649004905b546001600160a01b03165f908152600a60205260409020805490916131aa91612d13565b9055565b6001036131e6576002810154601e810290808204601e1490151715612c2d5760048201805460ff191660081790556064900490613186565b6002810154603281029080820460321490151715612c2d57606490049060048101600b60ff19825416179055600381015460018060a01b038254165f52600a60205261323760405f20918254612d13565b9055613186565b90926002908361329294155f146132a1575060048101600460ff198254161790555b60038101545f80546001600160a01b03168152600b602052604090208054909161328991612d13565b90550154612d20565b905f52600c60205260405f2055565b6001036132bc5760048101805460ff19166007179055613260565b60048101805460ff1916600a179055613260565b9182613306576002860154601481029080820460141490151715612c2d5760019160646132fe920490612d13565b925b01613144565b6001830361333c576002860154601e810290808204601e1490151715612c2d576001916064613336920490612d13565b92613300565b916002811461334e575b600190613300565b916002860154603281029080820460321490151715612c2d576001916064613377920490612d13565b929050613346565b5f905b600181116133af5750670de0b6b3a7640000810290808204670de0b6b3a76400001490151715612c2d5790565b6133bc9060011c91612c1f565b9061338256fe58fb02bcfedd338314c70bcf748b4f71a01259cf8956f31b34cb09acf29809cb9b779b17422d0df92223018b32b4d1fa46e071723d6817e2486d003becc55f00a2646970667358221220491bfb909a6960db4c139e36c606afe46266acd9427e9d74f45b153a03dfa1b764736f6c634300081a0033","linkReferences":{}},"methodIdentifiers":{"cancelProject(uint256)":"24941147","claimAllRefund()":"af9a81ff","claimCreator()":"232adc65","claimOwner()":"3bd1adec","claimRefund(uint256)":"5b7baf64","claimableCreator(address)":"04f02969","claimableOwner(address)":"b4d63781","createProject(string,string,uint256,uint8,string[3])":"223ecf0d","fund(uint256)":"ca1d209d","getAllClaimableRefund()":"a5bb2c0f","getAllInvestments(uint256)":"e1769b1f","getClaimableCreator()":"744ddcaa","getClaimableOwner()":"275fd95b","getMilestoneDescriptions(uint256)":"f24f5c4c","getMyVotes(uint256,address)":"e48bfef2","getProjectCore(uint256)":"a948d05f","getProjectMeta(uint256)":"8e98435d","getProjectState(uint256)":"e0155714","getProjectVoting(uint256)":"109ba91c","invested(uint256,address)":"080de15c","investors(uint256,uint256)":"58c609dc","isInvestor(uint256,address)":"df442122","owner()":"8da5cb5b","projectCore(uint256)":"50f5261b","projectCount()":"36fbad26","projectMeta(uint256)":"a989d412","projectVoting(uint256)":"2ed949b4","refundClaimed(uint256,address)":"7d8022c0","refundPool(uint256)":"0e8a01bc","renounceOwnership()":"715018a6","snapshotWeight(uint256,address)":"a325af92","submitMilestone(uint256,bytes)":"022fbc65","transferOwnership(address)":"f2fde38b","vote(uint256,uint8)":"943e8216","votes(uint256,address,uint256)":"78310bca"},"id":25}