{"abi":[{"type":"constructor","inputs":[],"stateMutability":"nonpayable"},{"type":"function","name":"cancelProject","inputs":[{"name":"projectId","type":"uint256","internalType":"uint256"}],"outputs":[],"stateMutability":"nonpayable"},{"type":"function","name":"claimCreator","inputs":[],"outputs":[],"stateMutability":"nonpayable"},{"type":"function","name":"claimInvestor","inputs":[],"outputs":[],"stateMutability":"nonpayable"},{"type":"function","name":"claimOwner","inputs":[],"outputs":[],"stateMutability":"nonpayable"},{"type":"function","name":"claimableCreator","inputs":[{"name":"","type":"address","internalType":"address"}],"outputs":[{"name":"","type":"uint256","internalType":"uint256"}],"stateMutability":"view"},{"type":"function","name":"claimableInvestor","inputs":[{"name":"","type":"address","internalType":"address"}],"outputs":[{"name":"","type":"uint256","internalType":"uint256"}],"stateMutability":"view"},{"type":"function","name":"claimableOwner","inputs":[{"name":"","type":"address","internalType":"address"}],"outputs":[{"name":"","type":"uint256","internalType":"uint256"}],"stateMutability":"view"},{"type":"function","name":"createProject","inputs":[{"name":"name","type":"string","internalType":"string"},{"name":"description","type":"string","internalType":"string"},{"name":"softCapEther","type":"uint256","internalType":"uint256"}],"outputs":[],"stateMutability":"payable"},{"type":"function","name":"fund","inputs":[{"name":"projectId","type":"uint256","internalType":"uint256"}],"outputs":[],"stateMutability":"payable"},{"type":"function","name":"getAllFundingProjects","inputs":[],"outputs":[{"name":"","type":"uint256[]","internalType":"uint256[]"}],"stateMutability":"view"},{"type":"function","name":"getAllInvestments","inputs":[{"name":"projectId","type":"uint256","internalType":"uint256"}],"outputs":[{"name":"","type":"address[]","internalType":"address[]"},{"name":"","type":"uint256[]","internalType":"uint256[]"}],"stateMutability":"view"},{"type":"function","name":"getClaimableCreator","inputs":[],"outputs":[{"name":"","type":"uint256","internalType":"uint256"}],"stateMutability":"view"},{"type":"function","name":"getClaimableInvestor","inputs":[],"outputs":[{"name":"","type":"uint256","internalType":"uint256"}],"stateMutability":"view"},{"type":"function","name":"getMyInvestedProjects","inputs":[],"outputs":[{"name":"projectIds","type":"uint256[]","internalType":"uint256[]"},{"name":"creators","type":"address[]","internalType":"address[]"},{"name":"names","type":"string[]","internalType":"string[]"},{"name":"descriptions","type":"string[]","internalType":"string[]"},{"name":"softCaps","type":"uint256[]","internalType":"uint256[]"},{"name":"totalFundeds","type":"uint256[]","internalType":"uint256[]"},{"name":"bonds","type":"uint256[]","internalType":"uint256[]"},{"name":"states","type":"string[]","internalType":"string[]"},{"name":"investments","type":"uint256[]","internalType":"uint256[]"}],"stateMutability":"view"},{"type":"function","name":"getProjectCore","inputs":[{"name":"projectId","type":"uint256","internalType":"uint256"}],"outputs":[{"name":"creator","type":"address","internalType":"address"},{"name":"name","type":"string","internalType":"string"},{"name":"description","type":"string","internalType":"string"},{"name":"softCapWei","type":"uint256","internalType":"uint256"},{"name":"totalFunded","type":"uint256","internalType":"uint256"},{"name":"bond","type":"uint256","internalType":"uint256"},{"name":"state","type":"string","internalType":"string"}],"stateMutability":"view"},{"type":"function","name":"getProjectMeta","inputs":[{"name":"projectId","type":"uint256","internalType":"uint256"}],"outputs":[{"name":"milestoneHashes","type":"string[3]","internalType":"string[3]"},{"name":"investors","type":"address[]","internalType":"address[]"}],"stateMutability":"view"},{"type":"function","name":"getProjectState","inputs":[{"name":"projectId","type":"uint256","internalType":"uint256"}],"outputs":[{"name":"","type":"string","internalType":"string"}],"stateMutability":"view"},{"type":"function","name":"getProjectVoting","inputs":[{"name":"projectId","type":"uint256","internalType":"uint256"}],"outputs":[{"name":"snapshotTotalFund","type":"uint256","internalType":"uint256"},{"name":"snapshotTotalWeight","type":"uint256","internalType":"uint256"},{"name":"yesWeight","type":"uint256[3]","internalType":"uint256[3]"},{"name":"noWeight","type":"uint256[3]","internalType":"uint256[3]"},{"name":"finalized","type":"bool[3]","internalType":"bool[3]"}],"stateMutability":"view"},{"type":"function","name":"owner","inputs":[],"outputs":[{"name":"","type":"address","internalType":"address"}],"stateMutability":"view"},{"type":"function","name":"projectCount","inputs":[],"outputs":[{"name":"","type":"uint256","internalType":"uint256"}],"stateMutability":"view"},{"type":"function","name":"renounceOwnership","inputs":[],"outputs":[],"stateMutability":"nonpayable"},{"type":"function","name":"submitMilestone","inputs":[{"name":"projectId","type":"uint256","internalType":"uint256"},{"name":"ipfsHash","type":"string","internalType":"string"}],"outputs":[],"stateMutability":"nonpayable"},{"type":"function","name":"transferOwnership","inputs":[{"name":"newOwner","type":"address","internalType":"address"}],"outputs":[],"stateMutability":"nonpayable"},{"type":"function","name":"vote","inputs":[{"name":"projectId","type":"uint256","internalType":"uint256"},{"name":"option","type":"uint8","internalType":"enum MilestoneFunding.VoteOption"}],"outputs":[],"stateMutability":"nonpayable"},{"type":"event","name":"Claim","inputs":[{"name":"user","type":"address","indexed":true,"internalType":"address"},{"name":"amount","type":"uint256","indexed":false,"internalType":"uint256"},{"name":"role","type":"string","indexed":false,"internalType":"string"}],"anonymous":false},{"type":"event","name":"Funded","inputs":[{"name":"projectId","type":"uint256","indexed":true,"internalType":"uint256"},{"name":"investor","type":"address","indexed":true,"internalType":"address"},{"name":"amount","type":"uint256","indexed":false,"internalType":"uint256"}],"anonymous":false},{"type":"event","name":"MilestoneSubmitted","inputs":[{"name":"projectId","type":"uint256","indexed":true,"internalType":"uint256"},{"name":"milestone","type":"uint256","indexed":false,"internalType":"uint256"},{"name":"ipfsHash","type":"string","indexed":false,"internalType":"string"}],"anonymous":false},{"type":"event","name":"OwnershipTransferred","inputs":[{"name":"previousOwner","type":"address","indexed":true,"internalType":"address"},{"name":"newOwner","type":"address","indexed":true,"internalType":"address"}],"anonymous":false},{"type":"event","name":"ProjectCancelled","inputs":[{"name":"projectId","type":"uint256","indexed":true,"internalType":"uint256"}],"anonymous":false},{"type":"event","name":"ProjectCreated","inputs":[{"name":"projectId","type":"uint256","indexed":true,"internalType":"uint256"},{"name":"name","type":"string","indexed":false,"internalType":"string"},{"name":"description","type":"string","indexed":false,"internalType":"string"},{"name":"creator","type":"address","indexed":true,"internalType":"address"}],"anonymous":false},{"type":"event","name":"VoteFinalized","inputs":[{"name":"projectId","type":"uint256","indexed":true,"internalType":"uint256"},{"name":"milestone","type":"uint256","indexed":false,"internalType":"uint256"},{"name":"passed","type":"bool","indexed":false,"internalType":"bool"}],"anonymous":false},{"type":"event","name":"Voted","inputs":[{"name":"projectId","type":"uint256","indexed":true,"internalType":"uint256"},{"name":"voter","type":"address","indexed":true,"internalType":"address"},{"name":"milestone","type":"uint256","indexed":false,"internalType":"uint256"},{"name":"vote","type":"uint8","indexed":false,"internalType":"enum MilestoneFunding.VoteOption"}],"anonymous":false},{"type":"error","name":"OwnableInvalidOwner","inputs":[{"name":"owner","type":"address","internalType":"address"}]},{"type":"error","name":"OwnableUnauthorizedAccount","inputs":[{"name":"account","type":"address","internalType":"address"}]},{"type":"error","name":"ReentrancyGuardReentrantCall","inputs":[]}],"bytecode":{"object":"0x608060405234801561000f575f80fd5b50335f73ffffffffffffffffffffffffffffffffffffffff168173ffffffffffffffffffffffffffffffffffffffff1603610081575f6040517f1e4fbdf700000000000000000000000000000000000000000000000000000000815260040161007891906101ec565b60405180910390fd5b610090816100ba60201b60201c565b5060016100af6100a461017b60201b60201c565b6101a460201b60201c565b5f0181905550610205565b5f805f9054906101000a900473ffffffffffffffffffffffffffffffffffffffff169050815f806101000a81548173ffffffffffffffffffffffffffffffffffffffff021916908373ffffffffffffffffffffffffffffffffffffffff1602179055508173ffffffffffffffffffffffffffffffffffffffff168173ffffffffffffffffffffffffffffffffffffffff167f8be0079c531659141344cd1fd0a4f28419497f9722a3daafe3b4186f6b6457e060405160405180910390a35050565b5f7f9b779b17422d0df92223018b32b4d1fa46e071723d6817e2486d003becc55f005f1b905090565b5f819050919050565b5f73ffffffffffffffffffffffffffffffffffffffff82169050919050565b5f6101d6826101ad565b9050919050565b6101e6816101cc565b82525050565b5f6020820190506101ff5f8301846101dd565b92915050565b6154c5806102125f395ff3fe60806040526004361061014a575f3560e01c80638a237ac5116100b5578063b4d637811161006e578063b4d637811461044b578063bafcf65614610487578063ca1d209d146104b1578063e0155714146104cd578063e1769b1f14610509578063f2fde38b146105465761014a565b80638a237ac5146103285780638da5cb5b1461033e5780638e98435d14610368578063943e8216146103a5578063a948d05f146103cd578063aae771261461040f5761014a565b80632494114711610107578063249411471461025857806336fbad26146102805780633bd1adec146102aa578063476a119b146102c0578063715018a6146102e8578063744ddcaa146102fe5761014a565b806304f029691461014e5780630df529b81461018a578063109ba91c146101bc5780631b745c26146101fc578063232adc651461022657806323c554481461023c575b5f80fd5b348015610159575f80fd5b50610174600480360381019061016f9190613cd8565b61056e565b6040516101819190613d1b565b60405180910390f35b348015610195575f80fd5b5061019e610583565b6040516101b399989796959493929190613fcd565b60405180910390f35b3480156101c7575f80fd5b506101e260048036038101906101dd91906140c1565b610c61565b6040516101f395949392919061421b565b60405180910390f35b348015610207575f80fd5b50610210610d99565b60405161021d919061426e565b60405180910390f35b348015610231575f80fd5b5061023a610f0c565b005b610256600480360381019061025191906142ef565b6110a4565b005b348015610263575f80fd5b5061027e600480360381019061027991906140c1565b61124f565b005b34801561028b575f80fd5b50610294611578565b6040516102a19190613d1b565b60405180910390f35b3480156102b5575f80fd5b506102be61157e565b005b3480156102cb575f80fd5b506102e660048036038101906102e19190614380565b61178b565b005b3480156102f3575f80fd5b506102fc611a0c565b005b348015610309575f80fd5b50610312611a1f565b60405161031f9190613d1b565b60405180910390f35b348015610333575f80fd5b5061033c611a63565b005b348015610349575f80fd5b50610352611bfb565b60405161035f91906143ec565b60405180910390f35b348015610373575f80fd5b5061038e600480360381019061038991906140c1565b611c22565b60405161039c9291906144a1565b60405180910390f35b3480156103b0575f80fd5b506103cb60048036038101906103c691906144f9565b611d95565b005b3480156103d8575f80fd5b506103f360048036038101906103ee91906140c1565b6121cd565b604051610406979695949392919061457f565b60405180910390f35b34801561041a575f80fd5b5061043560048036038101906104309190613cd8565b61235b565b6040516104429190613d1b565b60405180910390f35b348015610456575f80fd5b50610471600480360381019061046c9190613cd8565b612370565b60405161047e9190613d1b565b60405180910390f35b348015610492575f80fd5b5061049b612385565b6040516104a89190613d1b565b60405180910390f35b6104cb60048036038101906104c691906140c1565b6123c9565b005b3480156104d8575f80fd5b506104f360048036038101906104ee91906140c1565b6127e3565b6040516105009190614601565b60405180910390f35b348015610514575f80fd5b5061052f600480360381019061052a91906140c1565b612dee565b60405161053d929190614621565b60405180910390f35b348015610551575f80fd5b5061056c60048036038101906105679190613cd8565b612fa6565b005b6004602052805f5260405f205f915090505481565b60608060608060608060608060605f80600190505b60015481116106245760025f8281526020019081526020015f206009015f3373ffffffffffffffffffffffffffffffffffffffff1673ffffffffffffffffffffffffffffffffffffffff1681526020019081526020015f205f9054906101000a900460ff161561061157818061060d90614683565b9250505b808061061c90614683565b915050610598565b508067ffffffffffffffff81111561063f5761063e6146ca565b5b60405190808252806020026020018201604052801561066d5781602001602082028036833780820191505090505b5099508067ffffffffffffffff81111561068a576106896146ca565b5b6040519080825280602002602001820160405280156106b85781602001602082028036833780820191505090505b5098508067ffffffffffffffff8111156106d5576106d46146ca565b5b60405190808252806020026020018201604052801561070857816020015b60608152602001906001900390816106f35790505b5097508067ffffffffffffffff811115610725576107246146ca565b5b60405190808252806020026020018201604052801561075857816020015b60608152602001906001900390816107435790505b5096508067ffffffffffffffff811115610775576107746146ca565b5b6040519080825280602002602001820160405280156107a35781602001602082028036833780820191505090505b5095508067ffffffffffffffff8111156107c0576107bf6146ca565b5b6040519080825280602002602001820160405280156107ee5781602001602082028036833780820191505090505b5094508067ffffffffffffffff81111561080b5761080a6146ca565b5b6040519080825280602002602001820160405280156108395781602001602082028036833780820191505090505b5093508067ffffffffffffffff811115610856576108556146ca565b5b60405190808252806020026020018201604052801561088957816020015b60608152602001906001900390816108745790505b5092508067ffffffffffffffff8111156108a6576108a56146ca565b5b6040519080825280602002602001820160405280156108d45781602001602082028036833780820191505090505b5091505f80600190505b6001548111610c535760025f8281526020019081526020015f206009015f3373ffffffffffffffffffffffffffffffffffffffff1673ffffffffffffffffffffffffffffffffffffffff1681526020019081526020015f205f9054906101000a900460ff1615610c40575f60025f8381526020019081526020015f209050818d84815181106109705761096f6146f7565b5b602002602001018181525050805f015f9054906101000a900473ffffffffffffffffffffffffffffffffffffffff168c84815181106109b2576109b16146f7565b5b602002602001019073ffffffffffffffffffffffffffffffffffffffff16908173ffffffffffffffffffffffffffffffffffffffff16815250508060010180546109fb90614751565b80601f0160208091040260200160405190810160405280929190818152602001828054610a2790614751565b8015610a725780601f10610a4957610100808354040283529160200191610a72565b820191905f5260205f20905b815481529060010190602001808311610a5557829003601f168201915b50505050508b8481518110610a8a57610a896146f7565b5b6020026020010181905250806002018054610aa490614751565b80601f0160208091040260200160405190810160405280929190818152602001828054610ad090614751565b8015610b1b5780601f10610af257610100808354040283529160200191610b1b565b820191905f5260205f20905b815481529060010190602001808311610afe57829003601f168201915b50505050508a8481518110610b3357610b326146f7565b5b60200260200101819052508060030154898481518110610b5657610b556146f7565b5b6020026020010181815250508060040154888481518110610b7a57610b796146f7565b5b6020026020010181815250508060050154878481518110610b9e57610b9d6146f7565b5b602002602001018181525050610bb3826127e3565b868481518110610bc657610bc56146f7565b5b6020026020010181905250806008015f3373ffffffffffffffffffffffffffffffffffffffff1673ffffffffffffffffffffffffffffffffffffffff1681526020019081526020015f2054858481518110610c2457610c236146f7565b5b6020026020010181815250508280610c3b90614683565b935050505b8080610c4b90614683565b9150506108de565b505050909192939495969798565b5f80610c6b613c0b565b610c73613c0b565b610c7b613c2d565b5f60025f8881526020019081526020015f20905080600a015481600b015482600e01836011018460140182600380602002604051908101604052809291908260038015610cdd576020028201915b815481526020019060010190808311610cc9575b5050505050925081600380602002604051908101604052809291908260038015610d1c576020028201915b815481526020019060010190808311610d08575b5050505050915080600380602002604051908101604052809291908260038015610d7e576020028201915f905b82829054906101000a900460ff161515815260200190600101906020825f01049283019260010382029150808411610d495790505b50505050509050955095509550955095505091939590929450565b60605f80600190505b6001548111610e18575f600b811115610dbe57610dbd614781565b5b60025f8381526020019081526020015f206006015f9054906101000a900460ff16600b811115610df157610df0614781565b5b03610e05578180610e0190614683565b9250505b8080610e1090614683565b915050610da2565b505f8167ffffffffffffffff811115610e3457610e336146ca565b5b604051908082528060200260200182016040528015610e625781602001602082028036833780820191505090505b5090505f80600190505b6001548111610f02575f600b811115610e8857610e87614781565b5b60025f8381526020019081526020015f206006015f9054906101000a900460ff16600b811115610ebb57610eba614781565b5b03610eef5780838381518110610ed457610ed36146f7565b5b6020026020010181815250508180610eeb90614683565b9250505b8080610efa90614683565b915050610e6c565b5081935050505090565b610f1461302a565b5f60045f3373ffffffffffffffffffffffffffffffffffffffff1673ffffffffffffffffffffffffffffffffffffffff1681526020019081526020015f205490505f8111610f97576040517f08c379a0000000000000000000000000000000000000000000000000000000008152600401610f8e906147f8565b60405180910390fd5b5f60045f3373ffffffffffffffffffffffffffffffffffffffff1673ffffffffffffffffffffffffffffffffffffffff1681526020019081526020015f20819055505f3373ffffffffffffffffffffffffffffffffffffffff1682604051610ffe90614843565b5f6040518083038185875af1925050503d805f8114611038576040519150601f19603f3d011682016040523d82523d5f602084013e61103d565b606091505b505090508061104a575f80fd5b3373ffffffffffffffffffffffffffffffffffffffff167f58fb02bcfedd338314c70bcf748b4f71a01259cf8956f31b34cb09acf29809cb8360405161109091906148a1565b60405180910390a250506110a261304c565b565b5f600a670de0b6b3a7640000836110bb91906148cd565b6110c5919061493b565b9050803414611109576040517f08c379a0000000000000000000000000000000000000000000000000000000008152600401611100906149b5565b60405180910390fd5b60015f81548092919061111b90614683565b91905055505f60025f60015481526020019081526020015f20905033815f015f6101000a81548173ffffffffffffffffffffffffffffffffffffffff021916908373ffffffffffffffffffffffffffffffffffffffff160217905550868682600101918261118a929190614b7a565b50848482600201918261119e929190614b7a565b50670de0b6b3a7640000836111b391906148cd565b81600301819055503481600501819055505f816006015f6101000a81548160ff0219169083600b8111156111ea576111e9614781565b5b02179055503373ffffffffffffffffffffffffffffffffffffffff166001547fedfd921b9d3f1e2d61625b6c7cbf436b8651ea7c5c83e688277f1600fdcb1f268989898960405161123e9493929190614c81565b60405180910390a350505050505050565b61125761302a565b5f60025f8381526020019081526020015f209050805f015f9054906101000a900473ffffffffffffffffffffffffffffffffffffffff1673ffffffffffffffffffffffffffffffffffffffff163373ffffffffffffffffffffffffffffffffffffffff16146112fb576040517f08c379a00000000000000000000000000000000000000000000000000000000081526004016112f290614d04565b60405180910390fd5b5f600b81111561130e5761130d614781565b5b816006015f9054906101000a900460ff16600b81111561133157611330614781565b5b14611371576040517f08c379a000000000000000000000000000000000000000000000000000000000815260040161136890614d6c565b60405180910390fd5b6001816006015f6101000a81548160ff0219169083600b81111561139857611397614781565b5b02179055505f816004015490505f826005015490505f5b8360070180549050811015611533575f8460070182815481106113d5576113d46146f7565b5b905f5260205f20015f9054906101000a900473ffffffffffffffffffffffffffffffffffffffff1690505f856008015f8373ffffffffffffffffffffffffffffffffffffffff1673ffffffffffffffffffffffffffffffffffffffff1681526020019081526020015f205490505f811115611524575f8190505f8511801561145c57505f86115b1561148b575f86838761146f91906148cd565b611479919061493b565b905080826114879190614d8a565b9150505b8060035f8573ffffffffffffffffffffffffffffffffffffffff1673ffffffffffffffffffffffffffffffffffffffff1681526020019081526020015f205f8282546114d79190614d8a565b925050819055505f876008015f8573ffffffffffffffffffffffffffffffffffffffff1673ffffffffffffffffffffffffffffffffffffffff1681526020019081526020015f2081905550505b505080806001019150506113af565b50837fe3805ed669490875ae87c5c8b1ad6ecca0e5e67305a833926d0d4317c4822fc060405160405180910390a25f836005018190555050505061157561304c565b50565b60015481565b61158661302a565b61158e611bfb565b73ffffffffffffffffffffffffffffffffffffffff163373ffffffffffffffffffffffffffffffffffffffff16146115fb576040517f08c379a00000000000000000000000000000000000000000000000000000000081526004016115f290614e07565b60405180910390fd5b5f60055f3373ffffffffffffffffffffffffffffffffffffffff1673ffffffffffffffffffffffffffffffffffffffff1681526020019081526020015f205490505f811161167e576040517f08c379a0000000000000000000000000000000000000000000000000000000008152600401611675906147f8565b60405180910390fd5b5f60055f3373ffffffffffffffffffffffffffffffffffffffff1673ffffffffffffffffffffffffffffffffffffffff1681526020019081526020015f20819055505f3373ffffffffffffffffffffffffffffffffffffffff16826040516116e590614843565b5f6040518083038185875af1925050503d805f811461171f576040519150601f19603f3d011682016040523d82523d5f602084013e611724565b606091505b5050905080611731575f80fd5b3373ffffffffffffffffffffffffffffffffffffffff167f58fb02bcfedd338314c70bcf748b4f71a01259cf8956f31b34cb09acf29809cb836040516117779190614e6f565b60405180910390a2505061178961304c565b565b5f60025f8581526020019081526020015f209050805f015f9054906101000a900473ffffffffffffffffffffffffffffffffffffffff1673ffffffffffffffffffffffffffffffffffffffff163373ffffffffffffffffffffffffffffffffffffffff161461182f576040517f08c379a000000000000000000000000000000000000000000000000000000000815260040161182690614d04565b60405180910390fd5b5f6002600b81111561184457611843614781565b5b826006015f9054906101000a900460ff16600b81111561186757611866614781565b5b03611874575f905061193b565b6004600b81111561188857611887614781565b5b826006015f9054906101000a900460ff16600b8111156118ab576118aa614781565b5b036118b9576001905061193a565b6006600b8111156118cd576118cc614781565b5b826006015f9054906101000a900460ff16600b8111156118f0576118ef614781565b5b036118fe5760029050611939565b6040517f08c379a000000000000000000000000000000000000000000000000000000000815260040161193090614ee5565b60405180910390fd5b5b5b8383836015018360038110611953576119526146f7565b5b019182611961929190614b7a565b5060028161196f91906148cd565b6003600b81111561198357611982614781565b5b61198d9190614d8a565b600b81111561199f5761199e614781565b5b826006015f6101000a81548160ff0219169083600b8111156119c4576119c3614781565b5b0217905550847f556e3b296d5e8c8bab27684b52ae96905507befd2d188ce6f4453a6717dd9c008286866040516119fd93929190614f03565b60405180910390a25050505050565b611a14613066565b611a1d5f6130ed565b565b5f60045f3373ffffffffffffffffffffffffffffffffffffffff1673ffffffffffffffffffffffffffffffffffffffff1681526020019081526020015f2054905090565b611a6b61302a565b5f60035f3373ffffffffffffffffffffffffffffffffffffffff1673ffffffffffffffffffffffffffffffffffffffff1681526020019081526020015f205490505f8111611aee576040517f08c379a0000000000000000000000000000000000000000000000000000000008152600401611ae5906147f8565b60405180910390fd5b5f60035f3373ffffffffffffffffffffffffffffffffffffffff1673ffffffffffffffffffffffffffffffffffffffff1681526020019081526020015f20819055505f3373ffffffffffffffffffffffffffffffffffffffff1682604051611b5590614843565b5f6040518083038185875af1925050503d805f8114611b8f576040519150601f19603f3d011682016040523d82523d5f602084013e611b94565b606091505b5050905080611ba1575f80fd5b3373ffffffffffffffffffffffffffffffffffffffff167f58fb02bcfedd338314c70bcf748b4f71a01259cf8956f31b34cb09acf29809cb83604051611be79190614f7d565b60405180910390a25050611bf961304c565b565b5f805f9054906101000a900473ffffffffffffffffffffffffffffffffffffffff16905090565b611c2a613c4f565b60605f60025f8581526020019081526020015f209050806015018160070181600380602002604051908101604052809291905f905b82821015611d00578382018054611c7590614751565b80601f0160208091040260200160405190810160405280929190818152602001828054611ca190614751565b8015611cec5780601f10611cc357610100808354040283529160200191611cec565b820191905f5260205f20905b815481529060010190602001808311611ccf57829003601f168201915b505050505081526020019060010190611c5f565b50505050915080805480602002602001604051908101604052809291908181526020018280548015611d8457602002820191905f5260205f20905b815f9054906101000a900473ffffffffffffffffffffffffffffffffffffffff1673ffffffffffffffffffffffffffffffffffffffff1681526020019060010190808311611d3b575b505050505090509250925050915091565b5f60025f8481526020019081526020015f209050806009015f3373ffffffffffffffffffffffffffffffffffffffff1673ffffffffffffffffffffffffffffffffffffffff1681526020019081526020015f205f9054906101000a900460ff16611e34576040517f08c379a0000000000000000000000000000000000000000000000000000000008152600401611e2b90614ff3565b60405180910390fd5b60016002811115611e4857611e47614781565b5b826002811115611e5b57611e5a614781565b5b1480611e8a5750600280811115611e7557611e74614781565b5b826002811115611e8857611e87614781565b5b145b611ec9576040517f08c379a0000000000000000000000000000000000000000000000000000000008152600401611ec09061505b565b60405180910390fd5b5f611ed3826131ae565b9050816014018160038110611eeb57611eea6146f7565b5b602091828204019190069054906101000a900460ff1615611f41576040517f08c379a0000000000000000000000000000000000000000000000000000000008152600401611f38906150c3565b60405180910390fd5b5f6002811115611f5457611f53614781565b5b82600d015f3373ffffffffffffffffffffffffffffffffffffffff1673ffffffffffffffffffffffffffffffffffffffff1681526020019081526020015f208260038110611fa557611fa46146f7565b5b602091828204019190069054906101000a900460ff166002811115611fcd57611fcc614781565b5b1461200d576040517f08c379a00000000000000000000000000000000000000000000000000000000081526004016120049061512b565b60405180910390fd5b8282600d015f3373ffffffffffffffffffffffffffffffffffffffff1673ffffffffffffffffffffffffffffffffffffffff1681526020019081526020015f20826003811061205f5761205e6146f7565b5b602091828204019190066101000a81548160ff0219169083600281111561208957612088614781565b5b02179055505f6120dc83600c015f3373ffffffffffffffffffffffffffffffffffffffff1673ffffffffffffffffffffffffffffffffffffffff1681526020019081526020015f205484600a01546132bd565b9050600160028111156120f2576120f1614781565b5b84600281111561210557612104614781565b5b0361213c578083600e018360038110612121576121206146f7565b5b015f8282546121309190614d8a565b9250508190555061216a565b80836011018360038110612153576121526146f7565b5b015f8282546121629190614d8a565b925050819055505b3373ffffffffffffffffffffffffffffffffffffffff16857ffe2287fa52fad81788ac4645bf0bae4badc927d35f68ab09bc950ca8e0f0168984876040516121b392919061518f565b60405180910390a36121c683868461333b565b5050505050565b5f6060805f805f60605f60025f8a81526020019081526020015f209050805f015f9054906101000a900473ffffffffffffffffffffffffffffffffffffffff16816001018260020183600301548460040154856005015461222d8f6127e3565b85805461223990614751565b80601f016020809104026020016040519081016040528092919081815260200182805461226590614751565b80156122b05780601f10612287576101008083540402835291602001916122b0565b820191905f5260205f20905b81548152906001019060200180831161229357829003601f168201915b505050505095508480546122c390614751565b80601f01602080910402602001604051908101604052809291908181526020018280546122ef90614751565b801561233a5780601f106123115761010080835404028352916020019161233a565b820191905f5260205f20905b81548152906001019060200180831161231d57829003601f168201915b50505050509450975097509750975097509750975050919395979092949650565b6003602052805f5260405f205f915090505481565b6005602052805f5260405f205f915090505481565b5f60035f3373ffffffffffffffffffffffffffffffffffffffff1673ffffffffffffffffffffffffffffffffffffffff1681526020019081526020015f2054905090565b6123d161302a565b5f60025f8381526020019081526020015f2090505f600b8111156123f8576123f7614781565b5b816006015f9054906101000a900460ff16600b81111561241b5761241a614781565b5b1461245b576040517f08c379a000000000000000000000000000000000000000000000000000000000815260040161245290615200565b60405180910390fd5b5f341161249d576040517f08c379a000000000000000000000000000000000000000000000000000000000815260040161249490615268565b60405180910390fd5b5f816004015482600301546124b29190615286565b90505f81116124f6576040517f08c379a00000000000000000000000000000000000000000000000000000000081526004016124ed90615303565b60405180910390fd5b5f3490505f823411156125155782915082346125129190615286565b90505b836009015f3373ffffffffffffffffffffffffffffffffffffffff1673ffffffffffffffffffffffffffffffffffffffff1681526020019081526020015f205f9054906101000a900460ff1661261f576001846009015f3373ffffffffffffffffffffffffffffffffffffffff1673ffffffffffffffffffffffffffffffffffffffff1681526020019081526020015f205f6101000a81548160ff0219169083151502179055508360070133908060018154018082558091505060019003905f5260205f20015f9091909190916101000a81548173ffffffffffffffffffffffffffffffffffffffff021916908373ffffffffffffffffffffffffffffffffffffffff1602179055505b81846008015f3373ffffffffffffffffffffffffffffffffffffffff1673ffffffffffffffffffffffffffffffffffffffff1681526020019081526020015f205f82825461266d9190614d8a565b9250508190555081846004015f8282546126879190614d8a565b925050819055503373ffffffffffffffffffffffffffffffffffffffff16857f38c48552690c96ec2872092ac1db6c19fb59f5a8c5b49bbf41ed4886d0ca6926846040516126d59190613d1b565b60405180910390a38360030154846004015410612722576126f584613430565b6002846006015f6101000a81548160ff0219169083600b81111561271c5761271b614781565b5b02179055505b5f8111156127d4575f3373ffffffffffffffffffffffffffffffffffffffff168260405161274f90614843565b5f6040518083038185875af1925050503d805f8114612789576040519150601f19603f3d011682016040523d82523d5f602084013e61278e565b606091505b50509050806127d2576040517f08c379a00000000000000000000000000000000000000000000000000000000081526004016127c99061536b565b60405180910390fd5b505b505050506127e061304c565b50565b60605f60025f8481526020019081526020015f2090505f600b81111561280c5761280b614781565b5b816006015f9054906101000a900460ff16600b81111561282f5761282e614781565b5b03612872576040518060400160405280600781526020017f46756e64696e6700000000000000000000000000000000000000000000000000815250915050612de9565b6001600b81111561288657612885614781565b5b816006015f9054906101000a900460ff16600b8111156128a9576128a8614781565b5b036128ec576040518060400160405280600981526020017f43616e63656c6c65640000000000000000000000000000000000000000000000815250915050612de9565b6002600b811115612900576128ff614781565b5b816006015f9054906101000a900460ff16600b81111561292357612922614781565b5b03612966576040518060400160405280600e81526020017f4275696c64696e67537461676531000000000000000000000000000000000000815250915050612de9565b6003600b81111561297a57612979614781565b5b816006015f9054906101000a900460ff16600b81111561299d5761299c614781565b5b036129e0576040518060400160405280600c81526020017f566f74696e67526f756e64310000000000000000000000000000000000000000815250915050612de9565b6004600b8111156129f4576129f3614781565b5b816006015f9054906101000a900460ff16600b811115612a1757612a16614781565b5b03612a5a576040518060400160405280600e81526020017f4275696c64696e67537461676532000000000000000000000000000000000000815250915050612de9565b6005600b811115612a6e57612a6d614781565b5b816006015f9054906101000a900460ff16600b811115612a9157612a90614781565b5b03612ad4576040518060400160405280600c81526020017f566f74696e67526f756e64320000000000000000000000000000000000000000815250915050612de9565b6006600b811115612ae857612ae7614781565b5b816006015f9054906101000a900460ff16600b811115612b0b57612b0a614781565b5b03612b4e576040518060400160405280600e81526020017f4275696c64696e67537461676533000000000000000000000000000000000000815250915050612de9565b6007600b811115612b6257612b61614781565b5b816006015f9054906101000a900460ff16600b811115612b8557612b84614781565b5b03612bc8576040518060400160405280600c81526020017f566f74696e67526f756e64330000000000000000000000000000000000000000815250915050612de9565b6008600b811115612bdc57612bdb614781565b5b816006015f9054906101000a900460ff16600b811115612bff57612bfe614781565b5b03612c42576040518060400160405280600981526020017f436f6d706c657465640000000000000000000000000000000000000000000000815250915050612de9565b6009600b811115612c5657612c55614781565b5b816006015f9054906101000a900460ff16600b811115612c7957612c78614781565b5b03612cbc576040518060400160405280600d81526020017f4661696c757265526f756e643100000000000000000000000000000000000000815250915050612de9565b600a600b811115612cd057612ccf614781565b5b816006015f9054906101000a900460ff16600b811115612cf357612cf2614781565b5b03612d36576040518060400160405280600d81526020017f4661696c757265526f756e643200000000000000000000000000000000000000815250915050612de9565b600b80811115612d4957612d48614781565b5b816006015f9054906101000a900460ff16600b811115612d6c57612d6b614781565b5b03612daf576040518060400160405280600d81526020017f4661696c757265526f756e643300000000000000000000000000000000000000815250915050612de9565b6040518060400160405280600781526020017f556e6b6e6f776e000000000000000000000000000000000000000000000000008152509150505b919050565b6060805f60025f8581526020019081526020015f2090505f816007018054905090505f8167ffffffffffffffff811115612e2b57612e2a6146ca565b5b604051908082528060200260200182016040528015612e595781602001602082028036833780820191505090505b5090505f5b82811015612f0f57836008015f856007018381548110612e8157612e806146f7565b5b905f5260205f20015f9054906101000a900473ffffffffffffffffffffffffffffffffffffffff1673ffffffffffffffffffffffffffffffffffffffff1673ffffffffffffffffffffffffffffffffffffffff1681526020019081526020015f2054828281518110612ef657612ef56146f7565b5b6020026020010181815250508080600101915050612e5e565b50826007018181805480602002602001604051908101604052809291908181526020018280548015612f9357602002820191905f5260205f20905b815f9054906101000a900473ffffffffffffffffffffffffffffffffffffffff1673ffffffffffffffffffffffffffffffffffffffff1681526020019060010190808311612f4a575b5050505050915094509450505050915091565b612fae613066565b5f73ffffffffffffffffffffffffffffffffffffffff168173ffffffffffffffffffffffffffffffffffffffff160361301e575f6040517f1e4fbdf700000000000000000000000000000000000000000000000000000000815260040161301591906143ec565b60405180910390fd5b613027816130ed565b50565b61303261354f565b600261304461303f613590565b6135b9565b5f0181905550565b600161305e613059613590565b6135b9565b5f0181905550565b61306e6135c2565b73ffffffffffffffffffffffffffffffffffffffff1661308c611bfb565b73ffffffffffffffffffffffffffffffffffffffff16146130eb576130af6135c2565b6040517f118cdaa70000000000000000000000000000000000000000000000000000000081526004016130e291906143ec565b60405180910390fd5b565b5f805f9054906101000a900473ffffffffffffffffffffffffffffffffffffffff169050815f806101000a81548173ffffffffffffffffffffffffffffffffffffffff021916908373ffffffffffffffffffffffffffffffffffffffff1602179055508173ffffffffffffffffffffffffffffffffffffffff168173ffffffffffffffffffffffffffffffffffffffff167f8be0079c531659141344cd1fd0a4f28419497f9722a3daafe3b4186f6b6457e060405160405180910390a35050565b5f6003600b8111156131c3576131c2614781565b5b826006015f9054906101000a900460ff16600b8111156131e6576131e5614781565b5b036131f3575f90506132b8565b6005600b81111561320757613206614781565b5b826006015f9054906101000a900460ff16600b81111561322a57613229614781565b5b0361323857600190506132b8565b6007600b81111561324c5761324b614781565b5b826006015f9054906101000a900460ff16600b81111561326f5761326e614781565b5b0361327d57600290506132b8565b6040517f08c379a00000000000000000000000000000000000000000000000000000000081526004016132af906153d3565b60405180910390fd5b919050565b5f808314806132cb57505f82145b156132d8575f9050613335565b6132ed6001836132e89190614d8a565b6135c9565b6133026001856132fd9190614d8a565b6135c9565b61331e670de0b6b3a76400008661331991906148cd565b61360b565b61332891906148cd565b613332919061493b565b90505b92915050565b5f83600e018260038110613352576133516146f7565b5b015490505f84601101836003811061336d5761336c6146f7565b5b015490505f85600b015490505f82846133869190614d8a565b90505f818311613396575f6133a3565b81836133a29190615286565b5b90506046836133b291906148cd565b6064836133bf91906148cd565b10156133cf57505050505061342b565b6028836133dc91906148cd565b6064856133e991906148cd565b10613404576133fa8888885f613667565b505050505061342b565b80846134109190614d8a565b851115613425576134248888886001613667565b5b50505050505b505050565b5f816004015482600a01819055505f5b8260070180549050811015613541575f836007018281548110613466576134656146f7565b5b905f5260205f20015f9054906101000a900473ffffffffffffffffffffffffffffffffffffffff1690505f846008015f8373ffffffffffffffffffffffffffffffffffffffff1673ffffffffffffffffffffffffffffffffffffffff1681526020019081526020015f205490508085600c015f8473ffffffffffffffffffffffffffffffffffffffff1673ffffffffffffffffffffffffffffffffffffffff1681526020019081526020015f20819055506135258186600a01546132bd565b846135309190614d8a565b935050508080600101915050613440565b508082600b01819055505050565b613557613755565b1561358e576040517f3ee5aeb500000000000000000000000000000000000000000000000000000000815260040160405180910390fd5b565b5f7f9b779b17422d0df92223018b32b4d1fa46e071723d6817e2486d003becc55f005f1b905090565b5f819050919050565b5f33905090565b5f805b60018311156135ef57600183901c925080806135e790614683565b9150506135cc565b670de0b6b3a76400008161360391906148cd565b915050919050565b5f80600260018461361c9190614d8a565b613626919061493b565b90508291505b81811015613661578091506002818285613646919061493b565b6136509190614d8a565b61365a919061493b565b905061362c565b50919050565b83601401826003811061367d5761367c6146f7565b5b602091828204019190069054906101000a900460ff16156136d3576040517f08c379a00000000000000000000000000000000000000000000000000000000081526004016136ca9061543b565b60405180910390fd5b60018460140183600381106136eb576136ea6146f7565b5b602091828204019190066101000a81548160ff021916908315150217905550827fd0e20bc20137f27f0f61ae739e5a5fbcd5839910ab315b4feccb3dcd848c3882838360405161373c929190615468565b60405180910390a261374f848383613771565b50505050565b5f6002613768613763613590565b6135b9565b5f015414905090565b5f805f90505b83811015613824575f81036137b15760646014866004015461379991906148cd565b6137a3919061493b565b826137ae9190614d8a565b91505b600181036137e4576064601e86600401546137cc91906148cd565b6137d6919061493b565b826137e19190614d8a565b91505b60028103613817576064603286600401546137ff91906148cd565b613809919061493b565b826138149190614d8a565b91505b8080600101915050613777565b5081613a1857826009600b81111561383f5761383e614781565b5b6138499190614d8a565b600b81111561385b5761385a614781565b5b846006015f6101000a81548160ff0219169083600b8111156138805761387f614781565b5b0217905550836005015460055f613895611bfb565b73ffffffffffffffffffffffffffffffffffffffff1673ffffffffffffffffffffffffffffffffffffffff1681526020019081526020015f205f8282546138dc9190614d8a565b925050819055505f8185600401546138f49190615286565b90505f5b8560070180549050811015613a10575f86600701828154811061391e5761391d6146f7565b5b905f5260205f20015f9054906101000a900473ffffffffffffffffffffffffffffffffffffffff1690505f8760040154886008015f8473ffffffffffffffffffffffffffffffffffffffff1673ffffffffffffffffffffffffffffffffffffffff1681526020019081526020015f20548561399991906148cd565b6139a3919061493b565b90505f811115613a01578060035f8473ffffffffffffffffffffffffffffffffffffffff1673ffffffffffffffffffffffffffffffffffffffff1681526020019081526020015f205f8282546139f99190614d8a565b925050819055505b505080806001019150506138f8565b505050613c06565b5f808403613a7057606460148660040154613a3391906148cd565b613a3d919061493b565b90506004856006015f6101000a81548160ff0219169083600b811115613a6657613a65614781565b5b0217905550613b8e565b60018403613ac8576064601e8660040154613a8b91906148cd565b613a95919061493b565b90506006856006015f6101000a81548160ff0219169083600b811115613abe57613abd614781565b5b0217905550613b8d565b606460328660040154613adb91906148cd565b613ae5919061493b565b90506008856006015f6101000a81548160ff0219169083600b811115613b0e57613b0d614781565b5b0217905550846005015460045f875f015f9054906101000a900473ffffffffffffffffffffffffffffffffffffffff1673ffffffffffffffffffffffffffffffffffffffff1673ffffffffffffffffffffffffffffffffffffffff1681526020019081526020015f205f828254613b859190614d8a565b925050819055505b5b8060045f875f015f9054906101000a900473ffffffffffffffffffffffffffffffffffffffff1673ffffffffffffffffffffffffffffffffffffffff1673ffffffffffffffffffffffffffffffffffffffff1681526020019081526020015f205f828254613bfc9190614d8a565b9250508190555050505b505050565b6040518060600160405280600390602082028036833780820191505090505090565b6040518060600160405280600390602082028036833780820191505090505090565b60405180606001604052806003905b6060815260200190600190039081613c5e5790505090565b5f80fd5b5f80fd5b5f73ffffffffffffffffffffffffffffffffffffffff82169050919050565b5f613ca782613c7e565b9050919050565b613cb781613c9d565b8114613cc1575f80fd5b50565b5f81359050613cd281613cae565b92915050565b5f60208284031215613ced57613cec613c76565b5b5f613cfa84828501613cc4565b91505092915050565b5f819050919050565b613d1581613d03565b82525050565b5f602082019050613d2e5f830184613d0c565b92915050565b5f81519050919050565b5f82825260208201905092915050565b5f819050602082019050919050565b613d6681613d03565b82525050565b5f613d778383613d5d565b60208301905092915050565b5f602082019050919050565b5f613d9982613d34565b613da38185613d3e565b9350613dae83613d4e565b805f5b83811015613dde578151613dc58882613d6c565b9750613dd083613d83565b925050600181019050613db1565b5085935050505092915050565b5f81519050919050565b5f82825260208201905092915050565b5f819050602082019050919050565b613e1d81613c9d565b82525050565b5f613e2e8383613e14565b60208301905092915050565b5f602082019050919050565b5f613e5082613deb565b613e5a8185613df5565b9350613e6583613e05565b805f5b83811015613e95578151613e7c8882613e23565b9750613e8783613e3a565b925050600181019050613e68565b5085935050505092915050565b5f81519050919050565b5f82825260208201905092915050565b5f819050602082019050919050565b5f81519050919050565b5f82825260208201905092915050565b8281835e5f83830152505050565b5f601f19601f8301169050919050565b5f613f0d82613ecb565b613f178185613ed5565b9350613f27818560208601613ee5565b613f3081613ef3565b840191505092915050565b5f613f468383613f03565b905092915050565b5f602082019050919050565b5f613f6482613ea2565b613f6e8185613eac565b935083602082028501613f8085613ebc565b805f5b85811015613fbb5784840389528151613f9c8582613f3b565b9450613fa783613f4e565b925060208a01995050600181019050613f83565b50829750879550505050505092915050565b5f610120820190508181035f830152613fe6818c613d8f565b90508181036020830152613ffa818b613e46565b9050818103604083015261400e818a613f5a565b905081810360608301526140228189613f5a565b905081810360808301526140368188613d8f565b905081810360a083015261404a8187613d8f565b905081810360c083015261405e8186613d8f565b905081810360e08301526140728185613f5a565b90508181036101008301526140878184613d8f565b90509a9950505050505050505050565b6140a081613d03565b81146140aa575f80fd5b50565b5f813590506140bb81614097565b92915050565b5f602082840312156140d6576140d5613c76565b5b5f6140e3848285016140ad565b91505092915050565b5f60039050919050565b5f81905092915050565b5f819050919050565b5f602082019050919050565b61411e816140ec565b61412881846140f6565b925061413382614100565b805f5b8381101561416357815161414a8782613d6c565b965061415583614109565b925050600181019050614136565b505050505050565b5f60039050919050565b5f81905092915050565b5f819050919050565b5f8115159050919050565b61419c81614188565b82525050565b5f6141ad8383614193565b60208301905092915050565b5f602082019050919050565b6141ce8161416b565b6141d88184614175565b92506141e38261417f565b805f5b838110156142135781516141fa87826141a2565b9650614205836141b9565b9250506001810190506141e6565b505050505050565b5f6101608201905061422f5f830188613d0c565b61423c6020830187613d0c565b6142496040830186614115565b61425660a0830185614115565b6142646101008301846141c5565b9695505050505050565b5f6020820190508181035f8301526142868184613d8f565b905092915050565b5f80fd5b5f80fd5b5f80fd5b5f8083601f8401126142af576142ae61428e565b5b8235905067ffffffffffffffff8111156142cc576142cb614292565b5b6020830191508360018202830111156142e8576142e7614296565b5b9250929050565b5f805f805f6060868803121561430857614307613c76565b5b5f86013567ffffffffffffffff81111561432557614324613c7a565b5b6143318882890161429a565b9550955050602086013567ffffffffffffffff81111561435457614353613c7a565b5b6143608882890161429a565b93509350506040614373888289016140ad565b9150509295509295909350565b5f805f6040848603121561439757614396613c76565b5b5f6143a4868287016140ad565b935050602084013567ffffffffffffffff8111156143c5576143c4613c7a565b5b6143d18682870161429a565b92509250509250925092565b6143e681613c9d565b82525050565b5f6020820190506143ff5f8301846143dd565b92915050565b5f60039050919050565b5f81905092915050565b5f819050919050565b5f602082019050919050565b5f61443882614405565b614442818561440f565b93508360208202850161445485614419565b805f5b8581101561448f57848403895281516144708582613f3b565b945061447b83614422565b925060208a01995050600181019050614457565b50829750879550505050505092915050565b5f6040820190508181035f8301526144b9818561442e565b905081810360208301526144cd8184613e46565b90509392505050565b600381106144e2575f80fd5b50565b5f813590506144f3816144d6565b92915050565b5f806040838503121561450f5761450e613c76565b5b5f61451c858286016140ad565b925050602061452d858286016144e5565b9150509250929050565b5f82825260208201905092915050565b5f61455182613ecb565b61455b8185614537565b935061456b818560208601613ee5565b61457481613ef3565b840191505092915050565b5f60e0820190506145925f83018a6143dd565b81810360208301526145a48189614547565b905081810360408301526145b88188614547565b90506145c76060830187613d0c565b6145d46080830186613d0c565b6145e160a0830185613d0c565b81810360c08301526145f38184614547565b905098975050505050505050565b5f6020820190508181035f8301526146198184614547565b905092915050565b5f6040820190508181035f8301526146398185613e46565b9050818103602083015261464d8184613d8f565b90509392505050565b7f4e487b71000000000000000000000000000000000000000000000000000000005f52601160045260245ffd5b5f61468d82613d03565b91507fffffffffffffffffffffffffffffffffffffffffffffffffffffffffffffffff82036146bf576146be614656565b5b600182019050919050565b7f4e487b71000000000000000000000000000000000000000000000000000000005f52604160045260245ffd5b7f4e487b71000000000000000000000000000000000000000000000000000000005f52603260045260245ffd5b7f4e487b71000000000000000000000000000000000000000000000000000000005f52602260045260245ffd5b5f600282049050600182168061476857607f821691505b60208210810361477b5761477a614724565b5b50919050565b7f4e487b71000000000000000000000000000000000000000000000000000000005f52602160045260245ffd5b7f4e6f7468696e67000000000000000000000000000000000000000000000000005f82015250565b5f6147e2600783614537565b91506147ed826147ae565b602082019050919050565b5f6020820190508181035f83015261480f816147d6565b9050919050565b5f81905092915050565b50565b5f61482e5f83614816565b915061483982614820565b5f82019050919050565b5f61484d82614823565b9150819050919050565b7f43524541544f52000000000000000000000000000000000000000000000000005f82015250565b5f61488b600783614537565b915061489682614857565b602082019050919050565b5f6040820190506148b45f830184613d0c565b81810360208301526148c58161487f565b905092915050565b5f6148d782613d03565b91506148e283613d03565b92508282026148f081613d03565b9150828204841483151761490757614906614656565b5b5092915050565b7f4e487b71000000000000000000000000000000000000000000000000000000005f52601260045260245ffd5b5f61494582613d03565b915061495083613d03565b9250826149605761495f61490e565b5b828204905092915050565b7f426f6e64203d20313025000000000000000000000000000000000000000000005f82015250565b5f61499f600a83614537565b91506149aa8261496b565b602082019050919050565b5f6020820190508181035f8301526149cc81614993565b9050919050565b5f82905092915050565b5f819050815f5260205f209050919050565b5f6020601f8301049050919050565b5f82821b905092915050565b5f60088302614a397fffffffffffffffffffffffffffffffffffffffffffffffffffffffffffffffff826149fe565b614a4386836149fe565b95508019841693508086168417925050509392505050565b5f819050919050565b5f614a7e614a79614a7484613d03565b614a5b565b613d03565b9050919050565b5f819050919050565b614a9783614a64565b614aab614aa382614a85565b848454614a0a565b825550505050565b5f90565b614abf614ab3565b614aca818484614a8e565b505050565b5b81811015614aed57614ae25f82614ab7565b600181019050614ad0565b5050565b601f821115614b3257614b03816149dd565b614b0c846149ef565b81016020851015614b1b578190505b614b2f614b27856149ef565b830182614acf565b50505b505050565b5f82821c905092915050565b5f614b525f1984600802614b37565b1980831691505092915050565b5f614b6a8383614b43565b9150826002028217905092915050565b614b8483836149d3565b67ffffffffffffffff811115614b9d57614b9c6146ca565b5b614ba78254614751565b614bb2828285614af1565b5f601f831160018114614bdf575f8415614bcd578287013590505b614bd78582614b5f565b865550614c3e565b601f198416614bed866149dd565b5f5b82811015614c1457848901358255600182019150602085019450602081019050614bef565b86831015614c315784890135614c2d601f891682614b43565b8355505b6001600288020188555050505b50505050505050565b828183375f83830152505050565b5f614c608385614537565b9350614c6d838584614c47565b614c7683613ef3565b840190509392505050565b5f6040820190508181035f830152614c9a818688614c55565b90508181036020830152614caf818486614c55565b905095945050505050565b7f4e6f742063726561746f720000000000000000000000000000000000000000005f82015250565b5f614cee600b83614537565b9150614cf982614cba565b602082019050919050565b5f6020820190508181035f830152614d1b81614ce2565b9050919050565b7f43616e206f6e6c792063616e63656c20696e2046756e64696e670000000000005f82015250565b5f614d56601a83614537565b9150614d6182614d22565b602082019050919050565b5f6020820190508181035f830152614d8381614d4a565b9050919050565b5f614d9482613d03565b9150614d9f83613d03565b9250828201905080821115614db757614db6614656565b5b92915050565b7f4f6e6c79206f776e6572000000000000000000000000000000000000000000005f82015250565b5f614df1600a83614537565b9150614dfc82614dbd565b602082019050919050565b5f6020820190508181035f830152614e1e81614de5565b9050919050565b7f4f574e45520000000000000000000000000000000000000000000000000000005f82015250565b5f614e59600583614537565b9150614e6482614e25565b602082019050919050565b5f604082019050614e825f830184613d0c565b8181036020830152614e9381614e4d565b905092915050565b7f57726f6e672073746167650000000000000000000000000000000000000000005f82015250565b5f614ecf600b83614537565b9150614eda82614e9b565b602082019050919050565b5f6020820190508181035f830152614efc81614ec3565b9050919050565b5f604082019050614f165f830186613d0c565b8181036020830152614f29818486614c55565b9050949350505050565b7f494e564553544f520000000000000000000000000000000000000000000000005f82015250565b5f614f67600883614537565b9150614f7282614f33565b602082019050919050565b5f604082019050614f905f830184613d0c565b8181036020830152614fa181614f5b565b905092915050565b7f4e6f7420696e766573746f7200000000000000000000000000000000000000005f82015250565b5f614fdd600c83614537565b9150614fe882614fa9565b602082019050919050565b5f6020820190508181035f83015261500a81614fd1565b9050919050565b7f496e76616c696420766f7465206f7074696f6e000000000000000000000000005f82015250565b5f615045601383614537565b915061505082615011565b602082019050919050565b5f6020820190508181035f83015261507281615039565b9050919050565b7f46696e616c697a656400000000000000000000000000000000000000000000005f82015250565b5f6150ad600983614537565b91506150b882615079565b602082019050919050565b5f6020820190508181035f8301526150da816150a1565b9050919050565b7f566f7465640000000000000000000000000000000000000000000000000000005f82015250565b5f615115600583614537565b9150615120826150e1565b602082019050919050565b5f6020820190508181035f83015261514281615109565b9050919050565b6003811061515a57615159614781565b5b50565b5f81905061516a82615149565b919050565b5f6151798261515d565b9050919050565b6151898161516f565b82525050565b5f6040820190506151a25f830185613d0c565b6151af6020830184615180565b9392505050565b7f4e6f742066756e64696e670000000000000000000000000000000000000000005f82015250565b5f6151ea600b83614537565b91506151f5826151b6565b602082019050919050565b5f6020820190508181035f830152615217816151de565b9050919050565b7f5a65726f2076616c7565000000000000000000000000000000000000000000005f82015250565b5f615252600a83614537565b915061525d8261521e565b602082019050919050565b5f6020820190508181035f83015261527f81615246565b9050919050565b5f61529082613d03565b915061529b83613d03565b92508282039050818111156152b3576152b2614656565b5b92915050565b7f416c72656164792066756e6465640000000000000000000000000000000000005f82015250565b5f6152ed600e83614537565b91506152f8826152b9565b602082019050919050565b5f6020820190508181035f83015261531a816152e1565b9050919050565b7f526566756e64206661696c6564000000000000000000000000000000000000005f82015250565b5f615355600d83614537565b915061536082615321565b602082019050919050565b5f6020820190508181035f83015261538281615349565b9050919050565b7f4e6f7420766f74696e67000000000000000000000000000000000000000000005f82015250565b5f6153bd600a83614537565b91506153c882615389565b602082019050919050565b5f6020820190508181035f8301526153ea816153b1565b9050919050565b7f446f6e65000000000000000000000000000000000000000000000000000000005f82015250565b5f615425600483614537565b9150615430826153f1565b602082019050919050565b5f6020820190508181035f83015261545281615419565b9050919050565b61546281614188565b82525050565b5f60408201905061547b5f830185613d0c565b6154886020830184615459565b939250505056fea2646970667358221220fc176a33a08298d127d7282fea1e49050e6e9364affb88e8a7c6151e234e876b64736f6c634300081a0033","linkReferences":{}},"methodIdentifiers":{"cancelProject(uint256)":"24941147","claimCreator()":"232adc65","claimInvestor()":"8a237ac5","claimOwner()":"3bd1adec","claimableCreator(address)":"04f02969","claimableInvestor(address)":"aae77126","claimableOwner(address)":"b4d63781","createProject(string,string,uint256)":"23c55448","fund(uint256)":"ca1d209d","getAllFundingProjects()":"1b745c26","getAllInvestments(uint256)":"e1769b1f","getClaimableCreator()":"744ddcaa","getClaimableInvestor()":"bafcf656","getMyInvestedProjects()":"0df529b8","getProjectCore(uint256)":"a948d05f","getProjectMeta(uint256)":"8e98435d","getProjectState(uint256)":"e0155714","getProjectVoting(uint256)":"109ba91c","owner()":"8da5cb5b","projectCount()":"36fbad26","renounceOwnership()":"715018a6","submitMilestone(uint256,string)":"476a119b","transferOwnership(address)":"f2fde38b","vote(uint256,uint8)":"943e8216"},"id":23}