{"abi":[{"type":"constructor","inputs":[],"stateMutability":"nonpayable"},{"type":"function","name":"cancelProject","inputs":[{"name":"projectId","type":"uint256","internalType":"uint256"}],"outputs":[],"stateMutability":"nonpayable"},{"type":"function","name":"claimCreator","inputs":[],"outputs":[],"stateMutability":"nonpayable"},{"type":"function","name":"claimInvestor","inputs":[],"outputs":[],"stateMutability":"nonpayable"},{"type":"function","name":"claimOwner","inputs":[],"outputs":[],"stateMutability":"nonpayable"},{"type":"function","name":"claimableCreator","inputs":[{"name":"","type":"address","internalType":"address"}],"outputs":[{"name":"","type":"uint256","internalType":"uint256"}],"stateMutability":"view"},{"type":"function","name":"claimableInvestor","inputs":[{"name":"","type":"address","internalType":"address"}],"outputs":[{"name":"","type":"uint256","internalType":"uint256"}],"stateMutability":"view"},{"type":"function","name":"claimableOwner","inputs":[{"name":"","type":"address","internalType":"address"}],"outputs":[{"name":"","type":"uint256","internalType":"uint256"}],"stateMutability":"view"},{"type":"function","name":"createProject","inputs":[{"name":"name","type":"string","internalType":"string"},{"name":"description","type":"string","internalType":"string"},{"name":"softCapWei","type":"uint256","internalType":"uint256"},{"name":"category","type":"uint8","internalType":"enum MilestoneFunding.Category"},{"name":"milestoneDescriptions","type":"string[3]","internalType":"string[3]"}],"outputs":[],"stateMutability":"payable"},{"type":"function","name":"fund","inputs":[{"name":"projectId","type":"uint256","internalType":"uint256"}],"outputs":[],"stateMutability":"payable"},{"type":"function","name":"getAllFundingProjects","inputs":[],"outputs":[{"name":"","type":"uint256[]","internalType":"uint256[]"}],"stateMutability":"view"},{"type":"function","name":"getAllInvestments","inputs":[{"name":"projectId","type":"uint256","internalType":"uint256"}],"outputs":[{"name":"","type":"address[]","internalType":"address[]"},{"name":"","type":"uint256[]","internalType":"uint256[]"}],"stateMutability":"view"},{"type":"function","name":"getClaimableCreator","inputs":[],"outputs":[{"name":"","type":"uint256","internalType":"uint256"}],"stateMutability":"view"},{"type":"function","name":"getClaimableInvestor","inputs":[],"outputs":[{"name":"","type":"uint256","internalType":"uint256"}],"stateMutability":"view"},{"type":"function","name":"getClaimableOwner","inputs":[],"outputs":[{"name":"","type":"uint256","internalType":"uint256"}],"stateMutability":"view"},{"type":"function","name":"getMilestoneDescriptions","inputs":[{"name":"projectId","type":"uint256","internalType":"uint256"}],"outputs":[{"name":"","type":"string[3]","internalType":"string[3]"}],"stateMutability":"view"},{"type":"function","name":"getMyInvestedProjects","inputs":[],"outputs":[{"name":"projectIds","type":"uint256[]","internalType":"uint256[]"},{"name":"creators","type":"address[]","internalType":"address[]"},{"name":"names","type":"string[]","internalType":"string[]"},{"name":"descriptions","type":"string[]","internalType":"string[]"},{"name":"categories","type":"uint8[]","internalType":"enum MilestoneFunding.Category[]"},{"name":"softCaps","type":"uint256[]","internalType":"uint256[]"},{"name":"totalFundeds","type":"uint256[]","internalType":"uint256[]"},{"name":"bonds","type":"uint256[]","internalType":"uint256[]"},{"name":"states","type":"uint8[]","internalType":"enum MilestoneFunding.ProjectState[]"},{"name":"investments","type":"uint256[]","internalType":"uint256[]"},{"name":"milestones","type":"string[3][]","internalType":"string[3][]"}],"stateMutability":"view"},{"type":"function","name":"getMyVotes","inputs":[{"name":"projectId","type":"uint256","internalType":"uint256"},{"name":"user","type":"address","internalType":"address"}],"outputs":[{"name":"","type":"uint8[3]","internalType":"enum MilestoneFunding.VoteOption[3]"}],"stateMutability":"view"},{"type":"function","name":"getProjectCore","inputs":[{"name":"projectId","type":"uint256","internalType":"uint256"}],"outputs":[{"name":"creator","type":"address","internalType":"address"},{"name":"name","type":"string","internalType":"string"},{"name":"description","type":"string","internalType":"string"},{"name":"category","type":"uint8","internalType":"enum MilestoneFunding.Category"},{"name":"softCapWei","type":"uint256","internalType":"uint256"},{"name":"totalFunded","type":"uint256","internalType":"uint256"},{"name":"bond","type":"uint256","internalType":"uint256"},{"name":"state","type":"uint8","internalType":"enum MilestoneFunding.ProjectState"}],"stateMutability":"view"},{"type":"function","name":"getProjectMeta","inputs":[{"name":"projectId","type":"uint256","internalType":"uint256"}],"outputs":[{"name":"milestoneHashes","type":"string[3]","internalType":"string[3]"},{"name":"investors","type":"address[]","internalType":"address[]"}],"stateMutability":"view"},{"type":"function","name":"getProjectState","inputs":[{"name":"projectId","type":"uint256","internalType":"uint256"}],"outputs":[{"name":"","type":"string","internalType":"string"}],"stateMutability":"view"},{"type":"function","name":"getProjectVoting","inputs":[{"name":"projectId","type":"uint256","internalType":"uint256"}],"outputs":[{"name":"snapshotTotalFund","type":"uint256","internalType":"uint256"},{"name":"snapshotTotalWeight","type":"uint256","internalType":"uint256"},{"name":"yesWeight","type":"uint256[3]","internalType":"uint256[3]"},{"name":"noWeight","type":"uint256[3]","internalType":"uint256[3]"},{"name":"finalized","type":"bool[3]","internalType":"bool[3]"}],"stateMutability":"view"},{"type":"function","name":"owner","inputs":[],"outputs":[{"name":"","type":"address","internalType":"address"}],"stateMutability":"view"},{"type":"function","name":"projectCount","inputs":[],"outputs":[{"name":"","type":"uint256","internalType":"uint256"}],"stateMutability":"view"},{"type":"function","name":"renounceOwnership","inputs":[],"outputs":[],"stateMutability":"nonpayable"},{"type":"function","name":"submitMilestone","inputs":[{"name":"projectId","type":"uint256","internalType":"uint256"},{"name":"ipfsHash","type":"string","internalType":"string"}],"outputs":[],"stateMutability":"nonpayable"},{"type":"function","name":"transferOwnership","inputs":[{"name":"newOwner","type":"address","internalType":"address"}],"outputs":[],"stateMutability":"nonpayable"},{"type":"function","name":"vote","inputs":[{"name":"projectId","type":"uint256","internalType":"uint256"},{"name":"option","type":"uint8","internalType":"enum MilestoneFunding.VoteOption"}],"outputs":[],"stateMutability":"nonpayable"},{"type":"event","name":"Claim","inputs":[{"name":"user","type":"address","indexed":true,"internalType":"address"},{"name":"amount","type":"uint256","indexed":false,"internalType":"uint256"},{"name":"role","type":"string","indexed":false,"internalType":"string"}],"anonymous":false},{"type":"event","name":"Funded","inputs":[{"name":"projectId","type":"uint256","indexed":true,"internalType":"uint256"},{"name":"investor","type":"address","indexed":true,"internalType":"address"},{"name":"amount","type":"uint256","indexed":false,"internalType":"uint256"}],"anonymous":false},{"type":"event","name":"MilestoneSubmitted","inputs":[{"name":"projectId","type":"uint256","indexed":true,"internalType":"uint256"},{"name":"milestone","type":"uint256","indexed":false,"internalType":"uint256"},{"name":"ipfsHash","type":"string","indexed":false,"internalType":"string"}],"anonymous":false},{"type":"event","name":"OwnershipTransferred","inputs":[{"name":"previousOwner","type":"address","indexed":true,"internalType":"address"},{"name":"newOwner","type":"address","indexed":true,"internalType":"address"}],"anonymous":false},{"type":"event","name":"ProjectCancelled","inputs":[{"name":"projectId","type":"uint256","indexed":true,"internalType":"uint256"}],"anonymous":false},{"type":"event","name":"ProjectCreated","inputs":[{"name":"projectId","type":"uint256","indexed":true,"internalType":"uint256"},{"name":"name","type":"string","indexed":false,"internalType":"string"},{"name":"description","type":"string","indexed":false,"internalType":"string"},{"name":"category","type":"uint8","indexed":false,"internalType":"enum MilestoneFunding.Category"},{"name":"softCapWei","type":"uint256","indexed":false,"internalType":"uint256"},{"name":"creator","type":"address","indexed":true,"internalType":"address"}],"anonymous":false},{"type":"event","name":"VoteFinalized","inputs":[{"name":"projectId","type":"uint256","indexed":true,"internalType":"uint256"},{"name":"milestone","type":"uint256","indexed":false,"internalType":"uint256"},{"name":"passed","type":"bool","indexed":false,"internalType":"bool"}],"anonymous":false},{"type":"event","name":"Voted","inputs":[{"name":"projectId","type":"uint256","indexed":true,"internalType":"uint256"},{"name":"voter","type":"address","indexed":true,"internalType":"address"},{"name":"milestone","type":"uint256","indexed":false,"internalType":"uint256"},{"name":"vote","type":"uint8","indexed":false,"internalType":"enum MilestoneFunding.VoteOption"}],"anonymous":false},{"type":"error","name":"OwnableInvalidOwner","inputs":[{"name":"owner","type":"address","internalType":"address"}]},{"type":"error","name":"OwnableUnauthorizedAccount","inputs":[{"name":"account","type":"address","internalType":"address"}]},{"type":"error","name":"ReentrancyGuardReentrantCall","inputs":[]}],"bytecode":{"object":"0x6080806040523460955733156082575f8054336001600160a01b0319821681178355916001600160a01b03909116907f8be0079c531659141344cd1fd0a4f28419497f9722a3daafe3b4186f6b6457e09080a360017f9b779b17422d0df92223018b32b4d1fa46e071723d6817e2486d003becc55f0055612dd1908161009a8239f35b631e4fbdf760e01b5f525f60045260245ffd5b5f80fdfe6080806040526004361015610012575f80fd5b5f3560e01c90816304f0296914611f8a575080630df529b814611ac4578063109ba91c146119c75780631b745c26146118df578063223ecf0d14611559578063232adc65146114a857806324941147146112e4578063275fd95b146112bd57806336fbad26146112a05780633bd1adec146111ae578063476a119b14610ef5578063715018a614610e9e578063744ddcaa14610e775780638a237ac514610dc55780638da5cb5b14610d9e5780638e98435d14610d19578063943e821614610a9d578063a948d05f146109e2578063aae77126146109aa578063b4d6378114610972578063bafcf6561461094b578063ca1d209d14610642578063e0155714146103b3578063e1769b1f14610307578063e48bfef214610239578063f24f5c4c146101ce5763f2fde38b14610145575f80fd5b346101ca5760203660031901126101ca5761015e611fbe565b610166612742565b6001600160a01b031680156101b7575f80546001600160a01b03198116831782556001600160a01b0316907f8be0079c531659141344cd1fd0a4f28419497f9722a3daafe3b4186f6b6457e09080a3005b631e4fbdf760e01b5f525f60045260245ffd5b5f80fd5b346101ca5760203660031901126101ca5760405160606101ee818361219b565b5f5b81811061022b576004355f526002602052610227610213601660405f2001612344565b6040519182916020835260208301906120d9565b0390f35b8082602092850152016101f0565b346101ca5760403660031901126101ca576024356001600160a01b03811681036101ca576060908160405161026e828261219b565b3690376004355f526002602052600e60405f20019060018060a01b03165f5260205260405f206102cc60405191546102a98360ff831661216c565b6102bc6020840160ff8360081c1661216c565b60ff604084019160101c1661216c565b6102d6828261219b565b604051905f825b600382106102ea57505050f35b602080826102fb600194875161216c565b019301910190916102dd565b346101ca5760203660031901126101ca576004355f52600260205260405f20600881018054610335816121d5565b926009015f5b828110610375576103678561022761035287612651565b91604051938493604085526040850190612007565b908382036020850152611fd4565b8061038260019286612620565b838060a01b0391549060031b1c16828060a01b03165f528260205260405f20546103ac828861225a565b520161033b565b346101ca5760203660031901126101ca576004355f52600260205260405f2060405190610180820182811067ffffffffffffffff82111761062e5760405260076040918251610402848261219b565b600981526810d85b98d95b1b195960ba1b602082015284528251610426848261219b565b8281526646756e64696e6760c81b60208201526020850152825161044a848261219b565b600e81526d4275696c64696e6753746167653160901b6020820152838501528251610475848261219b565b600c81526b566f74696e67526f756e643160a01b60208201526060850152825161049f848261219b565b600d81526c4661696c757265526f756e643160981b6020820152608085015282516104ca848261219b565b600e81526d213ab4b63234b733a9ba30b3b29960911b602082015260a085015282516104f6848261219b565b600c81526b2b37ba34b733a937bab7321960a11b602082015260c08501528251610520848261219b565b600d81526c2330b4b63ab932a937bab7321960991b602082015260e0850152825161054b848261219b565b600e81526d4275696c64696e6753746167653360901b60208201526101008501528251610578848261219b565b600c81526b566f74696e67526f756e643360a01b602082015261012085015282516105a3848261219b565b600d81526c4661696c757265526f756e643360981b602082015261014085015282516105cf848261219b565b600981526810dbdb5c1b195d195960ba1b6020820152610160850152015491600c60ff8416101561061a57611fe06102279360051b1601519051918291602083526020830190612043565b634e487b7160e01b5f52602160045260245ffd5b634e487b7160e01b5f52604160045260245ffd5b60203660031901126101ca5760043561065961270a565b805f52600260205260405f206007810160ff815416600c81101561061a576001036109185734156108e657600482019182549061069c60058201928354906126fd565b9384156108b057345f9580341161089b575b50335f908152600a8401602081905260409091205460ff1615610839575b50600983019660018060a01b0333165f528760205260405f206106f0838254612635565b90556106fd828654612635565b8095556040519182527f38c48552690c96ec2872092ac1db6c19fb59f5a8c5b49bbf41ed4886d0ca692660203393a3548210156107a4575b505050809150610753575b60015f80516020612d7c83398151915255005b5f80808093335af16107636125b7565b501561076f5780610740565b60405162461bcd60e51b815260206004820152600d60248201526c1499599d5b990819985a5b1959609a1b6044820152606490fd5b600b8101918255925f92600d8501916008860191855b83548710156108175761080f6001916108096107d68a88612620565b905460039190911b1c60a085901b859003165f90815260208d8152604080832054918b905290912081905589549061282b565b90612635565b9601956107ba565b9550959250955050600c91500155600260ff1982541617905580828080610735565b335f90815260209190915260409020805460ff191660011790556008830180546801000000000000000081101561062e5761087991600182018155612620565b81546001600160a01b0360039290921b91821b19163390911b179055876106cc565b95506108a9905085346126fd565b94876106ae565b60405162461bcd60e51b815260206004820152600e60248201526d105b1c9958591e48199d5b99195960921b6044820152606490fd5b60405162461bcd60e51b815260206004820152600a6024820152695a65726f2076616c756560b01b6044820152606490fd5b60405162461bcd60e51b815260206004820152600b60248201526a4e6f742066756e64696e6760a81b6044820152606490fd5b346101ca575f3660031901126101ca57335f526003602052602060405f2054604051908152f35b346101ca5760203660031901126101ca576001600160a01b03610993611fbe565b165f526005602052602060405f2054604051908152f35b346101ca5760203660031901126101ca576001600160a01b036109cb611fbe565b165f526003602052602060405f2054604051908152f35b346101ca5760203660031901126101ca576004355f52600260205260405f2060018060a01b0381541660ff6003830154166102276004840154600585015460068601549060ff60078801541692610a84610a79610a4d6002610a4660018d016122a6565b9b016122a6565b610a6b6040519b8c9b8c5261010060208d01526101008c0190612043565b908a820360408c0152612043565b9660608901906120bf565b608087015260a086015260c085015260e08401906120cc565b346101ca5760403660031901126101ca5760043560243560038110156101ca57815f52600260205260405f209160018060a01b0333165f52600a830160205260ff60405f20541615610ce5575f926001831492838015610cd8575b610b0286916126a2565b61061a5780151580610cca575b610b18906126a2565b610b2182612768565b9360ff610b3186601586016126e4565b90549060031b1c16610c9957600e830160018060a01b0333165f528060205260ff610b5f8760405f206126e4565b90549060031b1c16600381101561061a57610c6c5760018060a01b0333165f52602052610b8f8560405f206126e4565b9661061a57610c519681549060031b9060ff808616831b921b191617905560018060a01b0333165f52600d8301602052610bd260405f2054600b8501549061282b565b9015610c5357610c1190610bfb610bec87600f8701612642565b91909283548360031b1c612635565b82545f1960039390931b92831b1916911b179055565b610c2560405191858352602083019061216c565b827ffe2287fa52fad81788ac4645bf0bae4badc927d35f68ab09bc950ca8e0f0168960403393a36128dc565b005b610c6790610bfb610bec8760128701612642565b610c11565b60405162461bcd60e51b8152602060048201526005602482015264159bdd195960da1b6044820152606490fd5b60405162461bcd60e51b8152602060048201526009602482015268119a5b985b1a5e995960ba1b6044820152606490fd5b505f94506002811115610b0f565b505f945060028114610af8565b60405162461bcd60e51b815260206004820152600c60248201526b2737ba1034b73b32b9ba37b960a11b6044820152606490fd5b346101ca5760203660031901126101ca576040516060610d39818361219b565b5f5b818110610d90576004355f526002602052610d8260405f20610227610d6e6008610d6760198501612344565b9301612651565b6040519384936040855260408501906120d9565b908382036020850152612007565b808260209285015201610d3b565b346101ca575f3660031901126101ca575f546040516001600160a01b039091168152602090f35b346101ca575f3660031901126101ca57610ddd61270a565b335f52600360205260405f2054610df5811515612565565b335f5260036020525f60408120555f80808084335af1610e136125b7565b50156101ca5760405190815260406020820152600860408201526724a72b22a9aa27a960c11b60608201527f58fb02bcfedd338314c70bcf748b4f71a01259cf8956f31b34cb09acf29809cb60803392a260015f80516020612d7c83398151915255005b346101ca575f3660031901126101ca57335f526004602052602060405f2054604051908152f35b346101ca575f3660031901126101ca57610eb6612742565b5f80546001600160a01b0319811682556001600160a01b03167f8be0079c531659141344cd1fd0a4f28419497f9722a3daafe3b4186f6b6457e08280a3005b346101ca5760403660031901126101ca5760043560243567ffffffffffffffff81116101ca57610f2990369060040161213e565b825f52600260205260405f20610f4960018060a01b0382541633146125e6565b8115611174576080821161113a57602e8214611075575b6007810160ff815416600c81101561061a5760028103610ffc5750610f979060195f938492600360ff198254161790555b01612642565b610fe95783610fcb847f556e3b296d5e8c8bab27684b52ae96905507befd2d188ce6f4453a6717dd9c0096610fe494612431565b6040519384938452604060208501526040840191612545565b0390a2005b634e487b7160e01b5f525f60045260245ffd5b600581036110205750610f979060196001938492600660ff19825416179055610f91565b60080361104257610f979060196002938492600960ff19825416179055610f91565b60405162461bcd60e51b815260206004820152600b60248201526a57726f6e6720737461676560a81b6044820152606490fd5b61107e8261259b565b61108b604051918261219b565b8281526020810136848601116101ca57838582375f6020858401015281511561112657516001600160f81b031916605160f81b149081611100575b50610f605760405162461bcd60e51b815260206004820152600d60248201526c0496e76616c696420434944763609c1b6044820152606490fd5b809150516001101561112657602101516001600160f81b031916606d60f81b14856110c6565b634e487b7160e01b5f52603260045260245ffd5b60405162461bcd60e51b815260206004820152601260248201527149504653206861736820746f6f206c6f6e6760701b6044820152606490fd5b60405162461bcd60e51b815260206004820152601260248201527112541194c81a185cda081c995c5d5a5c995960721b6044820152606490fd5b346101ca575f3660031901126101ca576111c661270a565b5f546001600160a01b0316330361126e57335f52600560205260405f20546111ef811515612565565b335f5260056020525f60408120555f80808084335af161120d6125b7565b50156101ca5760405190815260406020820152600560408201526427aba722a960d91b60608201527f58fb02bcfedd338314c70bcf748b4f71a01259cf8956f31b34cb09acf29809cb60803392a260015f80516020612d7c83398151915255005b60405162461bcd60e51b815260206004820152600a60248201526927b7363c9037bbb732b960b11b6044820152606490fd5b346101ca575f3660031901126101ca576020600154604051908152f35b346101ca575f3660031901126101ca57335f526005602052602060405f2054604051908152f35b346101ca5760203660031901126101ca5760043561130061270a565b805f52600260205260405f209061132160018060a01b0383541633146125e6565b6007820160ff815416600c81101561061a5760010361146357805460ff191690556005820154600683018054909291806113b757505f80546001600160a01b0316815260056020526040812080549195509161137c91612635565b90555b7fe3805ed669490875ae87c5c8b1ad6ecca0e5e67305a833926d0d4317c4822fc08380a25560015f80516020612d7c83398151915255005b5f939293926009600887019601935b865481101561145557806113dc60019289612620565b838060a01b0391549060031b1c16828060a01b0381165f528660205260405f20548061140b575b5050016113c6565b806108098761141d611422948b612532565b6123c4565b815f52600360205261143960405f20918254612635565b9055828060a01b03165f52856020525f60408120558880611403565b5093925050505f925061137f565b60405162461bcd60e51b815260206004820152601a60248201527f43616e206f6e6c792063616e63656c20696e2046756e64696e670000000000006044820152606490fd5b346101ca575f3660031901126101ca576114c061270a565b335f52600460205260405f20546114d8811515612565565b335f5260046020525f60408120555f80808084335af16114f66125b7565b50156101ca5760405190815260406020820152600760408201526621a922a0aa27a960c91b60608201527f58fb02bcfedd338314c70bcf748b4f71a01259cf8956f31b34cb09acf29809cb60803392a260015f80516020612d7c83398151915255005b60a03660031901126101ca5760043567ffffffffffffffff81116101ca5761158590369060040161213e565b9060243567ffffffffffffffff81116101ca576115a690369060040161213e565b60643593916044359160088610156101ca5760843567ffffffffffffffff81116101ca5780600401906064369101116101ca5783156118ab57600a840480340361187957821561183d576104008311611801575f5b6003811061175f57506007881161172757611617600154612179565b806001555f52600260205260405f2090336bffffffffffffffffffffffff60a01b83541617825561164c878960018501612431565b61165a848660028501612431565b6003820160ff1981541660ff8b16179055856004830155600682015560078101600160ff1982541617905560168291015f915b600383106117015789897f2b96aec48c86c2065c5b54cc8391f9ddbd018325a811b1090a1bac64ade6d1878a8a6116f46116e98c8c6116db6001549860405197608089526080890191612545565b918683036020880152612545565b9560408401906120bf565b60608201528033940390a3005b600160208261171b6117148495896123e2565b9087612431565b0192019201919061168d565b60405162461bcd60e51b815260206004820152601060248201526f496e76616c69642063617465676f727960801b6044820152606490fd5b6117698184612415565b9050156117bc5761010061177d8285612415565b90501161178c576001016115fb565b60405162461bcd60e51b8152602060048201526008602482015267546f6f206c6f6e6760c01b6044820152606490fd5b60405162461bcd60e51b815260206004820152601b60248201527f456d707479206d696c6573746f6e65206465736372697074696f6e00000000006044820152606490fd5b60405162461bcd60e51b81526020600482015260146024820152734465736372697074696f6e20746f6f206c6f6e6760601b6044820152606490fd5b60405162461bcd60e51b815260206004820152601460248201527311195cd8dc9a5c1d1a5bdb881c995c5d5a5c995960621b6044820152606490fd5b60405162461bcd60e51b815260206004820152600a602482015269426f6e64203d2031302560b01b6044820152606490fd5b60405162461bcd60e51b815260206004820152600c60248201526b0536f667420636170203d20360a41b6044820152606490fd5b346101ca575f3660031901126101ca575f600190600154915b82811115611980575061190a906121d5565b5f9160015b8181111561192d576040516020808252819061022790820186611fd4565b805f52600260205260ff600760405f20015416600c81101561061a5760011461195f575b61195a90612179565b61190f565b92611978818561197261195a948761225a565b52612179565b939050611951565b805f52600260205260ff600760405f20015416600c81101561061a576001146119b2575b6119ad90612179565b6118f8565b906119bf6119ad91612179565b9190506119a4565b346101ca5760203660031901126101ca576060806040516119e8828261219b565b369037806040516119f9828261219b565b36903780604051611a0a828261219b565b3690376004355f52600260205260405f20611a97600b82015492611a8d600c840154611a38600f8601612390565b90611a78611a4860128801612390565b9460ff601560405199015481811615158a52818160081c16151560208b015260101c16151560408901528761219b565b60405196875260208701526040860190612117565b60a0840190612117565b5f61010083015b60038210611aac5761016084f35b60208060019285511515815201930191019091611a9e565b346101ca575f3660031901126101ca575f600190600154915b82811115611f435750611aef816121d5565b611af8826121bd565b92611b06604051948561219b565b828452601f19611b15846121bd565b01366020860137611b2583612223565b611b2e84612223565b611b37856121bd565b611b44604051918261219b565b858152611b50866121bd565b601f1901366020830137611b63866121d5565b611b6c876121d5565b92611b76886121d5565b94611b80896121bd565b97611b8e604051998a61219b565b898952611b9a8a6121bd565b601f19013660208b0137611bad8a6121d5565b97611bb78b6121bd565b9a611bc56040519c8d61219b565b808c52611bd4601f19916121bd565b015f5b818110611efc5750505f60015b82811115611d8a5750505091611c39611c4792611c2b611c1d9c9b9a99989796956040519e8f9e8f926101608452610160840190611fd4565b916020818403910152612007565b8c810360408e015290612067565b908a820360608c0152612067565b88810360808a0152602080845192838152019301905f5b818110611d5b5750505091611c8282611c9e95948a611c90950360a08c0152611fd4565b9088820360c08a0152611fd4565b9086820360e0880152611fd4565b848103610100860152602080845192838152019301905f5b818110611d345750505090611cd391848203610120860152611fd4565b828103610140840152815180825260208201916020808360051b8301019401925f915b838310611d035786860387f35b919395509193602080611d22600193601f1986820301875289516120d9565b97019301930190928695949293611cf6565b91949550919260208082611d4b60019489516120cc565b0195019101918695949392611cb6565b9194959697989950919260208082611d7660019489516120bf565b0195019101918a9998979695949392611c5e565b805f9e9495969e526002602052600a60405f200160018060a01b0333165f526020528d60ff60405f205416611dce575b50611dc490612179565b9c9493929c611be4565b9091825f526002602052611e418160405f209385611dec838b61225a565b5284546001600160a01b0316611e02838a61225a565b52611e0f600186016122a6565b611e19838c61225a565b52611e24828b61225a565b50611e31600286016122a6565b611e3b838361225a565b5261225a565b5060ff60038301541690611e55818b61225a565b91600881101561061a578e92526004830154611e71828b61225a565b526005830154611e81828d61225a565b526006830154611e91828e61225a565b52611ea48160ff6007860154169361225a565b92600c83101561061a578f82908f6016611eed94611e3192611ef398611dc49a5260018060a01b0333165f5260098201602052611ee68660405f20549261225a565b5201612344565b50612179565b9190508d611dba565b5f9d9394959d50604051611f1160608261219b565b8d5f5b60608110611f32575090602083819493010152019c9493929c611bd7565b6060838201528f9150602001611f14565b5f818152600260209081526040808320338452600a0190915290205460ff16611f75575b611f7090612179565b611add565b90611f82611f7091612179565b919050611f67565b346101ca5760203660031901126101ca576020906001600160a01b03611fae611fbe565b165f526004825260405f20548152f35b600435906001600160a01b03821682036101ca57565b90602080835192838152019201905f5b818110611ff15750505090565b8251845260209384019390920191600101611fe4565b90602080835192838152019201905f5b8181106120245750505090565b82516001600160a01b0316845260209384019390920191600101612017565b805180835260209291819084018484015e5f828201840152601f01601f1916010190565b9080602083519182815201916020808360051b8301019401925f915b83831061209257505050505090565b90919293946020806120b0600193601f198682030187528951612043565b97019301930191939290612083565b90600882101561061a5752565b90600c82101561061a5752565b60608201915f815b600382106120f0575050505090565b9091929360208061210983876001950386528851612043565b9601920192019092916120e1565b905f905b6003821061212857505050565b602080600192855181520193019101909161211b565b9181601f840112156101ca5782359167ffffffffffffffff83116101ca57602083818601950101116101ca57565b90600382101561061a5752565b5f1981146121875760010190565b634e487b7160e01b5f52601160045260245ffd5b90601f8019910116810190811067ffffffffffffffff82111761062e57604052565b67ffffffffffffffff811161062e5760051b60200190565b906121df826121bd565b6121ec604051918261219b565b82815280926121fd601f19916121bd565b0190602036910137565b5f5b82811061221557505050565b606082820152602001612209565b90612258612230836121bd565b61223d604051918261219b565b83815260208194612250601f19916121bd565b019101612207565b565b80518210156111265760209160051b010190565b90600182811c9216801561229c575b602083101461228857565b634e487b7160e01b5f52602260045260245ffd5b91607f169161227d565b9060405191825f8254926122b98461226e565b808452936001811690811561232257506001146122de575b506122589250038361219b565b90505f9291925260205f20905f915b818310612306575050906020612258928201015f6122d1565b60209193508060019154838589010152019101909184926122ed565b90506020925061225894915060ff191682840152151560051b8201015f6122d1565b90604051916060830183811067ffffffffffffffff82111761062e576040525f835b6003821061237357505050565b600160208192612382866122a6565b815201930191019091612366565b60405191905f835b600382106123ae5750505061225860608361219b565b6001602081928554815201930191019091612398565b81156123ce570490565b634e487b7160e01b5f52601260045260245ffd5b903590601e19813603018212156101ca570180359067ffffffffffffffff82116101ca576020019181360383136101ca57565b60038210156111265761242d9160051b8101906123e2565b9091565b90929167ffffffffffffffff811161062e5761244d825461226e565b601f81116124ed575b505f601f821160011461248e57819293945f92612483575b50508160011b915f199060031b1c1916179055565b013590505f8061246e565b601f19821694835f5260205f20915f5b8781106124d55750836001959697106124bc575b505050811b019055565b01355f19600384901b60f8161c191690555f80806124b2565b9092602060018192868601358155019401910161249e565b825f5260205f20601f830160051c81019160208410612528575b601f0160051c01905b81811061251d5750612456565b5f8155600101612510565b9091508190612507565b8181029291811591840414171561218757565b908060209392818452848401375f828201840152601f01601f1916010190565b1561256c57565b60405162461bcd60e51b81526020600482015260076024820152664e6f7468696e6760c81b6044820152606490fd5b67ffffffffffffffff811161062e57601f01601f191660200190565b3d156125e1573d906125c88261259b565b916125d6604051938461219b565b82523d5f602084013e565b606090565b156125ed57565b60405162461bcd60e51b815260206004820152600b60248201526a2737ba1031b932b0ba37b960a91b6044820152606490fd5b8054821015611126575f5260205f2001905f90565b9190820180921161218757565b60038210156111265701905f90565b90604051918281549182825260208201905f5260205f20925f5b8181106126805750506122589250038361219b565b84546001600160a01b031683526001948501948794506020909301920161266b565b156126a957565b60405162461bcd60e51b815260206004820152601360248201527224b73b30b634b2103b37ba329037b83a34b7b760691b6044820152606490fd5b919091600383101561112657601f908360051c01921690565b9190820391821161218757565b60025f80516020612d7c83398151915254146127335760025f80516020612d7c83398151915255565b633ee5aeb560e01b5f5260045ffd5b5f546001600160a01b0316330361275557565b63118cdaa760e01b5f523360045260245ffd5b6007015460ff16600c8110158061061a5760038214801561281f575b612819578061061a5760068214801561280d575b6128065761061a57600981149081156127fb575b506127f65760405162461bcd60e51b815260206004820152601e60248201527f4e6f7420766f74696e67206f72206661696c6564206d696c6573746f6e6500006044820152606490fd5b600290565b600a9150145f6127ac565b5050600190565b50505f60078214612798565b50505f90565b50505f60048214612784565b80158080156128d4575b6128cd57670de0b6b3a7640000820290828204670de0b6b3a764000014171561218757600181018082116121875760011c815b8282106128ae575050600182018092116121875761288861288e92612a7d565b90612532565b60018201809211612187576128a56128ab92612a7d565b906123c4565b90565b9091506128c4826128bf81846123c4565b612635565b60011c90612868565b5050505f90565b508215612835565b90916128eb81600f8401612642565b90549060031b1c6128ff8260128501612642565b90549060031b1c600c8401546129158284612635565b9081811115612a765761292882826126fd565b915b60648102908082046064149015171561218757604682028215918382046046148317156121875710612a6c5760648402908482046064148515171561218757602883029283046028141715612187571015612a3a5761298891612635565b1061299257505050565b601582019160ff6129a383856126e4565b90549060031b1c16612a0f57612258936129d96129c2846001966126e4565b819291549060031b9060ff6001831b921b19161790565b90557fd0e20bc20137f27f0f61ae739e5a5fbcd5839910ab315b4feccb3dcd848c388260408051858152866020820152a2612ac0565b606460405162461bcd60e51b8152602060048201526004602482015263446f6e6560e01b6044820152fd5b505050601582019160ff612a4e83856126e4565b90549060031b1c16612a0f57612258936129d96129c2845f966126e4565b5050505050505050565b5f9161292a565b5f905b60018111612aad5750670de0b6b3a7640000810290808204670de0b6b3a764000014901517156121875790565b612aba9060011c91612179565b90612a80565b915f905f5b83811115612ccb575015612bbf575080612b2f575060058101546014810290808204601414901517156121875760078201805460ff1916600517905560649004905b546001600160a01b03165f90815260046020526040902080549091612b2b91612635565b9055565b600103612b67576005810154601e810290808204601e14901517156121875760078201805460ff191660081790556064900490612b07565b600581015460328102908082046032149015171561218757606490049060078101600b60ff19825416179055600681015460018060a01b038254165f526004602052612bb860405f20918254612635565b9055612b07565b92919080612c9c575060078101805460ff191660041790555b60068101545f80546001600160a01b0316815260056020526040902080549091612c0191612635565b9055612c12600582019384546126fd565b5f5b600883018054821015612c945790612c2e81600193612620565b838060a01b0391549060031b1c16828060a01b0381165f5260098501602052612c66612c5e60405f205486612532565b8854906123c4565b9081612c75575b505001612c14565b5f526003602052612c8b60405f20918254612635565b90555f80612c6d565b505050509050565b600103612cb75760078101600760ff19825416179055612bd8565b60078101805460ff1916600a179055612bd8565b9182612d0557600585015460148102908082046014149015171561218757612d00916064612cfa920490612635565b92612179565b612ac5565b60018303612d36576005850154601e810290808204601e149015171561218757612d00916064612cfa920490612635565b9160028114612d49575b612d0090612179565b91600585015460328102908082046032149015171561218757612d00916064612d73920490612635565b929050612d4056fe9b779b17422d0df92223018b32b4d1fa46e071723d6817e2486d003becc55f00a2646970667358221220c1c02e7c07043cb722321cc9acccd4e451665f48756d8e5e6fe3c1b227fd154264736f6c634300081a0033","linkReferences":{}},"methodIdentifiers":{"cancelProject(uint256)":"24941147","claimCreator()":"232adc65","claimInvestor()":"8a237ac5","claimOwner()":"3bd1adec","claimableCreator(address)":"04f02969","claimableInvestor(address)":"aae77126","claimableOwner(address)":"b4d63781","createProject(string,string,uint256,uint8,string[3])":"223ecf0d","fund(uint256)":"ca1d209d","getAllFundingProjects()":"1b745c26","getAllInvestments(uint256)":"e1769b1f","getClaimableCreator()":"744ddcaa","getClaimableInvestor()":"bafcf656","getClaimableOwner()":"275fd95b","getMilestoneDescriptions(uint256)":"f24f5c4c","getMyInvestedProjects()":"0df529b8","getMyVotes(uint256,address)":"e48bfef2","getProjectCore(uint256)":"a948d05f","getProjectMeta(uint256)":"8e98435d","getProjectState(uint256)":"e0155714","getProjectVoting(uint256)":"109ba91c","owner()":"8da5cb5b","projectCount()":"36fbad26","renounceOwnership()":"715018a6","submitMilestone(uint256,string)":"476a119b","transferOwnership(address)":"f2fde38b","vote(uint256,uint8)":"943e8216"},"id":25}