{"abi":[{"type":"constructor","inputs":[],"stateMutability":"nonpayable"},{"type":"function","name":"cancelProject","inputs":[{"name":"projectId","type":"uint256","internalType":"uint256"}],"outputs":[],"stateMutability":"nonpayable"},{"type":"function","name":"claimAllRefund","inputs":[],"outputs":[],"stateMutability":"nonpayable"},{"type":"function","name":"claimCreator","inputs":[],"outputs":[],"stateMutability":"nonpayable"},{"type":"function","name":"claimOwner","inputs":[],"outputs":[],"stateMutability":"nonpayable"},{"type":"function","name":"claimRefund","inputs":[{"name":"projectId","type":"uint256","internalType":"uint256"}],"outputs":[],"stateMutability":"nonpayable"},{"type":"function","name":"claimableCreator","inputs":[{"name":"","type":"address","internalType":"address"}],"outputs":[{"name":"","type":"uint256","internalType":"uint256"}],"stateMutability":"view"},{"type":"function","name":"claimableOwner","inputs":[{"name":"","type":"address","internalType":"address"}],"outputs":[{"name":"","type":"uint256","internalType":"uint256"}],"stateMutability":"view"},{"type":"function","name":"createProject","inputs":[{"name":"name","type":"string","internalType":"string"},{"name":"description","type":"string","internalType":"string"},{"name":"softCapWei","type":"uint256","internalType":"uint256"},{"name":"category","type":"uint8","internalType":"enum MilestoneFunding.Category"},{"name":"milestoneDescriptions","type":"string[3]","internalType":"string[3]"}],"outputs":[],"stateMutability":"payable"},{"type":"function","name":"fund","inputs":[{"name":"projectId","type":"uint256","internalType":"uint256"}],"outputs":[],"stateMutability":"payable"},{"type":"function","name":"getAllClaimableRefund","inputs":[],"outputs":[{"name":"","type":"uint256","internalType":"uint256"}],"stateMutability":"view"},{"type":"function","name":"getAllFundingProjects","inputs":[],"outputs":[{"name":"","type":"uint256[]","internalType":"uint256[]"}],"stateMutability":"view"},{"type":"function","name":"getAllInvestments","inputs":[{"name":"projectId","type":"uint256","internalType":"uint256"}],"outputs":[{"name":"","type":"address[]","internalType":"address[]"},{"name":"","type":"uint256[]","internalType":"uint256[]"}],"stateMutability":"view"},{"type":"function","name":"getClaimableCreator","inputs":[],"outputs":[{"name":"","type":"uint256","internalType":"uint256"}],"stateMutability":"view"},{"type":"function","name":"getClaimableOwner","inputs":[],"outputs":[{"name":"","type":"uint256","internalType":"uint256"}],"stateMutability":"view"},{"type":"function","name":"getMilestoneDescriptions","inputs":[{"name":"projectId","type":"uint256","internalType":"uint256"}],"outputs":[{"name":"","type":"string[3]","internalType":"string[3]"}],"stateMutability":"view"},{"type":"function","name":"getMyInvestedProjects","inputs":[],"outputs":[{"name":"","type":"uint256[]","internalType":"uint256[]"}],"stateMutability":"view"},{"type":"function","name":"getMyVotes","inputs":[{"name":"projectId","type":"uint256","internalType":"uint256"},{"name":"user","type":"address","internalType":"address"}],"outputs":[{"name":"","type":"uint8[3]","internalType":"enum MilestoneFunding.VoteOption[3]"}],"stateMutability":"view"},{"type":"function","name":"getProjectCore","inputs":[{"name":"projectId","type":"uint256","internalType":"uint256"}],"outputs":[{"name":"creator","type":"address","internalType":"address"},{"name":"category","type":"uint8","internalType":"enum MilestoneFunding.Category"},{"name":"softCapWei","type":"uint256","internalType":"uint256"},{"name":"totalFunded","type":"uint256","internalType":"uint256"},{"name":"bond","type":"uint256","internalType":"uint256"},{"name":"state","type":"uint8","internalType":"enum MilestoneFunding.ProjectState"}],"stateMutability":"view"},{"type":"function","name":"getProjectMeta","inputs":[{"name":"projectId","type":"uint256","internalType":"uint256"}],"outputs":[{"name":"name","type":"string","internalType":"string"},{"name":"description","type":"string","internalType":"string"},{"name":"milestoneDescriptions","type":"string[3]","internalType":"string[3]"},{"name":"milestoneHashes","type":"bytes[3]","internalType":"bytes[3]"}],"stateMutability":"view"},{"type":"function","name":"getProjectState","inputs":[{"name":"projectId","type":"uint256","internalType":"uint256"}],"outputs":[{"name":"","type":"string","internalType":"string"}],"stateMutability":"view"},{"type":"function","name":"getProjectVoting","inputs":[{"name":"projectId","type":"uint256","internalType":"uint256"}],"outputs":[{"name":"snapshotTotalFund","type":"uint256","internalType":"uint256"},{"name":"totalWeight","type":"uint256","internalType":"uint256"},{"name":"yesWeight","type":"uint256[3]","internalType":"uint256[3]"},{"name":"noWeight","type":"uint256[3]","internalType":"uint256[3]"},{"name":"finalized","type":"bool[3]","internalType":"bool[3]"}],"stateMutability":"view"},{"type":"function","name":"invested","inputs":[{"name":"","type":"uint256","internalType":"uint256"},{"name":"","type":"address","internalType":"address"}],"outputs":[{"name":"","type":"uint256","internalType":"uint256"}],"stateMutability":"view"},{"type":"function","name":"investors","inputs":[{"name":"","type":"uint256","internalType":"uint256"},{"name":"","type":"uint256","internalType":"uint256"}],"outputs":[{"name":"","type":"address","internalType":"address"}],"stateMutability":"view"},{"type":"function","name":"isInvestor","inputs":[{"name":"","type":"uint256","internalType":"uint256"},{"name":"","type":"address","internalType":"address"}],"outputs":[{"name":"","type":"bool","internalType":"bool"}],"stateMutability":"view"},{"type":"function","name":"owner","inputs":[],"outputs":[{"name":"","type":"address","internalType":"address"}],"stateMutability":"view"},{"type":"function","name":"projectCore","inputs":[{"name":"","type":"uint256","internalType":"uint256"}],"outputs":[{"name":"creator","type":"address","internalType":"address"},{"name":"category","type":"uint8","internalType":"enum MilestoneFunding.Category"},{"name":"softCapWei","type":"uint256","internalType":"uint256"},{"name":"totalFunded","type":"uint256","internalType":"uint256"},{"name":"bond","type":"uint256","internalType":"uint256"},{"name":"state","type":"uint8","internalType":"enum MilestoneFunding.ProjectState"}],"stateMutability":"view"},{"type":"function","name":"projectCount","inputs":[],"outputs":[{"name":"","type":"uint256","internalType":"uint256"}],"stateMutability":"view"},{"type":"function","name":"projectMeta","inputs":[{"name":"","type":"uint256","internalType":"uint256"}],"outputs":[{"name":"name","type":"string","internalType":"string"},{"name":"description","type":"string","internalType":"string"}],"stateMutability":"view"},{"type":"function","name":"projectVoting","inputs":[{"name":"","type":"uint256","internalType":"uint256"}],"outputs":[{"name":"snapshotTotalFund","type":"uint256","internalType":"uint256"},{"name":"snapshotTotalWeight","type":"uint256","internalType":"uint256"}],"stateMutability":"view"},{"type":"function","name":"refundClaimed","inputs":[{"name":"","type":"uint256","internalType":"uint256"},{"name":"","type":"address","internalType":"address"}],"outputs":[{"name":"","type":"bool","internalType":"bool"}],"stateMutability":"view"},{"type":"function","name":"refundPool","inputs":[{"name":"","type":"uint256","internalType":"uint256"}],"outputs":[{"name":"","type":"uint256","internalType":"uint256"}],"stateMutability":"view"},{"type":"function","name":"renounceOwnership","inputs":[],"outputs":[],"stateMutability":"nonpayable"},{"type":"function","name":"snapshotWeight","inputs":[{"name":"","type":"uint256","internalType":"uint256"},{"name":"","type":"address","internalType":"address"}],"outputs":[{"name":"","type":"uint256","internalType":"uint256"}],"stateMutability":"view"},{"type":"function","name":"submitMilestone","inputs":[{"name":"projectId","type":"uint256","internalType":"uint256"},{"name":"cid","type":"bytes","internalType":"bytes"}],"outputs":[],"stateMutability":"nonpayable"},{"type":"function","name":"transferOwnership","inputs":[{"name":"newOwner","type":"address","internalType":"address"}],"outputs":[],"stateMutability":"nonpayable"},{"type":"function","name":"vote","inputs":[{"name":"projectId","type":"uint256","internalType":"uint256"},{"name":"option","type":"uint8","internalType":"enum MilestoneFunding.VoteOption"}],"outputs":[],"stateMutability":"nonpayable"},{"type":"function","name":"votes","inputs":[{"name":"","type":"uint256","internalType":"uint256"},{"name":"","type":"address","internalType":"address"},{"name":"","type":"uint256","internalType":"uint256"}],"outputs":[{"name":"","type":"uint8","internalType":"enum MilestoneFunding.VoteOption"}],"stateMutability":"view"},{"type":"event","name":"Claim","inputs":[{"name":"user","type":"address","indexed":true,"internalType":"address"},{"name":"amount","type":"uint256","indexed":false,"internalType":"uint256"},{"name":"role","type":"string","indexed":false,"internalType":"string"}],"anonymous":false},{"type":"event","name":"Funded","inputs":[{"name":"projectId","type":"uint256","indexed":true,"internalType":"uint256"},{"name":"investor","type":"address","indexed":true,"internalType":"address"},{"name":"amount","type":"uint256","indexed":false,"internalType":"uint256"}],"anonymous":false},{"type":"event","name":"MilestoneSubmitted","inputs":[{"name":"projectId","type":"uint256","indexed":true,"internalType":"uint256"},{"name":"milestone","type":"uint256","indexed":false,"internalType":"uint256"},{"name":"cid","type":"bytes","indexed":false,"internalType":"bytes"}],"anonymous":false},{"type":"event","name":"OwnershipTransferred","inputs":[{"name":"previousOwner","type":"address","indexed":true,"internalType":"address"},{"name":"newOwner","type":"address","indexed":true,"internalType":"address"}],"anonymous":false},{"type":"event","name":"ProjectCancelled","inputs":[{"name":"projectId","type":"uint256","indexed":true,"internalType":"uint256"}],"anonymous":false},{"type":"event","name":"ProjectCreated","inputs":[{"name":"projectId","type":"uint256","indexed":true,"internalType":"uint256"},{"name":"name","type":"string","indexed":false,"internalType":"string"},{"name":"softCapWei","type":"uint256","indexed":false,"internalType":"uint256"},{"name":"creator","type":"address","indexed":true,"internalType":"address"}],"anonymous":false},{"type":"event","name":"VoteFinalized","inputs":[{"name":"projectId","type":"uint256","indexed":true,"internalType":"uint256"},{"name":"milestone","type":"uint256","indexed":false,"internalType":"uint256"},{"name":"passed","type":"bool","indexed":false,"internalType":"bool"}],"anonymous":false},{"type":"event","name":"Voted","inputs":[{"name":"projectId","type":"uint256","indexed":true,"internalType":"uint256"},{"name":"voter","type":"address","indexed":true,"internalType":"address"},{"name":"milestone","type":"uint256","indexed":false,"internalType":"uint256"},{"name":"vote","type":"uint8","indexed":false,"internalType":"enum MilestoneFunding.VoteOption"}],"anonymous":false},{"type":"error","name":"OwnableInvalidOwner","inputs":[{"name":"owner","type":"address","internalType":"address"}]},{"type":"error","name":"OwnableUnauthorizedAccount","inputs":[{"name":"account","type":"address","internalType":"address"}]},{"type":"error","name":"ReentrancyGuardReentrantCall","inputs":[]}],"bytecode":{"object":"0x6080806040523460955733156082575f8054336001600160a01b0319821681178355916001600160a01b03909116907f8be0079c531659141344cd1fd0a4f28419497f9722a3daafe3b4186f6b6457e09080a360017f9b779b17422d0df92223018b32b4d1fa46e071723d6817e2486d003becc55f0055613619908161009a8239f35b631e4fbdf760e01b5f525f60045260245ffd5b5f80fdfe60806040526004361015610011575f80fd5b5f3560e01c8063022fbc651461270457806304f02969146126cc578063080de15c146126885780630df529b8146125b55780630e8a01bc1461258b578063109ba91c146124915780631b745c26146123aa578063223ecf0d14611a8c578063232adc65146119ee5780632494114714611890578063275fd95b146118695780632ed949b41461183657806336fbad26146118195780633bd1adec1461173a57806350f5261b14610d5d57806358c609dc146116ea5780635b7baf64146114be578063715018a614611467578063744ddcaa1461144057806378310bca146113d25780637d8022c0146113895780638da5cb5b146113625780638e98435d146111f5578063943e821614610f18578063a325af9214610ed4578063a5bb2c0f14610db7578063a948d05f14610d5d578063a989d41214610ce1578063af9a81ff14610b11578063b4d6378114610ad9578063ca1d209d14610761578063df44212214610718578063e015571414610489578063e1769b1f14610364578063e48bfef2146102a4578063f24f5c4c146102395763f2fde38b146101b0575f80fd5b34610235576020366003190112610235576101c96129fa565b6101d1612fa0565b6001600160a01b03168015610222575f80546001600160a01b03198116831782556001600160a01b0316907f8be0079c531659141344cd1fd0a4f28419497f9722a3daafe3b4186f6b6457e09080a3005b631e4fbdf760e01b5f525f60045260245ffd5b5f80fd5b346102355760203660031901126102355760405160606102598183612c4b565b5f5b818110610296576004355f52600360205261029261027e600260405f2001612f25565b604051918291602083526020830190612b39565b0390f35b80826020928501520161025b565b34610235576040366003190112610235576102bd612a10565b606090816040516102ce8282612c4b565b3690376004355f52600760205260405f209060018060a01b03165f5260205260405f2061032960405191546103068360ff8316612b08565b6103196020840160ff8360081c16612b08565b60ff604084019160101c16612b08565b6103338282612c4b565b604051905f825b6003821061034757505050f35b602080826103586001948751612b08565b0193019101909161033a565b3461023557602036600319011261023557600435805f52600860205260405f209081549061039182612d5d565b905f5b838110610440575050602091604051809381838693520180955f5260205f20925f5b81811061041e5750506103cb92500383612c4b565b60405191604083019060408452518091526060830193905f5b8181106103ff57848061029288878382036020850152612a26565b82516001600160a01b03168652602095860195909201916001016103e4565b84546001600160a01b03168352600194850194879450602090930192016103b6565b600190825f52600560205260405f206104598288612ac6565b848060a01b0391549060031b1c16838060a01b03165f5260205260405f20546104828286612d8f565b5201610394565b34610235576020366003190112610235576004355f52600260205260405f206040519061018082018281106001600160401b0382111761070457604052600460409182516104d78482612c4b565b600981526810d85b98d95b1b195960ba1b6020820152845282516104fb8482612c4b565b600781526646756e64696e6760c81b6020820152602085015282516105208482612c4b565b600e81526d4275696c64696e6753746167653160901b602082015283850152825161054b8482612c4b565b600c81526b566f74696e67526f756e643160a01b6020820152606085015282516105758482612c4b565b600d81526c4661696c757265526f756e643160981b6020820152608085015282516105a08482612c4b565b600e81526d213ab4b63234b733a9ba30b3b29960911b602082015260a085015282516105cc8482612c4b565b600c81526b2b37ba34b733a937bab7321960a11b602082015260c085015282516105f68482612c4b565b600d81526c2330b4b63ab932a937bab7321960991b602082015260e085015282516106218482612c4b565b600e81526d4275696c64696e6753746167653360901b6020820152610100850152825161064e8482612c4b565b600c81526b566f74696e67526f756e643360a01b602082015261012085015282516106798482612c4b565b600d81526c4661696c757265526f756e643360981b602082015261014085015282516106a58482612c4b565b600981526810dbdb5c1b195d195960ba1b6020820152610160850152015491600c60ff841610156106f057611fe06102929360051b1601519051918291602083526020830190612b15565b634e487b7160e01b5f52602160045260245ffd5b634e487b7160e01b5f52604160045260245ffd5b3461023557604036600319011261023557610731612a10565b6004355f52600660205260405f209060018060a01b03165f52602052602060ff60405f2054166040519015158152f35b602036600319011261023557600435610778612f68565b805f52600260205260405f20906004820160ff815416600c8110156106f057600103610aa657655af3107a40003410610a615760018301926107c260028554920191825490612f18565b938415610a2b57345f95803411610a16575b505f85815260066020908152604080832033845290915290205460ff16156109a6575b845f52600560205260405f2060018060a01b0333165f5260205260405f20610820828254612f0b565b905561082d818454612f0b565b809355604051908152847f38c48552690c96ec2872092ac1db6c19fb59f5a8c5b49bbf41ed4886d0ca692660203393a35411156108d1575b505080610880575b60015f805160206135c483398151915255005b5f80808093335af1610890612edc565b501561089c578061086d565b60405162461bcd60e51b815260206004820152600d60248201526c1499599d5b990819985a5b1959609a1b6044820152606490fd5b9091825f52600260205260405f2090835f52600460205260405f209060025f93015482555f925b855f52600860205260405f205484101561098c57610984600191875f5260086020526109278660405f20612ac6565b848060a01b0391549060031b1c1690885f52600560205260405f20848060a01b0383165f5260205261095f60405f2054875490613264565b91895f52600960205260405f2090858060a01b03165f526020528160405f2055612f0b565b9301926108f8565b9250935060010155600260ff198254161790558180610865565b5f8581526006602090815260408083203384528252808320805460ff1916600117905587835260089091529020805468010000000000000000811015610704576109f591600182018155612ac6565b81546001600160a01b0360039290921b91821b19163390911b1790556107f7565b9550610a2490508534612f18565b94866107d4565b60405162461bcd60e51b815260206004820152600e60248201526d105b1c9958591e48199d5b99195960921b6044820152606490fd5b60405162461bcd60e51b815260206004820152601b60248201527f56616c7565206d757374206265203e3d20302e303030312045544800000000006044820152606490fd5b60405162461bcd60e51b815260206004820152600b60248201526a4e6f742066756e64696e6760a81b6044820152606490fd5b34610235576020366003190112610235576001600160a01b03610afa6129fa565b165f52600b602052602060405f2054604051908152f35b34610235575f36600319011261023557610b29612f68565b6001335f5b6001548311610c72575f8381526002602052604090206004810154600c60ff9091169081101590816106f0578015918215610c65575b8215610c54575b8215610c43575b505015610c3857835f52600d60205260405f20835f5260205260ff60405f205416610c3857835f52600560205260405f20835f5260205260405f20548015610c2c5791610be1610c20926002610bd8610c2696895f52600c60205260405f205490612e8a565b91015490612dd9565b90855f52600d60205260405f20855f5260205260405f20600160ff19825416179055855f52600560205260405f20855f526020525f6040812055612f0b565b92612d24565b91610b2e565b505091610c2690612d24565b5091610c2690612d24565b9091506106f057600a148580610b72565b8092506106f0576007811491610b6b565b506004811491505f610b64565b610c7d811515612e9d565b5f80808084335af1610c8d612edc565b50156102355760405190815260406020820152600b60408201526a1253959154d513d490531360aa1b60608201525f805160206135a483398151915260803392a260015f805160206135c483398151915255005b34610235576020366003190112610235576004355f526003602052610d4f60405f206102926001610d3b60405193610d2485610d1d8184612baf565b0386612c4b565b610d346040518094819301612baf565b0382612c4b565b604051938493604085526040850190612b15565b908382036020850152612b15565b34610235576020366003190112610235576004355f52600260205260405f20805461029260018301549260028101549060ff600460038301549201541691604051958560ff889760a01c169060018060a01b031687612a80565b34610235575f366003190112610235576001805433915f915b80821115610de357602083604051908152f35b9091825f52600260205260405f2060ff600482015416600c81101590816106f0578015159182610ec6575b82610eb4575b82610ea2575b5050610e9757835f52600d60205260405f20855f5260205260ff60405f205416610e9757835f52600560205260405f20855f5260205260405f20548015610e8b5791610e7f610c20926002610bd8610e8596895f52600c60205260405f205490612e8a565b90612f0b565b90610dd0565b505091610e8590612d24565b5091610e8590612d24565b9091506106f057600a14158680610e1a565b8092506106f057600781141591610e14565b50600481141591505f610e0e565b3461023557604036600319011261023557610eed612a10565b6004355f52600960205260405f209060018060a01b03165f52602052602060405f2054604051908152f35b34610235576040366003190112610235576024356004356003821015610235575f9060018314928380156111e8575b156111ad575f82815260066020908152604080832033845290915290205460ff161561117957815f52600460205260405f2093610f8383612fc6565b9360ff610f938660088901612aef565b90549060031b1c1661114857835f52600760205260405f2060018060a01b0333165f5260205260ff610fc88660405f20612aef565b90549060031b1c1660038110156106f05761111b57835f52600760205260405f2060018060a01b0333165f526020526110048560405f20612aef565b90916106f057836110259183549060ff809160031b9316831b921b19161790565b90555f83815260096020908152604080832033845290915290205480156110e3576110c9958592156110cb576110646110899360026110739301612ca6565b91909283548360031b1c612f0b565b82545f1960039390931b92831b1916911b179055565b61109d604051918483526020830190612b08565b817ffe2287fa52fad81788ac4645bf0bae4badc927d35f68ab09bc950ca8e0f0168960403393a3613094565b005b6110646110de9360056110739301612ca6565b611089565b60405162461bcd60e51b815260206004820152601060248201526f139bc81d9bdd1a5b99c81dd95a59da1d60821b6044820152606490fd5b60405162461bcd60e51b8152602060048201526005602482015264159bdd195960da1b6044820152606490fd5b60405162461bcd60e51b8152602060048201526009602482015268119a5b985b1a5e995960ba1b6044820152606490fd5b60405162461bcd60e51b815260206004820152600c60248201526b2737ba1034b73b32b9ba37b960a11b6044820152606490fd5b60405162461bcd60e51b815260206004820152601360248201527224b73b30b634b2103b37ba329037b83a34b7b760691b6044820152606490fd5b505f925060028114610f47565b346102355760203660031901126102355760606040516112158282612c4b565b5f5b828110611354578260405161122c8282612c4b565b5f5b82811061134657826004355f52600360205260405f206040519161125d836112568185612baf565b0384612c4b565b60405161127181610d348160018701612baf565b61127d60028401612f25565b906040519361128b85612c30565b6005015f855b60038210611321576112bb8888886112d7896112c98a604051978897608089526080890190612b15565b908782036020890152612b15565b908582036040870152612b39565b8381038285015290810191905f815b600382106112f657505050500390f35b91936001919395506020611311828783940386528851612b15565b96019201920185949391926112e6565b60016020819260405161133881610d34818a612baf565b815201930191019091611291565b80836020928401520161122e565b808360209284015201611217565b34610235575f366003190112610235575f546040516001600160a01b039091168152602090f35b34610235576040366003190112610235576113a2612a10565b6004355f52600d60205260405f209060018060a01b03165f52602052602060ff60405f2054166040519015158152f35b34610235576060366003190112610235576113eb612a10565b6004355f9081526007602090815260408083206001600160a01b0390941683529290522060443560038110156102355761142960ff91602093612aef565b90549060031b1c1661143e6040518092612b08565bf35b34610235575f36600319011261023557335f52600a602052602060405f2054604051908152f35b34610235575f3660031901126102355761147f612fa0565b5f80546001600160a01b0319811682556001600160a01b03167f8be0079c531659141344cd1fd0a4f28419497f9722a3daafe3b4186f6b6457e08280a3005b34610235576020366003190112610235576004356114da612f68565b805f52600260205260405f2060ff600482015416600c81101590816106f05780159182156116dd575b82156116cc575b82156116bb575b50501561167f575f828152600d6020908152604080832033845290915290205460ff16611648575f828152600560209081526040808320338452909152902054908115611613576002610bd861157493855f52600c60205260405f205490612e8a565b5f828152600d6020908152604080832033808552908352818420805460ff19166001179055948352600582528083208584529091528120819055909181908190819085905af16115c2612edc565b50156102355760405190815260406020820152600860408201526724a72b22a9aa27a960c11b60608201525f805160206135a483398151915260803392a260015f805160206135c483398151915255005b60405162461bcd60e51b815260206004820152600d60248201526c139bc81a5b9d995cdd1b595b9d609a1b6044820152606490fd5b60405162461bcd60e51b815260206004820152600f60248201526e105b1c9958591e4818db185a5b5959608a1b6044820152606490fd5b60405162461bcd60e51b8152602060048201526014602482015273526566756e64206e6f7420617661696c61626c6560601b6044820152606490fd5b9091506106f057600a148380611511565b8092506106f057600781149161150a565b506004811491505f611503565b34610235576040366003190112610235576024356004355f52600860205260405f2080548210156102355760209161172191612ac6565b905460405160039290921b1c6001600160a01b03168152f35b34610235575f36600319011261023557611752612f68565b5f546001600160a01b031633036117e757335f52600b60205260405f205461177b811515612e9d565b335f52600b6020525f60408120555f80808084335af1611799612edc565b50156102355760405190815260406020820152600560408201526427aba722a960d91b60608201525f805160206135a483398151915260803392a260015f805160206135c483398151915255005b60405162461bcd60e51b815260206004820152600a60248201526927b7363c9037bbb732b960b11b6044820152606490fd5b34610235575f366003190112610235576020600154604051908152f35b34610235576020366003190112610235576004355f5260046020526040805f206001815491015482519182526020820152f35b34610235575f36600319011261023557335f52600b602052602060405f2054604051908152f35b34610235576020366003190112610235576004356118ac612f68565b805f52600260205260405f206118cc60018060a01b038254163314612c6c565b600481019160ff835416600c8110156106f0576001036119a9575f9260ff1981541690556003600283015492019182549080158514611964575083546001600160a01b03168452600b602052604084208054909161192991612f0b565b90555b7fe3805ed669490875ae87c5c8b1ad6ecca0e5e67305a833926d0d4317c4822fc08380a25560015f805160206135c483398151915255005b610e7f826119979360011c9060018060a01b038854168852600b60205260408820611990838254612f0b565b9055612f18565b818452600c602052604084205561192c565b60405162461bcd60e51b815260206004820152601a60248201527f43616e206f6e6c792063616e63656c20696e2046756e64696e670000000000006044820152606490fd5b34610235575f36600319011261023557611a06612f68565b335f52600a60205260405f2054611a1e811515612e9d565b335f52600a6020525f60408120555f80808084335af1611a3c612edc565b50156102355760405190815260406020820152600760408201526621a922a0aa27a960c91b60608201525f805160206135a483398151915260803392a260015f805160206135c483398151915255005b60a0366003190112610235576004356001600160401b03811161023557611ab79036906004016129cd565b6024356001600160401b03811161023557611ad69036906004016129cd565b91604435606435926008841015610235576084356001600160401b0381116102355760648101906004810136831161023557655af3107a4000851061236557600a8504968734036123335788156122f75761040089116122bb575f5b600381106122195750600781116121e157611b4e600154612d24565b978860015560405160c081018181106001600160401b0382111761070457604052338152602081019283526040810191888352606082015f81526080830191825260a0830194600186528c5f52600260205260405f209360018060a01b039051166bffffffffffffffffffffffff60a01b855416178455519360088510156106f05760049484549060ff60a01b9060a01b169060ff60a01b1916178455516001840155516002830155516003820155019051600c8110156106f05760ff8019835416911617905560405192611c2284612c30565b602098604051611c328b82612c4b565b5f81528552604051611c448b82612c4b565b5f81528a860152604051611c588b82612c4b565b5f815260408601526040519560808701918783106001600160401b0384111761070457611c9792604052611c8e8d8b3691612e54565b88523691612e54565b9189860192835260405193611cad606086612c4b565b845b8383106121a257505050506040840191825260608401928352865f526003885260405f2093518051906001600160401b03821161070457611cfa82611cf48854612b77565b88612cb5565b8990601f831160011461213f57611d2892915f91836120d1575b50508160011b915f199060031b1c19161790565b84555b51805160018501916001600160401b03821161070457611d5582611d4f8554612b77565b85612cb5565b8990601f83116001146120dc57611d8292915f91836120d15750508160011b915f199060031b1c19161790565b90555b51600283015f915b60038310611ff7575050506005905191015f915b60038310611f175750505060405194611db986612c30565b5f86525f858701525f6040870152604051611dd381612c30565b5f81525f868201525f604082015260405190611dee82612c30565b5f82525f878301525f60408301526040519760a089018981106001600160401b03821117610704576040525f89528789015f815260408a0191825260608a0192835260808a01938452875f526004895260405f2099518a555160018a0155515f5b60038110611f02575050515f5b60038110611eed57505051955f965f5b60038110611ec1575050907fbb4637bbc1f7f92783410fb90807fcced52c1562da987ac649876f09a750a5e39495966008611eb593015560405193604085526040850191612d04565b948201528033940390a3005b909787611ee4600192848c511515919060ff809160031b9316831b921b19161790565b99019101611e6c565b81518982016005015590870190600101611e5c565b81518a82016002015590880190600101611e4f565b80519081516001600160401b038111610704578892611f4082611f3a8754612b77565b87612cb5565b8390601f8311600114611f8d578260019593869593611f73935f92611f825750508160011b915f199060031b1c19161790565b85555b01920192019190611da1565b015190508e80611d14565b93929190601f19821690865f52845f20915f5b818110611fdf575091839160019788979695889510611fc7575b505050811b018555611f76565b01515f1960f88460031b161c191690558d8080611fba565b8783015184558d966001909401939283019201611fa0565b80519081516001600160401b038111610704578a9261201a82611f3a8754612b77565b8390601f831160011461206757826001959386959361204d935f9261205c5750508160011b915f199060031b1c19161790565b85555b01920192019190611d8d565b015190505f80611d14565b93929190601f19821690865f52845f20915f5b8181106120b95750918391600197889796958895106120a1575b505050811b018555612050565b01515f1960f88460031b161c191690558f8080612094565b8783015184558f96600190940193928301920161207a565b015190508c80611d14565b90601f19831691845f528b5f20925f5b8d828210612129575050908460019594939210612111575b505050811b019055611d85565b01515f1960f88460031b161c191690558b8080612104565b60018596829396860151815501950193016120ec565b90601f19831691875f528b5f20925f5b8d82821061218c575050908460019594939210612174575b505050811b018455611d2b565b01515f1960f88460031b161c191690558b8080612167565b600185968293968601518155019501930161214f565b82356001600160401b03811161023557820136602382011215610235578c916121d683923690602460048201359101612e54565b815201920191611caf565b60405162461bcd60e51b815260206004820152601060248201526f496e76616c69642063617465676f727960801b6044820152606490fd5b6122238184612df7565b905015612276576101006122378285612df7565b90501161224657600101611b32565b60405162461bcd60e51b8152602060048201526008602482015267546f6f206c6f6e6760c01b6044820152606490fd5b60405162461bcd60e51b815260206004820152601b60248201527f456d707479206d696c6573746f6e65206465736372697074696f6e00000000006044820152606490fd5b60405162461bcd60e51b81526020600482015260146024820152734465736372697074696f6e20746f6f206c6f6e6760601b6044820152606490fd5b60405162461bcd60e51b815260206004820152601460248201527311195cd8dc9a5c1d1a5bdb881c995c5d5a5c995960621b6044820152606490fd5b60405162461bcd60e51b815260206004820152600a602482015269426f6e64203d2031302560b01b6044820152606490fd5b60405162461bcd60e51b815260206004820152601e60248201527f536f667420636170206d757374206265203e3d20302e303030312045544800006044820152606490fd5b34610235575f366003190112610235575f6001549060015b8281111561244a57506123d490612d5d565b5f9160015b818111156123f7576040516020808252819061029290820186612a26565b805f52600260205260ff600460405f20015416600c8110156106f057600114612429575b61242490612d24565b6123d9565b92612442818561243c6124249487612d8f565b52612d24565b93905061241b565b805f52600260205260ff600460405f20015416600c8110156106f05760011461247c575b61247790612d24565b6123c2565b9061248961247791612d24565b91905061246e565b34610235576020366003190112610235576060806040516124b28282612c4b565b369037806040516124c38282612c4b565b369037806040516124d48282612c4b565b3690376004355f52600460205260405f2061255e81549261255460018401546124ff60028601612da3565b9061253f61250f60058801612da3565b9460ff600860405199015481811615158a52818160081c16151560208b015260101c161515604089015287612c4b565b60405196875260208701526040860190612a59565b60a0840190612a59565b5f61010083015b600382106125735761016084f35b60208060019285511515815201930191019091612565565b34610235576020366003190112610235576004355f52600c602052602060405f2054604051908152f35b34610235575f366003190112610235576001805433915f905b8281111561264957506125e090612d5d565b915f9060015b83811115612604576040516020808252819061029290820188612a26565b805f52600560205260405f20825f5260205260405f205461262e575b61262990612d24565b6125e6565b91612641818461243c6126299489612d8f565b929050612620565b805f52600560205260405f20845f5260205260405f2054612673575b61266e90612d24565b6125ce565b9061268061266e91612d24565b919050612665565b34610235576040366003190112610235576126a1612a10565b6004355f52600560205260405f209060018060a01b03165f52602052602060405f2054604051908152f35b34610235576020366003190112610235576001600160a01b036126ed6129fa565b165f52600a602052602060405f2054604051908152f35b34610235576040366003190112610235576004356024356001600160401b038111610235576127379036906004016129cd565b825f93929352600260205260405f20825f52600360205260405f209061276760018060a01b038254163314612c6c565b821561299957604083116129655760040160ff815416600c8110156106f057600281036128ec57506127ab9060055f938492600360ff198254161790555b01612ca6565b6128d9576001600160401b038311610704576127d1836127cb8354612b77565b83612cb5565b5f601f841160011461285057946128409161282485807f91418fd2a665bdd568be23533cb0cd78887cf5deb6dfc172d936ba797d67fbbf98995f91612845575b508160011b915f199060031b1c19161790565b90555b6040519384938452604060208501526040840191612d04565b0390a2005b90508401358a612811565b601f19841690825f5260205f20915f5b8181106128c15750916128409391867f91418fd2a665bdd568be23533cb0cd78887cf5deb6dfc172d936ba797d67fbbf989994106128a8575b5050600185811b019055612827565b8301355f19600388901b60f8161c191690558780612899565b9192602060018192868c013581550194019201612860565b634e487b7160e01b5f525f60045260245ffd5b6005810361291057506127ab9060056001938492600660ff198254161790556127a5565b600803612932576127ab9060056002938492600960ff198254161790556127a5565b60405162461bcd60e51b815260206004820152600b60248201526a57726f6e6720737461676560a81b6044820152606490fd5b60405162461bcd60e51b815260206004820152600c60248201526b43494420746f6f206c6f6e6760a01b6044820152606490fd5b60405162461bcd60e51b815260206004820152600c60248201526b10d251081c995c5d5a5c995960a21b6044820152606490fd5b9181601f84011215610235578235916001600160401b038311610235576020838186019501011161023557565b600435906001600160a01b038216820361023557565b602435906001600160a01b038216820361023557565b90602080835192838152019201905f5b818110612a435750505090565b8251845260209384019390920191600101612a36565b905f905b60038210612a6a57505050565b6020806001928551815201930191019091612a5d565b6001600160a01b03909116815260c0810196959490939092909160088110156106f0576020850152604084015260608301526080820152600c8210156106f05760a00152565b8054821015612adb575f5260205f2001905f90565b634e487b7160e01b5f52603260045260245ffd5b9190916003831015612adb57601f908360051c01921690565b9060038210156106f05752565b805180835260209291819084018484015e5f828201840152601f01601f1916010190565b60608201915f815b60038210612b50575050505090565b90919293602080612b6983876001950386528851612b15565b960192019201909291612b41565b90600182811c92168015612ba5575b6020831014612b9157565b634e487b7160e01b5f52602260045260245ffd5b91607f1691612b86565b5f9291815491612bbe83612b77565b8083529260018116908115612c135750600114612bda57505050565b5f9081526020812093945091925b838310612bf9575060209250010190565b600181602092949394548385870101520191019190612be8565b915050602093945060ff929192191683830152151560051b010190565b606081019081106001600160401b0382111761070457604052565b90601f801991011681019081106001600160401b0382111761070457604052565b15612c7357565b60405162461bcd60e51b815260206004820152600b60248201526a2737ba1031b932b0ba37b960a91b6044820152606490fd5b6003821015612adb5701905f90565b601f8211612cc257505050565b5f5260205f20906020601f840160051c83019310612cfa575b601f0160051c01905b818110612cef575050565b5f8155600101612ce4565b9091508190612cdb565b908060209392818452848401375f828201840152601f01601f1916010190565b5f198114612d325760010190565b634e487b7160e01b5f52601160045260245ffd5b6001600160401b0381116107045760051b60200190565b90612d6782612d46565b612d746040519182612c4b565b8281528092612d85601f1991612d46565b0190602036910137565b8051821015612adb5760209160051b010190565b60405191905f835b60038210612dc357505050612dc1606083612c4b565b565b6001602081928554815201930191019091612dab565b8115612de3570490565b634e487b7160e01b5f52601260045260245ffd5b906003811015612adb5760051b81013590601e19813603018212156102355701908135916001600160401b038311610235576020018236038113610235579190565b6001600160401b03811161070457601f01601f191660200190565b929192612e6082612e39565b91612e6e6040519384612c4b565b829481845281830111610235578281602093845f960137010152565b81810292918115918404141715612d3257565b15612ea457565b60405162461bcd60e51b815260206004820152601060248201526f4e6f7468696e6720746f20636c61696d60801b6044820152606490fd5b3d15612f06573d90612eed82612e39565b91612efb6040519384612c4b565b82523d5f602084013e565b606090565b91908201809211612d3257565b91908203918211612d3257565b9060405191612f3383612c30565b5f835b60038210612f4357505050565b600160208192604051612f5a81610d34818a612baf565b815201930191019091612f36565b60025f805160206135c48339815191525414612f915760025f805160206135c483398151915255565b633ee5aeb560e01b5f5260045ffd5b5f546001600160a01b03163303612fb357565b63118cdaa760e01b5f523360045260245ffd5b5f52600260205260ff600460405f20015416600c811015806106f057600382148015613088575b61308257806106f057600682148015613076575b61306f576106f05760098114908115613064575b5061305f5760405162461bcd60e51b815260206004820152601e60248201527f4e6f7420766f74696e67206f72206661696c6564206d696c6573746f6e6500006044820152606490fd5b600290565b600a9150145f613015565b5050600190565b50505f60078214613001565b50505f90565b50505f60048214612fed565b90815f52600460205260405f206130ae8260028301612ca6565b90549060031b1c9060016130c58460058401612ca6565b90549060031b1c9101546130d98284612f0b565b908181111561325d576130ec8282612f18565b915b606481029080820460641490151715612d325760468202821591838204604614831715612d32571061325457606484029084820460641485151715612d3257602883029283046028141715612d325710156132175761314c91612f0b565b10613155575050565b815f526004602052600860405f20019060ff6131718284612aef565b90549060031b1c166131de57612dc1926131a761319083600195612aef565b819291549060031b9060ff6001831b921b19161790565b9055807fd0e20bc20137f27f0f61ae739e5a5fbcd5839910ab315b4feccb3dcd848c388260408051858152866020820152a2613315565b60405162461bcd60e51b8152602060048201526011602482015270105b1c9958591e48199a5b985b1a5e9959607a1b6044820152606490fd5b505050815f526004602052600860405f20019060ff6132368284612aef565b90549060031b1c166131de57612dc1926131a7613190835f95612aef565b50505050505050565b5f916130ee565b801580801561330d575b61330657670de0b6b3a7640000820290828204670de0b6b3a7640000141715612d325760018101808211612d325760011c815b8282106132e757505060018201809211612d32576132c16132c792613560565b90612e8a565b60018201809211612d32576132de6132e492613560565b90612dd9565b90565b9091506132fd826132f88184612dd9565b612f0b565b60011c906132a1565b5050505f90565b50821561326e565b5f81815260026020526040812093815b8481106134b157501561341f5750508061338f57506002810154601481029080820460141490151715612d325760048201805460ff1916600517905560649004905b546001600160a01b03165f908152600a602052604090208054909161338b91612f0b565b9055565b6001036133c7576002810154601e810290808204601e1490151715612d325760048201805460ff191660081790556064900490613367565b6002810154603281029080820460321490151715612d3257606490049060048101600b60ff19825416179055600381015460018060a01b038254165f52600a60205261341860405f20918254612f0b565b9055613367565b90926002908361347394155f14613482575060048101600460ff198254161790555b60038101545f80546001600160a01b03168152600b602052604090208054909161346a91612f0b565b90550154612f18565b905f52600c60205260405f2055565b60010361349d5760048101805460ff19166007179055613441565b60048101805460ff1916600a179055613441565b91826134e7576002860154601481029080820460141490151715612d325760019160646134df920490612f0b565b925b01613325565b6001830361351d576002860154601e810290808204601e1490151715612d32576001916064613517920490612f0b565b926134e1565b916002811461352f575b6001906134e1565b916002860154603281029080820460321490151715612d32576001916064613558920490612f0b565b929050613527565b5f905b600181116135905750670de0b6b3a7640000810290808204670de0b6b3a76400001490151715612d325790565b61359d9060011c91612d24565b9061356356fe58fb02bcfedd338314c70bcf748b4f71a01259cf8956f31b34cb09acf29809cb9b779b17422d0df92223018b32b4d1fa46e071723d6817e2486d003becc55f00a26469706673582212201dbeb8ee1d7ac417b2e52071d5e29de5db9e1d615b5d9880d0e16d231e4901ec64736f6c634300081a0033","linkReferences":{}},"methodIdentifiers":{"cancelProject(uint256)":"24941147","claimAllRefund()":"af9a81ff","claimCreator()":"232adc65","claimOwner()":"3bd1adec","claimRefund(uint256)":"5b7baf64","claimableCreator(address)":"04f02969","claimableOwner(address)":"b4d63781","createProject(string,string,uint256,uint8,string[3])":"223ecf0d","fund(uint256)":"ca1d209d","getAllClaimableRefund()":"a5bb2c0f","getAllFundingProjects()":"1b745c26","getAllInvestments(uint256)":"e1769b1f","getClaimableCreator()":"744ddcaa","getClaimableOwner()":"275fd95b","getMilestoneDescriptions(uint256)":"f24f5c4c","getMyInvestedProjects()":"0df529b8","getMyVotes(uint256,address)":"e48bfef2","getProjectCore(uint256)":"a948d05f","getProjectMeta(uint256)":"8e98435d","getProjectState(uint256)":"e0155714","getProjectVoting(uint256)":"109ba91c","invested(uint256,address)":"080de15c","investors(uint256,uint256)":"58c609dc","isInvestor(uint256,address)":"df442122","owner()":"8da5cb5b","projectCore(uint256)":"50f5261b","projectCount()":"36fbad26","projectMeta(uint256)":"a989d412","projectVoting(uint256)":"2ed949b4","refundClaimed(uint256,address)":"7d8022c0","refundPool(uint256)":"0e8a01bc","renounceOwnership()":"715018a6","snapshotWeight(uint256,address)":"a325af92","submitMilestone(uint256,bytes)":"022fbc65","transferOwnership(address)":"f2fde38b","vote(uint256,uint8)":"943e8216","votes(uint256,address,uint256)":"78310bca"},"id":23}