{"abi":[{"type":"constructor","inputs":[],"stateMutability":"nonpayable"},{"type":"function","name":"cancelProject","inputs":[{"name":"projectId","type":"uint256","internalType":"uint256"}],"outputs":[],"stateMutability":"nonpayable"},{"type":"function","name":"claimCreator","inputs":[],"outputs":[],"stateMutability":"nonpayable"},{"type":"function","name":"claimInvestor","inputs":[],"outputs":[],"stateMutability":"nonpayable"},{"type":"function","name":"claimOwner","inputs":[],"outputs":[],"stateMutability":"nonpayable"},{"type":"function","name":"claimableCreator","inputs":[{"name":"","type":"address","internalType":"address"}],"outputs":[{"name":"","type":"uint256","internalType":"uint256"}],"stateMutability":"view"},{"type":"function","name":"claimableInvestor","inputs":[{"name":"","type":"address","internalType":"address"}],"outputs":[{"name":"","type":"uint256","internalType":"uint256"}],"stateMutability":"view"},{"type":"function","name":"claimableOwner","inputs":[{"name":"","type":"address","internalType":"address"}],"outputs":[{"name":"","type":"uint256","internalType":"uint256"}],"stateMutability":"view"},{"type":"function","name":"createProject","inputs":[{"name":"name","type":"string","internalType":"string"},{"name":"description","type":"string","internalType":"string"},{"name":"softCapWei","type":"uint256","internalType":"uint256"},{"name":"category","type":"uint8","internalType":"enum MilestoneFunding.Category"},{"name":"milestoneDescriptions","type":"string[3]","internalType":"string[3]"}],"outputs":[],"stateMutability":"payable"},{"type":"function","name":"fund","inputs":[{"name":"projectId","type":"uint256","internalType":"uint256"}],"outputs":[],"stateMutability":"payable"},{"type":"function","name":"getAllFundingProjects","inputs":[],"outputs":[{"name":"","type":"uint256[]","internalType":"uint256[]"}],"stateMutability":"view"},{"type":"function","name":"getAllInvestments","inputs":[{"name":"projectId","type":"uint256","internalType":"uint256"}],"outputs":[{"name":"","type":"address[]","internalType":"address[]"},{"name":"","type":"uint256[]","internalType":"uint256[]"}],"stateMutability":"view"},{"type":"function","name":"getClaimableCreator","inputs":[],"outputs":[{"name":"","type":"uint256","internalType":"uint256"}],"stateMutability":"view"},{"type":"function","name":"getClaimableInvestor","inputs":[],"outputs":[{"name":"","type":"uint256","internalType":"uint256"}],"stateMutability":"view"},{"type":"function","name":"getClaimableOwner","inputs":[],"outputs":[{"name":"","type":"uint256","internalType":"uint256"}],"stateMutability":"view"},{"type":"function","name":"getMilestoneDescriptions","inputs":[{"name":"projectId","type":"uint256","internalType":"uint256"}],"outputs":[{"name":"","type":"string[3]","internalType":"string[3]"}],"stateMutability":"view"},{"type":"function","name":"getMyInvestedProjects","inputs":[],"outputs":[{"name":"projectIds","type":"uint256[]","internalType":"uint256[]"},{"name":"creators","type":"address[]","internalType":"address[]"},{"name":"names","type":"string[]","internalType":"string[]"},{"name":"descriptions","type":"string[]","internalType":"string[]"},{"name":"categories","type":"uint8[]","internalType":"enum MilestoneFunding.Category[]"},{"name":"softCaps","type":"uint256[]","internalType":"uint256[]"},{"name":"totalFundeds","type":"uint256[]","internalType":"uint256[]"},{"name":"bonds","type":"uint256[]","internalType":"uint256[]"},{"name":"states","type":"string[]","internalType":"string[]"},{"name":"investments","type":"uint256[]","internalType":"uint256[]"}],"stateMutability":"view"},{"type":"function","name":"getMyVotes","inputs":[{"name":"projectId","type":"uint256","internalType":"uint256"},{"name":"user","type":"address","internalType":"address"}],"outputs":[{"name":"","type":"uint8[3]","internalType":"enum MilestoneFunding.VoteOption[3]"}],"stateMutability":"view"},{"type":"function","name":"getProjectCore","inputs":[{"name":"projectId","type":"uint256","internalType":"uint256"}],"outputs":[{"name":"creator","type":"address","internalType":"address"},{"name":"name","type":"string","internalType":"string"},{"name":"description","type":"string","internalType":"string"},{"name":"category","type":"uint8","internalType":"enum MilestoneFunding.Category"},{"name":"softCapWei","type":"uint256","internalType":"uint256"},{"name":"totalFunded","type":"uint256","internalType":"uint256"},{"name":"bond","type":"uint256","internalType":"uint256"},{"name":"state","type":"string","internalType":"string"}],"stateMutability":"view"},{"type":"function","name":"getProjectMeta","inputs":[{"name":"projectId","type":"uint256","internalType":"uint256"}],"outputs":[{"name":"milestoneHashes","type":"string[3]","internalType":"string[3]"},{"name":"investors","type":"address[]","internalType":"address[]"}],"stateMutability":"view"},{"type":"function","name":"getProjectState","inputs":[{"name":"projectId","type":"uint256","internalType":"uint256"}],"outputs":[{"name":"","type":"string","internalType":"string"}],"stateMutability":"view"},{"type":"function","name":"getProjectVoting","inputs":[{"name":"projectId","type":"uint256","internalType":"uint256"}],"outputs":[{"name":"snapshotTotalFund","type":"uint256","internalType":"uint256"},{"name":"snapshotTotalWeight","type":"uint256","internalType":"uint256"},{"name":"yesWeight","type":"uint256[3]","internalType":"uint256[3]"},{"name":"noWeight","type":"uint256[3]","internalType":"uint256[3]"},{"name":"finalized","type":"bool[3]","internalType":"bool[3]"}],"stateMutability":"view"},{"type":"function","name":"owner","inputs":[],"outputs":[{"name":"","type":"address","internalType":"address"}],"stateMutability":"view"},{"type":"function","name":"projectCount","inputs":[],"outputs":[{"name":"","type":"uint256","internalType":"uint256"}],"stateMutability":"view"},{"type":"function","name":"renounceOwnership","inputs":[],"outputs":[],"stateMutability":"nonpayable"},{"type":"function","name":"submitMilestone","inputs":[{"name":"projectId","type":"uint256","internalType":"uint256"},{"name":"ipfsHash","type":"string","internalType":"string"}],"outputs":[],"stateMutability":"nonpayable"},{"type":"function","name":"transferOwnership","inputs":[{"name":"newOwner","type":"address","internalType":"address"}],"outputs":[],"stateMutability":"nonpayable"},{"type":"function","name":"vote","inputs":[{"name":"projectId","type":"uint256","internalType":"uint256"},{"name":"option","type":"uint8","internalType":"enum MilestoneFunding.VoteOption"}],"outputs":[],"stateMutability":"nonpayable"},{"type":"event","name":"Claim","inputs":[{"name":"user","type":"address","indexed":true,"internalType":"address"},{"name":"amount","type":"uint256","indexed":false,"internalType":"uint256"},{"name":"role","type":"string","indexed":false,"internalType":"string"}],"anonymous":false},{"type":"event","name":"Funded","inputs":[{"name":"projectId","type":"uint256","indexed":true,"internalType":"uint256"},{"name":"investor","type":"address","indexed":true,"internalType":"address"},{"name":"amount","type":"uint256","indexed":false,"internalType":"uint256"}],"anonymous":false},{"type":"event","name":"MilestoneSubmitted","inputs":[{"name":"projectId","type":"uint256","indexed":true,"internalType":"uint256"},{"name":"milestone","type":"uint256","indexed":false,"internalType":"uint256"},{"name":"ipfsHash","type":"string","indexed":false,"internalType":"string"}],"anonymous":false},{"type":"event","name":"OwnershipTransferred","inputs":[{"name":"previousOwner","type":"address","indexed":true,"internalType":"address"},{"name":"newOwner","type":"address","indexed":true,"internalType":"address"}],"anonymous":false},{"type":"event","name":"ProjectCancelled","inputs":[{"name":"projectId","type":"uint256","indexed":true,"internalType":"uint256"}],"anonymous":false},{"type":"event","name":"ProjectCreated","inputs":[{"name":"projectId","type":"uint256","indexed":true,"internalType":"uint256"},{"name":"name","type":"string","indexed":false,"internalType":"string"},{"name":"description","type":"string","indexed":false,"internalType":"string"},{"name":"category","type":"uint8","indexed":false,"internalType":"enum MilestoneFunding.Category"},{"name":"softCapWei","type":"uint256","indexed":false,"internalType":"uint256"},{"name":"creator","type":"address","indexed":true,"internalType":"address"}],"anonymous":false},{"type":"event","name":"VoteFinalized","inputs":[{"name":"projectId","type":"uint256","indexed":true,"internalType":"uint256"},{"name":"milestone","type":"uint256","indexed":false,"internalType":"uint256"},{"name":"passed","type":"bool","indexed":false,"internalType":"bool"}],"anonymous":false},{"type":"event","name":"Voted","inputs":[{"name":"projectId","type":"uint256","indexed":true,"internalType":"uint256"},{"name":"voter","type":"address","indexed":true,"internalType":"address"},{"name":"milestone","type":"uint256","indexed":false,"internalType":"uint256"},{"name":"vote","type":"uint8","indexed":false,"internalType":"enum MilestoneFunding.VoteOption"}],"anonymous":false},{"type":"error","name":"OwnableInvalidOwner","inputs":[{"name":"owner","type":"address","internalType":"address"}]},{"type":"error","name":"OwnableUnauthorizedAccount","inputs":[{"name":"account","type":"address","internalType":"address"}]},{"type":"error","name":"ReentrancyGuardReentrantCall","inputs":[]}],"bytecode":{"object":"0x6080806040523460955733156082575f8054336001600160a01b0319821681178355916001600160a01b03909116907f8be0079c531659141344cd1fd0a4f28419497f9722a3daafe3b4186f6b6457e09080a360017f9b779b17422d0df92223018b32b4d1fa46e071723d6817e2486d003becc55f0055612c4f908161009a8239f35b631e4fbdf760e01b5f525f60045260245ffd5b5f80fdfe6080806040526004361015610012575f80fd5b5f3560e01c90816304f0296914611bf6575080630df529b8146118b2578063109ba91c146117b55780631b745c26146116d1578063223ecf0d1461134e578063232adc651461129d57806324941147146110d9578063275fd95b146110b257806336fbad26146110955780633bd1adec14610fa3578063476a119b14610cc6578063715018a614610c6f578063744ddcaa14610c485780638a237ac514610b965780638da5cb5b14610b6f5780638e98435d14610aea578063943e82161461086e578063a948d05f146107ab578063aae7712614610773578063b4d637811461073b578063bafcf65614610714578063ca1d209d146103e6578063e0155714146103b3578063e1769b1f14610307578063e48bfef214610239578063f24f5c4c146101ce5763f2fde38b14610145575f80fd5b346101ca5760203660031901126101ca5761015e611c2a565b610166612643565b6001600160a01b031680156101b7575f80546001600160a01b03198116831782556001600160a01b0316907f8be0079c531659141344cd1fd0a4f28419497f9722a3daafe3b4186f6b6457e09080a3005b631e4fbdf760e01b5f525f60045260245ffd5b5f80fd5b346101ca5760203660031901126101ca5760405160606101ee8183611de6565b5f5b81811061022b576004355f526002602052610227610213601660405f2001612268565b604051918291602083526020830190611d8d565b0390f35b8082602092850152016101f0565b346101ca5760403660031901126101ca576024356001600160a01b03811681036101ca576060908160405161026e8282611de6565b3690376004355f526002602052600e60405f20019060018060a01b03165f5260205260405f206102cc60405191546102a98360ff8316611dcb565b6102bc6020840160ff8360081c16611dcb565b60ff604084019160101c16611dcb565b6102d68282611de6565b604051905f825b600382106102ea57505050f35b602080826102fb6001948751611dcb565b019301910190916102dd565b346101ca5760203660031901126101ca576004355f52600260205260405f2060088101805461033581611e20565b926009015f5b8281106103755761036785610227610352876122b4565b91604051938493604085526040850190611c73565b908382036020850152611c40565b8061038260019286612237565b838060a01b0391549060031b1c16828060a01b03165f528260205260405f20546103ac8288611ea5565b520161033b565b346101ca5760203660031901126101ca576102276103d260043561236d565b604051918291602083526020830190611caf565b60203660031901126101ca576004356103fd61260b565b805f52600260205260405f206007810160ff815416600c811015610700576106cd57341561069b57600482019182549061043d6005820192835490612360565b93841561066557345f95803411610650575b50335f908152600a8401602081905260409091205460ff16156105da575b50600983019660018060a01b0333165f528760205260405f2061049183825461224c565b905561049e82865461224c565b8095556040519182527f38c48552690c96ec2872092ac1db6c19fb59f5a8c5b49bbf41ed4886d0ca692660203393a354821015610545575b5050508091506104f4575b60015f80516020612bfa83398151915255005b5f80808093335af16105046121ce565b501561051057806104e1565b60405162461bcd60e51b815260206004820152600d60248201526c1499599d5b990819985a5b1959609a1b6044820152606490fd5b600b8101918255925f92600d8501916008860191855b83548710156105b8576105b06001916105aa6105778a88612237565b905460039190911b1c60a085901b859003165f90815260208d8152604080832054918b90529091208190558954906126d2565b9061224c565b96019561055b565b9550959250955050600c91500155600260ff19825416179055808280806104d6565b335f90815260209190915260409020805460ff191660011790556008830180546801000000000000000081101561063c5761061a91600182018155612237565b81546001600160a01b0360039290921b91821b19163390911b1790558761046d565b634e487b7160e01b5f52604160045260245ffd5b955061065e90508534612360565b948761044f565b60405162461bcd60e51b815260206004820152600e60248201526d105b1c9958591e48199d5b99195960921b6044820152606490fd5b60405162461bcd60e51b815260206004820152600a6024820152695a65726f2076616c756560b01b6044820152606490fd5b60405162461bcd60e51b815260206004820152600b60248201526a4e6f742066756e64696e6760a81b6044820152606490fd5b634e487b7160e01b5f52602160045260245ffd5b346101ca575f3660031901126101ca57335f526003602052602060405f2054604051908152f35b346101ca5760203660031901126101ca576001600160a01b0361075c611c2a565b165f526005602052602060405f2054604051908152f35b346101ca5760203660031901126101ca576001600160a01b03610794611c2a565b165f526003602052602060405f2054604051908152f35b346101ca5760203660031901126101ca57600435805f52600260205260405f209061022760018060a01b038354169160ff6003850154169060048501549060058601546107fc60068801549261236d565b9261085261084761081b600261081460018d01611ef1565b9b01611ef1565b6108396040519b8c9b8c5261010060208d01526101008c0190611caf565b908a820360408c0152611caf565b956060890190611d2b565b608087015260a086015260c085015283820360e0850152611caf565b346101ca5760403660031901126101ca5760043560243560038110156101ca57815f52600260205260405f209160018060a01b0333165f52600a830160205260ff60405f20541615610ab6575f926001831492838015610aa9575b6108d38691612305565b6107005780151580610a9b575b6108e990612305565b6108f282612669565b9360ff6109028660158601612347565b90549060031b1c16610a6a57600e830160018060a01b0333165f528060205260ff6109308760405f20612347565b90549060031b1c16600381101561070057610a3d5760018060a01b0333165f526020526109608560405f20612347565b9661070057610a229681549060031b9060ff808616831b921b191617905560018060a01b0333165f52600d83016020526109a360405f2054600b850154906126d2565b9015610a24576109e2906109cc6109bd87600f8701612259565b91909283548360031b1c61224c565b82545f1960039390931b92831b1916911b179055565b6109f6604051918583526020830190611dcb565b827ffe2287fa52fad81788ac4645bf0bae4badc927d35f68ab09bc950ca8e0f0168960403393a3612783565b005b610a38906109cc6109bd8760128701612259565b6109e2565b60405162461bcd60e51b8152602060048201526005602482015264159bdd195960da1b6044820152606490fd5b60405162461bcd60e51b8152602060048201526009602482015268119a5b985b1a5e995960ba1b6044820152606490fd5b505f945060028111156108e0565b505f9450600281146108c9565b60405162461bcd60e51b815260206004820152600c60248201526b2737ba1034b73b32b9ba37b960a11b6044820152606490fd5b346101ca5760203660031901126101ca576040516060610b0a8183611de6565b5f5b818110610b61576004355f526002602052610b5360405f20610227610b3f6008610b3860198501612268565b93016122b4565b604051938493604085526040850190611d8d565b908382036020850152611c73565b808260209285015201610b0c565b346101ca575f3660031901126101ca575f546040516001600160a01b039091168152602090f35b346101ca575f3660031901126101ca57610bae61260b565b335f52600360205260405f2054610bc681151561217c565b335f5260036020525f60408120555f80808084335af1610be46121ce565b50156101ca5760405190815260406020820152600860408201526724a72b22a9aa27a960c11b60608201527f58fb02bcfedd338314c70bcf748b4f71a01259cf8956f31b34cb09acf29809cb60803392a260015f80516020612bfa83398151915255005b346101ca575f3660031901126101ca57335f526004602052602060405f2054604051908152f35b346101ca575f3660031901126101ca57610c87612643565b5f80546001600160a01b0319811682556001600160a01b03167f8be0079c531659141344cd1fd0a4f28419497f9722a3daafe3b4186f6b6457e08280a3005b346101ca5760403660031901126101ca5760043560243567ffffffffffffffff81116101ca57610cfa903690600401611d5f565b825f52600260205260405f20610d1a60018060a01b0382541633146121fd565b8115610f695760808211610f2f57602e8214610e6a575b600781019260ff845416600c8110156107005760028103610e075750610d5e6019925f9384915b01612259565b610df4578382610d6d92612030565b8160011b82810460021483151715610de0576003019081600311610de057600c82101561070057610dc2610ddb927f556e3b296d5e8c8bab27684b52ae96905507befd2d188ce6f4453a6717dd9c0096612131565b604051938493845260406020850152604084019161215c565b0390a2005b634e487b7160e01b5f52601160045260245ffd5b634e487b7160e01b5f525f60045260245ffd5b60048103610e205750610d5e6019926001938491610d58565b600603610e3757610d5e6019926002938491610d58565b60405162461bcd60e51b815260206004820152600b60248201526a57726f6e6720737461676560a81b6044820152606490fd5b610e73826121b2565b610e806040519182611de6565b8281526020810136848601116101ca57838582375f60208584010152815115610f1b57516001600160f81b031916605160f81b149081610ef5575b50610d315760405162461bcd60e51b815260206004820152600d60248201526c0496e76616c696420434944763609c1b6044820152606490fd5b8091505160011015610f1b57602101516001600160f81b031916606d60f81b1485610ebb565b634e487b7160e01b5f52603260045260245ffd5b60405162461bcd60e51b815260206004820152601260248201527149504653206861736820746f6f206c6f6e6760701b6044820152606490fd5b60405162461bcd60e51b815260206004820152601260248201527112541194c81a185cda081c995c5d5a5c995960721b6044820152606490fd5b346101ca575f3660031901126101ca57610fbb61260b565b5f546001600160a01b0316330361106357335f52600560205260405f2054610fe481151561217c565b335f5260056020525f60408120555f80808084335af16110026121ce565b50156101ca5760405190815260406020820152600560408201526427aba722a960d91b60608201527f58fb02bcfedd338314c70bcf748b4f71a01259cf8956f31b34cb09acf29809cb60803392a260015f80516020612bfa83398151915255005b60405162461bcd60e51b815260206004820152600a60248201526927b7363c9037bbb732b960b11b6044820152606490fd5b346101ca575f3660031901126101ca576020600154604051908152f35b346101ca575f3660031901126101ca57335f526005602052602060405f2054604051908152f35b346101ca5760203660031901126101ca576004356110f561260b565b805f52600260205260405f209061111660018060a01b0383541633146121fd565b6007820160ff815416600c8110156107005761125857805460ff191660011790556005820154600683018054909291806111ac57505f80546001600160a01b031681526005602052604081208054919550916111719161224c565b90555b7fe3805ed669490875ae87c5c8b1ad6ecca0e5e67305a833926d0d4317c4822fc08380a25560015f80516020612bfa83398151915255005b5f939293926009600887019601935b865481101561124a57806111d160019289612237565b838060a01b0391549060031b1c16828060a01b0381165f528660205260405f205480611200575b5050016111bb565b806105aa87611212611217948b612149565b611fc3565b815f52600360205261122e60405f2091825461224c565b9055828060a01b03165f52856020525f604081205588806111f8565b5093925050505f9250611174565b60405162461bcd60e51b815260206004820152601a60248201527f43616e206f6e6c792063616e63656c20696e2046756e64696e670000000000006044820152606490fd5b346101ca575f3660031901126101ca576112b561260b565b335f52600460205260405f20546112cd81151561217c565b335f5260046020525f60408120555f80808084335af16112eb6121ce565b50156101ca5760405190815260406020820152600760408201526621a922a0aa27a960c91b60608201527f58fb02bcfedd338314c70bcf748b4f71a01259cf8956f31b34cb09acf29809cb60803392a260015f80516020612bfa83398151915255005b60a03660031901126101ca5760043567ffffffffffffffff81116101ca5761137a903690600401611d5f565b9060243567ffffffffffffffff81116101ca5761139b903690600401611d5f565b60643593916044359160088610156101ca5760843567ffffffffffffffff81116101ca5780600401906064369101116101ca57831561169d57600a840480340361166b57821561162f5761040083116115f3575f5b600381106115515750600788116115195761140c600154611dd8565b806001555f52600260205260405f2090336bffffffffffffffffffffffff60a01b835416178255611441878960018501612030565b61144f848660028501612030565b6003820160ff1981541660ff8b1617905585600483015560068201556007810160ff19815416905560168291015f915b600383106114f35789897f2b96aec48c86c2065c5b54cc8391f9ddbd018325a811b1090a1bac64ade6d1878a8a6114e66114db8c8c6114cd600154986040519760808952608089019161215c565b91868303602088015261215c565b956040840190611d2b565b60608201528033940390a3005b600160208261150d611506849589611fe1565b9087612030565b0192019201919061147f565b60405162461bcd60e51b815260206004820152601060248201526f496e76616c69642063617465676f727960801b6044820152606490fd5b61155b8184612014565b9050156115ae5761010061156f8285612014565b90501161157e576001016113f0565b60405162461bcd60e51b8152602060048201526008602482015267546f6f206c6f6e6760c01b6044820152606490fd5b60405162461bcd60e51b815260206004820152601b60248201527f456d707479206d696c6573746f6e65206465736372697074696f6e00000000006044820152606490fd5b60405162461bcd60e51b81526020600482015260146024820152734465736372697074696f6e20746f6f206c6f6e6760601b6044820152606490fd5b60405162461bcd60e51b815260206004820152601460248201527311195cd8dc9a5c1d1a5bdb881c995c5d5a5c995960621b6044820152606490fd5b60405162461bcd60e51b815260206004820152600a602482015269426f6e64203d2031302560b01b6044820152606490fd5b60405162461bcd60e51b815260206004820152600c60248201526b0536f667420636170203d20360a41b6044820152606490fd5b346101ca575f3660031901126101ca575f600190600154915b8281111561177057506116fc90611e20565b5f9160015b8181111561171f576040516020808252819061022790820186611c40565b805f52600260205260ff600760405f20015416600c811015610700571561174f575b61174a90611dd8565b611701565b92611768818561176261174a9487611ea5565b52611dd8565b939050611741565b805f52600260205260ff600760405f20015416600c81101561070057156117a0575b61179b90611dd8565b6116ea565b906117ad61179b91611dd8565b919050611792565b346101ca5760203660031901126101ca576060806040516117d68282611de6565b369037806040516117e78282611de6565b369037806040516117f88282611de6565b3690376004355f52600260205260405f20611885600b8201549261187b600c840154611826600f8601611f8f565b9061186661183660128801611f8f565b9460ff601560405199015481811615158a52818160081c16151560208b015260101c161515604089015287611de6565b60405196875260208701526040860190611d38565b60a0840190611d38565b5f61010083015b6003821061189a5761016084f35b6020806001928551151581520193019101909161188c565b346101ca575f3660031901126101ca57600180545f9133905b82811115611bb157506118dd83611e20565b926118e781611e08565b926118f56040519485611de6565b818452601f1961190483611e08565b0136602086013761191482611e6e565b9361191e83611e6e565b9561192884611e08565b6119356040519182611de6565b84815261194185611e08565b602082019790601f190136893761195786611e20565b9261196187611e20565b9461196b88611e20565b9661197e6119788a611e6e565b99611e20565b995f9060015b83811115611a7b5750505050996119d46020936119c66119e2946119b99d9e6040519e8f926101408452610140840190611c40565b9188818403910152611c73565b8c810360408e015290611cd3565b908a820360608c0152611cd3565b9188830360808a015251918281520197905f5b818110611a5c57505050611a4d92611a30610227969593611a228a611a3e958b809d0360a08d0152611c40565b9089820360c08b0152611c40565b9087820360e0890152611c40565b90858203610100870152611cd3565b90838203610120850152611c40565b90919860208082611a706001948e51611d2b565b019a019291016119f5565b8e815f526002602052600a60405f2001835f5260205260ff60405f205416611aad575b50611aa890611dd8565b611984565b9092835f526002602052611b208160405f209386611acb838c611ea5565b5284546001600160a01b0316611ae1838b611ea5565b52611aee60018601611ef1565b611af8838d611ea5565b52611b03828c611ea5565b50611b1060028601611ef1565b611b1a8383611ea5565b52611ea5565b5060ff60038301541690611b34818b611ea5565b926008831015610700578f908f908f8f8f93611b91928792600996611ba89a611aa89c52611b6785600489015492611ea5565b52611b7784600588015492611ea5565b52611b8783600687015492611ea5565b52611b108b61236d565b50865f52016020526117628260405f205492611ea5565b9290508e611a9e565b805f526002602052600a60405f2001825f5260205260ff60405f205416611be1575b611bdc90611dd8565b6118cb565b92611bee611bdc91611dd8565b939050611bd3565b346101ca5760203660031901126101ca576020906001600160a01b03611c1a611c2a565b165f526004825260405f20548152f35b600435906001600160a01b03821682036101ca57565b90602080835192838152019201905f5b818110611c5d5750505090565b8251845260209384019390920191600101611c50565b90602080835192838152019201905f5b818110611c905750505090565b82516001600160a01b0316845260209384019390920191600101611c83565b805180835260209291819084018484015e5f828201840152601f01601f1916010190565b9080602083519182815201916020808360051b8301019401925f915b838310611cfe57505050505090565b9091929394602080611d1c600193601f198682030187528951611caf565b97019301930191939290611cef565b9060088210156107005752565b905f905b60038210611d4957505050565b6020806001928551815201930191019091611d3c565b9181601f840112156101ca5782359167ffffffffffffffff83116101ca57602083818601950101116101ca57565b60608201915f815b60038210611da4575050505090565b90919293602080611dbd83876001950386528851611caf565b960192019201909291611d95565b9060038210156107005752565b5f198114610de05760010190565b90601f8019910116810190811067ffffffffffffffff82111761063c57604052565b67ffffffffffffffff811161063c5760051b60200190565b90611e2a82611e08565b611e376040519182611de6565b8281528092611e48601f1991611e08565b0190602036910137565b5f5b828110611e6057505050565b606082820152602001611e54565b90611ea3611e7b83611e08565b611e886040519182611de6565b83815260208194611e9b601f1991611e08565b019101611e52565b565b8051821015610f1b5760209160051b010190565b90600182811c92168015611ee7575b6020831014611ed357565b634e487b7160e01b5f52602260045260245ffd5b91607f1691611ec8565b9060405191825f825492611f0484611eb9565b8084529360018116908115611f6d5750600114611f29575b50611ea392500383611de6565b90505f9291925260205f20905f915b818310611f51575050906020611ea3928201015f611f1c565b6020919350806001915483858901015201910190918492611f38565b905060209250611ea394915060ff191682840152151560051b8201015f611f1c565b60405191905f835b60038210611fad57505050611ea3606083611de6565b6001602081928554815201930191019091611f97565b8115611fcd570490565b634e487b7160e01b5f52601260045260245ffd5b903590601e19813603018212156101ca570180359067ffffffffffffffff82116101ca576020019181360383136101ca57565b6003821015610f1b5761202c9160051b810190611fe1565b9091565b90929167ffffffffffffffff811161063c5761204c8254611eb9565b601f81116120ec575b505f601f821160011461208d57819293945f92612082575b50508160011b915f199060031b1c1916179055565b013590505f8061206d565b601f19821694835f5260205f20915f5b8781106120d45750836001959697106120bb575b505050811b019055565b01355f19600384901b60f8161c191690555f80806120b1565b9092602060018192868601358155019401910161209d565b825f5260205f20601f830160051c81019160208410612127575b601f0160051c01905b81811061211c5750612055565b5f815560010161210f565b9091508190612106565b90600c8110156107005760ff80198354169116179055565b81810292918115918404141715610de057565b908060209392818452848401375f828201840152601f01601f1916010190565b1561218357565b60405162461bcd60e51b81526020600482015260076024820152664e6f7468696e6760c81b6044820152606490fd5b67ffffffffffffffff811161063c57601f01601f191660200190565b3d156121f8573d906121df826121b2565b916121ed6040519384611de6565b82523d5f602084013e565b606090565b1561220457565b60405162461bcd60e51b815260206004820152600b60248201526a2737ba1031b932b0ba37b960a91b6044820152606490fd5b8054821015610f1b575f5260205f2001905f90565b91908201809211610de057565b6003821015610f1b5701905f90565b90604051916060830183811067ffffffffffffffff82111761063c576040525f835b6003821061229757505050565b6001602081926122a686611ef1565b81520193019101909161228a565b90604051918281549182825260208201905f5260205f20925f5b8181106122e3575050611ea392500383611de6565b84546001600160a01b03168352600194850194879450602090930192016122ce565b1561230c57565b60405162461bcd60e51b815260206004820152601360248201527224b73b30b634b2103b37ba329037b83a34b7b760691b6044820152606490fd5b9190916003831015610f1b57601f908360051c01921690565b91908203918211610de057565b5f52600260205260ff600760405f20015416600c8110156107005780156125e557600181146125bd576002811461259057600381146125655760048114612538576005811461250d57600681146124e057600781146124b5576008811461248d576009811461246157600a811461243557600b1461240a576040516123f3604082611de6565b60078152662ab735b737bbb760c91b602082015290565b604051612418604082611de6565b600d81526c4661696c757265526f756e643360981b602082015290565b50604051612444604082611de6565b600d81526c2330b4b63ab932a937bab7321960991b602082015290565b50604051612470604082611de6565b600d81526c4661696c757265526f756e643160981b602082015290565b5060405161249c604082611de6565b600981526810dbdb5c1b195d195960ba1b602082015290565b506040516124c4604082611de6565b600c81526b566f74696e67526f756e643360a01b602082015290565b506040516124ef604082611de6565b600e81526d4275696c64696e6753746167653360901b602082015290565b5060405161251c604082611de6565b600c81526b2b37ba34b733a937bab7321960a11b602082015290565b50604051612547604082611de6565b600e81526d213ab4b63234b733a9ba30b3b29960911b602082015290565b50604051612574604082611de6565b600c81526b566f74696e67526f756e643160a01b602082015290565b5060405161259f604082611de6565b600e81526d4275696c64696e6753746167653160901b602082015290565b506040516125cc604082611de6565b600981526810d85b98d95b1b195960ba1b602082015290565b506040516125f4604082611de6565b600781526646756e64696e6760c81b602082015290565b60025f80516020612bfa83398151915254146126345760025f80516020612bfa83398151915255565b633ee5aeb560e01b5f5260045ffd5b5f546001600160a01b0316330361265657565b63118cdaa760e01b5f523360045260245ffd5b6007015460ff16600c81101561070057600381146126cd57600581146126c7576007146126c25760405162461bcd60e51b815260206004820152600a6024820152694e6f7420766f74696e6760b01b6044820152606490fd5b600290565b50600190565b505f90565b801580801561277b575b61277457670de0b6b3a7640000820290828204670de0b6b3a7640000141715610de05760018101808211610de05760011c815b82821061275557505060018201809211610de05761272f61273592612924565b90612149565b60018201809211610de05761274c61275292612924565b90611fc3565b90565b90915061276b826127668184611fc3565b61224c565b60011c9061270f565b5050505f90565b5082156126dc565b909161279281600f8401612259565b90549060031b1c6127a68260128501612259565b90549060031b1c600c8401546127bc828461224c565b908181111561291d576127cf8282612360565b915b606481029080820460641490151715610de05760468202821591838204604614831715610de0571061291357606484029084820460641485151715610de057602883029283046028141715610de05710156128e15761282f9161224c565b1061283957505050565b601582019160ff61284a8385612347565b90549060031b1c166128b657611ea39361288061286984600196612347565b819291549060031b9060ff6001831b921b19161790565b90557fd0e20bc20137f27f0f61ae739e5a5fbcd5839910ab315b4feccb3dcd848c388260408051858152866020820152a2612967565b606460405162461bcd60e51b8152602060048201526004602482015263446f6e6560e01b6044820152fd5b505050601582019160ff6128f58385612347565b90549060031b1c166128b657611ea393612880612869845f96612347565b5050505050505050565b5f916127d1565b5f905b600181116129545750670de0b6b3a7640000810290808204670de0b6b3a76400001490151715610de05790565b6129619060011c91611dd8565b90612927565b915f905f5b838110612b4d575015612a655750806129d557506005810154601481029080820460141490151715610de05760078201805460ff1916600417905560649004905b546001600160a01b03165f908152600460205260409020805490916129d19161224c565b9055565b600103612a0d576005810154601e810290808204601e1490151715610de05760078201805460ff1916600617905560649004906129ad565b6005810154603281029080820460321490151715610de057606490049060078101600860ff19825416179055600681015460018060a01b038254165f526004602052612a5e60405f2091825461224c565b90556129ad565b92919060090180600911610de057600c81101561070057612a899060078301612131565b60068101545f80546001600160a01b0316815260056020526040902080549091612ab29161224c565b9055612ac360058201938454612360565b5f5b600883018054821015612b455790612adf81600193612237565b838060a01b0391549060031b1c16828060a01b0381165f5260098501602052612b17612b0f60405f205486612149565b885490611fc3565b9081612b26575b505001612ac5565b5f526003602052612b3c60405f2091825461224c565b90555f80612b1e565b505050509050565b8015612bcc575b60018114612b9f575b60028114612b6e575b60010161296c565b916005850154603281029080820460321490151715610de0576001916064612b9792049061224c565b929050612b66565b91600585015490601e820291808304601e1490151715610de0576064612bc692049061224c565b91612b5d565b91600585015490601482029180830460141490151715610de0576064612bf392049061224c565b91612b5456fe9b779b17422d0df92223018b32b4d1fa46e071723d6817e2486d003becc55f00a26469706673582212204d2196a3148084fb20993027a4f40d82eb8c88f2ea44aa30e80b959cc118255064736f6c634300081a0033","linkReferences":{}},"methodIdentifiers":{"cancelProject(uint256)":"24941147","claimCreator()":"232adc65","claimInvestor()":"8a237ac5","claimOwner()":"3bd1adec","claimableCreator(address)":"04f02969","claimableInvestor(address)":"aae77126","claimableOwner(address)":"b4d63781","createProject(string,string,uint256,uint8,string[3])":"223ecf0d","fund(uint256)":"ca1d209d","getAllFundingProjects()":"1b745c26","getAllInvestments(uint256)":"e1769b1f","getClaimableCreator()":"744ddcaa","getClaimableInvestor()":"bafcf656","getClaimableOwner()":"275fd95b","getMilestoneDescriptions(uint256)":"f24f5c4c","getMyInvestedProjects()":"0df529b8","getMyVotes(uint256,address)":"e48bfef2","getProjectCore(uint256)":"a948d05f","getProjectMeta(uint256)":"8e98435d","getProjectState(uint256)":"e0155714","getProjectVoting(uint256)":"109ba91c","owner()":"8da5cb5b","projectCount()":"36fbad26","renounceOwnership()":"715018a6","submitMilestone(uint256,string)":"476a119b","transferOwnership(address)":"f2fde38b","vote(uint256,uint8)":"943e8216"},"id":23}