{
  "abi": [
    {
      "type": "constructor",
      "inputs": [],
      "stateMutability": "nonpayable"
    },
    {
      "type": "function",
      "name": "cancelProject",
      "inputs": [
        {
          "name": "projectId",
          "type": "uint256",
          "internalType": "uint256"
        }
      ],
      "outputs": [],
      "stateMutability": "nonpayable"
    },
    {
      "type": "function",
      "name": "claimAllRefund",
      "inputs": [],
      "outputs": [],
      "stateMutability": "nonpayable"
    },
    {
      "type": "function",
      "name": "claimCreator",
      "inputs": [],
      "outputs": [],
      "stateMutability": "nonpayable"
    },
    {
      "type": "function",
      "name": "claimOwner",
      "inputs": [],
      "outputs": [],
      "stateMutability": "nonpayable"
    },
    {
      "type": "function",
      "name": "claimRefund",
      "inputs": [
        {
          "name": "projectId",
          "type": "uint256",
          "internalType": "uint256"
        }
      ],
      "outputs": [],
      "stateMutability": "nonpayable"
    },
    {
      "type": "function",
      "name": "claimableCreator",
      "inputs": [
        {
          "name": "",
          "type": "address",
          "internalType": "address"
        }
      ],
      "outputs": [
        {
          "name": "",
          "type": "uint256",
          "internalType": "uint256"
        }
      ],
      "stateMutability": "view"
    },
    {
      "type": "function",
      "name": "claimableOwner",
      "inputs": [
        {
          "name": "",
          "type": "address",
          "internalType": "address"
        }
      ],
      "outputs": [
        {
          "name": "",
          "type": "uint256",
          "internalType": "uint256"
        }
      ],
      "stateMutability": "view"
    },
    {
      "type": "function",
      "name": "createProject",
      "inputs": [
        {
          "name": "name",
          "type": "string",
          "internalType": "string"
        },
        {
          "name": "description",
          "type": "string",
          "internalType": "string"
        },
        {
          "name": "softCapWei",
          "type": "uint256",
          "internalType": "uint256"
        },
        {
          "name": "category",
          "type": "uint8",
          "internalType": "enum MilestoneFunding.Category"
        },
        {
          "name": "milestoneDescriptions",
          "type": "string[3]",
          "internalType": "string[3]"
        }
      ],
      "outputs": [],
      "stateMutability": "payable"
    },
    {
      "type": "function",
      "name": "fund",
      "inputs": [
        {
          "name": "projectId",
          "type": "uint256",
          "internalType": "uint256"
        }
      ],
      "outputs": [],
      "stateMutability": "payable"
    },
    {
      "type": "function",
      "name": "getAllClaimableRefund",
      "inputs": [],
      "outputs": [
        {
          "name": "totalRefund",
          "type": "uint256",
          "internalType": "uint256"
        }
      ],
      "stateMutability": "view"
    },
    {
      "type": "function",
      "name": "getAllFundingProjects",
      "inputs": [],
      "outputs": [
        {
          "name": "",
          "type": "uint256[]",
          "internalType": "uint256[]"
        }
      ],
      "stateMutability": "view"
    },
    {
      "type": "function",
      "name": "getAllInvestments",
      "inputs": [
        {
          "name": "projectId",
          "type": "uint256",
          "internalType": "uint256"
        }
      ],
      "outputs": [
        {
          "name": "",
          "type": "address[]",
          "internalType": "address[]"
        },
        {
          "name": "",
          "type": "uint256[]",
          "internalType": "uint256[]"
        }
      ],
      "stateMutability": "view"
    },
    {
      "type": "function",
      "name": "getClaimableCreator",
      "inputs": [],
      "outputs": [
        {
          "name": "",
          "type": "uint256",
          "internalType": "uint256"
        }
      ],
      "stateMutability": "view"
    },
    {
      "type": "function",
      "name": "getClaimableOwner",
      "inputs": [],
      "outputs": [
        {
          "name": "",
          "type": "uint256",
          "internalType": "uint256"
        }
      ],
      "stateMutability": "view"
    },
    {
      "type": "function",
      "name": "getMilestoneDescriptions",
      "inputs": [
        {
          "name": "projectId",
          "type": "uint256",
          "internalType": "uint256"
        }
      ],
      "outputs": [
        {
          "name": "",
          "type": "string[3]",
          "internalType": "string[3]"
        }
      ],
      "stateMutability": "view"
    },
    {
      "type": "function",
      "name": "getMyInvestedProjects",
      "inputs": [],
      "outputs": [
        {
          "name": "projectIds",
          "type": "uint256[]",
          "internalType": "uint256[]"
        },
        {
          "name": "creators",
          "type": "address[]",
          "internalType": "address[]"
        },
        {
          "name": "names",
          "type": "string[]",
          "internalType": "string[]"
        },
        {
          "name": "descriptions",
          "type": "string[]",
          "internalType": "string[]"
        },
        {
          "name": "categories",
          "type": "uint8[]",
          "internalType": "enum MilestoneFunding.Category[]"
        },
        {
          "name": "softCaps",
          "type": "uint256[]",
          "internalType": "uint256[]"
        },
        {
          "name": "totalFundeds",
          "type": "uint256[]",
          "internalType": "uint256[]"
        },
        {
          "name": "bonds",
          "type": "uint256[]",
          "internalType": "uint256[]"
        },
        {
          "name": "states",
          "type": "uint8[]",
          "internalType": "enum MilestoneFunding.ProjectState[]"
        },
        {
          "name": "investments",
          "type": "uint256[]",
          "internalType": "uint256[]"
        },
        {
          "name": "milestones",
          "type": "string[3][]",
          "internalType": "string[3][]"
        }
      ],
      "stateMutability": "view"
    },
    {
      "type": "function",
      "name": "getMyVotes",
      "inputs": [
        {
          "name": "projectId",
          "type": "uint256",
          "internalType": "uint256"
        },
        {
          "name": "user",
          "type": "address",
          "internalType": "address"
        }
      ],
      "outputs": [
        {
          "name": "",
          "type": "uint8[3]",
          "internalType": "enum MilestoneFunding.VoteOption[3]"
        }
      ],
      "stateMutability": "view"
    },
    {
      "type": "function",
      "name": "getProjectCore",
      "inputs": [
        {
          "name": "projectId",
          "type": "uint256",
          "internalType": "uint256"
        }
      ],
      "outputs": [
        {
          "name": "creator",
          "type": "address",
          "internalType": "address"
        },
        {
          "name": "name",
          "type": "string",
          "internalType": "string"
        },
        {
          "name": "description",
          "type": "string",
          "internalType": "string"
        },
        {
          "name": "category",
          "type": "uint8",
          "internalType": "enum MilestoneFunding.Category"
        },
        {
          "name": "softCapWei",
          "type": "uint256",
          "internalType": "uint256"
        },
        {
          "name": "totalFunded",
          "type": "uint256",
          "internalType": "uint256"
        },
        {
          "name": "bond",
          "type": "uint256",
          "internalType": "uint256"
        },
        {
          "name": "state",
          "type": "uint8",
          "internalType": "enum MilestoneFunding.ProjectState"
        }
      ],
      "stateMutability": "view"
    },
    {
      "type": "function",
      "name": "getProjectMeta",
      "inputs": [
        {
          "name": "projectId",
          "type": "uint256",
          "internalType": "uint256"
        }
      ],
      "outputs": [
        {
          "name": "milestoneHashes",
          "type": "string[3]",
          "internalType": "string[3]"
        },
        {
          "name": "investors",
          "type": "address[]",
          "internalType": "address[]"
        }
      ],
      "stateMutability": "view"
    },
    {
      "type": "function",
      "name": "getProjectState",
      "inputs": [
        {
          "name": "projectId",
          "type": "uint256",
          "internalType": "uint256"
        }
      ],
      "outputs": [
        {
          "name": "",
          "type": "string",
          "internalType": "string"
        }
      ],
      "stateMutability": "view"
    },
    {
      "type": "function",
      "name": "getProjectVoting",
      "inputs": [
        {
          "name": "projectId",
          "type": "uint256",
          "internalType": "uint256"
        }
      ],
      "outputs": [
        {
          "name": "totalWeight",
          "type": "uint256",
          "internalType": "uint256"
        },
        {
          "name": "yesWeight",
          "type": "uint256[3]",
          "internalType": "uint256[3]"
        },
        {
          "name": "noWeight",
          "type": "uint256[3]",
          "internalType": "uint256[3]"
        },
        {
          "name": "finalized",
          "type": "bool[3]",
          "internalType": "bool[3]"
        }
      ],
      "stateMutability": "view"
    },
    {
      "type": "function",
      "name": "owner",
      "inputs": [],
      "outputs": [
        {
          "name": "",
          "type": "address",
          "internalType": "address"
        }
      ],
      "stateMutability": "view"
    },
    {
      "type": "function",
      "name": "projectCount",
      "inputs": [],
      "outputs": [
        {
          "name": "",
          "type": "uint256",
          "internalType": "uint256"
        }
      ],
      "stateMutability": "view"
    },
    {
      "type": "function",
      "name": "refundPool",
      "inputs": [
        {
          "name": "",
          "type": "uint256",
          "internalType": "uint256"
        }
      ],
      "outputs": [
        {
          "name": "",
          "type": "uint256",
          "internalType": "uint256"
        }
      ],
      "stateMutability": "view"
    },
    {
      "type": "function",
      "name": "renounceOwnership",
      "inputs": [],
      "outputs": [],
      "stateMutability": "nonpayable"
    },
    {
      "type": "function",
      "name": "submitMilestone",
      "inputs": [
        {
          "name": "projectId",
          "type": "uint256",
          "internalType": "uint256"
        },
        {
          "name": "ipfsHash",
          "type": "string",
          "internalType": "string"
        }
      ],
      "outputs": [],
      "stateMutability": "nonpayable"
    },
    {
      "type": "function",
      "name": "transferOwnership",
      "inputs": [
        {
          "name": "newOwner",
          "type": "address",
          "internalType": "address"
        }
      ],
      "outputs": [],
      "stateMutability": "nonpayable"
    },
    {
      "type": "function",
      "name": "vote",
      "inputs": [
        {
          "name": "projectId",
          "type": "uint256",
          "internalType": "uint256"
        },
        {
          "name": "option",
          "type": "uint8",
          "internalType": "enum MilestoneFunding.VoteOption"
        }
      ],
      "outputs": [],
      "stateMutability": "nonpayable"
    },
    {
      "type": "event",
      "name": "Claim",
      "inputs": [
        {
          "name": "user",
          "type": "address",
          "indexed": true,
          "internalType": "address"
        },
        {
          "name": "amount",
          "type": "uint256",
          "indexed": false,
          "internalType": "uint256"
        },
        {
          "name": "role",
          "type": "string",
          "indexed": false,
          "internalType": "string"
        }
      ],
      "anonymous": false
    },
    {
      "type": "event",
      "name": "Funded",
      "inputs": [
        {
          "name": "projectId",
          "type": "uint256",
          "indexed": true,
          "internalType": "uint256"
        },
        {
          "name": "investor",
          "type": "address",
          "indexed": true,
          "internalType": "address"
        },
        {
          "name": "amount",
          "type": "uint256",
          "indexed": false,
          "internalType": "uint256"
        }
      ],
      "anonymous": false
    },
    {
      "type": "event",
      "name": "MilestoneReleased",
      "inputs": [
        {
          "name": "projectId",
          "type": "uint256",
          "indexed": true,
          "internalType": "uint256"
        },
        {
          "name": "milestone",
          "type": "uint256",
          "indexed": false,
          "internalType": "uint256"
        },
        {
          "name": "recipient",
          "type": "address",
          "indexed": true,
          "internalType": "address"
        },
        {
          "name": "amount",
          "type": "uint256",
          "indexed": false,
          "internalType": "uint256"
        }
      ],
      "anonymous": false
    },
    {
      "type": "event",
      "name": "MilestoneSubmitted",
      "inputs": [
        {
          "name": "projectId",
          "type": "uint256",
          "indexed": true,
          "internalType": "uint256"
        },
        {
          "name": "milestone",
          "type": "uint256",
          "indexed": false,
          "internalType": "uint256"
        },
        {
          "name": "ipfsHash",
          "type": "string",
          "indexed": false,
          "internalType": "string"
        }
      ],
      "anonymous": false
    },
    {
      "type": "event",
      "name": "OwnershipTransferred",
      "inputs": [
        {
          "name": "previousOwner",
          "type": "address",
          "indexed": true,
          "internalType": "address"
        },
        {
          "name": "newOwner",
          "type": "address",
          "indexed": true,
          "internalType": "address"
        }
      ],
      "anonymous": false
    },
    {
      "type": "event",
      "name": "ProjectCancelled",
      "inputs": [
        {
          "name": "projectId",
          "type": "uint256",
          "indexed": true,
          "internalType": "uint256"
        }
      ],
      "anonymous": false
    },
    {
      "type": "event",
      "name": "ProjectCreated",
      "inputs": [
        {
          "name": "projectId",
          "type": "uint256",
          "indexed": true,
          "internalType": "uint256"
        },
        {
          "name": "name",
          "type": "string",
          "indexed": false,
          "internalType": "string"
        },
        {
          "name": "softCapWei",
          "type": "uint256",
          "indexed": false,
          "internalType": "uint256"
        },
        {
          "name": "creator",
          "type": "address",
          "indexed": true,
          "internalType": "address"
        }
      ],
      "anonymous": false
    },
    {
      "type": "event",
      "name": "VoteFinalized",
      "inputs": [
        {
          "name": "projectId",
          "type": "uint256",
          "indexed": true,
          "internalType": "uint256"
        },
        {
          "name": "milestone",
          "type": "uint256",
          "indexed": false,
          "internalType": "uint256"
        },
        {
          "name": "passed",
          "type": "bool",
          "indexed": false,
          "internalType": "bool"
        }
      ],
      "anonymous": false
    },
    {
      "type": "event",
      "name": "Voted",
      "inputs": [
        {
          "name": "projectId",
          "type": "uint256",
          "indexed": true,
          "internalType": "uint256"
        },
        {
          "name": "voter",
          "type": "address",
          "indexed": true,
          "internalType": "address"
        },
        {
          "name": "milestone",
          "type": "uint256",
          "indexed": false,
          "internalType": "uint256"
        },
        {
          "name": "vote",
          "type": "uint8",
          "indexed": false,
          "internalType": "enum MilestoneFunding.VoteOption"
        }
      ],
      "anonymous": false
    },
    {
      "type": "error",
      "name": "OwnableInvalidOwner",
      "inputs": [
        {
          "name": "owner",
          "type": "address",
          "internalType": "address"
        }
      ]
    },
    {
      "type": "error",
      "name": "OwnableUnauthorizedAccount",
      "inputs": [
        {
          "name": "account",
          "type": "address",
          "internalType": "address"
        }
      ]
    },
    {
      "type": "error",
      "name": "ReentrancyGuardReentrantCall",
      "inputs": []
    }
  ],
  "bytecode": {
    "object": "0x6080806040523460955733156082575f8054336001600160a01b0319821681178355916001600160a01b03909116907f8be0079c531659141344cd1fd0a4f28419497f9722a3daafe3b4186f6b6457e09080a360017f9b779b17422d0df92223018b32b4d1fa46e071723d6817e2486d003becc55f0055612d7f908161009a8239f35b631e4fbdf760e01b5f525f60045260245ffd5b5f80fdfe6080806040526004361015610012575f80fd5b5f3560e01c90816304f0296914611ec9575080630df529b8146119fd5780630e8a01bc146119d3578063109ba91c146118e25780631b745c26146117fa578063223ecf0d146114e6578063232adc651461144857806324941147146112e2578063275fd95b146112bb57806336fbad261461129e5780633bd1adec146111bf578063476a119b146110555780635b7baf6414610eef578063715018a614610e98578063744ddcaa14610e715780638da5cb5b14610e4a5780638e98435d14610dc5578063943e821614610c3c578063a5bb2c0f14610b7e578063a948d05f14610ac3578063af9a81ff14610937578063b4d63781146108ff578063ca1d209d14610650578063e0155714146103c1578063e1769b1f14610315578063e48bfef214610244578063f24f5c4c146101d95763f2fde38b14610150575f80fd5b346101d55760203660031901126101d557610169611efd565b610171612786565b6001600160a01b031680156101c2575f80546001600160a01b03198116831782556001600160a01b0316907f8be0079c531659141344cd1fd0a4f28419497f9722a3daafe3b4186f6b6457e09080a3005b631e4fbdf760e01b5f525f60045260245ffd5b5f80fd5b346101d55760203660031901126101d55760405160606101f981836120e2565b5f5b818110610236576004355f52600260205261023261021e600860405f200161229f565b604051918291602083526020830190612018565b0390f35b8082602092850152016101fb565b346101d55760403660031901126101d5576024356001600160a01b03811681036101d5576060908160405161027982826120e2565b3690376004355f526002602052601160405f20019060018060a01b03165f5260205260405f206102da60026040519201546102b78360ff83166120ab565b6102ca6020840160ff8360081c166120ab565b60ff604084019160101c166120ab565b6102e482826120e2565b604051905f825b600382106102f857505050f35b6020808261030960019487516120ab565b019301910190916102eb565b346101d55760203660031901126101d5576004355f52600260205260405f206010810180546103438161211c565b926011015f5b8281106103835761037585610232610360876125a8565b91604051938493604085526040850190611f46565b908382036020850152611f13565b8061039060019286612612565b838060a01b0391549060031b1c16828060a01b03165f528260205260405f20546103ba82886121a1565b5201610349565b346101d55760203660031901126101d5576004355f52600260205260405f2060405190610180820182811067ffffffffffffffff82111761063c576040526007604091825161041084826120e2565b600981526810d85b98d95b1b195960ba1b60208201528452825161043484826120e2565b8281526646756e64696e6760c81b60208201526020850152825161045884826120e2565b600e81526d4275696c64696e6753746167653160901b602082015283850152825161048384826120e2565b600c81526b566f74696e67526f756e643160a01b6020820152606085015282516104ad84826120e2565b600d81526c4661696c757265526f756e643160981b6020820152608085015282516104d884826120e2565b600e81526d213ab4b63234b733a9ba30b3b29960911b602082015260a0850152825161050484826120e2565b600c81526b2b37ba34b733a937bab7321960a11b602082015260c0850152825161052e84826120e2565b600d81526c2330b4b63ab932a937bab7321960991b602082015260e0850152825161055984826120e2565b600e81526d4275696c64696e6753746167653360901b6020820152610100850152825161058684826120e2565b600c81526b566f74696e67526f756e643360a01b602082015261012085015282516105b184826120e2565b600d81526c4661696c757265526f756e643360981b602082015261014085015282516105dd84826120e2565b600981526810dbdb5c1b195d195960ba1b6020820152610160850152015491600c60ff8416101561062857611fe06102329360051b1601519051918291602083526020830190611f82565b634e487b7160e01b5f52602160045260245ffd5b634e487b7160e01b5f52604160045260245ffd5b60203660031901126101d557600435610667612627565b805f52600260205260405f20600781019060ff825416600c811015610628576001036108cc57655af3107a4000341061089057600481018054916106b1600582019384549061257f565b94851561085a5734915f96803411610844575b50335f908152601182016020526040902060038101805491929160ff8116156107f1575b50506107319061072c63ffffffff600f60018601938261071786549861070f8c825461258c565b809155612ba3565b1694858419891617905501941691845461258c565b61257f565b905561073e82855461258c565b8094556040519182527f38c48552690c96ec2872092ac1db6c19fb59f5a8c5b49bbf41ed4886d0ca692660203393a35411156107e0575b508061078f575b60015f80516020612d2a83398151915255005b5f80808093335af161079f612506565b50156107ab578061077c565b60405162461bcd60e51b815260206004820152600d60248201526c1499599d5b990819985a5b1959609a1b6044820152606490fd5b805460ff1916600217905581610775565b60ff191660011790556010810180549190600160401b83101561063c578261082191600161073195018155612612565b81546001600160a01b0360039290921b91821b19163390911b17905590896106e8565b9096509150610853823461257f565b95876106c4565b60405162461bcd60e51b815260206004820152600e60248201526d105b1c9958591e48199d5b99195960921b6044820152606490fd5b60405162461bcd60e51b8152602060048201526014602482015273125b9d995cdd1b595b9d081d1bdbc81cdb585b1b60621b6044820152606490fd5b60405162461bcd60e51b815260206004820152600b60248201526a4e6f742066756e64696e6760a81b6044820152606490fd5b346101d55760203660031901126101d5576001600160a01b03610920611efd565b165f526004602052602060405f2054604051908152f35b346101d5575f3660031901126101d55761094f612627565b6001335f5b6001548311610a1d57825f52600260205260405f2090825f526011820160205260405f206003810180549360ff8516158015610a10575b610a02576109988161273d565b15610a0257825480156109f357926109e794926101006109d85f9460056109cf6109ed9b998e895282602052604089205490612494565b9101549061230e565b9561ff0019161790555561258c565b926120b8565b91610954565b50505050926109ed91506120b8565b505050926109ed91506120b8565b5060ff8560081c1661098b565b610a288115156124c7565b5f80808084335af1610a38612506565b5015610a8c5760405190815260406020820152600b60408201526a1253959154d513d490531360aa1b60608201525f80516020612d0a83398151915260803392a260015f80516020612d2a83398151915255005b60405162461bcd60e51b815260206004820152600f60248201526e151c985b9cd9995c8819985a5b1959608a1b6044820152606490fd5b346101d55760203660031901126101d5576004355f52600260205260405f2060018060a01b0381541660ff6003830154166102326004840154600585015460068601549060ff60078801541692610b65610b5a610b2e6002610b2760018d01612201565b9b01612201565b610b4c6040519b8c9b8c5261010060208d01526101008c0190611f82565b908a820360408c0152611f82565b966060890190611ffe565b608087015260a086015260c085015260e084019061200b565b346101d5575f3660031901126101d557600180545f90335b81841115610ba957602083604051908152f35b9091835f52600260205260405f20825f526011810160205260405f20600381015460ff811615908115610c2e575b50610c2257610be58261273d565b15610c225791610c0e610c149260056109cf610c1a96548a5f528260205260405f205490612494565b9061258c565b936120b8565b929190610b96565b505092610c1a906120b8565b60ff915060081c1687610bd7565b346101d55760403660031901126101d55760043560243560038110156101d5575f828152600260209081526040808320338452601181019092529091209290610c848161265f565b926002850160ff610c9586836125f9565b90549060031b1c16600381101561062857610d905763ffffffff6001610d7997610cc288610d39956125f9565b81549060031b9060ff808916831b921b1916179055015416600183145f14610d7b57610d1a610cf48760128701612599565b610d048483548360031b1c61258c565b82545f1960039390931b92831b1916911b179055565b610d04610d2a8760188701612599565b91909283548360031b1c61258c565b610d4d6040519185835260208301906120ab565b827ffe2287fa52fad81788ac4645bf0bae4badc927d35f68ab09bc950ca8e0f0168960403393a36127ac565b005b610d8b610cf48760158701612599565b610d1a565b60405162461bcd60e51b815260206004820152600d60248201526c105b1c9958591e481d9bdd1959609a1b6044820152606490fd5b346101d55760203660031901126101d5576040516060610de581836120e2565b5f5b818110610e3c576004355f526002602052610e2e60405f20610232610e1a6010610e13600b850161229f565b93016125a8565b604051938493604085526040850190612018565b908382036020850152611f46565b808260209285015201610de7565b346101d5575f3660031901126101d5575f546040516001600160a01b039091168152602090f35b346101d5575f3660031901126101d557335f526003602052602060405f2054604051908152f35b346101d5575f3660031901126101d557610eb0612786565b5f80546001600160a01b0319811682556001600160a01b03167f8be0079c531659141344cd1fd0a4f28419497f9722a3daafe3b4186f6b6457e08280a3005b346101d55760203660031901126101d557600435610f0b612627565b5f81815260026020908152604080832033845260118101909252909120600381018054939260ff851680611047575b1561101657610f488161273d565b15610fda57610f6f6101009160056109cf5f97875490895282602052604089205490612494565b9461ff001916179055555f80808084335af1610f89612506565b50156101d55760405190815260406020820152600860408201526724a72b22a9aa27a960c11b60608201525f80516020612d0a83398151915260803392a260015f80516020612d2a83398151915255005b60405162461bcd60e51b8152602060048201526014602482015273526566756e64206e6f7420617661696c61626c6560601b6044820152606490fd5b60405162461bcd60e51b8152602060048201526009602482015268139bc81c99599d5b9960ba1b6044820152606490fd5b5060ff8560081c1615610f3a565b346101d55760403660031901126101d55760043560243567ffffffffffffffff81116101d55761108990369060040161207d565b825f52600260205260405f20916110aa60018060a01b038454163314612545565b811515806111b4575b1561117b576110c18361265f565b906110cf82600b8601612599565b6111685783826110de9261237b565b600382028281046003148315171561115457600301908160031161115457600c8210156106285761113661114f9260077f556e3b296d5e8c8bab27684b52ae96905507befd2d188ce6f4453a6717dd9c00970161247c565b60405193849384526040602085015260408401916124a7565b0390a2005b634e487b7160e01b5f52601160045260245ffd5b634e487b7160e01b5f525f60045260245ffd5b60405162461bcd60e51b8152602060048201526011602482015270092dcecc2d8d2c84092a08ca640d0c2e6d607b1b6044820152606490fd5b5060808211156110b3565b346101d5575f3660031901126101d5576111d7612627565b5f546001600160a01b0316330361126c57335f52600460205260405f20546112008115156124c7565b335f5260046020525f60408120555f80808084335af161121e612506565b50156101d55760405190815260406020820152600560408201526427aba722a960d91b60608201525f80516020612d0a83398151915260803392a260015f80516020612d2a83398151915255005b60405162461bcd60e51b815260206004820152600a60248201526927b7363c9037bbb732b960b11b6044820152606490fd5b346101d5575f3660031901126101d5576020600154604051908152f35b346101d5575f3660031901126101d557335f526004602052602060405f2054604051908152f35b346101d55760203660031901126101d5576004356112fe612627565b805f52600260205260405f2061131e60018060a01b038254163314612545565b600781019160ff835416600c81101561062857600103611403575f9260ff19815416905560066005830154920191825490801585146113b6575083546001600160a01b031684526004602052604084208054909161137b9161258c565b90555b7fe3805ed669490875ae87c5c8b1ad6ecca0e5e67305a833926d0d4317c4822fc08380a25560015f80516020612d2a83398151915255005b906113f1916113c98260011c809361257f565b9160018060a01b03875416875260046020526113ea6040882091825461258c565b905561258c565b8184526005602052604084205561137e565b60405162461bcd60e51b815260206004820152601e60248201527f43616e206f6e6c792063616e63656c20647572696e672046756e64696e6700006044820152606490fd5b346101d5575f3660031901126101d557611460612627565b335f52600360205260405f20546114788115156124c7565b335f5260036020525f60408120555f80808084335af1611496612506565b50156101d55760405190815260406020820152600760408201526621a922a0aa27a960c91b60608201525f80516020612d0a83398151915260803392a260015f80516020612d2a83398151915255005b60a03660031901126101d55760043567ffffffffffffffff81116101d55761151290369060040161207d565b9060243567ffffffffffffffff81116101d55761153390369060040161207d565b60443593916064359160088310156101d5576084359267ffffffffffffffff84116101d55783600401936064369101116101d557655af3107a400087106117c257600a87049182340361178a578015158061177e575b15611743575f5b600381106116d257506007821161169a576115ee906115b06001546120b8565b806001555f52600260205260405f2094336bffffffffffffffffffffffff60a01b8754161786556115e5888a6001890161237b565b6002860161237b565b600383019060ff80198354169116179055856004830155600682015560078101600160ff1982541617905560088291015f915b600383106116745786867fbb4637bbc1f7f92783410fb90807fcced52c1562da987ac649876f09a750a5e38761166660015493604051926040845260408401916124a7565b9360208201528033940390a3005b600160208261168e61168784958961232c565b908761237b565b01920192019190611621565b60405162461bcd60e51b815260206004820152601060248201526f496e76616c69642063617465676f727960801b6044820152606490fd5b6116dc818761235f565b905015158061172c575b156116f357600101611590565b60405162461bcd60e51b8152602060048201526011602482015270496e76616c6964206d696c6573746f6e6560781b6044820152606490fd5b5061010061173a828861235f565b905011156116e6565b60405162461bcd60e51b815260206004820152601360248201527224b73b30b634b2103232b9b1b934b83a34b7b760691b6044820152606490fd5b50610400811115611589565b60405162461bcd60e51b815260206004820152601060248201526f426f6e64206d7573742062652031302560801b6044820152606490fd5b60405162461bcd60e51b815260206004820152601060248201526f536f66742063617020746f6f206c6f7760801b6044820152606490fd5b346101d5575f3660031901126101d5575f600190600154915b8281111561189b57506118259061211c565b5f9160015b81811115611848576040516020808252819061023290820186611f13565b805f52600260205260ff600760405f20015416600c8110156106285760011461187a575b611875906120b8565b61182a565b92611893818561188d61187594876121a1565b526120b8565b93905061186c565b805f52600260205260ff600760405f20015416600c811015610628576001146118cd575b6118c8906120b8565b611813565b906118da6118c8916120b8565b9190506118bf565b346101d55760203660031901126101d55760608060405161190382826120e2565b3690378060405161191482826120e2565b3690378060405161192582826120e2565b3690376004355f52600260205260405f206119a7600f8201549261199d61194e601285016122da565b61198d61195d601587016122da565b9360ff600e60405198015481811615158952818160081c16151560208a015260101c1615156040880152866120e2565b6040519586526020860190612056565b6080840190612056565b5f60e083015b600382106119bb5761014084f35b602080600192855115158152019301910190916119ad565b346101d55760203660031901126101d5576004355f526005602052602060405f2054604051908152f35b346101d5575f3660031901126101d5575f600190600154915b82811115611e7f5750611a288161211c565b611a3182612104565b92611a3f60405194856120e2565b828452601f19611a4e84612104565b01366020860137611a5e8361216a565b611a678461216a565b611a7085612104565b611a7d60405191826120e2565b858152611a8986612104565b601f1901366020830137611a9c8661211c565b611aa58761211c565b92611aaf8861211c565b94611ab989612104565b97611ac7604051998a6120e2565b898952611ad38a612104565b601f19013660208b0137611ae68a61211c565b97611af08b612104565b9a611afe6040519c8d6120e2565b808c52611b0d601f1991612104565b015f5b818110611e385750505f60015b82811115611cc35750505091611b72611b8092611b64611b569c9b9a99989796956040519e8f9e8f926101608452610160840190611f13565b916020818403910152611f46565b8c810360408e015290611fa6565b908a820360608c0152611fa6565b88810360808a0152602080845192838152019301905f5b818110611c945750505091611bbb82611bd795948a611bc9950360a08c0152611f13565b9088820360c08a0152611f13565b9086820360e0880152611f13565b848103610100860152602080845192838152019301905f5b818110611c6d5750505090611c0c91848203610120860152611f13565b828103610140840152815180825260208201916020808360051b8301019401925f915b838310611c3c5786860387f35b919395509193602080611c5b600193601f198682030187528951612018565b97019301930190928695949293611c2f565b91949550919260208082611c84600194895161200b565b0195019101918695949392611bef565b9194959697989950919260208082611caf6001948951611ffe565b0195019101918a9998979695949392611b97565b805f9e9495969e526002602052601160405f200160018060a01b0333165f526020528d60ff600360405f20015416611d0a575b50611d00906120b8565b9c9493929c611b1d565b9091825f526002602052611d7d8160405f209385611d28838b6121a1565b5284546001600160a01b0316611d3e838a6121a1565b52611d4b60018601612201565b611d55838c6121a1565b52611d60828b6121a1565b50611d6d60028601612201565b611d7783836121a1565b526121a1565b5060ff60038301541690611d91818b6121a1565b916008811015610628578e92526004830154611dad828b6121a1565b526005830154611dbd828d6121a1565b526006830154611dcd828e6121a1565b52611de08160ff600786015416936121a1565b92600c831015610628578f82908f6008611e2994611d6d92611e2f98611d009a5260018060a01b0333165f5260118201602052611e228660405f2054926121a1565b520161229f565b506120b8565b9190508d611cf6565b5f9d9394959d50604051611e4d6060826120e2565b8d5f5b60608110611e6e575090602083819493010152019c9493929c611b10565b6060838201528f9150602001611e50565b5f81815260026020908152604080832033845260110190915290206003015460ff16611eb4575b611eaf906120b8565b611a16565b90611ec1611eaf916120b8565b919050611ea6565b346101d55760203660031901126101d5576020906001600160a01b03611eed611efd565b165f526003825260405f20548152f35b600435906001600160a01b03821682036101d557565b90602080835192838152019201905f5b818110611f305750505090565b8251845260209384019390920191600101611f23565b90602080835192838152019201905f5b818110611f635750505090565b82516001600160a01b0316845260209384019390920191600101611f56565b805180835260209291819084018484015e5f828201840152601f01601f1916010190565b9080602083519182815201916020808360051b8301019401925f915b838310611fd157505050505090565b9091929394602080611fef600193601f198682030187528951611f82565b97019301930191939290611fc2565b9060088210156106285752565b90600c8210156106285752565b60608201915f815b6003821061202f575050505090565b9091929360208061204883876001950386528851611f82565b960192019201909291612020565b905f905b6003821061206757505050565b602080600192855181520193019101909161205a565b9181601f840112156101d55782359167ffffffffffffffff83116101d557602083818601950101116101d557565b9060038210156106285752565b5f1981146111545760010190565b6060810190811067ffffffffffffffff82111761063c57604052565b90601f8019910116810190811067ffffffffffffffff82111761063c57604052565b67ffffffffffffffff811161063c5760051b60200190565b9061212682612104565b61213360405191826120e2565b8281528092612144601f1991612104565b0190602036910137565b5f5b82811061215c57505050565b606082820152602001612150565b9061219f61217783612104565b61218460405191826120e2565b83815260208194612197601f1991612104565b01910161214e565b565b80518210156121b55760209160051b010190565b634e487b7160e01b5f52603260045260245ffd5b90600182811c921680156121f7575b60208310146121e357565b634e487b7160e01b5f52602260045260245ffd5b91607f16916121d8565b9060405191825f825492612214846121c9565b808452936001811690811561227d5750600114612239575b5061219f925003836120e2565b90505f9291925260205f20905f915b81831061226157505090602061219f928201015f61222c565b6020919350806001915483858901015201910190918492612248565b90506020925061219f94915060ff191682840152151560051b8201015f61222c565b90604051916122ad836120c6565b5f835b600382106122bd57505050565b6001602081926122cc86612201565b8152019301910190916122b0565b60405191905f835b600382106122f85750505061219f6060836120e2565b60016020819285548152019301910190916122e2565b8115612318570490565b634e487b7160e01b5f52601260045260245ffd5b903590601e19813603018212156101d5570180359067ffffffffffffffff82116101d5576020019181360383136101d557565b60038210156121b5576123779160051b81019061232c565b9091565b90929167ffffffffffffffff811161063c5761239782546121c9565b601f8111612437575b505f601f82116001146123d857819293945f926123cd575b50508160011b915f199060031b1c1916179055565b013590505f806123b8565b601f19821694835f5260205f20915f5b87811061241f575083600195969710612406575b505050811b019055565b01355f19600384901b60f8161c191690555f80806123fc565b909260206001819286860135815501940191016123e8565b825f5260205f20601f830160051c81019160208410612472575b601f0160051c01905b81811061246757506123a0565b5f815560010161245a565b9091508190612451565b90600c8110156106285760ff80198354169116179055565b8181029291811591840414171561115457565b908060209392818452848401375f828201840152601f01601f1916010190565b156124ce57565b60405162461bcd60e51b815260206004820152601060248201526f4e6f7468696e6720746f20636c61696d60801b6044820152606490fd5b3d15612540573d9067ffffffffffffffff821161063c5760405191612535601f8201601f1916602001846120e2565b82523d5f602084013e565b606090565b1561254c57565b60405162461bcd60e51b815260206004820152600b60248201526a2737ba1031b932b0ba37b960a91b6044820152606490fd5b9190820391821161115457565b9190820180921161115457565b60038210156121b55701905f90565b90604051918281549182825260208201905f5260205f20925f5b8181106125d757505061219f925003836120e2565b84546001600160a01b03168352600194850194879450602090930192016125c2565b91909160038310156121b557601f908360051c01921690565b80548210156121b5575f5260205f2001905f90565b60025f80516020612d2a83398151915254146126505760025f80516020612d2a83398151915255565b633ee5aeb560e01b5f5260045ffd5b6007015460ff16600c81101561062857600281148015612733575b8015612729575b6127245760058114801561271a575b8015612710575b61270a57600881149081156126ff575b81156126f4575b506126ef5760405162461bcd60e51b81526020600482015260146024820152734e6f2063757272656e74206d696c6573746f6e6560601b6044820152606490fd5b600290565b600a9150145f6126ae565b6009811491506126a7565b50600190565b5060078114612697565b5060068114612690565b505f90565b5060048114612681565b506003811461267a565b6007015460ff16600c81101561062857801590811561277b575b8115612770575b8115612768575090565b600a91501490565b60078114915061275e565b600481149150612757565b5f546001600160a01b0316330361279957565b63118cdaa760e01b5f523360045260245ffd5b90916127bb8160128401612599565b90549060031b1c6127cf8260158501612599565b90549060031b1c6127e38360188601612599565b90549060031b1c600f850154606482028281046064148315171561115457604682028215918382046046148317156111545710612b99576064840284810460641485151715611154576028830291838304602814171561115457106129ca5750505050600e820160ff61285683836125f9565b90549060031b1c166129915761286f82612886926125f9565b819291549060031b9060ff6001831b921b19161790565b9055827fd0e20bc20137f27f0f61ae739e5a5fbcd5839910ab315b4feccb3dcd848c3882604080518481525f6020820152a26040515f916128c6826120c6565b60148252601e6020830152603260408301525f600585019283545b83831061296257505050600381029080820460031490151715611154576004018060041161115457600c81101561062857836129256006926007612953970161247c565b01545f80546001600160a01b031681526004602052604090208054909161294b9161258c565b90555461257f565b905f52600560205260405f2055565b909194612988600191606461298161297a8a88612cf8565b5186612494565b049061258c565b950191906128e1565b60405162461bcd60e51b8152602060048201526011602482015270105b1c9958591e48199a5b985b1a5e9959607a1b6044820152606490fd5b6129dc9291610c0e919795969761257f565b106129e657505050565b600e830160ff6129f684836125f9565b90549060031b1c166129915761286f83612a0f926125f9565b9055807fd0e20bc20137f27f0f61ae739e5a5fbcd5839910ab315b4feccb3dcd848c38826040805185815260016020820152a25f82604051612a50816120c6565b60148152601e6020820152603260408201525f6005870154935b838210612b6f57505091612a83612a8a92606494612cf8565b5190612494565b049060018060a01b038454165f52600360205260405f20612aac83825461258c565b9055600183018084116111545784546040805192835260208301949094526001600160a01b0316927fb37915caa4a2c797e4d82b5b0c330c8c0a66fd621adf72cf62562e84bacb7d2791a360028103612b3c5750600681015481546001600160a01b03165f908152600360205260409020805460079392612b2c9161258c565b905501805460ff1916600b179055565b600381029080820460031490151715611154576005018060051161115457600c81101561062857600761219f920161247c565b829350612b8f906064612981612b888560019697612cf8565b5188612494565b9101859291612a6a565b5050505050505050565b80156127245760018101809111611154575f9080600160801b811015612ce9575b50600160401b811015612cd4575b640100000000811015612cbf575b62010000811015612caa575b610100811015612c95575b6010811015612c80575b6004811015612c6b575b60021115612c4b575b620186a0810290808204620186a014901517156111545763ffffffff8111612c40575b63ffffffff1690565b5063ffffffff612c37565b6001810180911115612c1457634e487b7160e01b5f52601160045260245ffd5b60021c90600281018091116111545790612c0b565b60041c90600481018091116111545790612c01565b60081c90600881018091116111545790612bf7565b60101c90601081018091116111545790612bec565b60201c90602081018091116111545790612be0565b60401c90604081018091116111545790612bd2565b91505060801c6080905f612bc4565b9060038110156121b55760051b019056fe58fb02bcfedd338314c70bcf748b4f71a01259cf8956f31b34cb09acf29809cb9b779b17422d0df92223018b32b4d1fa46e071723d6817e2486d003becc55f00a2646970667358221220576a00c698a4b5ab6a590832bdf2129a021e59e895dca01df11af24e3c450df264736f6c634300081a0033",
    "linkReferences": {}
  },
  "methodIdentifiers": {
    "cancelProject(uint256)": "24941147",
    "claimAllRefund()": "af9a81ff",
    "claimCreator()": "232adc65",
    "claimOwner()": "3bd1adec",
    "claimRefund(uint256)": "5b7baf64",
    "claimableCreator(address)": "04f02969",
    "claimableOwner(address)": "b4d63781",
    "createProject(string,string,uint256,uint8,string[3])": "223ecf0d",
    "fund(uint256)": "ca1d209d",
    "getAllClaimableRefund()": "a5bb2c0f",
    "getAllFundingProjects()": "1b745c26",
    "getAllInvestments(uint256)": "e1769b1f",
    "getClaimableCreator()": "744ddcaa",
    "getClaimableOwner()": "275fd95b",
    "getMilestoneDescriptions(uint256)": "f24f5c4c",
    "getMyInvestedProjects()": "0df529b8",
    "getMyVotes(uint256,address)": "e48bfef2",
    "getProjectCore(uint256)": "a948d05f",
    "getProjectMeta(uint256)": "8e98435d",
    "getProjectState(uint256)": "e0155714",
    "getProjectVoting(uint256)": "109ba91c",
    "owner()": "8da5cb5b",
    "projectCount()": "36fbad26",
    "refundPool(uint256)": "0e8a01bc",
    "renounceOwnership()": "715018a6",
    "submitMilestone(uint256,string)": "476a119b",
    "transferOwnership(address)": "f2fde38b",
    "vote(uint256,uint8)": "943e8216"
  },
  "id": 23
}