{
  "abi": [
    {
      "type": "constructor",
      "inputs": [],
      "stateMutability": "nonpayable"
    },
    {
      "type": "function",
      "name": "cancelProject",
      "inputs": [
        {
          "name": "projectId",
          "type": "uint256",
          "internalType": "uint256"
        }
      ],
      "outputs": [],
      "stateMutability": "nonpayable"
    },
    {
      "type": "function",
      "name": "claimAllRefund",
      "inputs": [],
      "outputs": [],
      "stateMutability": "nonpayable"
    },
    {
      "type": "function",
      "name": "claimCreator",
      "inputs": [],
      "outputs": [],
      "stateMutability": "nonpayable"
    },
    {
      "type": "function",
      "name": "claimOwner",
      "inputs": [],
      "outputs": [],
      "stateMutability": "nonpayable"
    },
    {
      "type": "function",
      "name": "claimRefund",
      "inputs": [
        {
          "name": "projectId",
          "type": "uint256",
          "internalType": "uint256"
        }
      ],
      "outputs": [],
      "stateMutability": "nonpayable"
    },
    {
      "type": "function",
      "name": "claimableCreator",
      "inputs": [
        {
          "name": "",
          "type": "address",
          "internalType": "address"
        }
      ],
      "outputs": [
        {
          "name": "",
          "type": "uint256",
          "internalType": "uint256"
        }
      ],
      "stateMutability": "view"
    },
    {
      "type": "function",
      "name": "claimableOwner",
      "inputs": [
        {
          "name": "",
          "type": "address",
          "internalType": "address"
        }
      ],
      "outputs": [
        {
          "name": "",
          "type": "uint256",
          "internalType": "uint256"
        }
      ],
      "stateMutability": "view"
    },
    {
      "type": "function",
      "name": "createProject",
      "inputs": [
        {
          "name": "name",
          "type": "string",
          "internalType": "string"
        },
        {
          "name": "description",
          "type": "string",
          "internalType": "string"
        },
        {
          "name": "softCapWei",
          "type": "uint256",
          "internalType": "uint256"
        },
        {
          "name": "category",
          "type": "uint8",
          "internalType": "enum MilestoneFunding.Category"
        },
        {
          "name": "milestoneDescriptions",
          "type": "string[3]",
          "internalType": "string[3]"
        }
      ],
      "outputs": [],
      "stateMutability": "payable"
    },
    {
      "type": "function",
      "name": "fund",
      "inputs": [
        {
          "name": "projectId",
          "type": "uint256",
          "internalType": "uint256"
        }
      ],
      "outputs": [],
      "stateMutability": "payable"
    },
    {
      "type": "function",
      "name": "getAllClaimableRefund",
      "inputs": [],
      "outputs": [
        {
          "name": "totalRefund",
          "type": "uint256",
          "internalType": "uint256"
        }
      ],
      "stateMutability": "view"
    },
    {
      "type": "function",
      "name": "getAllFundingProjects",
      "inputs": [],
      "outputs": [
        {
          "name": "",
          "type": "uint256[]",
          "internalType": "uint256[]"
        }
      ],
      "stateMutability": "view"
    },
    {
      "type": "function",
      "name": "getAllInvestments",
      "inputs": [
        {
          "name": "projectId",
          "type": "uint256",
          "internalType": "uint256"
        }
      ],
      "outputs": [
        {
          "name": "",
          "type": "address[]",
          "internalType": "address[]"
        },
        {
          "name": "",
          "type": "uint256[]",
          "internalType": "uint256[]"
        }
      ],
      "stateMutability": "view"
    },
    {
      "type": "function",
      "name": "getClaimableCreator",
      "inputs": [],
      "outputs": [
        {
          "name": "",
          "type": "uint256",
          "internalType": "uint256"
        }
      ],
      "stateMutability": "view"
    },
    {
      "type": "function",
      "name": "getClaimableOwner",
      "inputs": [],
      "outputs": [
        {
          "name": "",
          "type": "uint256",
          "internalType": "uint256"
        }
      ],
      "stateMutability": "view"
    },
    {
      "type": "function",
      "name": "getMilestoneDescriptions",
      "inputs": [
        {
          "name": "projectId",
          "type": "uint256",
          "internalType": "uint256"
        }
      ],
      "outputs": [
        {
          "name": "",
          "type": "string[3]",
          "internalType": "string[3]"
        }
      ],
      "stateMutability": "view"
    },
    {
      "type": "function",
      "name": "getMyInvestedProjects",
      "inputs": [],
      "outputs": [
        {
          "name": "projectIds",
          "type": "uint256[]",
          "internalType": "uint256[]"
        },
        {
          "name": "creators",
          "type": "address[]",
          "internalType": "address[]"
        },
        {
          "name": "names",
          "type": "string[]",
          "internalType": "string[]"
        },
        {
          "name": "descriptions",
          "type": "string[]",
          "internalType": "string[]"
        },
        {
          "name": "categories",
          "type": "uint8[]",
          "internalType": "enum MilestoneFunding.Category[]"
        },
        {
          "name": "softCaps",
          "type": "uint256[]",
          "internalType": "uint256[]"
        },
        {
          "name": "totalFundeds",
          "type": "uint256[]",
          "internalType": "uint256[]"
        },
        {
          "name": "bonds",
          "type": "uint256[]",
          "internalType": "uint256[]"
        },
        {
          "name": "states",
          "type": "uint8[]",
          "internalType": "enum MilestoneFunding.ProjectState[]"
        },
        {
          "name": "investments",
          "type": "uint256[]",
          "internalType": "uint256[]"
        },
        {
          "name": "milestones",
          "type": "string[3][]",
          "internalType": "string[3][]"
        }
      ],
      "stateMutability": "view"
    },
    {
      "type": "function",
      "name": "getMyVotes",
      "inputs": [
        {
          "name": "projectId",
          "type": "uint256",
          "internalType": "uint256"
        },
        {
          "name": "user",
          "type": "address",
          "internalType": "address"
        }
      ],
      "outputs": [
        {
          "name": "",
          "type": "uint8[3]",
          "internalType": "enum MilestoneFunding.VoteOption[3]"
        }
      ],
      "stateMutability": "view"
    },
    {
      "type": "function",
      "name": "getProjectCore",
      "inputs": [
        {
          "name": "projectId",
          "type": "uint256",
          "internalType": "uint256"
        }
      ],
      "outputs": [
        {
          "name": "creator",
          "type": "address",
          "internalType": "address"
        },
        {
          "name": "name",
          "type": "string",
          "internalType": "string"
        },
        {
          "name": "description",
          "type": "string",
          "internalType": "string"
        },
        {
          "name": "category",
          "type": "uint8",
          "internalType": "enum MilestoneFunding.Category"
        },
        {
          "name": "softCapWei",
          "type": "uint256",
          "internalType": "uint256"
        },
        {
          "name": "totalFunded",
          "type": "uint256",
          "internalType": "uint256"
        },
        {
          "name": "bond",
          "type": "uint256",
          "internalType": "uint256"
        },
        {
          "name": "state",
          "type": "uint8",
          "internalType": "enum MilestoneFunding.ProjectState"
        }
      ],
      "stateMutability": "view"
    },
    {
      "type": "function",
      "name": "getProjectMeta",
      "inputs": [
        {
          "name": "projectId",
          "type": "uint256",
          "internalType": "uint256"
        }
      ],
      "outputs": [
        {
          "name": "milestoneHashes",
          "type": "string[3]",
          "internalType": "string[3]"
        },
        {
          "name": "investors",
          "type": "address[]",
          "internalType": "address[]"
        }
      ],
      "stateMutability": "view"
    },
    {
      "type": "function",
      "name": "getProjectState",
      "inputs": [
        {
          "name": "projectId",
          "type": "uint256",
          "internalType": "uint256"
        }
      ],
      "outputs": [
        {
          "name": "",
          "type": "string",
          "internalType": "string"
        }
      ],
      "stateMutability": "view"
    },
    {
      "type": "function",
      "name": "getProjectVoting",
      "inputs": [
        {
          "name": "projectId",
          "type": "uint256",
          "internalType": "uint256"
        }
      ],
      "outputs": [
        {
          "name": "totalWeight",
          "type": "uint256",
          "internalType": "uint256"
        },
        {
          "name": "yesWeight",
          "type": "uint256[3]",
          "internalType": "uint256[3]"
        },
        {
          "name": "noWeight",
          "type": "uint256[3]",
          "internalType": "uint256[3]"
        },
        {
          "name": "finalized",
          "type": "bool[3]",
          "internalType": "bool[3]"
        }
      ],
      "stateMutability": "view"
    },
    {
      "type": "function",
      "name": "owner",
      "inputs": [],
      "outputs": [
        {
          "name": "",
          "type": "address",
          "internalType": "address"
        }
      ],
      "stateMutability": "view"
    },
    {
      "type": "function",
      "name": "projectCount",
      "inputs": [],
      "outputs": [
        {
          "name": "",
          "type": "uint256",
          "internalType": "uint256"
        }
      ],
      "stateMutability": "view"
    },
    {
      "type": "function",
      "name": "refundPool",
      "inputs": [
        {
          "name": "",
          "type": "uint256",
          "internalType": "uint256"
        }
      ],
      "outputs": [
        {
          "name": "",
          "type": "uint256",
          "internalType": "uint256"
        }
      ],
      "stateMutability": "view"
    },
    {
      "type": "function",
      "name": "renounceOwnership",
      "inputs": [],
      "outputs": [],
      "stateMutability": "nonpayable"
    },
    {
      "type": "function",
      "name": "submitMilestone",
      "inputs": [
        {
          "name": "projectId",
          "type": "uint256",
          "internalType": "uint256"
        },
        {
          "name": "ipfsHash",
          "type": "string",
          "internalType": "string"
        }
      ],
      "outputs": [],
      "stateMutability": "nonpayable"
    },
    {
      "type": "function",
      "name": "transferOwnership",
      "inputs": [
        {
          "name": "newOwner",
          "type": "address",
          "internalType": "address"
        }
      ],
      "outputs": [],
      "stateMutability": "nonpayable"
    },
    {
      "type": "function",
      "name": "vote",
      "inputs": [
        {
          "name": "projectId",
          "type": "uint256",
          "internalType": "uint256"
        },
        {
          "name": "option",
          "type": "uint8",
          "internalType": "enum MilestoneFunding.VoteOption"
        }
      ],
      "outputs": [],
      "stateMutability": "nonpayable"
    },
    {
      "type": "event",
      "name": "Claim",
      "inputs": [
        {
          "name": "user",
          "type": "address",
          "indexed": true,
          "internalType": "address"
        },
        {
          "name": "amount",
          "type": "uint256",
          "indexed": false,
          "internalType": "uint256"
        },
        {
          "name": "role",
          "type": "string",
          "indexed": false,
          "internalType": "string"
        }
      ],
      "anonymous": false
    },
    {
      "type": "event",
      "name": "Funded",
      "inputs": [
        {
          "name": "projectId",
          "type": "uint256",
          "indexed": true,
          "internalType": "uint256"
        },
        {
          "name": "investor",
          "type": "address",
          "indexed": true,
          "internalType": "address"
        },
        {
          "name": "amount",
          "type": "uint256",
          "indexed": false,
          "internalType": "uint256"
        }
      ],
      "anonymous": false
    },
    {
      "type": "event",
      "name": "MilestoneReleased",
      "inputs": [
        {
          "name": "projectId",
          "type": "uint256",
          "indexed": true,
          "internalType": "uint256"
        },
        {
          "name": "milestone",
          "type": "uint256",
          "indexed": false,
          "internalType": "uint256"
        },
        {
          "name": "recipient",
          "type": "address",
          "indexed": true,
          "internalType": "address"
        },
        {
          "name": "amount",
          "type": "uint256",
          "indexed": false,
          "internalType": "uint256"
        }
      ],
      "anonymous": false
    },
    {
      "type": "event",
      "name": "MilestoneSubmitted",
      "inputs": [
        {
          "name": "projectId",
          "type": "uint256",
          "indexed": true,
          "internalType": "uint256"
        },
        {
          "name": "milestone",
          "type": "uint256",
          "indexed": false,
          "internalType": "uint256"
        },
        {
          "name": "ipfsHash",
          "type": "string",
          "indexed": false,
          "internalType": "string"
        }
      ],
      "anonymous": false
    },
    {
      "type": "event",
      "name": "OwnershipTransferred",
      "inputs": [
        {
          "name": "previousOwner",
          "type": "address",
          "indexed": true,
          "internalType": "address"
        },
        {
          "name": "newOwner",
          "type": "address",
          "indexed": true,
          "internalType": "address"
        }
      ],
      "anonymous": false
    },
    {
      "type": "event",
      "name": "ProjectCancelled",
      "inputs": [
        {
          "name": "projectId",
          "type": "uint256",
          "indexed": true,
          "internalType": "uint256"
        }
      ],
      "anonymous": false
    },
    {
      "type": "event",
      "name": "ProjectCreated",
      "inputs": [
        {
          "name": "projectId",
          "type": "uint256",
          "indexed": true,
          "internalType": "uint256"
        },
        {
          "name": "name",
          "type": "string",
          "indexed": false,
          "internalType": "string"
        },
        {
          "name": "softCapWei",
          "type": "uint256",
          "indexed": false,
          "internalType": "uint256"
        },
        {
          "name": "creator",
          "type": "address",
          "indexed": true,
          "internalType": "address"
        }
      ],
      "anonymous": false
    },
    {
      "type": "event",
      "name": "VoteFinalized",
      "inputs": [
        {
          "name": "projectId",
          "type": "uint256",
          "indexed": true,
          "internalType": "uint256"
        },
        {
          "name": "milestone",
          "type": "uint256",
          "indexed": false,
          "internalType": "uint256"
        },
        {
          "name": "passed",
          "type": "bool",
          "indexed": false,
          "internalType": "bool"
        }
      ],
      "anonymous": false
    },
    {
      "type": "event",
      "name": "Voted",
      "inputs": [
        {
          "name": "projectId",
          "type": "uint256",
          "indexed": true,
          "internalType": "uint256"
        },
        {
          "name": "voter",
          "type": "address",
          "indexed": true,
          "internalType": "address"
        },
        {
          "name": "milestone",
          "type": "uint256",
          "indexed": false,
          "internalType": "uint256"
        },
        {
          "name": "vote",
          "type": "uint8",
          "indexed": false,
          "internalType": "enum MilestoneFunding.VoteOption"
        }
      ],
      "anonymous": false
    },
    {
      "type": "event",
      "name": "VotingStarted",
      "inputs": [
        {
          "name": "projectId",
          "type": "uint256",
          "indexed": true,
          "internalType": "uint256"
        },
        {
          "name": "projectName",
          "type": "string",
          "indexed": false,
          "internalType": "string"
        },
        {
          "name": "milestone",
          "type": "uint256",
          "indexed": false,
          "internalType": "uint256"
        },
        {
          "name": "investors",
          "type": "address[]",
          "indexed": false,
          "internalType": "address[]"
        }
      ],
      "anonymous": false
    },
    {
      "type": "error",
      "name": "OwnableInvalidOwner",
      "inputs": [
        {
          "name": "owner",
          "type": "address",
          "internalType": "address"
        }
      ]
    },
    {
      "type": "error",
      "name": "OwnableUnauthorizedAccount",
      "inputs": [
        {
          "name": "account",
          "type": "address",
          "internalType": "address"
        }
      ]
    },
    {
      "type": "error",
      "name": "ReentrancyGuardReentrantCall",
      "inputs": []
    }
  ],
  "bytecode": {
    "object": "0x6080806040523460955733156082575f8054336001600160a01b0319821681178355916001600160a01b03909116907f8be0079c531659141344cd1fd0a4f28419497f9722a3daafe3b4186f6b6457e09080a360017f9b779b17422d0df92223018b32b4d1fa46e071723d6817e2486d003becc55f0055612fa6908161009a8239f35b631e4fbdf760e01b5f525f60045260245ffd5b5f80fdfe6080806040526004361015610012575f80fd5b5f3560e01c90816304f0296914612108575080630df529b814611c2c5780630e8a01bc14611c02578063109ba91c14611b115780631b745c2614611a29578063223ecf0d14611715578063232adc65146116775780632494114714611511578063275fd95b146114ea57806336fbad26146114cd5780633bd1adec146113ee578063476a119b1461117a5780635b7baf6414611014578063715018a614610fbd578063744ddcaa14610f965780638da5cb5b14610f6f5780638e98435d14610ee0578063943e821614610c6c578063a5bb2c0f14610bae578063a948d05f14610ad2578063af9a81ff14610946578063b4d637811461090e578063ca1d209d1461065f578063e0155714146103d0578063e1769b1f14610315578063e48bfef214610244578063f24f5c4c146101d95763f2fde38b14610150575f80fd5b346101d55760203660031901126101d55761016961213c565b6101716129ad565b6001600160a01b031680156101c2575f80546001600160a01b03198116831782556001600160a01b0316907f8be0079c531659141344cd1fd0a4f28419497f9722a3daafe3b4186f6b6457e09080a3005b631e4fbdf760e01b5f525f60045260245ffd5b5f80fd5b346101d55760203660031901126101d55760405160606101f98183612321565b5f5b818110610236576004355f52600260205261023261021e600860405f20016124c1565b604051918291602083526020830190612257565b0390f35b8082602092850152016101fb565b346101d55760403660031901126101d5576024356001600160a01b03811681036101d557606090816040516102798282612321565b3690376004355f526002602052601160405f20019060018060a01b03165f5260205260405f206102da60026040519201546102b78360ff83166122ea565b6102ca6020840160ff8360081c166122ea565b60ff604084019160101c166122ea565b6102e48282612321565b604051905f825b600382106102f857505050f35b6020808261030960019487516122ea565b019301910190916102eb565b346101d55760203660031901126101d5576004355f52600260205260405f206010810180546103438161235b565b926011015f5b82811061039257604051610384906102328761037083610369818b6127e0565b0384612321565b604051938493604085526040850190612185565b908382036020850152612152565b8061039f60019286612839565b838060a01b0391549060031b1c16828060a01b03165f528260205260405f20546103c982886123e0565b5201610349565b346101d55760203660031901126101d5576004355f52600260205260405f2060405190610180820182811067ffffffffffffffff82111761064b576040526007604091825161041f8482612321565b600981526810d85b98d95b1b195960ba1b6020820152845282516104438482612321565b8281526646756e64696e6760c81b6020820152602085015282516104678482612321565b600e81526d4275696c64696e6753746167653160901b60208201528385015282516104928482612321565b600c81526b566f74696e67526f756e643160a01b6020820152606085015282516104bc8482612321565b600d81526c4661696c757265526f756e643160981b6020820152608085015282516104e78482612321565b600e81526d213ab4b63234b733a9ba30b3b29960911b602082015260a085015282516105138482612321565b600c81526b2b37ba34b733a937bab7321960a11b602082015260c0850152825161053d8482612321565b600d81526c2330b4b63ab932a937bab7321960991b602082015260e085015282516105688482612321565b600e81526d4275696c64696e6753746167653360901b602082015261010085015282516105958482612321565b600c81526b566f74696e67526f756e643360a01b602082015261012085015282516105c08482612321565b600d81526c4661696c757265526f756e643360981b602082015261014085015282516105ec8482612321565b600981526810dbdb5c1b195d195960ba1b6020820152610160850152015491600c60ff8416101561063757611fe06102329360051b16015190519182916020835260208301906121c1565b634e487b7160e01b5f52602160045260245ffd5b634e487b7160e01b5f52604160045260245ffd5b60203660031901126101d55760043561067661284e565b805f52600260205260405f20600781019060ff825416600c811015610637576001036108db57655af3107a4000341061089f57600481018054916106c060058201938454906127a9565b9485156108695734915f96803411610853575b50335f908152601182016020526040902060038101805491929160ff811615610800575b50506107409061073b63ffffffff600f60018601938261072686549861071e8c82546127c4565b809155612dca565b169485841989161790550194169184546127c4565b6127a9565b905561074d8285546127c4565b8094556040519182527f38c48552690c96ec2872092ac1db6c19fb59f5a8c5b49bbf41ed4886d0ca692660203393a35411156107ef575b508061079e575b60015f80516020612f5183398151915255005b5f80808093335af16107ae612730565b50156107ba578061078b565b60405162461bcd60e51b815260206004820152600d60248201526c1499599d5b990819985a5b1959609a1b6044820152606490fd5b805460ff1916600217905581610784565b60ff191660011790556010810180549190600160401b83101561064b578261083091600161074095018155612839565b81546001600160a01b0360039290921b91821b19163390911b17905590896106f7565b909650915061086282346127a9565b95876106d3565b60405162461bcd60e51b815260206004820152600e60248201526d105b1c9958591e48199d5b99195960921b6044820152606490fd5b60405162461bcd60e51b8152602060048201526014602482015273125b9d995cdd1b595b9d081d1bdbc81cdb585b1b60621b6044820152606490fd5b60405162461bcd60e51b815260206004820152600b60248201526a4e6f742066756e64696e6760a81b6044820152606490fd5b346101d55760203660031901126101d5576001600160a01b0361092f61213c565b165f526004602052602060405f2054604051908152f35b346101d5575f3660031901126101d55761095e61284e565b6001335f5b6001548311610a2c57825f52600260205260405f2090825f526011820160205260405f206003810180549360ff8516158015610a1f575b610a11576109a781612964565b15610a115782548015610a0257926109f694926101006109e75f9460056109de6109fc9b998e8952826020526040892054906126be565b91015490612538565b9561ff001916179055556127c4565b926122f7565b91610963565b50505050926109fc91506122f7565b505050926109fc91506122f7565b5060ff8560081c1661099a565b610a378115156126f1565b5f80808084335af1610a47612730565b5015610a9b5760405190815260406020820152600b60408201526a1253959154d513d490531360aa1b60608201525f80516020612f3183398151915260803392a260015f80516020612f5183398151915255005b60405162461bcd60e51b815260206004820152600f60248201526e151c985b9cd9995c8819985a5b1959608a1b6044820152606490fd5b346101d55760203660031901126101d5576004355f52600260205260405f2060018060a01b0381541660ff6003830154166102326004840154600585015460068601549060ff60078801541692610b95610b8a6002610b5e6040519b610b478d80610b408160018601612440565b0390612321565b610b576040518094819301612440565b0382612321565b610b7c6040519b8c9b8c5261010060208d01526101008c01906121c1565b908a820360408c01526121c1565b96606089019061223d565b608087015260a086015260c085015260e084019061224a565b346101d5575f3660031901126101d557600180545f90335b81841115610bd957602083604051908152f35b9091835f52600260205260405f20825f526011810160205260405f20600381015460ff811615908115610c5e575b50610c5257610c1582612964565b15610c525791610c3e610c449260056109de610c4a96548a5f528260205260405f2054906126be565b906127c4565b936122f7565b929190610bc6565b505092610c4a906122f7565b60ff915060081c1687610c07565b346101d55760403660031901126101d55760043560243560038110156101d5575f828152600260209081526040808320338452601181019092529091209290610cb481612886565b92600285019460ff610cc68688612820565b90549060031b1c16600381101561063757610eab5760ff6007840154166003860286810460031487151715610e9757610cfe906127b6565b90600c82101561063757600c8110156106375703610e5c575f956001831490818015610e4f575b15610e145786610d3491612820565b97610637576001610dbd9382610dfd9a63ffffffff94549060031b9060ff808a16831b921b1916179055015416905f14610dff57610d9e610d7887601287016127d1565b610d888483548360031b1c6127c4565b82545f1960039390931b92831b1916911b179055565b610d88610dae87601887016127d1565b91909283548360031b1c6127c4565b610dd16040519185835260208301906122ea565b827ffe2287fa52fad81788ac4645bf0bae4badc927d35f68ab09bc950ca8e0f0168960403393a36129d3565b005b610e0f610d7887601587016127d1565b610d9e565b60405162461bcd60e51b815260206004820152601360248201527224b73b30b634b2103b37ba329037b83a34b7b760691b6044820152606490fd5b505f975060028414610d25565b60405162461bcd60e51b81526020600482015260136024820152724e6f7420696e20766f74696e6720737461676560681b6044820152606490fd5b634e487b7160e01b5f52601160045260245ffd5b60405162461bcd60e51b815260206004820152600d60248201526c105b1c9958591e481d9bdd1959609a1b6044820152606490fd5b346101d55760203660031901126101d5576040516060610f008183612321565b5f5b818110610f61576004355f526002602052610f5360405f206102326010610f3f610f2e600b85016124c1565b93610b5760405180948193016127e0565b604051938493604085526040850190612257565b908382036020850152612185565b808260209285015201610f02565b346101d5575f3660031901126101d5575f546040516001600160a01b039091168152602090f35b346101d5575f3660031901126101d557335f526003602052602060405f2054604051908152f35b346101d5575f3660031901126101d557610fd56129ad565b5f80546001600160a01b0319811682556001600160a01b03167f8be0079c531659141344cd1fd0a4f28419497f9722a3daafe3b4186f6b6457e08280a3005b346101d55760203660031901126101d55760043561103061284e565b5f81815260026020908152604080832033845260118101909252909120600381018054939260ff85168061116c575b1561113b5761106d81612964565b156110ff576110946101009160056109de5f978754908952826020526040892054906126be565b9461ff001916179055555f80808084335af16110ae612730565b50156101d55760405190815260406020820152600860408201526724a72b22a9aa27a960c11b60608201525f80516020612f3183398151915260803392a260015f80516020612f5183398151915255005b60405162461bcd60e51b8152602060048201526014602482015273526566756e64206e6f7420617661696c61626c6560601b6044820152606490fd5b60405162461bcd60e51b8152602060048201526009602482015268139bc81c99599d5b9960ba1b6044820152606490fd5b5060ff8560081c161561105f565b346101d55760403660031901126101d55760043560243567ffffffffffffffff81116101d5576111ae9036906004016122bc565b825f52600260205260405f20916111cf60018060a01b03845416331461276f565b811515806113e3575b156113aa576111e683612886565b91600784019160ff835416600385029085820460031486151715610e9757816002019081600211610e9757600c82101561063757600c811015610637570361137057600b860161124061123987836127d1565b5054612408565b611337578561124e916127d1565b919091611324576112638484611268946125a5565b6127b6565b91600c8310156106375761129e7f556e3b296d5e8c8bab27684b52ae96905507befd2d188ce6f4453a6717dd9c009388956126a6565b6112bb6040519283928784526040602085015260408401916126d1565b0390a260018101809111610e97577f40b65f66bbe8729943f24f848d832a03c5f717b0a006577da5a44888c05485ab9161131f6010926040519384936060855261130b6060860160018301612440565b9260208601528483036040860152016127e0565b0390a2005b634e487b7160e01b5f525f60045260245ffd5b60405162461bcd60e51b8152602060048201526011602482015270105b1c9958591e481cdd589b5a5d1d1959607a1b6044820152606490fd5b60405162461bcd60e51b81526020600482015260126024820152714e6f74206275696c64696e6720737461676560701b6044820152606490fd5b60405162461bcd60e51b8152602060048201526011602482015270092dcecc2d8d2c84092a08ca640d0c2e6d607b1b6044820152606490fd5b5060808211156111d8565b346101d5575f3660031901126101d55761140661284e565b5f546001600160a01b0316330361149b57335f52600460205260405f205461142f8115156126f1565b335f5260046020525f60408120555f80808084335af161144d612730565b50156101d55760405190815260406020820152600560408201526427aba722a960d91b60608201525f80516020612f3183398151915260803392a260015f80516020612f5183398151915255005b60405162461bcd60e51b815260206004820152600a60248201526927b7363c9037bbb732b960b11b6044820152606490fd5b346101d5575f3660031901126101d5576020600154604051908152f35b346101d5575f3660031901126101d557335f526004602052602060405f2054604051908152f35b346101d55760203660031901126101d55760043561152d61284e565b805f52600260205260405f2061154d60018060a01b03825416331461276f565b600781019160ff835416600c81101561063757600103611632575f9260ff19815416905560066005830154920191825490801585146115e5575083546001600160a01b03168452600460205260408420805490916115aa916127c4565b90555b7fe3805ed669490875ae87c5c8b1ad6ecca0e5e67305a833926d0d4317c4822fc08380a25560015f80516020612f5183398151915255005b90611620916115f88260011c80936127a9565b9160018060a01b0387541687526004602052611619604088209182546127c4565b90556127c4565b818452600560205260408420556115ad565b60405162461bcd60e51b815260206004820152601e60248201527f43616e206f6e6c792063616e63656c20647572696e672046756e64696e6700006044820152606490fd5b346101d5575f3660031901126101d55761168f61284e565b335f52600360205260405f20546116a78115156126f1565b335f5260036020525f60408120555f80808084335af16116c5612730565b50156101d55760405190815260406020820152600760408201526621a922a0aa27a960c91b60608201525f80516020612f3183398151915260803392a260015f80516020612f5183398151915255005b60a03660031901126101d55760043567ffffffffffffffff81116101d5576117419036906004016122bc565b9060243567ffffffffffffffff81116101d5576117629036906004016122bc565b60443593916064359160088310156101d5576084359267ffffffffffffffff84116101d55783600401936064369101116101d557655af3107a400087106119f157600a8704918234036119b957801515806119ad575b15611972575f5b600381106119015750600782116118c95761181d906117df6001546122f7565b806001555f52600260205260405f2094336bffffffffffffffffffffffff60a01b875416178655611814888a600189016125a5565b600286016125a5565b600383019060ff80198354169116179055856004830155600682015560078101600160ff1982541617905560088291015f915b600383106118a35786867fbb4637bbc1f7f92783410fb90807fcced52c1562da987ac649876f09a750a5e38761189560015493604051926040845260408401916126d1565b9360208201528033940390a3005b60016020826118bd6118b6849589612556565b90876125a5565b01920192019190611850565b60405162461bcd60e51b815260206004820152601060248201526f496e76616c69642063617465676f727960801b6044820152606490fd5b61190b8187612589565b905015158061195b575b15611922576001016117bf565b60405162461bcd60e51b8152602060048201526011602482015270496e76616c6964206d696c6573746f6e6560781b6044820152606490fd5b506101006119698288612589565b90501115611915565b60405162461bcd60e51b815260206004820152601360248201527224b73b30b634b2103232b9b1b934b83a34b7b760691b6044820152606490fd5b506104008111156117b8565b60405162461bcd60e51b815260206004820152601060248201526f426f6e64206d7573742062652031302560801b6044820152606490fd5b60405162461bcd60e51b815260206004820152601060248201526f536f66742063617020746f6f206c6f7760801b6044820152606490fd5b346101d5575f3660031901126101d5575f600190600154915b82811115611aca5750611a549061235b565b5f9160015b81811115611a77576040516020808252819061023290820186612152565b805f52600260205260ff600760405f20015416600c81101561063757600114611aa9575b611aa4906122f7565b611a59565b92611ac28185611abc611aa494876123e0565b526122f7565b939050611a9b565b805f52600260205260ff600760405f20015416600c81101561063757600114611afc575b611af7906122f7565b611a42565b90611b09611af7916122f7565b919050611aee565b346101d55760203660031901126101d557606080604051611b328282612321565b36903780604051611b438282612321565b36903780604051611b548282612321565b3690376004355f52600260205260405f20611bd6600f82015492611bcc611b7d60128501612504565b611bbc611b8c60158701612504565b9360ff600e60405198015481811615158952818160081c16151560208a015260101c161515604088015286612321565b6040519586526020860190612295565b6080840190612295565b5f60e083015b60038210611bea5761014084f35b60208060019285511515815201930191019091611bdc565b346101d55760203660031901126101d5576004355f526005602052602060405f2054604051908152f35b346101d5575f3660031901126101d5575f600190600154915b828111156120be5750611c578161235b565b611c6082612343565b92611c6e6040519485612321565b828452601f19611c7d84612343565b01366020860137611c8d836123a9565b611c96846123a9565b611c9f85612343565b611cac6040519182612321565b858152611cb886612343565b601f1901366020830137611ccb8661235b565b611cd48761235b565b92611cde8861235b565b94611ce889612343565b97611cf6604051998a612321565b898952611d028a612343565b601f19013660208b0137611d158a61235b565b97611d1f8b612343565b9a611d2d6040519c8d612321565b808c52611d3c601f1991612343565b015f5b8181106120775750505f60015b82811115611ef25750505091611da1611daf92611d93611d859c9b9a99989796956040519e8f9e8f926101608452610160840190612152565b916020818403910152612185565b8c810360408e0152906121e5565b908a820360608c01526121e5565b88810360808a0152602080845192838152019301905f5b818110611ec35750505091611dea82611e0695948a611df8950360a08c0152612152565b9088820360c08a0152612152565b9086820360e0880152612152565b848103610100860152602080845192838152019301905f5b818110611e9c5750505090611e3b91848203610120860152612152565b828103610140840152815180825260208201916020808360051b8301019401925f915b838310611e6b5786860387f35b919395509193602080611e8a600193601f198682030187528951612257565b97019301930190928695949293611e5e565b91949550919260208082611eb3600194895161224a565b0195019101918695949392611e1e565b9194959697989950919260208082611ede600194895161223d565b0195019101918a9998979695949392611dc6565b805f9e9495969e526002602052601160405f200160018060a01b0333165f526020528d60ff600360405f20015416611f39575b50611f2f906122f7565b9c9493929c611d4c565b9091825f526002602052611fbc8160405f209385611f57838b6123e0565b5284546001600160a01b0316611f6d838a6123e0565b52604051611f8281610b578160018a01612440565b611f8c838c6123e0565b52611f97828b6123e0565b50604051611fac81610b578160028a01612440565b611fb683836123e0565b526123e0565b5060ff60038301541690611fd0818b6123e0565b916008811015610637578e92526004830154611fec828b6123e0565b526005830154611ffc828d6123e0565b52600683015461200c828e6123e0565b5261201f8160ff600786015416936123e0565b92600c831015610637578f82908f600861206894611fac9261206e98611f2f9a5260018060a01b0333165f52601182016020526120618660405f2054926123e0565b52016124c1565b506122f7565b9190508d611f25565b5f9d9394959d5060405161208c606082612321565b8d5f5b606081106120ad575090602083819493010152019c9493929c611d3f565b6060838201528f915060200161208f565b5f81815260026020908152604080832033845260110190915290206003015460ff166120f3575b6120ee906122f7565b611c45565b906121006120ee916122f7565b9190506120e5565b346101d55760203660031901126101d5576020906001600160a01b0361212c61213c565b165f526003825260405f20548152f35b600435906001600160a01b03821682036101d557565b90602080835192838152019201905f5b81811061216f5750505090565b8251845260209384019390920191600101612162565b90602080835192838152019201905f5b8181106121a25750505090565b82516001600160a01b0316845260209384019390920191600101612195565b805180835260209291819084018484015e5f828201840152601f01601f1916010190565b9080602083519182815201916020808360051b8301019401925f915b83831061221057505050505090565b909192939460208061222e600193601f1986820301875289516121c1565b97019301930191939290612201565b9060088210156106375752565b90600c8210156106375752565b60608201915f815b6003821061226e575050505090565b90919293602080612287838760019503865288516121c1565b96019201920190929161225f565b905f905b600382106122a657505050565b6020806001928551815201930191019091612299565b9181601f840112156101d55782359167ffffffffffffffff83116101d557602083818601950101116101d557565b9060038210156106375752565b5f198114610e975760010190565b6060810190811067ffffffffffffffff82111761064b57604052565b90601f8019910116810190811067ffffffffffffffff82111761064b57604052565b67ffffffffffffffff811161064b5760051b60200190565b9061236582612343565b6123726040519182612321565b8281528092612383601f1991612343565b0190602036910137565b5f5b82811061239b57505050565b60608282015260200161238f565b906123de6123b683612343565b6123c36040519182612321565b838152602081946123d6601f1991612343565b01910161238d565b565b80518210156123f45760209160051b010190565b634e487b7160e01b5f52603260045260245ffd5b90600182811c92168015612436575b602083101461242257565b634e487b7160e01b5f52602260045260245ffd5b91607f1691612417565b5f929181549161244f83612408565b80835292600181169081156124a4575060011461246b57505050565b5f9081526020812093945091925b83831061248a575060209250010190565b600181602092949394548385870101520191019190612479565b915050602093945060ff929192191683830152151560051b010190565b90604051916124cf83612305565b5f835b600382106124df57505050565b6001602081926040516124f681610b57818a612440565b8152019301910190916124d2565b60405191905f835b60038210612522575050506123de606083612321565b600160208192855481520193019101909161250c565b8115612542570490565b634e487b7160e01b5f52601260045260245ffd5b903590601e19813603018212156101d5570180359067ffffffffffffffff82116101d5576020019181360383136101d557565b60038210156123f4576125a19160051b810190612556565b9091565b90929167ffffffffffffffff811161064b576125c18254612408565b601f8111612661575b505f601f821160011461260257819293945f926125f7575b50508160011b915f199060031b1c1916179055565b013590505f806125e2565b601f19821694835f5260205f20915f5b878110612649575083600195969710612630575b505050811b019055565b01355f19600384901b60f8161c191690555f8080612626565b90926020600181928686013581550194019101612612565b825f5260205f20601f830160051c8101916020841061269c575b601f0160051c01905b81811061269157506125ca565b5f8155600101612684565b909150819061267b565b90600c8110156106375760ff80198354169116179055565b81810292918115918404141715610e9757565b908060209392818452848401375f828201840152601f01601f1916010190565b156126f857565b60405162461bcd60e51b815260206004820152601060248201526f4e6f7468696e6720746f20636c61696d60801b6044820152606490fd5b3d1561276a573d9067ffffffffffffffff821161064b576040519161275f601f8201601f191660200184612321565b82523d5f602084013e565b606090565b1561277657565b60405162461bcd60e51b815260206004820152600b60248201526a2737ba1031b932b0ba37b960a91b6044820152606490fd5b91908203918211610e9757565b6003019081600311610e9757565b91908201809211610e9757565b60038210156123f45701905f90565b90602082549182815201915f5260205f20905f5b8181106128015750505090565b82546001600160a01b03168452602090930192600192830192016127f4565b91909160038310156123f457601f908360051c01921690565b80548210156123f4575f5260205f2001905f90565b60025f80516020612f5183398151915254146128775760025f80516020612f5183398151915255565b633ee5aeb560e01b5f5260045ffd5b6007015460ff16600c8110156106375760028114801561295a575b8015612950575b61294b57600581148015612941575b8015612937575b6129315760088114908115612926575b811561291b575b506129165760405162461bcd60e51b81526020600482015260146024820152734e6f2063757272656e74206d696c6573746f6e6560601b6044820152606490fd5b600290565b600a9150145f6128d5565b6009811491506128ce565b50600190565b50600781146128be565b50600681146128b7565b505f90565b50600481146128a8565b50600381146128a1565b6007015460ff16600c8110156106375780159081156129a2575b8115612997575b811561298f575090565b600a91501490565b600781149150612985565b60048114915061297e565b5f546001600160a01b031633036129c057565b63118cdaa760e01b5f523360045260245ffd5b90916129e281601284016127d1565b90549060031b1c6129f682601585016127d1565b90549060031b1c612a0a83601886016127d1565b90549060031b1c600f8501546064820282810460641483151715610e975760468202821591838204604614831715610e975710612dc0576064840284810460641485151715610e975760288302918383046028141715610e975710612bf15750505050600e820160ff612a7d8383612820565b90549060031b1c16612bb857612a9682612aad92612820565b819291549060031b9060ff6001831b921b19161790565b9055827fd0e20bc20137f27f0f61ae739e5a5fbcd5839910ab315b4feccb3dcd848c3882604080518481525f6020820152a26040515f91612aed82612305565b60148252601e6020830152603260408301525f600585019283545b838310612b8957505050600381029080820460031490151715610e975760040180600411610e9757600c8110156106375783612b4c6006926007612b7a97016126a6565b01545f80546001600160a01b0316815260046020526040902080549091612b72916127c4565b9055546127a9565b905f52600560205260405f2055565b909194612baf6001916064612ba8612ba18a88612f1f565b51866126be565b04906127c4565b95019190612b08565b60405162461bcd60e51b8152602060048201526011602482015270105b1c9958591e48199a5b985b1a5e9959607a1b6044820152606490fd5b612c039291610c3e91979596976127a9565b10612c0d57505050565b600e830160ff612c1d8483612820565b90549060031b1c16612bb857612a9683612c3692612820565b9055807fd0e20bc20137f27f0f61ae739e5a5fbcd5839910ab315b4feccb3dcd848c38826040805185815260016020820152a25f82604051612c7781612305565b60148152601e6020820152603260408201525f6005870154935b838210612d9657505091612caa612cb192606494612f1f565b51906126be565b049060018060a01b038454165f52600360205260405f20612cd38382546127c4565b905560018301808411610e975784546040805192835260208301949094526001600160a01b0316927fb37915caa4a2c797e4d82b5b0c330c8c0a66fd621adf72cf62562e84bacb7d2791a360028103612d635750600681015481546001600160a01b03165f908152600360205260409020805460079392612d53916127c4565b905501805460ff1916600b179055565b600381029080820460031490151715610e975760050180600511610e9757600c8110156106375760076123de92016126a6565b829350612db6906064612ba8612daf8560019697612f1f565b51886126be565b9101859291612c91565b5050505050505050565b801561294b5760018101809111610e97575f9080600160801b811015612f10575b50600160401b811015612efb575b640100000000811015612ee6575b62010000811015612ed1575b610100811015612ebc575b6010811015612ea7575b6004811015612e92575b60021115612e72575b620186a0810290808204620186a01490151715610e975763ffffffff8111612e67575b63ffffffff1690565b5063ffffffff612e5e565b6001810180911115612e3b57634e487b7160e01b5f52601160045260245ffd5b60021c9060028101809111610e975790612e32565b60041c9060048101809111610e975790612e28565b60081c9060088101809111610e975790612e1e565b60101c9060108101809111610e975790612e13565b60201c9060208101809111610e975790612e07565b60401c9060408101809111610e975790612df9565b91505060801c6080905f612deb565b9060038110156123f45760051b019056fe58fb02bcfedd338314c70bcf748b4f71a01259cf8956f31b34cb09acf29809cb9b779b17422d0df92223018b32b4d1fa46e071723d6817e2486d003becc55f00a264697066735822122015415498c72329118656873ed657b4abf7bd4994bc93a0836060e91610d58e8264736f6c634300081a0033",
    "linkReferences": {}
  },
  "methodIdentifiers": {
    "cancelProject(uint256)": "24941147",
    "claimAllRefund()": "af9a81ff",
    "claimCreator()": "232adc65",
    "claimOwner()": "3bd1adec",
    "claimRefund(uint256)": "5b7baf64",
    "claimableCreator(address)": "04f02969",
    "claimableOwner(address)": "b4d63781",
    "createProject(string,string,uint256,uint8,string[3])": "223ecf0d",
    "fund(uint256)": "ca1d209d",
    "getAllClaimableRefund()": "a5bb2c0f",
    "getAllFundingProjects()": "1b745c26",
    "getAllInvestments(uint256)": "e1769b1f",
    "getClaimableCreator()": "744ddcaa",
    "getClaimableOwner()": "275fd95b",
    "getMilestoneDescriptions(uint256)": "f24f5c4c",
    "getMyInvestedProjects()": "0df529b8",
    "getMyVotes(uint256,address)": "e48bfef2",
    "getProjectCore(uint256)": "a948d05f",
    "getProjectMeta(uint256)": "8e98435d",
    "getProjectState(uint256)": "e0155714",
    "getProjectVoting(uint256)": "109ba91c",
    "owner()": "8da5cb5b",
    "projectCount()": "36fbad26",
    "refundPool(uint256)": "0e8a01bc",
    "renounceOwnership()": "715018a6",
    "submitMilestone(uint256,string)": "476a119b",
    "transferOwnership(address)": "f2fde38b",
    "vote(uint256,uint8)": "943e8216"
  },
  "id": 25
}