{"abi":[{"type":"constructor","inputs":[],"stateMutability":"nonpayable"},{"type":"function","name":"cancelProject","inputs":[{"name":"projectId","type":"uint256","internalType":"uint256"}],"outputs":[],"stateMutability":"nonpayable"},{"type":"function","name":"claimCreator","inputs":[],"outputs":[],"stateMutability":"nonpayable"},{"type":"function","name":"claimInvestor","inputs":[],"outputs":[],"stateMutability":"nonpayable"},{"type":"function","name":"claimOwner","inputs":[],"outputs":[],"stateMutability":"nonpayable"},{"type":"function","name":"claimableCreator","inputs":[{"name":"","type":"address","internalType":"address"}],"outputs":[{"name":"","type":"uint256","internalType":"uint256"}],"stateMutability":"view"},{"type":"function","name":"claimableInvestor","inputs":[{"name":"","type":"address","internalType":"address"}],"outputs":[{"name":"","type":"uint256","internalType":"uint256"}],"stateMutability":"view"},{"type":"function","name":"claimableOwner","inputs":[{"name":"","type":"address","internalType":"address"}],"outputs":[{"name":"","type":"uint256","internalType":"uint256"}],"stateMutability":"view"},{"type":"function","name":"createProject","inputs":[{"name":"name","type":"string","internalType":"string"},{"name":"description","type":"string","internalType":"string"},{"name":"softCapWei","type":"uint256","internalType":"uint256"}],"outputs":[],"stateMutability":"payable"},{"type":"function","name":"fund","inputs":[{"name":"projectId","type":"uint256","internalType":"uint256"}],"outputs":[],"stateMutability":"payable"},{"type":"function","name":"getAllFundingProjects","inputs":[],"outputs":[{"name":"","type":"uint256[]","internalType":"uint256[]"}],"stateMutability":"view"},{"type":"function","name":"getAllInvestments","inputs":[{"name":"projectId","type":"uint256","internalType":"uint256"}],"outputs":[{"name":"","type":"address[]","internalType":"address[]"},{"name":"","type":"uint256[]","internalType":"uint256[]"}],"stateMutability":"view"},{"type":"function","name":"getClaimableCreator","inputs":[],"outputs":[{"name":"","type":"uint256","internalType":"uint256"}],"stateMutability":"view"},{"type":"function","name":"getClaimableInvestor","inputs":[],"outputs":[{"name":"","type":"uint256","internalType":"uint256"}],"stateMutability":"view"},{"type":"function","name":"getMyInvestedProjects","inputs":[],"outputs":[{"name":"projectIds","type":"uint256[]","internalType":"uint256[]"},{"name":"creators","type":"address[]","internalType":"address[]"},{"name":"names","type":"string[]","internalType":"string[]"},{"name":"descriptions","type":"string[]","internalType":"string[]"},{"name":"softCaps","type":"uint256[]","internalType":"uint256[]"},{"name":"totalFundeds","type":"uint256[]","internalType":"uint256[]"},{"name":"bonds","type":"uint256[]","internalType":"uint256[]"},{"name":"states","type":"string[]","internalType":"string[]"},{"name":"investments","type":"uint256[]","internalType":"uint256[]"}],"stateMutability":"view"},{"type":"function","name":"getMyVotes","inputs":[{"name":"projectId","type":"uint256","internalType":"uint256"},{"name":"user","type":"address","internalType":"address"}],"outputs":[{"name":"","type":"uint8[3]","internalType":"enum MilestoneFunding.VoteOption[3]"}],"stateMutability":"view"},{"type":"function","name":"getProjectCore","inputs":[{"name":"projectId","type":"uint256","internalType":"uint256"}],"outputs":[{"name":"creator","type":"address","internalType":"address"},{"name":"name","type":"string","internalType":"string"},{"name":"description","type":"string","internalType":"string"},{"name":"softCapWei","type":"uint256","internalType":"uint256"},{"name":"totalFunded","type":"uint256","internalType":"uint256"},{"name":"bond","type":"uint256","internalType":"uint256"},{"name":"state","type":"string","internalType":"string"}],"stateMutability":"view"},{"type":"function","name":"getProjectMeta","inputs":[{"name":"projectId","type":"uint256","internalType":"uint256"}],"outputs":[{"name":"milestoneHashes","type":"string[3]","internalType":"string[3]"},{"name":"investors","type":"address[]","internalType":"address[]"}],"stateMutability":"view"},{"type":"function","name":"getProjectState","inputs":[{"name":"projectId","type":"uint256","internalType":"uint256"}],"outputs":[{"name":"","type":"string","internalType":"string"}],"stateMutability":"view"},{"type":"function","name":"getProjectVoting","inputs":[{"name":"projectId","type":"uint256","internalType":"uint256"}],"outputs":[{"name":"snapshotTotalFund","type":"uint256","internalType":"uint256"},{"name":"snapshotTotalWeight","type":"uint256","internalType":"uint256"},{"name":"yesWeight","type":"uint256[3]","internalType":"uint256[3]"},{"name":"noWeight","type":"uint256[3]","internalType":"uint256[3]"},{"name":"finalized","type":"bool[3]","internalType":"bool[3]"}],"stateMutability":"view"},{"type":"function","name":"owner","inputs":[],"outputs":[{"name":"","type":"address","internalType":"address"}],"stateMutability":"view"},{"type":"function","name":"projectCount","inputs":[],"outputs":[{"name":"","type":"uint256","internalType":"uint256"}],"stateMutability":"view"},{"type":"function","name":"renounceOwnership","inputs":[],"outputs":[],"stateMutability":"nonpayable"},{"type":"function","name":"submitMilestone","inputs":[{"name":"projectId","type":"uint256","internalType":"uint256"},{"name":"ipfsHash","type":"string","internalType":"string"}],"outputs":[],"stateMutability":"nonpayable"},{"type":"function","name":"transferOwnership","inputs":[{"name":"newOwner","type":"address","internalType":"address"}],"outputs":[],"stateMutability":"nonpayable"},{"type":"function","name":"vote","inputs":[{"name":"projectId","type":"uint256","internalType":"uint256"},{"name":"option","type":"uint8","internalType":"enum MilestoneFunding.VoteOption"}],"outputs":[],"stateMutability":"nonpayable"},{"type":"event","name":"Claim","inputs":[{"name":"user","type":"address","indexed":true,"internalType":"address"},{"name":"amount","type":"uint256","indexed":false,"internalType":"uint256"},{"name":"role","type":"string","indexed":false,"internalType":"string"}],"anonymous":false},{"type":"event","name":"Funded","inputs":[{"name":"projectId","type":"uint256","indexed":true,"internalType":"uint256"},{"name":"investor","type":"address","indexed":true,"internalType":"address"},{"name":"amount","type":"uint256","indexed":false,"internalType":"uint256"}],"anonymous":false},{"type":"event","name":"MilestoneSubmitted","inputs":[{"name":"projectId","type":"uint256","indexed":true,"internalType":"uint256"},{"name":"milestone","type":"uint256","indexed":false,"internalType":"uint256"},{"name":"ipfsHash","type":"string","indexed":false,"internalType":"string"}],"anonymous":false},{"type":"event","name":"OwnershipTransferred","inputs":[{"name":"previousOwner","type":"address","indexed":true,"internalType":"address"},{"name":"newOwner","type":"address","indexed":true,"internalType":"address"}],"anonymous":false},{"type":"event","name":"ProjectCancelled","inputs":[{"name":"projectId","type":"uint256","indexed":true,"internalType":"uint256"}],"anonymous":false},{"type":"event","name":"ProjectCreated","inputs":[{"name":"projectId","type":"uint256","indexed":true,"internalType":"uint256"},{"name":"name","type":"string","indexed":false,"internalType":"string"},{"name":"description","type":"string","indexed":false,"internalType":"string"},{"name":"softCapWei","type":"uint256","indexed":false,"internalType":"uint256"},{"name":"creator","type":"address","indexed":true,"internalType":"address"}],"anonymous":false},{"type":"event","name":"VoteFinalized","inputs":[{"name":"projectId","type":"uint256","indexed":true,"internalType":"uint256"},{"name":"milestone","type":"uint256","indexed":false,"internalType":"uint256"},{"name":"passed","type":"bool","indexed":false,"internalType":"bool"}],"anonymous":false},{"type":"event","name":"Voted","inputs":[{"name":"projectId","type":"uint256","indexed":true,"internalType":"uint256"},{"name":"voter","type":"address","indexed":true,"internalType":"address"},{"name":"milestone","type":"uint256","indexed":false,"internalType":"uint256"},{"name":"vote","type":"uint8","indexed":false,"internalType":"enum MilestoneFunding.VoteOption"}],"anonymous":false},{"type":"error","name":"OwnableInvalidOwner","inputs":[{"name":"owner","type":"address","internalType":"address"}]},{"type":"error","name":"OwnableUnauthorizedAccount","inputs":[{"name":"account","type":"address","internalType":"address"}]},{"type":"error","name":"ReentrancyGuardReentrantCall","inputs":[]}],"bytecode":{"object":"0x608060405234801561000f575f80fd5b50335f73ffffffffffffffffffffffffffffffffffffffff168173ffffffffffffffffffffffffffffffffffffffff1603610081575f6040517f1e4fbdf700000000000000000000000000000000000000000000000000000000815260040161007891906101ec565b60405180910390fd5b610090816100ba60201b60201c565b5060016100af6100a461017b60201b60201c565b6101a460201b60201c565b5f0181905550610205565b5f805f9054906101000a900473ffffffffffffffffffffffffffffffffffffffff169050815f806101000a81548173ffffffffffffffffffffffffffffffffffffffff021916908373ffffffffffffffffffffffffffffffffffffffff1602179055508173ffffffffffffffffffffffffffffffffffffffff168173ffffffffffffffffffffffffffffffffffffffff167f8be0079c531659141344cd1fd0a4f28419497f9722a3daafe3b4186f6b6457e060405160405180910390a35050565b5f7f9b779b17422d0df92223018b32b4d1fa46e071723d6817e2486d003becc55f005f1b905090565b5f819050919050565b5f73ffffffffffffffffffffffffffffffffffffffff82169050919050565b5f6101d6826101ad565b9050919050565b6101e6816101cc565b82525050565b5f6020820190506101ff5f8301846101dd565b92915050565b6157ef806102125f395ff3fe608060405260043610610165575f3560e01c80638a237ac5116100d0578063b4d6378111610089578063e015571411610063578063e0155714146104e8578063e1769b1f14610524578063e48bfef214610561578063f2fde38b1461059d57610165565b8063b4d6378114610466578063bafcf656146104a2578063ca1d209d146104cc57610165565b80638a237ac5146103435780638da5cb5b146103595780638e98435d14610383578063943e8216146103c0578063a948d05f146103e8578063aae771261461042a57610165565b80632494114711610122578063249411471461027357806336fbad261461029b5780633bd1adec146102c5578063476a119b146102db578063715018a614610303578063744ddcaa1461031957610165565b806304f02969146101695780630df529b8146101a5578063109ba91c146101d75780631b745c2614610217578063232adc651461024157806323c5544814610257575b5f80fd5b348015610174575f80fd5b5061018f600480360381019061018a9190613e90565b6105c5565b60405161019c9190613ed3565b60405180910390f35b3480156101b0575f80fd5b506101b96105da565b6040516101ce99989796959493929190614185565b60405180910390f35b3480156101e2575f80fd5b506101fd60048036038101906101f89190614279565b610cb8565b60405161020e9594939291906143d3565b60405180910390f35b348015610222575f80fd5b5061022b610df0565b6040516102389190614426565b60405180910390f35b34801561024c575f80fd5b50610255610f63565b005b610271600480360381019061026c91906144a7565b6110fb565b005b34801561027e575f80fd5b5061029960048036038101906102949190614279565b6112c4565b005b3480156102a6575f80fd5b506102af611640565b6040516102bc9190613ed3565b60405180910390f35b3480156102d0575f80fd5b506102d9611646565b005b3480156102e6575f80fd5b5061030160048036038101906102fc9190614538565b611853565b005b34801561030e575f80fd5b50610317611ad4565b005b348015610324575f80fd5b5061032d611ae7565b60405161033a9190613ed3565b60405180910390f35b34801561034e575f80fd5b50610357611b2b565b005b348015610364575f80fd5b5061036d611cc3565b60405161037a91906145a4565b60405180910390f35b34801561038e575f80fd5b506103a960048036038101906103a49190614279565b611cea565b6040516103b7929190614659565b60405180910390f35b3480156103cb575f80fd5b506103e660048036038101906103e191906146b1565b611e5d565b005b3480156103f3575f80fd5b5061040e60048036038101906104099190614279565b612295565b6040516104219796959493929190614737565b60405180910390f35b348015610435575f80fd5b50610450600480360381019061044b9190613e90565b612423565b60405161045d9190613ed3565b60405180910390f35b348015610471575f80fd5b5061048c60048036038101906104879190613e90565b612438565b6040516104999190613ed3565b60405180910390f35b3480156104ad575f80fd5b506104b661244d565b6040516104c39190613ed3565b60405180910390f35b6104e660048036038101906104e19190614279565b612491565b005b3480156104f3575f80fd5b5061050e60048036038101906105099190614279565b6128ab565b60405161051b91906147b9565b60405180910390f35b34801561052f575f80fd5b5061054a60048036038101906105459190614279565b612eb6565b6040516105589291906147d9565b60405180910390f35b34801561056c575f80fd5b506105876004803603810190610582919061480e565b61306e565b6040516105949190614955565b60405180910390f35b3480156105a8575f80fd5b506105c360048036038101906105be9190613e90565b61313c565b005b6004602052805f5260405f205f915090505481565b60608060608060608060608060605f80600190505b600154811161067b5760025f8281526020019081526020015f206009015f3373ffffffffffffffffffffffffffffffffffffffff1673ffffffffffffffffffffffffffffffffffffffff1681526020019081526020015f205f9054906101000a900460ff16156106685781806106649061499b565b9250505b80806106739061499b565b9150506105ef565b508067ffffffffffffffff811115610696576106956149e2565b5b6040519080825280602002602001820160405280156106c45781602001602082028036833780820191505090505b5099508067ffffffffffffffff8111156106e1576106e06149e2565b5b60405190808252806020026020018201604052801561070f5781602001602082028036833780820191505090505b5098508067ffffffffffffffff81111561072c5761072b6149e2565b5b60405190808252806020026020018201604052801561075f57816020015b606081526020019060019003908161074a5790505b5097508067ffffffffffffffff81111561077c5761077b6149e2565b5b6040519080825280602002602001820160405280156107af57816020015b606081526020019060019003908161079a5790505b5096508067ffffffffffffffff8111156107cc576107cb6149e2565b5b6040519080825280602002602001820160405280156107fa5781602001602082028036833780820191505090505b5095508067ffffffffffffffff811115610817576108166149e2565b5b6040519080825280602002602001820160405280156108455781602001602082028036833780820191505090505b5094508067ffffffffffffffff811115610862576108616149e2565b5b6040519080825280602002602001820160405280156108905781602001602082028036833780820191505090505b5093508067ffffffffffffffff8111156108ad576108ac6149e2565b5b6040519080825280602002602001820160405280156108e057816020015b60608152602001906001900390816108cb5790505b5092508067ffffffffffffffff8111156108fd576108fc6149e2565b5b60405190808252806020026020018201604052801561092b5781602001602082028036833780820191505090505b5091505f80600190505b6001548111610caa5760025f8281526020019081526020015f206009015f3373ffffffffffffffffffffffffffffffffffffffff1673ffffffffffffffffffffffffffffffffffffffff1681526020019081526020015f205f9054906101000a900460ff1615610c97575f60025f8381526020019081526020015f209050818d84815181106109c7576109c6614a0f565b5b602002602001018181525050805f015f9054906101000a900473ffffffffffffffffffffffffffffffffffffffff168c8481518110610a0957610a08614a0f565b5b602002602001019073ffffffffffffffffffffffffffffffffffffffff16908173ffffffffffffffffffffffffffffffffffffffff1681525050806001018054610a5290614a69565b80601f0160208091040260200160405190810160405280929190818152602001828054610a7e90614a69565b8015610ac95780601f10610aa057610100808354040283529160200191610ac9565b820191905f5260205f20905b815481529060010190602001808311610aac57829003601f168201915b50505050508b8481518110610ae157610ae0614a0f565b5b6020026020010181905250806002018054610afb90614a69565b80601f0160208091040260200160405190810160405280929190818152602001828054610b2790614a69565b8015610b725780601f10610b4957610100808354040283529160200191610b72565b820191905f5260205f20905b815481529060010190602001808311610b5557829003601f168201915b50505050508a8481518110610b8a57610b89614a0f565b5b60200260200101819052508060030154898481518110610bad57610bac614a0f565b5b6020026020010181815250508060040154888481518110610bd157610bd0614a0f565b5b6020026020010181815250508060050154878481518110610bf557610bf4614a0f565b5b602002602001018181525050610c0a826128ab565b868481518110610c1d57610c1c614a0f565b5b6020026020010181905250806008015f3373ffffffffffffffffffffffffffffffffffffffff1673ffffffffffffffffffffffffffffffffffffffff1681526020019081526020015f2054858481518110610c7b57610c7a614a0f565b5b6020026020010181815250508280610c929061499b565b935050505b8080610ca29061499b565b915050610935565b505050909192939495969798565b5f80610cc2613da1565b610cca613da1565b610cd2613dc3565b5f60025f8881526020019081526020015f20905080600a015481600b015482600e01836011018460140182600380602002604051908101604052809291908260038015610d34576020028201915b815481526020019060010190808311610d20575b5050505050925081600380602002604051908101604052809291908260038015610d73576020028201915b815481526020019060010190808311610d5f575b5050505050915080600380602002604051908101604052809291908260038015610dd5576020028201915f905b82829054906101000a900460ff161515815260200190600101906020825f01049283019260010382029150808411610da05790505b50505050509050955095509550955095505091939590929450565b60605f80600190505b6001548111610e6f575f600b811115610e1557610e14614869565b5b60025f8381526020019081526020015f206006015f9054906101000a900460ff16600b811115610e4857610e47614869565b5b03610e5c578180610e589061499b565b9250505b8080610e679061499b565b915050610df9565b505f8167ffffffffffffffff811115610e8b57610e8a6149e2565b5b604051908082528060200260200182016040528015610eb95781602001602082028036833780820191505090505b5090505f80600190505b6001548111610f59575f600b811115610edf57610ede614869565b5b60025f8381526020019081526020015f206006015f9054906101000a900460ff16600b811115610f1257610f11614869565b5b03610f465780838381518110610f2b57610f2a614a0f565b5b6020026020010181815250508180610f429061499b565b9250505b8080610f519061499b565b915050610ec3565b5081935050505090565b610f6b6131c0565b5f60045f3373ffffffffffffffffffffffffffffffffffffffff1673ffffffffffffffffffffffffffffffffffffffff1681526020019081526020015f205490505f8111610fee576040517f08c379a0000000000000000000000000000000000000000000000000000000008152600401610fe590614ae3565b60405180910390fd5b5f60045f3373ffffffffffffffffffffffffffffffffffffffff1673ffffffffffffffffffffffffffffffffffffffff1681526020019081526020015f20819055505f3373ffffffffffffffffffffffffffffffffffffffff168260405161105590614b2e565b5f6040518083038185875af1925050503d805f811461108f576040519150601f19603f3d011682016040523d82523d5f602084013e611094565b606091505b50509050806110a1575f80fd5b3373ffffffffffffffffffffffffffffffffffffffff167f58fb02bcfedd338314c70bcf748b4f71a01259cf8956f31b34cb09acf29809cb836040516110e79190614b8c565b60405180910390a250506110f96131e2565b565b5f811161113d576040517f08c379a000000000000000000000000000000000000000000000000000000000815260040161113490614c02565b60405180910390fd5b5f600a8261114b9190614c4d565b905080341461118f576040517f08c379a000000000000000000000000000000000000000000000000000000000815260040161118690614cc7565b60405180910390fd5b60015f8154809291906111a19061499b565b91905055505f60025f60015481526020019081526020015f20905033815f015f6101000a81548173ffffffffffffffffffffffffffffffffffffffff021916908373ffffffffffffffffffffffffffffffffffffffff1602179055508686826001019182611210929190614e8c565b508484826002019182611224929190614e8c565b508281600301819055508181600501819055505f816006015f6101000a81548160ff0219169083600b81111561125d5761125c614869565b5b02179055503373ffffffffffffffffffffffffffffffffffffffff166001547fe6750b954816279a5e8d90412eecd1c9e7af46d960123b95bf7da9e8fbf6989389898989896040516112b3959493929190614f93565b60405180910390a350505050505050565b6112cc6131c0565b5f60025f8381526020019081526020015f209050805f015f9054906101000a900473ffffffffffffffffffffffffffffffffffffffff1673ffffffffffffffffffffffffffffffffffffffff163373ffffffffffffffffffffffffffffffffffffffff1614611370576040517f08c379a000000000000000000000000000000000000000000000000000000000815260040161136790615024565b60405180910390fd5b5f600b81111561138357611382614869565b5b816006015f9054906101000a900460ff16600b8111156113a6576113a5614869565b5b146113e6576040517f08c379a00000000000000000000000000000000000000000000000000000000081526004016113dd9061508c565b60405180910390fd5b6001816006015f6101000a81548160ff0219169083600b81111561140d5761140c614869565b5b02179055505f816004015490505f826005015490505f8203611488578060055f611435611cc3565b73ffffffffffffffffffffffffffffffffffffffff1673ffffffffffffffffffffffffffffffffffffffff1681526020019081526020015f205f82825461147c91906150aa565b925050819055506115fc565b5f5b83600701805490508110156115fa575f8460070182815481106114b0576114af614a0f565b5b905f5260205f20015f9054906101000a900473ffffffffffffffffffffffffffffffffffffffff1690505f856008015f8373ffffffffffffffffffffffffffffffffffffffff1673ffffffffffffffffffffffffffffffffffffffff1681526020019081526020015f205490505f8111156115eb575f8190505f86838761153791906150dd565b6115419190614c4d565b9050808261154f91906150aa565b91508160035f8673ffffffffffffffffffffffffffffffffffffffff1673ffffffffffffffffffffffffffffffffffffffff1681526020019081526020015f205f82825461159d91906150aa565b925050819055505f886008015f8673ffffffffffffffffffffffffffffffffffffffff1673ffffffffffffffffffffffffffffffffffffffff1681526020019081526020015f208190555050505b5050808060010191505061148a565b505b837fe3805ed669490875ae87c5c8b1ad6ecca0e5e67305a833926d0d4317c4822fc060405160405180910390a25f836005018190555050505061163d6131e2565b50565b60015481565b61164e6131c0565b611656611cc3565b73ffffffffffffffffffffffffffffffffffffffff163373ffffffffffffffffffffffffffffffffffffffff16146116c3576040517f08c379a00000000000000000000000000000000000000000000000000000000081526004016116ba90615168565b60405180910390fd5b5f60055f3373ffffffffffffffffffffffffffffffffffffffff1673ffffffffffffffffffffffffffffffffffffffff1681526020019081526020015f205490505f8111611746576040517f08c379a000000000000000000000000000000000000000000000000000000000815260040161173d90614ae3565b60405180910390fd5b5f60055f3373ffffffffffffffffffffffffffffffffffffffff1673ffffffffffffffffffffffffffffffffffffffff1681526020019081526020015f20819055505f3373ffffffffffffffffffffffffffffffffffffffff16826040516117ad90614b2e565b5f6040518083038185875af1925050503d805f81146117e7576040519150601f19603f3d011682016040523d82523d5f602084013e6117ec565b606091505b50509050806117f9575f80fd5b3373ffffffffffffffffffffffffffffffffffffffff167f58fb02bcfedd338314c70bcf748b4f71a01259cf8956f31b34cb09acf29809cb8360405161183f91906151d0565b60405180910390a250506118516131e2565b565b5f60025f8581526020019081526020015f209050805f015f9054906101000a900473ffffffffffffffffffffffffffffffffffffffff1673ffffffffffffffffffffffffffffffffffffffff163373ffffffffffffffffffffffffffffffffffffffff16146118f7576040517f08c379a00000000000000000000000000000000000000000000000000000000081526004016118ee90615024565b60405180910390fd5b5f6002600b81111561190c5761190b614869565b5b826006015f9054906101000a900460ff16600b81111561192f5761192e614869565b5b0361193c575f9050611a03565b6004600b8111156119505761194f614869565b5b826006015f9054906101000a900460ff16600b81111561197357611972614869565b5b036119815760019050611a02565b6006600b81111561199557611994614869565b5b826006015f9054906101000a900460ff16600b8111156119b8576119b7614869565b5b036119c65760029050611a01565b6040517f08c379a00000000000000000000000000000000000000000000000000000000081526004016119f890615246565b60405180910390fd5b5b5b8383836015018360038110611a1b57611a1a614a0f565b5b019182611a29929190614e8c565b50600281611a3791906150dd565b6003600b811115611a4b57611a4a614869565b5b611a5591906150aa565b600b811115611a6757611a66614869565b5b826006015f6101000a81548160ff0219169083600b811115611a8c57611a8b614869565b5b0217905550847f556e3b296d5e8c8bab27684b52ae96905507befd2d188ce6f4453a6717dd9c00828686604051611ac593929190615264565b60405180910390a25050505050565b611adc6131fc565b611ae55f613283565b565b5f60045f3373ffffffffffffffffffffffffffffffffffffffff1673ffffffffffffffffffffffffffffffffffffffff1681526020019081526020015f2054905090565b611b336131c0565b5f60035f3373ffffffffffffffffffffffffffffffffffffffff1673ffffffffffffffffffffffffffffffffffffffff1681526020019081526020015f205490505f8111611bb6576040517f08c379a0000000000000000000000000000000000000000000000000000000008152600401611bad90614ae3565b60405180910390fd5b5f60035f3373ffffffffffffffffffffffffffffffffffffffff1673ffffffffffffffffffffffffffffffffffffffff1681526020019081526020015f20819055505f3373ffffffffffffffffffffffffffffffffffffffff1682604051611c1d90614b2e565b5f6040518083038185875af1925050503d805f8114611c57576040519150601f19603f3d011682016040523d82523d5f602084013e611c5c565b606091505b5050905080611c69575f80fd5b3373ffffffffffffffffffffffffffffffffffffffff167f58fb02bcfedd338314c70bcf748b4f71a01259cf8956f31b34cb09acf29809cb83604051611caf91906152de565b60405180910390a25050611cc16131e2565b565b5f805f9054906101000a900473ffffffffffffffffffffffffffffffffffffffff16905090565b611cf2613de5565b60605f60025f8581526020019081526020015f209050806015018160070181600380602002604051908101604052809291905f905b82821015611dc8578382018054611d3d90614a69565b80601f0160208091040260200160405190810160405280929190818152602001828054611d6990614a69565b8015611db45780601f10611d8b57610100808354040283529160200191611db4565b820191905f5260205f20905b815481529060010190602001808311611d9757829003601f168201915b505050505081526020019060010190611d27565b50505050915080805480602002602001604051908101604052809291908181526020018280548015611e4c57602002820191905f5260205f20905b815f9054906101000a900473ffffffffffffffffffffffffffffffffffffffff1673ffffffffffffffffffffffffffffffffffffffff1681526020019060010190808311611e03575b505050505090509250925050915091565b5f60025f8481526020019081526020015f209050806009015f3373ffffffffffffffffffffffffffffffffffffffff1673ffffffffffffffffffffffffffffffffffffffff1681526020019081526020015f205f9054906101000a900460ff16611efc576040517f08c379a0000000000000000000000000000000000000000000000000000000008152600401611ef390615354565b60405180910390fd5b60016002811115611f1057611f0f614869565b5b826002811115611f2357611f22614869565b5b1480611f525750600280811115611f3d57611f3c614869565b5b826002811115611f5057611f4f614869565b5b145b611f91576040517f08c379a0000000000000000000000000000000000000000000000000000000008152600401611f88906153bc565b60405180910390fd5b5f611f9b82613344565b9050816014018160038110611fb357611fb2614a0f565b5b602091828204019190069054906101000a900460ff1615612009576040517f08c379a000000000000000000000000000000000000000000000000000000000815260040161200090615424565b60405180910390fd5b5f600281111561201c5761201b614869565b5b82600d015f3373ffffffffffffffffffffffffffffffffffffffff1673ffffffffffffffffffffffffffffffffffffffff1681526020019081526020015f20826003811061206d5761206c614a0f565b5b602091828204019190069054906101000a900460ff16600281111561209557612094614869565b5b146120d5576040517f08c379a00000000000000000000000000000000000000000000000000000000081526004016120cc9061548c565b60405180910390fd5b8282600d015f3373ffffffffffffffffffffffffffffffffffffffff1673ffffffffffffffffffffffffffffffffffffffff1681526020019081526020015f20826003811061212757612126614a0f565b5b602091828204019190066101000a81548160ff0219169083600281111561215157612150614869565b5b02179055505f6121a483600c015f3373ffffffffffffffffffffffffffffffffffffffff1673ffffffffffffffffffffffffffffffffffffffff1681526020019081526020015f205484600a0154613453565b9050600160028111156121ba576121b9614869565b5b8460028111156121cd576121cc614869565b5b03612204578083600e0183600381106121e9576121e8614a0f565b5b015f8282546121f891906150aa565b92505081905550612232565b8083601101836003811061221b5761221a614a0f565b5b015f82825461222a91906150aa565b925050819055505b3373ffffffffffffffffffffffffffffffffffffffff16857ffe2287fa52fad81788ac4645bf0bae4badc927d35f68ab09bc950ca8e0f01689848760405161227b9291906154b9565b60405180910390a361228e8386846134d1565b5050505050565b5f6060805f805f60605f60025f8a81526020019081526020015f209050805f015f9054906101000a900473ffffffffffffffffffffffffffffffffffffffff1681600101826002018360030154846004015485600501546122f58f6128ab565b85805461230190614a69565b80601f016020809104026020016040519081016040528092919081815260200182805461232d90614a69565b80156123785780601f1061234f57610100808354040283529160200191612378565b820191905f5260205f20905b81548152906001019060200180831161235b57829003601f168201915b5050505050955084805461238b90614a69565b80601f01602080910402602001604051908101604052809291908181526020018280546123b790614a69565b80156124025780601f106123d957610100808354040283529160200191612402565b820191905f5260205f20905b8154815290600101906020018083116123e557829003601f168201915b50505050509450975097509750975097509750975050919395979092949650565b6003602052805f5260405f205f915090505481565b6005602052805f5260405f205f915090505481565b5f60035f3373ffffffffffffffffffffffffffffffffffffffff1673ffffffffffffffffffffffffffffffffffffffff1681526020019081526020015f2054905090565b6124996131c0565b5f60025f8381526020019081526020015f2090505f600b8111156124c0576124bf614869565b5b816006015f9054906101000a900460ff16600b8111156124e3576124e2614869565b5b14612523576040517f08c379a000000000000000000000000000000000000000000000000000000000815260040161251a9061552a565b60405180910390fd5b5f3411612565576040517f08c379a000000000000000000000000000000000000000000000000000000000815260040161255c90615592565b60405180910390fd5b5f8160040154826003015461257a91906155b0565b90505f81116125be576040517f08c379a00000000000000000000000000000000000000000000000000000000081526004016125b59061562d565b60405180910390fd5b5f3490505f823411156125dd5782915082346125da91906155b0565b90505b836009015f3373ffffffffffffffffffffffffffffffffffffffff1673ffffffffffffffffffffffffffffffffffffffff1681526020019081526020015f205f9054906101000a900460ff166126e7576001846009015f3373ffffffffffffffffffffffffffffffffffffffff1673ffffffffffffffffffffffffffffffffffffffff1681526020019081526020015f205f6101000a81548160ff0219169083151502179055508360070133908060018154018082558091505060019003905f5260205f20015f9091909190916101000a81548173ffffffffffffffffffffffffffffffffffffffff021916908373ffffffffffffffffffffffffffffffffffffffff1602179055505b81846008015f3373ffffffffffffffffffffffffffffffffffffffff1673ffffffffffffffffffffffffffffffffffffffff1681526020019081526020015f205f82825461273591906150aa565b9250508190555081846004015f82825461274f91906150aa565b925050819055503373ffffffffffffffffffffffffffffffffffffffff16857f38c48552690c96ec2872092ac1db6c19fb59f5a8c5b49bbf41ed4886d0ca69268460405161279d9190613ed3565b60405180910390a383600301548460040154106127ea576127bd846135c6565b6002846006015f6101000a81548160ff0219169083600b8111156127e4576127e3614869565b5b02179055505b5f81111561289c575f3373ffffffffffffffffffffffffffffffffffffffff168260405161281790614b2e565b5f6040518083038185875af1925050503d805f8114612851576040519150601f19603f3d011682016040523d82523d5f602084013e612856565b606091505b505090508061289a576040517f08c379a000000000000000000000000000000000000000000000000000000000815260040161289190615695565b60405180910390fd5b505b505050506128a86131e2565b50565b60605f60025f8481526020019081526020015f2090505f600b8111156128d4576128d3614869565b5b816006015f9054906101000a900460ff16600b8111156128f7576128f6614869565b5b0361293a576040518060400160405280600781526020017f46756e64696e6700000000000000000000000000000000000000000000000000815250915050612eb1565b6001600b81111561294e5761294d614869565b5b816006015f9054906101000a900460ff16600b81111561297157612970614869565b5b036129b4576040518060400160405280600981526020017f43616e63656c6c65640000000000000000000000000000000000000000000000815250915050612eb1565b6002600b8111156129c8576129c7614869565b5b816006015f9054906101000a900460ff16600b8111156129eb576129ea614869565b5b03612a2e576040518060400160405280600e81526020017f4275696c64696e67537461676531000000000000000000000000000000000000815250915050612eb1565b6003600b811115612a4257612a41614869565b5b816006015f9054906101000a900460ff16600b811115612a6557612a64614869565b5b03612aa8576040518060400160405280600c81526020017f566f74696e67526f756e64310000000000000000000000000000000000000000815250915050612eb1565b6004600b811115612abc57612abb614869565b5b816006015f9054906101000a900460ff16600b811115612adf57612ade614869565b5b03612b22576040518060400160405280600e81526020017f4275696c64696e67537461676532000000000000000000000000000000000000815250915050612eb1565b6005600b811115612b3657612b35614869565b5b816006015f9054906101000a900460ff16600b811115612b5957612b58614869565b5b03612b9c576040518060400160405280600c81526020017f566f74696e67526f756e64320000000000000000000000000000000000000000815250915050612eb1565b6006600b811115612bb057612baf614869565b5b816006015f9054906101000a900460ff16600b811115612bd357612bd2614869565b5b03612c16576040518060400160405280600e81526020017f4275696c64696e67537461676533000000000000000000000000000000000000815250915050612eb1565b6007600b811115612c2a57612c29614869565b5b816006015f9054906101000a900460ff16600b811115612c4d57612c4c614869565b5b03612c90576040518060400160405280600c81526020017f566f74696e67526f756e64330000000000000000000000000000000000000000815250915050612eb1565b6008600b811115612ca457612ca3614869565b5b816006015f9054906101000a900460ff16600b811115612cc757612cc6614869565b5b03612d0a576040518060400160405280600981526020017f436f6d706c657465640000000000000000000000000000000000000000000000815250915050612eb1565b6009600b811115612d1e57612d1d614869565b5b816006015f9054906101000a900460ff16600b811115612d4157612d40614869565b5b03612d84576040518060400160405280600d81526020017f4661696c757265526f756e643100000000000000000000000000000000000000815250915050612eb1565b600a600b811115612d9857612d97614869565b5b816006015f9054906101000a900460ff16600b811115612dbb57612dba614869565b5b03612dfe576040518060400160405280600d81526020017f4661696c757265526f756e643200000000000000000000000000000000000000815250915050612eb1565b600b80811115612e1157612e10614869565b5b816006015f9054906101000a900460ff16600b811115612e3457612e33614869565b5b03612e77576040518060400160405280600d81526020017f4661696c757265526f756e643300000000000000000000000000000000000000815250915050612eb1565b6040518060400160405280600781526020017f556e6b6e6f776e000000000000000000000000000000000000000000000000008152509150505b919050565b6060805f60025f8581526020019081526020015f2090505f816007018054905090505f8167ffffffffffffffff811115612ef357612ef26149e2565b5b604051908082528060200260200182016040528015612f215781602001602082028036833780820191505090505b5090505f5b82811015612fd757836008015f856007018381548110612f4957612f48614a0f565b5b905f5260205f20015f9054906101000a900473ffffffffffffffffffffffffffffffffffffffff1673ffffffffffffffffffffffffffffffffffffffff1673ffffffffffffffffffffffffffffffffffffffff1681526020019081526020015f2054828281518110612fbe57612fbd614a0f565b5b6020026020010181815250508080600101915050612f26565b5082600701818180548060200260200160405190810160405280929190818152602001828054801561305b57602002820191905f5260205f20905b815f9054906101000a900473ffffffffffffffffffffffffffffffffffffffff1673ffffffffffffffffffffffffffffffffffffffff1681526020019060010190808311613012575b5050505050915094509450505050915091565b613076613e0c565b60025f8481526020019081526020015f20600d015f8373ffffffffffffffffffffffffffffffffffffffff1673ffffffffffffffffffffffffffffffffffffffff1681526020019081526020015f2060038060200260405190810160405280929190826003801561312f576020028201915f905b82829054906101000a900460ff16600281111561310a57613109614869565b5b815260200190600101906020825f010492830192600103820291508084116130ea5790505b5050505050905092915050565b6131446131fc565b5f73ffffffffffffffffffffffffffffffffffffffff168173ffffffffffffffffffffffffffffffffffffffff16036131b4575f6040517f1e4fbdf70000000000000000000000000000000000000000000000000000000081526004016131ab91906145a4565b60405180910390fd5b6131bd81613283565b50565b6131c86136e5565b60026131da6131d5613726565b61374f565b5f0181905550565b60016131f46131ef613726565b61374f565b5f0181905550565b613204613758565b73ffffffffffffffffffffffffffffffffffffffff16613222611cc3565b73ffffffffffffffffffffffffffffffffffffffff161461328157613245613758565b6040517f118cdaa700000000000000000000000000000000000000000000000000000000815260040161327891906145a4565b60405180910390fd5b565b5f805f9054906101000a900473ffffffffffffffffffffffffffffffffffffffff169050815f806101000a81548173ffffffffffffffffffffffffffffffffffffffff021916908373ffffffffffffffffffffffffffffffffffffffff1602179055508173ffffffffffffffffffffffffffffffffffffffff168173ffffffffffffffffffffffffffffffffffffffff167f8be0079c531659141344cd1fd0a4f28419497f9722a3daafe3b4186f6b6457e060405160405180910390a35050565b5f6003600b81111561335957613358614869565b5b826006015f9054906101000a900460ff16600b81111561337c5761337b614869565b5b03613389575f905061344e565b6005600b81111561339d5761339c614869565b5b826006015f9054906101000a900460ff16600b8111156133c0576133bf614869565b5b036133ce576001905061344e565b6007600b8111156133e2576133e1614869565b5b826006015f9054906101000a900460ff16600b81111561340557613404614869565b5b03613413576002905061344e565b6040517f08c379a0000000000000000000000000000000000000000000000000000000008152600401613445906156fd565b60405180910390fd5b919050565b5f8083148061346157505f82145b1561346e575f90506134cb565b61348360018361347e91906150aa565b61375f565b61349860018561349391906150aa565b61375f565b6134b4670de0b6b3a7640000866134af91906150dd565b6137a1565b6134be91906150dd565b6134c89190614c4d565b90505b92915050565b5f83600e0182600381106134e8576134e7614a0f565b5b015490505f84601101836003811061350357613502614a0f565b5b015490505f85600b015490505f828461351c91906150aa565b90505f81831161352c575f613539565b818361353891906155b0565b5b905060468361354891906150dd565b60648361355591906150dd565b10156135655750505050506135c1565b60288361357291906150dd565b60648561357f91906150dd565b1061359a576135908888885f6137fd565b50505050506135c1565b80846135a691906150aa565b8511156135bb576135ba88888860016137fd565b5b50505050505b505050565b5f816004015482600a01819055505f5b82600701805490508110156136d7575f8360070182815481106135fc576135fb614a0f565b5b905f5260205f20015f9054906101000a900473ffffffffffffffffffffffffffffffffffffffff1690505f846008015f8373ffffffffffffffffffffffffffffffffffffffff1673ffffffffffffffffffffffffffffffffffffffff1681526020019081526020015f205490508085600c015f8473ffffffffffffffffffffffffffffffffffffffff1673ffffffffffffffffffffffffffffffffffffffff1681526020019081526020015f20819055506136bb8186600a0154613453565b846136c691906150aa565b9350505080806001019150506135d6565b508082600b01819055505050565b6136ed6138eb565b15613724576040517f3ee5aeb500000000000000000000000000000000000000000000000000000000815260040160405180910390fd5b565b5f7f9b779b17422d0df92223018b32b4d1fa46e071723d6817e2486d003becc55f005f1b905090565b5f819050919050565b5f33905090565b5f805b600183111561378557600183901c9250808061377d9061499b565b915050613762565b670de0b6b3a76400008161379991906150dd565b915050919050565b5f8060026001846137b291906150aa565b6137bc9190614c4d565b90508291505b818110156137f75780915060028182856137dc9190614c4d565b6137e691906150aa565b6137f09190614c4d565b90506137c2565b50919050565b83601401826003811061381357613812614a0f565b5b602091828204019190069054906101000a900460ff1615613869576040517f08c379a000000000000000000000000000000000000000000000000000000000815260040161386090615765565b60405180910390fd5b600184601401836003811061388157613880614a0f565b5b602091828204019190066101000a81548160ff021916908315150217905550827fd0e20bc20137f27f0f61ae739e5a5fbcd5839910ab315b4feccb3dcd848c388283836040516138d2929190615792565b60405180910390a26138e5848383613907565b50505050565b5f60026138fe6138f9613726565b61374f565b5f015414905090565b5f805f90505b838110156139ba575f81036139475760646014866004015461392f91906150dd565b6139399190614c4d565b8261394491906150aa565b91505b6001810361397a576064601e866004015461396291906150dd565b61396c9190614c4d565b8261397791906150aa565b91505b600281036139ad5760646032866004015461399591906150dd565b61399f9190614c4d565b826139aa91906150aa565b91505b808060010191505061390d565b5081613bae57826009600b8111156139d5576139d4614869565b5b6139df91906150aa565b600b8111156139f1576139f0614869565b5b846006015f6101000a81548160ff0219169083600b811115613a1657613a15614869565b5b0217905550836005015460055f613a2b611cc3565b73ffffffffffffffffffffffffffffffffffffffff1673ffffffffffffffffffffffffffffffffffffffff1681526020019081526020015f205f828254613a7291906150aa565b925050819055505f818560040154613a8a91906155b0565b90505f5b8560070180549050811015613ba6575f866007018281548110613ab457613ab3614a0f565b5b905f5260205f20015f9054906101000a900473ffffffffffffffffffffffffffffffffffffffff1690505f8760040154886008015f8473ffffffffffffffffffffffffffffffffffffffff1673ffffffffffffffffffffffffffffffffffffffff1681526020019081526020015f205485613b2f91906150dd565b613b399190614c4d565b90505f811115613b97578060035f8473ffffffffffffffffffffffffffffffffffffffff1673ffffffffffffffffffffffffffffffffffffffff1681526020019081526020015f205f828254613b8f91906150aa565b925050819055505b50508080600101915050613a8e565b505050613d9c565b5f808403613c0657606460148660040154613bc991906150dd565b613bd39190614c4d565b90506004856006015f6101000a81548160ff0219169083600b811115613bfc57613bfb614869565b5b0217905550613d24565b60018403613c5e576064601e8660040154613c2191906150dd565b613c2b9190614c4d565b90506006856006015f6101000a81548160ff0219169083600b811115613c5457613c53614869565b5b0217905550613d23565b606460328660040154613c7191906150dd565b613c7b9190614c4d565b90506008856006015f6101000a81548160ff0219169083600b811115613ca457613ca3614869565b5b0217905550846005015460045f875f015f9054906101000a900473ffffffffffffffffffffffffffffffffffffffff1673ffffffffffffffffffffffffffffffffffffffff1673ffffffffffffffffffffffffffffffffffffffff1681526020019081526020015f205f828254613d1b91906150aa565b925050819055505b5b8060045f875f015f9054906101000a900473ffffffffffffffffffffffffffffffffffffffff1673ffffffffffffffffffffffffffffffffffffffff1673ffffffffffffffffffffffffffffffffffffffff1681526020019081526020015f205f828254613d9291906150aa565b9250508190555050505b505050565b6040518060600160405280600390602082028036833780820191505090505090565b6040518060600160405280600390602082028036833780820191505090505090565b60405180606001604052806003905b6060815260200190600190039081613df45790505090565b6040518060600160405280600390602082028036833780820191505090505090565b5f80fd5b5f80fd5b5f73ffffffffffffffffffffffffffffffffffffffff82169050919050565b5f613e5f82613e36565b9050919050565b613e6f81613e55565b8114613e79575f80fd5b50565b5f81359050613e8a81613e66565b92915050565b5f60208284031215613ea557613ea4613e2e565b5b5f613eb284828501613e7c565b91505092915050565b5f819050919050565b613ecd81613ebb565b82525050565b5f602082019050613ee65f830184613ec4565b92915050565b5f81519050919050565b5f82825260208201905092915050565b5f819050602082019050919050565b613f1e81613ebb565b82525050565b5f613f2f8383613f15565b60208301905092915050565b5f602082019050919050565b5f613f5182613eec565b613f5b8185613ef6565b9350613f6683613f06565b805f5b83811015613f96578151613f7d8882613f24565b9750613f8883613f3b565b925050600181019050613f69565b5085935050505092915050565b5f81519050919050565b5f82825260208201905092915050565b5f819050602082019050919050565b613fd581613e55565b82525050565b5f613fe68383613fcc565b60208301905092915050565b5f602082019050919050565b5f61400882613fa3565b6140128185613fad565b935061401d83613fbd565b805f5b8381101561404d5781516140348882613fdb565b975061403f83613ff2565b925050600181019050614020565b5085935050505092915050565b5f81519050919050565b5f82825260208201905092915050565b5f819050602082019050919050565b5f81519050919050565b5f82825260208201905092915050565b8281835e5f83830152505050565b5f601f19601f8301169050919050565b5f6140c582614083565b6140cf818561408d565b93506140df81856020860161409d565b6140e8816140ab565b840191505092915050565b5f6140fe83836140bb565b905092915050565b5f602082019050919050565b5f61411c8261405a565b6141268185614064565b93508360208202850161413885614074565b805f5b85811015614173578484038952815161415485826140f3565b945061415f83614106565b925060208a0199505060018101905061413b565b50829750879550505050505092915050565b5f610120820190508181035f83015261419e818c613f47565b905081810360208301526141b2818b613ffe565b905081810360408301526141c6818a614112565b905081810360608301526141da8189614112565b905081810360808301526141ee8188613f47565b905081810360a08301526142028187613f47565b905081810360c08301526142168186613f47565b905081810360e083015261422a8185614112565b905081810361010083015261423f8184613f47565b90509a9950505050505050505050565b61425881613ebb565b8114614262575f80fd5b50565b5f813590506142738161424f565b92915050565b5f6020828403121561428e5761428d613e2e565b5b5f61429b84828501614265565b91505092915050565b5f60039050919050565b5f81905092915050565b5f819050919050565b5f602082019050919050565b6142d6816142a4565b6142e081846142ae565b92506142eb826142b8565b805f5b8381101561431b5781516143028782613f24565b965061430d836142c1565b9250506001810190506142ee565b505050505050565b5f60039050919050565b5f81905092915050565b5f819050919050565b5f8115159050919050565b61435481614340565b82525050565b5f614365838361434b565b60208301905092915050565b5f602082019050919050565b61438681614323565b614390818461432d565b925061439b82614337565b805f5b838110156143cb5781516143b2878261435a565b96506143bd83614371565b92505060018101905061439e565b505050505050565b5f610160820190506143e75f830188613ec4565b6143f46020830187613ec4565b61440160408301866142cd565b61440e60a08301856142cd565b61441c61010083018461437d565b9695505050505050565b5f6020820190508181035f83015261443e8184613f47565b905092915050565b5f80fd5b5f80fd5b5f80fd5b5f8083601f84011261446757614466614446565b5b8235905067ffffffffffffffff8111156144845761448361444a565b5b6020830191508360018202830111156144a05761449f61444e565b5b9250929050565b5f805f805f606086880312156144c0576144bf613e2e565b5b5f86013567ffffffffffffffff8111156144dd576144dc613e32565b5b6144e988828901614452565b9550955050602086013567ffffffffffffffff81111561450c5761450b613e32565b5b61451888828901614452565b9350935050604061452b88828901614265565b9150509295509295909350565b5f805f6040848603121561454f5761454e613e2e565b5b5f61455c86828701614265565b935050602084013567ffffffffffffffff81111561457d5761457c613e32565b5b61458986828701614452565b92509250509250925092565b61459e81613e55565b82525050565b5f6020820190506145b75f830184614595565b92915050565b5f60039050919050565b5f81905092915050565b5f819050919050565b5f602082019050919050565b5f6145f0826145bd565b6145fa81856145c7565b93508360208202850161460c856145d1565b805f5b85811015614647578484038952815161462885826140f3565b9450614633836145da565b925060208a0199505060018101905061460f565b50829750879550505050505092915050565b5f6040820190508181035f83015261467181856145e6565b905081810360208301526146858184613ffe565b90509392505050565b6003811061469a575f80fd5b50565b5f813590506146ab8161468e565b92915050565b5f80604083850312156146c7576146c6613e2e565b5b5f6146d485828601614265565b92505060206146e58582860161469d565b9150509250929050565b5f82825260208201905092915050565b5f61470982614083565b61471381856146ef565b935061472381856020860161409d565b61472c816140ab565b840191505092915050565b5f60e08201905061474a5f83018a614595565b818103602083015261475c81896146ff565b9050818103604083015261477081886146ff565b905061477f6060830187613ec4565b61478c6080830186613ec4565b61479960a0830185613ec4565b81810360c08301526147ab81846146ff565b905098975050505050505050565b5f6020820190508181035f8301526147d181846146ff565b905092915050565b5f6040820190508181035f8301526147f18185613ffe565b905081810360208301526148058184613f47565b90509392505050565b5f806040838503121561482457614823613e2e565b5b5f61483185828601614265565b925050602061484285828601613e7c565b9150509250929050565b5f60039050919050565b5f81905092915050565b5f819050919050565b7f4e487b71000000000000000000000000000000000000000000000000000000005f52602160045260245ffd5b600381106148a7576148a6614869565b5b50565b5f8190506148b782614896565b919050565b5f6148c6826148aa565b9050919050565b6148d6816148bc565b82525050565b5f6148e783836148cd565b60208301905092915050565b5f602082019050919050565b6149088161484c565b6149128184614856565b925061491d82614860565b805f5b8381101561494d57815161493487826148dc565b965061493f836148f3565b925050600181019050614920565b505050505050565b5f6060820190506149685f8301846148ff565b92915050565b7f4e487b71000000000000000000000000000000000000000000000000000000005f52601160045260245ffd5b5f6149a582613ebb565b91507fffffffffffffffffffffffffffffffffffffffffffffffffffffffffffffffff82036149d7576149d661496e565b5b600182019050919050565b7f4e487b71000000000000000000000000000000000000000000000000000000005f52604160045260245ffd5b7f4e487b71000000000000000000000000000000000000000000000000000000005f52603260045260245ffd5b7f4e487b71000000000000000000000000000000000000000000000000000000005f52602260045260245ffd5b5f6002820490506001821680614a8057607f821691505b602082108103614a9357614a92614a3c565b5b50919050565b7f4e6f7468696e67000000000000000000000000000000000000000000000000005f82015250565b5f614acd6007836146ef565b9150614ad882614a99565b602082019050919050565b5f6020820190508181035f830152614afa81614ac1565b9050919050565b5f81905092915050565b50565b5f614b195f83614b01565b9150614b2482614b0b565b5f82019050919050565b5f614b3882614b0e565b9150819050919050565b7f43524541544f52000000000000000000000000000000000000000000000000005f82015250565b5f614b766007836146ef565b9150614b8182614b42565b602082019050919050565b5f604082019050614b9f5f830184613ec4565b8181036020830152614bb081614b6a565b905092915050565b7f536f667420636170203d203000000000000000000000000000000000000000005f82015250565b5f614bec600c836146ef565b9150614bf782614bb8565b602082019050919050565b5f6020820190508181035f830152614c1981614be0565b9050919050565b7f4e487b71000000000000000000000000000000000000000000000000000000005f52601260045260245ffd5b5f614c5782613ebb565b9150614c6283613ebb565b925082614c7257614c71614c20565b5b828204905092915050565b7f426f6e64203d20313025000000000000000000000000000000000000000000005f82015250565b5f614cb1600a836146ef565b9150614cbc82614c7d565b602082019050919050565b5f6020820190508181035f830152614cde81614ca5565b9050919050565b5f82905092915050565b5f819050815f5260205f209050919050565b5f6020601f8301049050919050565b5f82821b905092915050565b5f60088302614d4b7fffffffffffffffffffffffffffffffffffffffffffffffffffffffffffffffff82614d10565b614d558683614d10565b95508019841693508086168417925050509392505050565b5f819050919050565b5f614d90614d8b614d8684613ebb565b614d6d565b613ebb565b9050919050565b5f819050919050565b614da983614d76565b614dbd614db582614d97565b848454614d1c565b825550505050565b5f90565b614dd1614dc5565b614ddc818484614da0565b505050565b5b81811015614dff57614df45f82614dc9565b600181019050614de2565b5050565b601f821115614e4457614e1581614cef565b614e1e84614d01565b81016020851015614e2d578190505b614e41614e3985614d01565b830182614de1565b50505b505050565b5f82821c905092915050565b5f614e645f1984600802614e49565b1980831691505092915050565b5f614e7c8383614e55565b9150826002028217905092915050565b614e968383614ce5565b67ffffffffffffffff811115614eaf57614eae6149e2565b5b614eb98254614a69565b614ec4828285614e03565b5f601f831160018114614ef1575f8415614edf578287013590505b614ee98582614e71565b865550614f50565b601f198416614eff86614cef565b5f5b82811015614f2657848901358255600182019150602085019450602081019050614f01565b86831015614f435784890135614f3f601f891682614e55565b8355505b6001600288020188555050505b50505050505050565b828183375f83830152505050565b5f614f7283856146ef565b9350614f7f838584614f59565b614f88836140ab565b840190509392505050565b5f6060820190508181035f830152614fac818789614f67565b90508181036020830152614fc1818587614f67565b9050614fd06040830184613ec4565b9695505050505050565b7f4e6f742063726561746f720000000000000000000000000000000000000000005f82015250565b5f61500e600b836146ef565b915061501982614fda565b602082019050919050565b5f6020820190508181035f83015261503b81615002565b9050919050565b7f43616e206f6e6c792063616e63656c20696e2046756e64696e670000000000005f82015250565b5f615076601a836146ef565b915061508182615042565b602082019050919050565b5f6020820190508181035f8301526150a38161506a565b9050919050565b5f6150b482613ebb565b91506150bf83613ebb565b92508282019050808211156150d7576150d661496e565b5b92915050565b5f6150e782613ebb565b91506150f283613ebb565b925082820261510081613ebb565b915082820484148315176151175761511661496e565b5b5092915050565b7f4f6e6c79206f776e6572000000000000000000000000000000000000000000005f82015250565b5f615152600a836146ef565b915061515d8261511e565b602082019050919050565b5f6020820190508181035f83015261517f81615146565b9050919050565b7f4f574e45520000000000000000000000000000000000000000000000000000005f82015250565b5f6151ba6005836146ef565b91506151c582615186565b602082019050919050565b5f6040820190506151e35f830184613ec4565b81810360208301526151f4816151ae565b905092915050565b7f57726f6e672073746167650000000000000000000000000000000000000000005f82015250565b5f615230600b836146ef565b915061523b826151fc565b602082019050919050565b5f6020820190508181035f83015261525d81615224565b9050919050565b5f6040820190506152775f830186613ec4565b818103602083015261528a818486614f67565b9050949350505050565b7f494e564553544f520000000000000000000000000000000000000000000000005f82015250565b5f6152c86008836146ef565b91506152d382615294565b602082019050919050565b5f6040820190506152f15f830184613ec4565b8181036020830152615302816152bc565b905092915050565b7f4e6f7420696e766573746f7200000000000000000000000000000000000000005f82015250565b5f61533e600c836146ef565b91506153498261530a565b602082019050919050565b5f6020820190508181035f83015261536b81615332565b9050919050565b7f496e76616c696420766f7465206f7074696f6e000000000000000000000000005f82015250565b5f6153a66013836146ef565b91506153b182615372565b602082019050919050565b5f6020820190508181035f8301526153d38161539a565b9050919050565b7f46696e616c697a656400000000000000000000000000000000000000000000005f82015250565b5f61540e6009836146ef565b9150615419826153da565b602082019050919050565b5f6020820190508181035f83015261543b81615402565b9050919050565b7f566f7465640000000000000000000000000000000000000000000000000000005f82015250565b5f6154766005836146ef565b915061548182615442565b602082019050919050565b5f6020820190508181035f8301526154a38161546a565b9050919050565b6154b3816148bc565b82525050565b5f6040820190506154cc5f830185613ec4565b6154d960208301846154aa565b9392505050565b7f4e6f742066756e64696e670000000000000000000000000000000000000000005f82015250565b5f615514600b836146ef565b915061551f826154e0565b602082019050919050565b5f6020820190508181035f83015261554181615508565b9050919050565b7f5a65726f2076616c7565000000000000000000000000000000000000000000005f82015250565b5f61557c600a836146ef565b915061558782615548565b602082019050919050565b5f6020820190508181035f8301526155a981615570565b9050919050565b5f6155ba82613ebb565b91506155c583613ebb565b92508282039050818111156155dd576155dc61496e565b5b92915050565b7f416c72656164792066756e6465640000000000000000000000000000000000005f82015250565b5f615617600e836146ef565b9150615622826155e3565b602082019050919050565b5f6020820190508181035f8301526156448161560b565b9050919050565b7f526566756e64206661696c6564000000000000000000000000000000000000005f82015250565b5f61567f600d836146ef565b915061568a8261564b565b602082019050919050565b5f6020820190508181035f8301526156ac81615673565b9050919050565b7f4e6f7420766f74696e67000000000000000000000000000000000000000000005f82015250565b5f6156e7600a836146ef565b91506156f2826156b3565b602082019050919050565b5f6020820190508181035f830152615714816156db565b9050919050565b7f446f6e65000000000000000000000000000000000000000000000000000000005f82015250565b5f61574f6004836146ef565b915061575a8261571b565b602082019050919050565b5f6020820190508181035f83015261577c81615743565b9050919050565b61578c81614340565b82525050565b5f6040820190506157a55f830185613ec4565b6157b26020830184615783565b939250505056fea26469706673582212206441e2063e9ae3e1af47189fb6fc3d24df3cf93995805f9187cdddc60a3cbec664736f6c634300081a0033","linkReferences":{}},"methodIdentifiers":{"cancelProject(uint256)":"24941147","claimCreator()":"232adc65","claimInvestor()":"8a237ac5","claimOwner()":"3bd1adec","claimableCreator(address)":"04f02969","claimableInvestor(address)":"aae77126","claimableOwner(address)":"b4d63781","createProject(string,string,uint256)":"23c55448","fund(uint256)":"ca1d209d","getAllFundingProjects()":"1b745c26","getAllInvestments(uint256)":"e1769b1f","getClaimableCreator()":"744ddcaa","getClaimableInvestor()":"bafcf656","getMyInvestedProjects()":"0df529b8","getMyVotes(uint256,address)":"e48bfef2","getProjectCore(uint256)":"a948d05f","getProjectMeta(uint256)":"8e98435d","getProjectState(uint256)":"e0155714","getProjectVoting(uint256)":"109ba91c","owner()":"8da5cb5b","projectCount()":"36fbad26","renounceOwnership()":"715018a6","submitMilestone(uint256,string)":"476a119b","transferOwnership(address)":"f2fde38b","vote(uint256,uint8)":"943e8216"},"id":25}