{
  "abi": [
    {
      "type": "constructor",
      "inputs": [],
      "stateMutability": "nonpayable"
    },
    {
      "type": "function",
      "name": "cancelProject",
      "inputs": [
        {
          "name": "projectId",
          "type": "uint256",
          "internalType": "uint256"
        }
      ],
      "outputs": [],
      "stateMutability": "nonpayable"
    },
    {
      "type": "function",
      "name": "claimAllRefund",
      "inputs": [],
      "outputs": [],
      "stateMutability": "nonpayable"
    },
    {
      "type": "function",
      "name": "claimCreator",
      "inputs": [],
      "outputs": [],
      "stateMutability": "nonpayable"
    },
    {
      "type": "function",
      "name": "claimOwner",
      "inputs": [],
      "outputs": [],
      "stateMutability": "nonpayable"
    },
    {
      "type": "function",
      "name": "claimRefund",
      "inputs": [
        {
          "name": "projectId",
          "type": "uint256",
          "internalType": "uint256"
        }
      ],
      "outputs": [],
      "stateMutability": "nonpayable"
    },
    {
      "type": "function",
      "name": "claimableCreator",
      "inputs": [
        {
          "name": "",
          "type": "address",
          "internalType": "address"
        }
      ],
      "outputs": [
        {
          "name": "",
          "type": "uint256",
          "internalType": "uint256"
        }
      ],
      "stateMutability": "view"
    },
    {
      "type": "function",
      "name": "claimableOwner",
      "inputs": [
        {
          "name": "",
          "type": "address",
          "internalType": "address"
        }
      ],
      "outputs": [
        {
          "name": "",
          "type": "uint256",
          "internalType": "uint256"
        }
      ],
      "stateMutability": "view"
    },
    {
      "type": "function",
      "name": "createProject",
      "inputs": [
        {
          "name": "name",
          "type": "string",
          "internalType": "string"
        },
        {
          "name": "description",
          "type": "string",
          "internalType": "string"
        },
        {
          "name": "softCapWei",
          "type": "uint256",
          "internalType": "uint256"
        },
        {
          "name": "category",
          "type": "uint8",
          "internalType": "enum MilestoneFunding.Category"
        },
        {
          "name": "milestoneDescriptions",
          "type": "string[3]",
          "internalType": "string[3]"
        }
      ],
      "outputs": [],
      "stateMutability": "payable"
    },
    {
      "type": "function",
      "name": "fund",
      "inputs": [
        {
          "name": "projectId",
          "type": "uint256",
          "internalType": "uint256"
        }
      ],
      "outputs": [],
      "stateMutability": "payable"
    },
    {
      "type": "function",
      "name": "getAllClaimableRefund",
      "inputs": [],
      "outputs": [
        {
          "name": "totalRefund",
          "type": "uint256",
          "internalType": "uint256"
        }
      ],
      "stateMutability": "view"
    },
    {
      "type": "function",
      "name": "getAllFundingProjects",
      "inputs": [],
      "outputs": [
        {
          "name": "",
          "type": "uint256[]",
          "internalType": "uint256[]"
        }
      ],
      "stateMutability": "view"
    },
    {
      "type": "function",
      "name": "getAllInvestments",
      "inputs": [
        {
          "name": "projectId",
          "type": "uint256",
          "internalType": "uint256"
        }
      ],
      "outputs": [
        {
          "name": "",
          "type": "address[]",
          "internalType": "address[]"
        },
        {
          "name": "",
          "type": "uint256[]",
          "internalType": "uint256[]"
        }
      ],
      "stateMutability": "view"
    },
    {
      "type": "function",
      "name": "getClaimableCreator",
      "inputs": [],
      "outputs": [
        {
          "name": "",
          "type": "uint256",
          "internalType": "uint256"
        }
      ],
      "stateMutability": "view"
    },
    {
      "type": "function",
      "name": "getClaimableOwner",
      "inputs": [],
      "outputs": [
        {
          "name": "",
          "type": "uint256",
          "internalType": "uint256"
        }
      ],
      "stateMutability": "view"
    },
    {
      "type": "function",
      "name": "getMilestoneDescriptions",
      "inputs": [
        {
          "name": "projectId",
          "type": "uint256",
          "internalType": "uint256"
        }
      ],
      "outputs": [
        {
          "name": "",
          "type": "string[3]",
          "internalType": "string[3]"
        }
      ],
      "stateMutability": "view"
    },
    {
      "type": "function",
      "name": "getMyInvestedProjects",
      "inputs": [],
      "outputs": [
        {
          "name": "projectIds",
          "type": "uint256[]",
          "internalType": "uint256[]"
        },
        {
          "name": "creators",
          "type": "address[]",
          "internalType": "address[]"
        },
        {
          "name": "names",
          "type": "string[]",
          "internalType": "string[]"
        },
        {
          "name": "descriptions",
          "type": "string[]",
          "internalType": "string[]"
        },
        {
          "name": "categories",
          "type": "uint8[]",
          "internalType": "enum MilestoneFunding.Category[]"
        },
        {
          "name": "softCaps",
          "type": "uint256[]",
          "internalType": "uint256[]"
        },
        {
          "name": "totalFundeds",
          "type": "uint256[]",
          "internalType": "uint256[]"
        },
        {
          "name": "bonds",
          "type": "uint256[]",
          "internalType": "uint256[]"
        },
        {
          "name": "states",
          "type": "uint8[]",
          "internalType": "enum MilestoneFunding.ProjectState[]"
        },
        {
          "name": "investments",
          "type": "uint256[]",
          "internalType": "uint256[]"
        },
        {
          "name": "milestones",
          "type": "string[3][]",
          "internalType": "string[3][]"
        }
      ],
      "stateMutability": "view"
    },
    {
      "type": "function",
      "name": "getMyVotes",
      "inputs": [
        {
          "name": "projectId",
          "type": "uint256",
          "internalType": "uint256"
        },
        {
          "name": "user",
          "type": "address",
          "internalType": "address"
        }
      ],
      "outputs": [
        {
          "name": "",
          "type": "uint8[3]",
          "internalType": "enum MilestoneFunding.VoteOption[3]"
        }
      ],
      "stateMutability": "view"
    },
    {
      "type": "function",
      "name": "getProjectCore",
      "inputs": [
        {
          "name": "projectId",
          "type": "uint256",
          "internalType": "uint256"
        }
      ],
      "outputs": [
        {
          "name": "creator",
          "type": "address",
          "internalType": "address"
        },
        {
          "name": "name",
          "type": "string",
          "internalType": "string"
        },
        {
          "name": "description",
          "type": "string",
          "internalType": "string"
        },
        {
          "name": "category",
          "type": "uint8",
          "internalType": "enum MilestoneFunding.Category"
        },
        {
          "name": "softCapWei",
          "type": "uint256",
          "internalType": "uint256"
        },
        {
          "name": "totalFunded",
          "type": "uint256",
          "internalType": "uint256"
        },
        {
          "name": "bond",
          "type": "uint256",
          "internalType": "uint256"
        },
        {
          "name": "state",
          "type": "uint8",
          "internalType": "enum MilestoneFunding.ProjectState"
        }
      ],
      "stateMutability": "view"
    },
    {
      "type": "function",
      "name": "getProjectMeta",
      "inputs": [
        {
          "name": "projectId",
          "type": "uint256",
          "internalType": "uint256"
        }
      ],
      "outputs": [
        {
          "name": "milestoneHashes",
          "type": "string[3]",
          "internalType": "string[3]"
        },
        {
          "name": "investors",
          "type": "address[]",
          "internalType": "address[]"
        }
      ],
      "stateMutability": "view"
    },
    {
      "type": "function",
      "name": "getProjectState",
      "inputs": [
        {
          "name": "projectId",
          "type": "uint256",
          "internalType": "uint256"
        }
      ],
      "outputs": [
        {
          "name": "",
          "type": "string",
          "internalType": "string"
        }
      ],
      "stateMutability": "view"
    },
    {
      "type": "function",
      "name": "getProjectVoting",
      "inputs": [
        {
          "name": "projectId",
          "type": "uint256",
          "internalType": "uint256"
        }
      ],
      "outputs": [
        {
          "name": "snapshotTotalFund",
          "type": "uint256",
          "internalType": "uint256"
        },
        {
          "name": "totalWeight",
          "type": "uint256",
          "internalType": "uint256"
        },
        {
          "name": "yesWeight",
          "type": "uint256[3]",
          "internalType": "uint256[3]"
        },
        {
          "name": "noWeight",
          "type": "uint256[3]",
          "internalType": "uint256[3]"
        },
        {
          "name": "finalized",
          "type": "bool[3]",
          "internalType": "bool[3]"
        }
      ],
      "stateMutability": "view"
    },
    {
      "type": "function",
      "name": "owner",
      "inputs": [],
      "outputs": [
        {
          "name": "",
          "type": "address",
          "internalType": "address"
        }
      ],
      "stateMutability": "view"
    },
    {
      "type": "function",
      "name": "projectCount",
      "inputs": [],
      "outputs": [
        {
          "name": "",
          "type": "uint256",
          "internalType": "uint256"
        }
      ],
      "stateMutability": "view"
    },
    {
      "type": "function",
      "name": "refundClaimed",
      "inputs": [
        {
          "name": "",
          "type": "uint256",
          "internalType": "uint256"
        },
        {
          "name": "",
          "type": "address",
          "internalType": "address"
        }
      ],
      "outputs": [
        {
          "name": "",
          "type": "bool",
          "internalType": "bool"
        }
      ],
      "stateMutability": "view"
    },
    {
      "type": "function",
      "name": "refundPool",
      "inputs": [
        {
          "name": "",
          "type": "uint256",
          "internalType": "uint256"
        }
      ],
      "outputs": [
        {
          "name": "",
          "type": "uint256",
          "internalType": "uint256"
        }
      ],
      "stateMutability": "view"
    },
    {
      "type": "function",
      "name": "renounceOwnership",
      "inputs": [],
      "outputs": [],
      "stateMutability": "nonpayable"
    },
    {
      "type": "function",
      "name": "snapshotTotalWeight",
      "inputs": [
        {
          "name": "",
          "type": "uint256",
          "internalType": "uint256"
        }
      ],
      "outputs": [
        {
          "name": "",
          "type": "uint256",
          "internalType": "uint256"
        }
      ],
      "stateMutability": "view"
    },
    {
      "type": "function",
      "name": "snapshotWeight",
      "inputs": [
        {
          "name": "",
          "type": "uint256",
          "internalType": "uint256"
        },
        {
          "name": "",
          "type": "address",
          "internalType": "address"
        }
      ],
      "outputs": [
        {
          "name": "",
          "type": "uint256",
          "internalType": "uint256"
        }
      ],
      "stateMutability": "view"
    },
    {
      "type": "function",
      "name": "submitMilestone",
      "inputs": [
        {
          "name": "projectId",
          "type": "uint256",
          "internalType": "uint256"
        },
        {
          "name": "ipfsHash",
          "type": "string",
          "internalType": "string"
        }
      ],
      "outputs": [],
      "stateMutability": "nonpayable"
    },
    {
      "type": "function",
      "name": "transferOwnership",
      "inputs": [
        {
          "name": "newOwner",
          "type": "address",
          "internalType": "address"
        }
      ],
      "outputs": [],
      "stateMutability": "nonpayable"
    },
    {
      "type": "function",
      "name": "vote",
      "inputs": [
        {
          "name": "projectId",
          "type": "uint256",
          "internalType": "uint256"
        },
        {
          "name": "option",
          "type": "uint8",
          "internalType": "enum MilestoneFunding.VoteOption"
        }
      ],
      "outputs": [],
      "stateMutability": "nonpayable"
    },
    {
      "type": "event",
      "name": "Claim",
      "inputs": [
        {
          "name": "user",
          "type": "address",
          "indexed": true,
          "internalType": "address"
        },
        {
          "name": "amount",
          "type": "uint256",
          "indexed": false,
          "internalType": "uint256"
        },
        {
          "name": "role",
          "type": "string",
          "indexed": false,
          "internalType": "string"
        }
      ],
      "anonymous": false
    },
    {
      "type": "event",
      "name": "Funded",
      "inputs": [
        {
          "name": "projectId",
          "type": "uint256",
          "indexed": true,
          "internalType": "uint256"
        },
        {
          "name": "investor",
          "type": "address",
          "indexed": true,
          "internalType": "address"
        },
        {
          "name": "amount",
          "type": "uint256",
          "indexed": false,
          "internalType": "uint256"
        }
      ],
      "anonymous": false
    },
    {
      "type": "event",
      "name": "MilestoneSubmitted",
      "inputs": [
        {
          "name": "projectId",
          "type": "uint256",
          "indexed": true,
          "internalType": "uint256"
        },
        {
          "name": "milestone",
          "type": "uint256",
          "indexed": false,
          "internalType": "uint256"
        },
        {
          "name": "ipfsHash",
          "type": "string",
          "indexed": false,
          "internalType": "string"
        }
      ],
      "anonymous": false
    },
    {
      "type": "event",
      "name": "OwnershipTransferred",
      "inputs": [
        {
          "name": "previousOwner",
          "type": "address",
          "indexed": true,
          "internalType": "address"
        },
        {
          "name": "newOwner",
          "type": "address",
          "indexed": true,
          "internalType": "address"
        }
      ],
      "anonymous": false
    },
    {
      "type": "event",
      "name": "ProjectCancelled",
      "inputs": [
        {
          "name": "projectId",
          "type": "uint256",
          "indexed": true,
          "internalType": "uint256"
        }
      ],
      "anonymous": false
    },
    {
      "type": "event",
      "name": "ProjectCreated",
      "inputs": [
        {
          "name": "projectId",
          "type": "uint256",
          "indexed": true,
          "internalType": "uint256"
        },
        {
          "name": "name",
          "type": "string",
          "indexed": false,
          "internalType": "string"
        },
        {
          "name": "softCapWei",
          "type": "uint256",
          "indexed": false,
          "internalType": "uint256"
        },
        {
          "name": "creator",
          "type": "address",
          "indexed": true,
          "internalType": "address"
        }
      ],
      "anonymous": false
    },
    {
      "type": "event",
      "name": "VoteFinalized",
      "inputs": [
        {
          "name": "projectId",
          "type": "uint256",
          "indexed": true,
          "internalType": "uint256"
        },
        {
          "name": "milestone",
          "type": "uint256",
          "indexed": false,
          "internalType": "uint256"
        },
        {
          "name": "passed",
          "type": "bool",
          "indexed": false,
          "internalType": "bool"
        }
      ],
      "anonymous": false
    },
    {
      "type": "event",
      "name": "Voted",
      "inputs": [
        {
          "name": "projectId",
          "type": "uint256",
          "indexed": true,
          "internalType": "uint256"
        },
        {
          "name": "voter",
          "type": "address",
          "indexed": true,
          "internalType": "address"
        },
        {
          "name": "milestone",
          "type": "uint256",
          "indexed": false,
          "internalType": "uint256"
        },
        {
          "name": "vote",
          "type": "uint8",
          "indexed": false,
          "internalType": "enum MilestoneFunding.VoteOption"
        }
      ],
      "anonymous": false
    },
    {
      "type": "error",
      "name": "OwnableInvalidOwner",
      "inputs": [
        {
          "name": "owner",
          "type": "address",
          "internalType": "address"
        }
      ]
    },
    {
      "type": "error",
      "name": "OwnableUnauthorizedAccount",
      "inputs": [
        {
          "name": "account",
          "type": "address",
          "internalType": "address"
        }
      ]
    },
    {
      "type": "error",
      "name": "ReentrancyGuardReentrantCall",
      "inputs": []
    }
  ],
  "bytecode": {
    "object": "0x6080806040523460955733156082575f8054336001600160a01b0319821681178355916001600160a01b03909116907f8be0079c531659141344cd1fd0a4f28419497f9722a3daafe3b4186f6b6457e09080a360017f9b779b17422d0df92223018b32b4d1fa46e071723d6817e2486d003becc55f005561323e908161009a8239f35b631e4fbdf760e01b5f525f60045260245ffd5b5f80fdfe6080806040526004361015610012575f80fd5b5f3560e01c90816304f02969146123de575080630df529b814611f185780630e8a01bc14611eee578063109ba91c14611de85780631b745c2614611d00578063223ecf0d14611982578063232adc65146118e45780632494114714611786578063275fd95b1461175f57806336fbad26146117425780633bd1adec14611663578063476a119b146113aa5780635b7baf641461118e578063715018a614611137578063744ddcaa146111105780637d8022c0146110c7578063881dc9311461109d5780638da5cb5b146110765780638e98435d14610ff1578063943e821614610d3d578063a325af9214610cf9578063a5bb2c0f14610c30578063a948d05f14610b75578063af9a81ff146109d8578063b4d63781146109a0578063ca1d209d14610663578063e0155714146103d4578063e1769b1f14610328578063e48bfef214610265578063f24f5c4c146101fa5763f2fde38b14610171575f80fd5b346101f65760203660031901126101f65761018a612412565b610192612bac565b6001600160a01b031680156101e3575f80546001600160a01b03198116831782556001600160a01b0316907f8be0079c531659141344cd1fd0a4f28419497f9722a3daafe3b4186f6b6457e09080a3005b631e4fbdf760e01b5f525f60045260245ffd5b5f80fd5b346101f65760203660031901126101f657604051606061021a8183612605565b5f5b818110610257576004355f52600260205261025361023f601560405f20016127ae565b604051918291602083526020830190612543565b0390f35b80826020928501520161021c565b346101f65760403660031901126101f65761027e612428565b6060908160405161028f8282612605565b3690376004355f526002602052600d60405f20019060018060a01b03165f5260205260405f206102ed60405191546102ca8360ff83166125d6565b6102dd6020840160ff8360081c166125d6565b60ff604084019160101c166125d6565b6102f78282612605565b604051905f825b6003821061030b57505050f35b6020808261031c60019487516125d6565b019301910190916102fe565b346101f65760203660031901126101f6576004355f52600260205260405f206008810180546103568161263f565b926009015f5b828110610396576103888561025361037387612ab3565b91604051938493604085526040850190612471565b90838203602085015261243e565b806103a360019286612b5f565b838060a01b0391549060031b1c16828060a01b03165f528260205260405f20546103cd82886126c4565b520161035c565b346101f65760203660031901126101f6576004355f52600260205260405f2060405190610180820182811067ffffffffffffffff82111761064f57604052600760409182516104238482612605565b600981526810d85b98d95b1b195960ba1b6020820152845282516104478482612605565b8281526646756e64696e6760c81b60208201526020850152825161046b8482612605565b600e81526d4275696c64696e6753746167653160901b60208201528385015282516104968482612605565b600c81526b566f74696e67526f756e643160a01b6020820152606085015282516104c08482612605565b600d81526c4661696c757265526f756e643160981b6020820152608085015282516104eb8482612605565b600e81526d213ab4b63234b733a9ba30b3b29960911b602082015260a085015282516105178482612605565b600c81526b2b37ba34b733a937bab7321960a11b602082015260c085015282516105418482612605565b600d81526c2330b4b63ab932a937bab7321960991b602082015260e0850152825161056c8482612605565b600e81526d4275696c64696e6753746167653360901b602082015261010085015282516105998482612605565b600c81526b566f74696e67526f756e643360a01b602082015261012085015282516105c48482612605565b600d81526c4661696c757265526f756e643360981b602082015261014085015282516105f08482612605565b600981526810dbdb5c1b195d195960ba1b6020820152610160850152015491600c60ff8416101561063b57611fe06102539360051b16015190519182916020835260208301906124ad565b634e487b7160e01b5f52602160045260245ffd5b634e487b7160e01b5f52604160045260245ffd5b60203660031901126101f65760043561067a612b74565b805f52600260205260405f2090600782019160ff835416600c81101561063b5760010361096d57655af3107a40003410610928576004810180546106c46005840191825490612a97565b9485156108f25734925f968034116108dc575b50335f908152600a8601602081905260409091205460ff161561087a575b50600985019360018060a01b0333165f528460205260405f20610719828254612a8a565b9055610726818554612a8a565b809455604051908152867f38c48552690c96ec2872092ac1db6c19fb59f5a8c5b49bbf41ed4886d0ca692660203393a3548210156107ce575b50505050508061077d575b60015f805160206131e983398151915255005b5f80808093335af161078d612a21565b5015610799578061076a565b60405162461bcd60e51b815260206004820152600d60248201526c1499599d5b990819985a5b1959609a1b6044820152606490fd5b600b840191825593945f9360080190845b82548610156108525761084a6001916107f88886612b5f565b848060a01b0391549060031b1c1690838060a01b0382165f528760205261082560405f2054885490612e98565b918b5f52600360205260405f2090858060a01b03165f526020528160405f2055612a8a565b9501946107df565b945095925050505f52600460205260405f2055600260ff19825416179055818080808061075f565b335f90815260209190915260409020805460ff191660011790556008850180546801000000000000000081101561064f576108ba91600182018155612b5f565b81546001600160a01b0360039290921b91821b19163390911b179055876106f5565b90965092506108eb8334612a97565b95876106d7565b60405162461bcd60e51b815260206004820152600e60248201526d105b1c9958591e48199d5b99195960921b6044820152606490fd5b60405162461bcd60e51b815260206004820152601b60248201527f56616c7565206d757374206265203e3d20302e303030312045544800000000006044820152606490fd5b60405162461bcd60e51b815260206004820152600b60248201526a4e6f742066756e64696e6760a81b6044820152606490fd5b346101f65760203660031901126101f6576001600160a01b036109c1612412565b165f526006602052602060405f2054604051908152f35b346101f6575f3660031901126101f6576109f0612b74565b6001335f5b6001548311610ad357825f52600260205260405f2090610a1482612e3e565b15610ac857835f52600860205260405f20835f5260205260ff60405f205416610ac8576009820191835f528260205260405f20548015610abb5791610a7c610ab594926005610a73610aaf968a5f52600760205260405f20549061299c565b9101549061282e565b91865f52600860205260405f20865f5260205260405f20600160ff19825416179055855f526020525f6040812055612a8a565b926125e3565b916109f5565b505092610ab591506125e3565b92610ab591506125e3565b8015610b3d575f80808084335af1610ae9612a21565b50156101f65760405190815260406020820152600b60408201526a1253959154d513d490531360aa1b60608201525f805160206131c983398151915260803392a260015f805160206131e983398151915255005b60405162461bcd60e51b815260206004820152601060248201526f4e6f7468696e6720746f20636c61696d60801b6044820152606490fd5b346101f65760203660031901126101f6576004355f52600260205260405f2060018060a01b0381541660ff6003830154166102536004840154600585015460068601549060ff60078801541692610c17610c0c610be06002610bd960018d01612710565b9b01612710565b610bfe6040519b8c9b8c5261010060208d01526101008c01906124ad565b908a820360408c01526124ad565b966060890190612529565b608087015260a086015260c085015260e0840190612536565b346101f6575f3660031901126101f657600180545f90335b81841115610c5b57602083604051908152f35b9091835f52600260205260405f20610c7281612e3e565b15610cee57845f52600860205260405f20835f5260205260ff60405f205416610cee57825f526009810160205260405f20548015610ce25791610cce610cd4926005610a73610cda968a5f52600760205260405f20549061299c565b90612a8a565b936125e3565b929190610c48565b505092610cda906125e3565b5092610cda906125e3565b346101f65760403660031901126101f657610d12612428565b6004355f52600360205260405f209060018060a01b03165f52602052602060405f2054604051908152f35b346101f65760403660031901126101f65760243560043560038210156101f657805f52600260205260405f209060018060a01b0333165f52600a820160205260ff60405f20541615610fbd575f916001841493848015610fb0575b610da28591612b04565b61063b5780151580610fa2575b610db890612b04565b610dc182612bd2565b9360ff610dd18660148601612b46565b90549060031b1c16610f7157600d830160018060a01b0333165f528060205260ff610dff8760405f20612b46565b90549060031b1c16600381101561063b57610f445760018060a01b0333165f52602052610e2f8560405f20612b46565b909161063b5781549060031b9060ff808516831b921b1916179055825f52600360205260405f2060018060a01b0333165f5260205260405f20548015610f0c57610ef19515610ef357610eb190610e9b610e8c87600e8701612aa4565b91909283548360031b1c612a8a565b82545f1960039390931b92831b1916911b179055565b610ec56040519185835260208301906125d6565b827ffe2287fa52fad81788ac4645bf0bae4badc927d35f68ab09bc950ca8e0f0168960403393a3612c95565b005b610f0790610e9b610e8c8760118701612aa4565b610eb1565b60405162461bcd60e51b815260206004820152601060248201526f139bc81d9bdd1a5b99c81dd95a59da1d60821b6044820152606490fd5b60405162461bcd60e51b8152602060048201526005602482015264159bdd195960da1b6044820152606490fd5b60405162461bcd60e51b8152602060048201526009602482015268119a5b985b1a5e995960ba1b6044820152606490fd5b505f93506002811115610daf565b505f935060028114610d98565b60405162461bcd60e51b815260206004820152600c60248201526b2737ba1034b73b32b9ba37b960a11b6044820152606490fd5b346101f65760203660031901126101f65760405160606110118183612605565b5f5b818110611068576004355f52600260205261105a60405f20610253611046600861103f601885016127ae565b9301612ab3565b604051938493604085526040850190612543565b908382036020850152612471565b808260209285015201611013565b346101f6575f3660031901126101f6575f546040516001600160a01b039091168152602090f35b346101f65760203660031901126101f6576004355f526004602052602060405f2054604051908152f35b346101f65760403660031901126101f6576110e0612428565b6004355f52600860205260405f209060018060a01b03165f52602052602060ff60405f2054166040519015158152f35b346101f6575f3660031901126101f657335f526005602052602060405f2054604051908152f35b346101f6575f3660031901126101f65761114f612bac565b5f80546001600160a01b0319811682556001600160a01b03167f8be0079c531659141344cd1fd0a4f28419497f9722a3daafe3b4186f6b6457e08280a3005b346101f65760203660031901126101f6576004356111aa612b74565b805f52600260205260405f2060ff600782015416600c811015908161063b57801591821561139d575b821561138c575b821561137b575b50501561133f575f82815260086020908152604080832033845290915290205460ff1661130857335f908152600982016020819052604090912054909181156112d3576005610a7361124093865f52600760205260405f20549061299c565b5f92835260086020908152604080852033808752908352818620805460ff19166001179055939091528320839055919081908190819085905af1611282612a21565b50156101f65760405190815260406020820152600860408201526724a72b22a9aa27a960c11b60608201525f805160206131c983398151915260803392a260015f805160206131e983398151915255005b60405162461bcd60e51b815260206004820152600d60248201526c139bc81a5b9d995cdd1b595b9d609a1b6044820152606490fd5b60405162461bcd60e51b815260206004820152600f60248201526e105b1c9958591e4818db185a5b5959608a1b6044820152606490fd5b60405162461bcd60e51b8152602060048201526014602482015273526566756e64206e6f7420617661696c61626c6560601b6044820152606490fd5b90915061063b57600a1483806111e1565b80925061063b5760078114916111da565b506004811491505f6111d3565b346101f65760403660031901126101f65760043560243567ffffffffffffffff81116101f6576113de9036906004016125a8565b825f52600260205260405f206113fe60018060a01b038254163314612a50565b811561162957608082116115ef57602e821461152a575b6007810160ff815416600c81101561063b57600281036114b1575061144c9060185f938492600360ff198254161790555b01612aa4565b61149e5783611480847f556e3b296d5e8c8bab27684b52ae96905507befd2d188ce6f4453a6717dd9c00966114999461289b565b60405193849384526040602085015260408401916129af565b0390a2005b634e487b7160e01b5f525f60045260245ffd5b600581036114d5575061144c9060186001938492600660ff19825416179055611446565b6008036114f75761144c9060186002938492600960ff19825416179055611446565b60405162461bcd60e51b815260206004820152600b60248201526a57726f6e6720737461676560a81b6044820152606490fd5b61153382612a05565b6115406040519182612605565b8281526020810136848601116101f657838582375f602085840101528151156115db57516001600160f81b031916605160f81b1490816115b5575b506114155760405162461bcd60e51b815260206004820152600d60248201526c0496e76616c696420434944763609c1b6044820152606490fd5b80915051600110156115db57602101516001600160f81b031916606d60f81b148561157b565b634e487b7160e01b5f52603260045260245ffd5b60405162461bcd60e51b815260206004820152601260248201527149504653206861736820746f6f206c6f6e6760701b6044820152606490fd5b60405162461bcd60e51b815260206004820152601260248201527112541194c81a185cda081c995c5d5a5c995960721b6044820152606490fd5b346101f6575f3660031901126101f65761167b612b74565b5f546001600160a01b0316330361171057335f52600660205260405f20546116a48115156129cf565b335f5260066020525f60408120555f80808084335af16116c2612a21565b50156101f65760405190815260406020820152600560408201526427aba722a960d91b60608201525f805160206131c983398151915260803392a260015f805160206131e983398151915255005b60405162461bcd60e51b815260206004820152600a60248201526927b7363c9037bbb732b960b11b6044820152606490fd5b346101f6575f3660031901126101f6576020600154604051908152f35b346101f6575f3660031901126101f657335f526006602052602060405f2054604051908152f35b346101f65760203660031901126101f6576004356117a2612b74565b805f52600260205260405f206117c260018060a01b038254163314612a50565b600781019160ff835416600c81101561063b5760010361189f575f9260ff198154169055600660058301549201918254908015851461185a575083546001600160a01b031684526006602052604084208054909161181f91612a8a565b90555b7fe3805ed669490875ae87c5c8b1ad6ecca0e5e67305a833926d0d4317c4822fc08380a25560015f805160206131e983398151915255005b610cce8261188d9360011c9060018060a01b038854168852600660205260408820611886838254612a8a565b9055612a97565b81845260076020526040842055611822565b60405162461bcd60e51b815260206004820152601a60248201527f43616e206f6e6c792063616e63656c20696e2046756e64696e670000000000006044820152606490fd5b346101f6575f3660031901126101f6576118fc612b74565b335f52600560205260405f20546119148115156129cf565b335f5260056020525f60408120555f80808084335af1611932612a21565b50156101f65760405190815260406020820152600760408201526621a922a0aa27a960c91b60608201525f805160206131c983398151915260803392a260015f805160206131e983398151915255005b60a03660031901126101f65760043567ffffffffffffffff81116101f6576119ae9036906004016125a8565b9060243567ffffffffffffffff81116101f6576119cf9036906004016125a8565b60443593916064359160088310156101f6576084359267ffffffffffffffff84116101f65783600401936064369101116101f657655af3107a40008710611cbb57600a870491823403611c89578015611c4d576104008111611c11575f5b60038110611b6f575060078211611b3757611a8b90611a4d6001546125e3565b806001555f52600260205260405f2094336bffffffffffffffffffffffff60a01b875416178655611a82888a6001890161289b565b6002860161289b565b600383019060ff80198354169116179055856004830155600682015560078101600160ff1982541617905560158291015f915b60038310611b115786867fbb4637bbc1f7f92783410fb90807fcced52c1562da987ac649876f09a750a5e387611b0360015493604051926040845260408401916129af565b9360208201528033940390a3005b6001602082611b2b611b2484958961284c565b908761289b565b01920192019190611abe565b60405162461bcd60e51b815260206004820152601060248201526f496e76616c69642063617465676f727960801b6044820152606490fd5b611b79818761287f565b905015611bcc57610100611b8d828861287f565b905011611b9c57600101611a2d565b60405162461bcd60e51b8152602060048201526008602482015267546f6f206c6f6e6760c01b6044820152606490fd5b60405162461bcd60e51b815260206004820152601b60248201527f456d707479206d696c6573746f6e65206465736372697074696f6e00000000006044820152606490fd5b60405162461bcd60e51b81526020600482015260146024820152734465736372697074696f6e20746f6f206c6f6e6760601b6044820152606490fd5b60405162461bcd60e51b815260206004820152601460248201527311195cd8dc9a5c1d1a5bdb881c995c5d5a5c995960621b6044820152606490fd5b60405162461bcd60e51b815260206004820152600a602482015269426f6e64203d2031302560b01b6044820152606490fd5b60405162461bcd60e51b815260206004820152601e60248201527f536f667420636170206d757374206265203e3d20302e303030312045544800006044820152606490fd5b346101f6575f3660031901126101f6575f600190600154915b82811115611da15750611d2b9061263f565b5f9160015b81811115611d4e57604051602080825281906102539082018661243e565b805f52600260205260ff600760405f20015416600c81101561063b57600114611d80575b611d7b906125e3565b611d30565b92611d998185611d93611d7b94876126c4565b526125e3565b939050611d72565b805f52600260205260ff600760405f20015416600c81101561063b57600114611dd3575b611dce906125e3565b611d19565b90611de0611dce916125e3565b919050611dc5565b346101f65760203660031901126101f657600435606080604051611e0c8282612605565b36903780604051611e1d8282612605565b36903780604051611e2e8282612605565b369037815f526002602052611ec160405f2091600b830154935f526004602052611eb760405f2054611e62600e86016127fa565b90611ea2611e72601188016127fa565b9460ff601460405199015481811615158a52818160081c16151560208b015260101c161515604089015287612605565b60405196875260208701526040860190612581565b60a0840190612581565b5f61010083015b60038210611ed65761016084f35b60208060019285511515815201930191019091611ec8565b346101f65760203660031901126101f6576004355f526007602052602060405f2054604051908152f35b346101f6575f3660031901126101f6575f600190600154915b828111156123975750611f438161263f565b611f4c82612627565b92611f5a6040519485612605565b828452601f19611f6984612627565b01366020860137611f798361268d565b611f828461268d565b611f8b85612627565b611f986040519182612605565b858152611fa486612627565b601f1901366020830137611fb78661263f565b611fc08761263f565b92611fca8861263f565b94611fd489612627565b97611fe2604051998a612605565b898952611fee8a612627565b601f19013660208b01376120018a61263f565b9761200b8b612627565b9a6120196040519c8d612605565b808c52612028601f1991612627565b015f5b8181106123505750505f60015b828111156121de575050509161208d61209b9261207f6120719c9b9a99989796956040519e8f9e8f92610160845261016084019061243e565b916020818403910152612471565b8c810360408e0152906124d1565b908a820360608c01526124d1565b88810360808a0152602080845192838152019301905f5b8181106121af57505050916120d6826120f295948a6120e4950360a08c015261243e565b9088820360c08a015261243e565b9086820360e088015261243e565b848103610100860152602080845192838152019301905f5b81811061218857505050906121279184820361012086015261243e565b828103610140840152815180825260208201916020808360051b8301019401925f915b8383106121575786860387f35b919395509193602080612176600193601f198682030187528951612543565b9701930193019092869594929361214a565b9194955091926020808261219f6001948951612536565b019501910191869594939261210a565b91949596979899509192602080826121ca6001948951612529565b0195019101918a99989796959493926120b2565b805f9e9495969e526002602052600a60405f200160018060a01b0333165f526020528d60ff60405f205416612222575b50612218906125e3565b9c9493929c612038565b9091825f5260026020526122958160405f209385612240838b6126c4565b5284546001600160a01b0316612256838a6126c4565b5261226360018601612710565b61226d838c6126c4565b52612278828b6126c4565b5061228560028601612710565b61228f83836126c4565b526126c4565b5060ff600383015416906122a9818b6126c4565b91600881101561063b578e925260048301546122c5828b6126c4565b5260058301546122d5828d6126c4565b5260068301546122e5828e6126c4565b526122f88160ff600786015416936126c4565b92600c83101561063b578f82908f60156123419461228592612347986122189a5260018060a01b0333165f526009820160205261233a8660405f2054926126c4565b52016127ae565b506125e3565b9190508d61220e565b5f9d9394959d50604051612365606082612605565b8d5f5b60608110612386575090602083819493010152019c9493929c61202b565b6060838201528f9150602001612368565b5f818152600260209081526040808320338452600a0190915290205460ff166123c9575b6123c4906125e3565b611f31565b906123d66123c4916125e3565b9190506123bb565b346101f65760203660031901126101f6576020906001600160a01b03612402612412565b165f526005825260405f20548152f35b600435906001600160a01b03821682036101f657565b602435906001600160a01b03821682036101f657565b90602080835192838152019201905f5b81811061245b5750505090565b825184526020938401939092019160010161244e565b90602080835192838152019201905f5b81811061248e5750505090565b82516001600160a01b0316845260209384019390920191600101612481565b805180835260209291819084018484015e5f828201840152601f01601f1916010190565b9080602083519182815201916020808360051b8301019401925f915b8383106124fc57505050505090565b909192939460208061251a600193601f1986820301875289516124ad565b970193019301919392906124ed565b90600882101561063b5752565b90600c82101561063b5752565b60608201915f815b6003821061255a575050505090565b90919293602080612573838760019503865288516124ad565b96019201920190929161254b565b905f905b6003821061259257505050565b6020806001928551815201930191019091612585565b9181601f840112156101f65782359167ffffffffffffffff83116101f657602083818601950101116101f657565b90600382101561063b5752565b5f1981146125f15760010190565b634e487b7160e01b5f52601160045260245ffd5b90601f8019910116810190811067ffffffffffffffff82111761064f57604052565b67ffffffffffffffff811161064f5760051b60200190565b9061264982612627565b6126566040519182612605565b8281528092612667601f1991612627565b0190602036910137565b5f5b82811061267f57505050565b606082820152602001612673565b906126c261269a83612627565b6126a76040519182612605565b838152602081946126ba601f1991612627565b019101612671565b565b80518210156115db5760209160051b010190565b90600182811c92168015612706575b60208310146126f257565b634e487b7160e01b5f52602260045260245ffd5b91607f16916126e7565b9060405191825f825492612723846126d8565b808452936001811690811561278c5750600114612748575b506126c292500383612605565b90505f9291925260205f20905f915b8183106127705750509060206126c2928201015f61273b565b6020919350806001915483858901015201910190918492612757565b9050602092506126c294915060ff191682840152151560051b8201015f61273b565b90604051916060830183811067ffffffffffffffff82111761064f576040525f835b600382106127dd57505050565b6001602081926127ec86612710565b8152019301910190916127d0565b60405191905f835b60038210612818575050506126c2606083612605565b6001602081928554815201930191019091612802565b8115612838570490565b634e487b7160e01b5f52601260045260245ffd5b903590601e19813603018212156101f6570180359067ffffffffffffffff82116101f6576020019181360383136101f657565b60038210156115db576128979160051b81019061284c565b9091565b90929167ffffffffffffffff811161064f576128b782546126d8565b601f8111612957575b505f601f82116001146128f857819293945f926128ed575b50508160011b915f199060031b1c1916179055565b013590505f806128d8565b601f19821694835f5260205f20915f5b87811061293f575083600195969710612926575b505050811b019055565b01355f19600384901b60f8161c191690555f808061291c565b90926020600181928686013581550194019101612908565b825f5260205f20601f830160051c81019160208410612992575b601f0160051c01905b81811061298757506128c0565b5f815560010161297a565b9091508190612971565b818102929181159184041417156125f157565b908060209392818452848401375f828201840152601f01601f1916010190565b156129d657565b60405162461bcd60e51b81526020600482015260076024820152664e6f7468696e6760c81b6044820152606490fd5b67ffffffffffffffff811161064f57601f01601f191660200190565b3d15612a4b573d90612a3282612a05565b91612a406040519384612605565b82523d5f602084013e565b606090565b15612a5757565b60405162461bcd60e51b815260206004820152600b60248201526a2737ba1031b932b0ba37b960a91b6044820152606490fd5b919082018092116125f157565b919082039182116125f157565b60038210156115db5701905f90565b90604051918281549182825260208201905f5260205f20925f5b818110612ae25750506126c292500383612605565b84546001600160a01b0316835260019485019487945060209093019201612acd565b15612b0b57565b60405162461bcd60e51b815260206004820152601360248201527224b73b30b634b2103b37ba329037b83a34b7b760691b6044820152606490fd5b91909160038310156115db57601f908360051c01921690565b80548210156115db575f5260205f2001905f90565b60025f805160206131e98339815191525414612b9d5760025f805160206131e983398151915255565b633ee5aeb560e01b5f5260045ffd5b5f546001600160a01b03163303612bbf57565b63118cdaa760e01b5f523360045260245ffd5b6007015460ff16600c8110158061063b57600382148015612c89575b612c83578061063b57600682148015612c77575b612c705761063b5760098114908115612c65575b50612c605760405162461bcd60e51b815260206004820152601e60248201527f4e6f7420766f74696e67206f72206661696c6564206d696c6573746f6e6500006044820152606490fd5b600290565b600a9150145f612c16565b5050600190565b50505f60078214612c02565b50505f90565b50505f60048214612bee565b91612ca381600e8501612aa4565b90549060031b1c612cb78260118601612aa4565b90549060031b1c835f52600460205260405f2054612cd58284612a8a565b9081811115612e3757612ce88282612a97565b915b6064810290808204606414901517156125f157604682028215918382046046148317156125f15710612e2d576064840290848204606414851517156125f1576028830292830460281417156125f1571015612dfb57612d4891612a8a565b10612d5257505050565b601483019160ff612d638385612b46565b90549060031b1c16612dd0576126c293612d99612d8284600196612b46565b819291549060031b9060ff6001831b921b19161790565b9055817fd0e20bc20137f27f0f61ae739e5a5fbcd5839910ab315b4feccb3dcd848c388260408051868152876020820152a2612f49565b606460405162461bcd60e51b8152602060048201526004602482015263446f6e6560e01b6044820152fd5b505050601483019160ff612e0f8385612b46565b90549060031b1c16612dd0576126c293612d99612d82845f96612b46565b5050505050505050565b5f91612cea565b600760ff91015416600c811015908161063b578015918215612e8b575b8215612e7a575b8215612e6d57505090565b90915061063b57600a1490565b80925061063b576007811491612e62565b506004811491505f612e5b565b8015808015612f41575b612f3a57670de0b6b3a7640000820290828204670de0b6b3a76400001417156125f157600181018082116125f15760011c815b828210612f1b575050600182018092116125f157612ef5612efb92613185565b9061299c565b600182018092116125f157612f12612f1892613185565b9061282e565b90565b909150612f3182612f2c818461282e565b612a8a565b60011c90612ed5565b5050505f90565b508215612ea2565b925f905f5b8481106130d657501561304857505080612fb8575060058101546014810290808204601414901517156125f15760078201805460ff1916600517905560649004905b546001600160a01b03165f90815260056020526040902080549091612fb491612a8a565b9055565b600103612ff0576005810154601e810290808204601e14901517156125f15760078201805460ff191660081790556064900490612f90565b60058101546032810290808204603214901517156125f157606490049060078101600b60ff19825416179055600681015460018060a01b038254165f52600560205261304160405f20918254612a8a565b9055612f90565b90926005908361309894155f146130a7575060078101805460ff191660041790555b600681015460018060a01b035f54165f52600660205261308f60405f20918254612a8a565b90550154612a97565b905f52600760205260405f2055565b6001036130c25760078101600760ff1982541617905561306a565b60078101805460ff1916600a17905561306a565b918261310c5760058601546014810290808204601414901517156125f1576001916064613104920490612a8a565b925b01612f4e565b60018303613142576005860154601e810290808204601e14901517156125f157600191606461313c920490612a8a565b92613106565b9160028114613154575b600190613106565b9160058601546032810290808204603214901517156125f157600191606461317d920490612a8a565b92905061314c565b5f905b600181116131b55750670de0b6b3a7640000810290808204670de0b6b3a764000014901517156125f15790565b6131c29060011c916125e3565b9061318856fe58fb02bcfedd338314c70bcf748b4f71a01259cf8956f31b34cb09acf29809cb9b779b17422d0df92223018b32b4d1fa46e071723d6817e2486d003becc55f00a2646970667358221220636f472fc805713902b3a673509743e1bdc1acdbfbab972001051b1f3ac23cde64736f6c634300081a0033",
    "linkReferences": {}
  },
  "methodIdentifiers": {
    "cancelProject(uint256)": "24941147",
    "claimAllRefund()": "af9a81ff",
    "claimCreator()": "232adc65",
    "claimOwner()": "3bd1adec",
    "claimRefund(uint256)": "5b7baf64",
    "claimableCreator(address)": "04f02969",
    "claimableOwner(address)": "b4d63781",
    "createProject(string,string,uint256,uint8,string[3])": "223ecf0d",
    "fund(uint256)": "ca1d209d",
    "getAllClaimableRefund()": "a5bb2c0f",
    "getAllFundingProjects()": "1b745c26",
    "getAllInvestments(uint256)": "e1769b1f",
    "getClaimableCreator()": "744ddcaa",
    "getClaimableOwner()": "275fd95b",
    "getMilestoneDescriptions(uint256)": "f24f5c4c",
    "getMyInvestedProjects()": "0df529b8",
    "getMyVotes(uint256,address)": "e48bfef2",
    "getProjectCore(uint256)": "a948d05f",
    "getProjectMeta(uint256)": "8e98435d",
    "getProjectState(uint256)": "e0155714",
    "getProjectVoting(uint256)": "109ba91c",
    "owner()": "8da5cb5b",
    "projectCount()": "36fbad26",
    "refundClaimed(uint256,address)": "7d8022c0",
    "refundPool(uint256)": "0e8a01bc",
    "renounceOwnership()": "715018a6",
    "snapshotTotalWeight(uint256)": "881dc931",
    "snapshotWeight(uint256,address)": "a325af92",
    "submitMilestone(uint256,string)": "476a119b",
    "transferOwnership(address)": "f2fde38b",
    "vote(uint256,uint8)": "943e8216"
  },
  "id": 25
}